{
  "_format": "hh-sol-artifact-1",
  "contractName": "Election",
  "sourceName": "contracts/Election.sol",
  "abi": [
    {
      "inputs": [],
      "stateMutability": "nonpayable",
      "type": "constructor"
    },
    {
      "anonymous": false,
      "inputs": [
        {
          "indexed": true,
          "internalType": "address",
          "name": "owner",
          "type": "address"
        },
        {
          "indexed": true,
          "internalType": "address",
          "name": "spender",
          "type": "address"
        },
        {
          "indexed": false,
          "internalType": "uint256",
          "name": "value",
          "type": "uint256"
        }
      ],
      "name": "Approval",
      "type": "event"
    },
    {
      "anonymous": false,
      "inputs": [
        {
          "indexed": true,
          "internalType": "address",
          "name": "to",
          "type": "address"
        }
      ],
      "name": "DelegateChairman",
      "type": "event"
    },
    {
      "anonymous": false,
      "inputs": [
        {
          "indexed": true,
          "internalType": "address",
          "name": "from",
          "type": "address"
        },
        {
          "indexed": true,
          "internalType": "address",
          "name": "to",
          "type": "address"
        },
        {
          "indexed": false,
          "internalType": "uint256",
          "name": "value",
          "type": "uint256"
        }
      ],
      "name": "Transfer",
      "type": "event"
    },
    {
      "anonymous": false,
      "inputs": [
        {
          "indexed": false,
          "internalType": "address",
          "name": "voteChoice",
          "type": "address"
        },
        {
          "indexed": false,
          "internalType": "string",
          "name": "Category",
          "type": "string"
        }
      ],
      "name": "Voted",
      "type": "event"
    },
    {
      "inputs": [
        {
          "internalType": "string",
          "name": "_name",
          "type": "string"
        },
        {
          "internalType": "address",
          "name": "_holder",
          "type": "address"
        },
        {
          "internalType": "uint256",
          "name": "_role",
          "type": "uint256"
        }
      ],
      "name": "addStakeHolder",
      "outputs": [],
      "stateMutability": "nonpayable",
      "type": "function"
    },
    {
      "inputs": [
        {
          "internalType": "address",
          "name": "owner",
          "type": "address"
        },
        {
          "internalType": "address",
          "name": "spender",
          "type": "address"
        }
      ],
      "name": "allowance",
      "outputs": [
        {
          "internalType": "uint256",
          "name": "",
          "type": "uint256"
        }
      ],
      "stateMutability": "view",
      "type": "function"
    },
    {
      "inputs": [
        {
          "internalType": "address",
          "name": "spender",
          "type": "address"
        },
        {
          "internalType": "uint256",
          "name": "amount",
          "type": "uint256"
        }
      ],
      "name": "approve",
      "outputs": [
        {
          "internalType": "bool",
          "name": "",
          "type": "bool"
        }
      ],
      "stateMutability": "nonpayable",
      "type": "function"
    },
    {
      "inputs": [
        {
          "internalType": "address",
          "name": "account",
          "type": "address"
        }
      ],
      "name": "balanceOf",
      "outputs": [
        {
          "internalType": "uint256",
          "name": "",
          "type": "uint256"
        }
      ],
      "stateMutability": "view",
      "type": "function"
    },
    {
      "inputs": [
        {
          "internalType": "uint256",
          "name": "boardMemberAmount",
          "type": "uint256"
        },
        {
          "internalType": "uint256",
          "name": "teacherAmount",
          "type": "uint256"
        },
        {
          "internalType": "uint256",
          "name": "studentAmount",
          "type": "uint256"
        }
      ],
      "name": "batchTransferToExistingStakeholders",
      "outputs": [
        {
          "internalType": "bool",
          "name": "transfered",
          "type": "bool"
        }
      ],
      "stateMutability": "nonpayable",
      "type": "function"
    },
    {
      "inputs": [
        {
          "internalType": "address",
          "name": "_addr",
          "type": "address"
        }
      ],
      "name": "boardMemberCheck",
      "outputs": [
        {
          "internalType": "bool",
          "name": "",
          "type": "bool"
        }
      ],
      "stateMutability": "view",
      "type": "function"
    },
    {
      "inputs": [
        {
          "internalType": "address",
          "name": "",
          "type": "address"
        }
      ],
      "name": "candidates",
      "outputs": [
        {
          "internalType": "uint256",
          "name": "id",
          "type": "uint256"
        },
        {
          "internalType": "string",
          "name": "name",
          "type": "string"
        },
        {
          "internalType": "address",
          "name": "contestant",
          "type": "address"
        },
        {
          "internalType": "string",
          "name": "category",
          "type": "string"
        },
        {
          "internalType": "uint256",
          "name": "voteCount",
          "type": "uint256"
        }
      ],
      "stateMutability": "view",
      "type": "function"
    },
    {
      "inputs": [],
      "name": "candidatesCount",
      "outputs": [
        {
          "internalType": "uint256",
          "name": "",
          "type": "uint256"
        }
      ],
      "stateMutability": "view",
      "type": "function"
    },
    {
      "inputs": [
        {
          "internalType": "string",
          "name": "",
          "type": "string"
        }
      ],
      "name": "categorySet",
      "outputs": [
        {
          "internalType": "bool",
          "name": "",
          "type": "bool"
        }
      ],
      "stateMutability": "view",
      "type": "function"
    },
    {
      "inputs": [],
      "name": "chairman",
      "outputs": [
        {
          "internalType": "address",
          "name": "",
          "type": "address"
        }
      ],
      "stateMutability": "view",
      "type": "function"
    },
    {
      "inputs": [],
      "name": "compileVotes",
      "outputs": [
        {
          "internalType": "string[]",
          "name": "",
          "type": "string[]"
        },
        {
          "internalType": "address[]",
          "name": "",
          "type": "address[]"
        },
        {
          "internalType": "uint256[]",
          "name": "",
          "type": "uint256[]"
        }
      ],
      "stateMutability": "view",
      "type": "function"
    },
    {
      "inputs": [
        {
          "internalType": "address",
          "name": "_addr",
          "type": "address"
        }
      ],
      "name": "compilerCheck",
      "outputs": [
        {
          "internalType": "bool",
          "name": "",
          "type": "bool"
        }
      ],
      "stateMutability": "view",
      "type": "function"
    },
    {
      "inputs": [],
      "name": "decimals",
      "outputs": [
        {
          "internalType": "uint8",
          "name": "",
          "type": "uint8"
        }
      ],
      "stateMutability": "view",
      "type": "function"
    },
    {
      "inputs": [
        {
          "internalType": "address",
          "name": "spender",
          "type": "address"
        },
        {
          "internalType": "uint256",
          "name": "subtractedValue",
          "type": "uint256"
        }
      ],
      "name": "decreaseAllowance",
      "outputs": [
        {
          "internalType": "bool",
          "name": "",
          "type": "bool"
        }
      ],
      "stateMutability": "nonpayable",
      "type": "function"
    },
    {
      "inputs": [
        {
          "internalType": "address",
          "name": "newChairman",
          "type": "address"
        }
      ],
      "name": "delegateChairmanship",
      "outputs": [
        {
          "internalType": "bool",
          "name": "changed",
          "type": "bool"
        }
      ],
      "stateMutability": "nonpayable",
      "type": "function"
    },
    {
      "inputs": [
        {
          "internalType": "string",
          "name": "_name",
          "type": "string"
        },
        {
          "internalType": "string",
          "name": "_category",
          "type": "string"
        }
      ],
      "name": "expressInterest",
      "outputs": [
        {
          "internalType": "uint256",
          "name": "",
          "type": "uint256"
        }
      ],
      "stateMutability": "nonpayable",
      "type": "function"
    },
    {
      "inputs": [],
      "name": "getBalance",
      "outputs": [
        {
          "internalType": "uint256",
          "name": "",
          "type": "uint256"
        }
      ],
      "stateMutability": "view",
      "type": "function"
    },
    {
      "inputs": [],
      "name": "getCandidateID",
      "outputs": [
        {
          "internalType": "uint256",
          "name": "",
          "type": "uint256"
        }
      ],
      "stateMutability": "view",
      "type": "function"
    },
    {
      "inputs": [
        {
          "internalType": "address",
          "name": "spender",
          "type": "address"
        },
        {
          "internalType": "uint256",
          "name": "addedValue",
          "type": "uint256"
        }
      ],
      "name": "increaseAllowance",
      "outputs": [
        {
          "internalType": "bool",
          "name": "",
          "type": "bool"
        }
      ],
      "stateMutability": "nonpayable",
      "type": "function"
    },
    {
      "inputs": [],
      "name": "isBoardMember",
      "outputs": [
        {
          "internalType": "bool",
          "name": "",
          "type": "bool"
        }
      ],
      "stateMutability": "view",
      "type": "function"
    },
    {
      "inputs": [],
      "name": "isCompiler",
      "outputs": [
        {
          "internalType": "bool",
          "name": "",
          "type": "bool"
        }
      ],
      "stateMutability": "view",
      "type": "function"
    },
    {
      "inputs": [
        {
          "internalType": "address",
          "name": "",
          "type": "address"
        },
        {
          "internalType": "string",
          "name": "",
          "type": "string"
        }
      ],
      "name": "isContesting",
      "outputs": [
        {
          "internalType": "bool",
          "name": "",
          "type": "bool"
        }
      ],
      "stateMutability": "view",
      "type": "function"
    },
    {
      "inputs": [],
      "name": "isStudent",
      "outputs": [
        {
          "internalType": "bool",
          "name": "",
          "type": "bool"
        }
      ],
      "stateMutability": "view",
      "type": "function"
    },
    {
      "inputs": [],
      "name": "isTeacher",
      "outputs": [
        {
          "internalType": "bool",
          "name": "",
          "type": "bool"
        }
      ],
      "stateMutability": "view",
      "type": "function"
    },
    {
      "inputs": [],
      "name": "name",
      "outputs": [
        {
          "internalType": "string",
          "name": "",
          "type": "string"
        }
      ],
      "stateMutability": "view",
      "type": "function"
    },
    {
      "inputs": [
        {
          "internalType": "address",
          "name": "_candidate",
          "type": "address"
        },
        {
          "internalType": "string",
          "name": "_category",
          "type": "string"
        }
      ],
      "name": "placeVote",
      "outputs": [],
      "stateMutability": "nonpayable",
      "type": "function"
    },
    {
      "inputs": [
        {
          "internalType": "string",
          "name": "",
          "type": "string"
        }
      ],
      "name": "roleEligible",
      "outputs": [
        {
          "internalType": "uint256",
          "name": "",
          "type": "uint256"
        }
      ],
      "stateMutability": "view",
      "type": "function"
    },
    {
      "inputs": [
        {
          "internalType": "string",
          "name": "_category",
          "type": "string"
        },
        {
          "internalType": "uint256",
          "name": "_roleEligible",
          "type": "uint256"
        }
      ],
      "name": "setVotingCategory",
      "outputs": [],
      "stateMutability": "nonpayable",
      "type": "function"
    },
    {
      "inputs": [
        {
          "internalType": "address",
          "name": "",
          "type": "address"
        }
      ],
      "name": "stakeHolderExists",
      "outputs": [
        {
          "internalType": "bool",
          "name": "",
          "type": "bool"
        }
      ],
      "stateMutability": "view",
      "type": "function"
    },
    {
      "inputs": [],
      "name": "stakeHoldersCount",
      "outputs": [
        {
          "internalType": "uint256",
          "name": "",
          "type": "uint256"
        }
      ],
      "stateMutability": "view",
      "type": "function"
    },
    {
      "inputs": [
        {
          "internalType": "uint256",
          "name": "",
          "type": "uint256"
        }
      ],
      "name": "stakeholderList",
      "outputs": [
        {
          "internalType": "address",
          "name": "",
          "type": "address"
        }
      ],
      "stateMutability": "view",
      "type": "function"
    },
    {
      "inputs": [
        {
          "internalType": "address",
          "name": "",
          "type": "address"
        }
      ],
      "name": "stakeholders",
      "outputs": [
        {
          "internalType": "uint256",
          "name": "id",
          "type": "uint256"
        },
        {
          "internalType": "string",
          "name": "name",
          "type": "string"
        },
        {
          "internalType": "address",
          "name": "holder",
          "type": "address"
        },
        {
          "internalType": "uint256",
          "name": "role",
          "type": "uint256"
        }
      ],
      "stateMutability": "view",
      "type": "function"
    },
    {
      "inputs": [
        {
          "internalType": "uint256",
          "name": "_electionDuration",
          "type": "uint256"
        }
      ],
      "name": "startElection",
      "outputs": [],
      "stateMutability": "nonpayable",
      "type": "function"
    },
    {
      "inputs": [
        {
          "internalType": "uint256",
          "name": "_showInterestDuration",
          "type": "uint256"
        }
      ],
      "name": "startShowInterest",
      "outputs": [],
      "stateMutability": "nonpayable",
      "type": "function"
    },
    {
      "inputs": [
        {
          "internalType": "address",
          "name": "_addr",
          "type": "address"
        }
      ],
      "name": "studentshipCheck",
      "outputs": [
        {
          "internalType": "bool",
          "name": "",
          "type": "bool"
        }
      ],
      "stateMutability": "view",
      "type": "function"
    },
    {
      "inputs": [],
      "name": "symbol",
      "outputs": [
        {
          "internalType": "string",
          "name": "",
          "type": "string"
        }
      ],
      "stateMutability": "view",
      "type": "function"
    },
    {
      "inputs": [
        {
          "internalType": "address",
          "name": "_addr",
          "type": "address"
        }
      ],
      "name": "teacherCheck",
      "outputs": [
        {
          "internalType": "bool",
          "name": "",
          "type": "bool"
        }
      ],
      "stateMutability": "view",
      "type": "function"
    },
    {
      "inputs": [],
      "name": "timeLeft",
      "outputs": [
        {
          "internalType": "uint256",
          "name": "",
          "type": "uint256"
        }
      ],
      "stateMutability": "view",
      "type": "function"
    },
    {
      "inputs": [],
      "name": "timeLefttoShowInterest",
      "outputs": [
        {
          "internalType": "uint256",
          "name": "",
          "type": "uint256"
        }
      ],
      "stateMutability": "view",
      "type": "function"
    },
    {
      "inputs": [],
      "name": "totalSupply",
      "outputs": [
        {
          "internalType": "uint256",
          "name": "",
          "type": "uint256"
        }
      ],
      "stateMutability": "view",
      "type": "function"
    },
    {
      "inputs": [
        {
          "internalType": "address",
          "name": "to",
          "type": "address"
        },
        {
          "internalType": "uint256",
          "name": "amount",
          "type": "uint256"
        }
      ],
      "name": "transfer",
      "outputs": [
        {
          "internalType": "bool",
          "name": "",
          "type": "bool"
        }
      ],
      "stateMutability": "nonpayable",
      "type": "function"
    },
    {
      "inputs": [
        {
          "internalType": "address",
          "name": "from",
          "type": "address"
        },
        {
          "internalType": "address",
          "name": "to",
          "type": "address"
        },
        {
          "internalType": "uint256",
          "name": "amount",
          "type": "uint256"
        }
      ],
      "name": "transferFrom",
      "outputs": [
        {
          "internalType": "bool",
          "name": "",
          "type": "bool"
        }
      ],
      "stateMutability": "nonpayable",
      "type": "function"
    },
    {
      "inputs": [
        {
          "internalType": "uint256",
          "name": "",
          "type": "uint256"
        }
      ],
      "name": "voteCategory",
      "outputs": [
        {
          "internalType": "string",
          "name": "",
          "type": "string"
        }
      ],
      "stateMutability": "view",
      "type": "function"
    },
    {
      "inputs": [
        {
          "internalType": "uint256",
          "name": "",
          "type": "uint256"
        }
      ],
      "name": "votedFor",
      "outputs": [
        {
          "internalType": "address",
          "name": "",
          "type": "address"
        }
      ],
      "stateMutability": "view",
      "type": "function"
    },
    {
      "inputs": [
        {
          "internalType": "address",
          "name": "",
          "type": "address"
        },
        {
          "internalType": "string",
          "name": "",
          "type": "string"
        }
      ],
      "name": "voters",
      "outputs": [
        {
          "internalType": "bool",
          "name": "",
          "type": "bool"
        }
      ],
      "stateMutability": "view",
      "type": "function"
    }
  ],
  "bytecode": "0x60806040526001600c556000600d556002600e556001601b60016101000a81548160ff0219169083151502179055503480156200003b57600080fd5b506040518060400160405280600981526020017f5a757269546f6b656e00000000000000000000000000000000000000000000008152506040518060400160405280600381526020017f5a455400000000000000000000000000000000000000000000000000000000008152508160039080519060200190620000c0929190620002c3565b508060049080519060200190620000d9929190620002c3565b505050620000f9336a108b2a2c280290940000006200014060201b60201c565b33600560006101000a81548173ffffffffffffffffffffffffffffffffffffffff021916908373ffffffffffffffffffffffffffffffffffffffff1602179055506200051f565b600073ffffffffffffffffffffffffffffffffffffffff168273ffffffffffffffffffffffffffffffffffffffff161415620001b3576040517f08c379a0000000000000000000000000000000000000000000000000000000008152600401620001aa90620003ab565b60405180910390fd5b620001c760008383620002b960201b60201c565b8060026000828254620001db9190620003fb565b92505081905550806000808473ffffffffffffffffffffffffffffffffffffffff1673ffffffffffffffffffffffffffffffffffffffff1681526020019081526020016000206000828254620002329190620003fb565b925050819055508173ffffffffffffffffffffffffffffffffffffffff16600073ffffffffffffffffffffffffffffffffffffffff167fddf252ad1be2c89b69c2b068fc378daa952ba7f163c4a11628f55a4df523b3ef83604051620002999190620003cd565b60405180910390a3620002b560008383620002be60201b60201c565b5050565b505050565b505050565b828054620002d19062000462565b90600052602060002090601f016020900481019282620002f5576000855562000341565b82601f106200031057805160ff191683800117855562000341565b8280016001018555821562000341579182015b828111156200034057825182559160200191906001019062000323565b5b50905062000350919062000354565b5090565b5b808211156200036f57600081600090555060010162000355565b5090565b600062000382601f83620003ea565b91506200038f82620004f6565b602082019050919050565b620003a58162000458565b82525050565b60006020820190508181036000830152620003c68162000373565b9050919050565b6000602082019050620003e460008301846200039a565b92915050565b600082825260208201905092915050565b6000620004088262000458565b9150620004158362000458565b9250827fffffffffffffffffffffffffffffffffffffffffffffffffffffffffffffffff038211156200044d576200044c62000498565b5b828201905092915050565b6000819050919050565b600060028204905060018216806200047b57607f821691505b60208210811415620004925762000491620004c7565b5b50919050565b7f4e487b7100000000000000000000000000000000000000000000000000000000600052601160045260246000fd5b7f4e487b7100000000000000000000000000000000000000000000000000000000600052602260045260246000fd5b7f45524332303a206d696e7420746f20746865207a65726f206164647265737300600082015250565b6155b5806200052f6000396000f3fe608060405234801561001057600080fd5b506004361061027f5760003560e01c806370a082311161015c578063bfe162ce116100ce578063dd62ed3e11610087578063dd62ed3e1461087f578063e18b487a146108af578063e320f576146108df578063e8dcc5581461090f578063f262571a1461093f578063fac65f971461095d5761027f565b8063bfe162ce14610780578063c07cfca9146107b0578063c3e0e164146107e3578063c64a4bad14610813578063c90aa2b414610831578063cae9fbca1461084f5761027f565b80639ac4643d116101205780639ac4643d14610686578063a457c2d7146106a2578063a4d10597146106d2578063a9059cbb146106f0578063b1f013fb14610720578063b1f5086e146107505761027f565b806370a08231146105ca57806387f7b975146105fa5780638ab66a901461061857806395d89b411461064c57806398b1df7e1461066a5761027f565b8063313ce567116101f557806355f74295116101b957806355f74295146104f657806358c0978d146105125780635c1b7f07146105425780635ea976bf1461056057806369c389d01461057e5780636d32dc4b146105ae5761027f565b8063313ce5671461042a57806339509351146104485780633d1563a91461047857806351e0a6eb146104a857806353de7eb1146104c65761027f565b80631312fa92116102475780631312fa921461033e57806318160ddd1461036e57806320be2a851461038c57806322c75d2f146103ac57806323b872dd146103dc5780632d35a8a21461040c5761027f565b806301b243551461028457806306fdde03146102b4578063095ea7b3146102d257806312065fe0146103025780631300a6d114610320575b600080fd5b61029e60048036038101906102999190613953565b610979565b6040516102ab919061443b565b60405180910390f35b6102bc6109da565b6040516102c99190614456565b60405180910390f35b6102ec60048036038101906102e79190613ab3565b610a6c565b6040516102f9919061443b565b60405180910390f35b61030a610a8f565b6040516103179190614838565b60405180910390f35b610328610a9f565b6040516103359190614838565b60405180910390f35b61035860048036038101906103539190613c64565b610ac6565b60405161036591906143a2565b60405180910390f35b610376610b05565b6040516103839190614838565b60405180910390f35b610394610b0f565b6040516103a3939291906143ef565b60405180910390f35b6103c660048036038101906103c19190613953565b61101b565b6040516103d3919061443b565b60405180910390f35b6103f660048036038101906103f191906139b8565b61107c565b604051610403919061443b565b60405180910390f35b6104146110ab565b6040516104219190614838565b60405180910390f35b6104326110b1565b60405161043f9190614900565b60405180910390f35b610462600480360381019061045d9190613ab3565b6110ba565b60405161046f919061443b565b60405180910390f35b610492600480360381019061048d9190613c64565b611164565b60405161049f9190614456565b60405180910390f35b6104b0611210565b6040516104bd919061443b565b60405180910390f35b6104e060048036038101906104db9190613c8d565b61126f565b6040516104ed919061443b565b60405180910390f35b610510600480360381019061050b9190613c64565b61155b565b005b61052c60048036038101906105279190613953565b611624565b604051610539919061443b565b60405180910390f35b61054a6116d3565b604051610557919061443b565b60405180910390f35b610568611732565b604051610575919061443b565b60405180910390f35b61059860048036038101906105939190613bbc565b6117df565b6040516105a5919061443b565b60405180910390f35b6105c860048036038101906105c39190613c64565b611815565b005b6105e460048036038101906105df9190613953565b6118de565b6040516105f19190614838565b60405180910390f35b610602611926565b60405161060f91906143a2565b60405180910390f35b610632600480360381019061062d9190613953565b61194c565b604051610643959493929190614853565b60405180910390f35b610654611ab2565b6040516106619190614456565b60405180910390f35b610684600480360381019061067f9190613b64565b611b44565b005b6106a0600480360381019061069b9190613a07565b611c75565b005b6106bc60048036038101906106b79190613ab3565b612230565b6040516106c9919061443b565b60405180910390f35b6106da61231a565b6040516106e79190614838565b60405180910390f35b61070a60048036038101906107059190613ab3565b612341565b604051610717919061443b565b60405180910390f35b61073a60048036038101906107359190613aef565b612364565b6040516107479190614838565b60405180910390f35b61076a60048036038101906107659190613953565b61292a565b604051610777919061443b565b60405180910390f35b61079a60048036038101906107959190613953565b61294a565b6040516107a7919061443b565b60405180910390f35b6107ca60048036038101906107c59190613953565b6129ab565b6040516107da94939291906148b4565b60405180910390f35b6107fd60048036038101906107f89190613953565b612a83565b60405161080a919061443b565b60405180910390f35b61081b612d43565b604051610828919061443b565b60405180910390f35b610839612da2565b6040516108469190614838565b60405180910390f35b61086960048036038101906108649190613bbc565b612da8565b6040516108769190614838565b60405180910390f35b6108996004803603810190610894919061397c565b612dd6565b6040516108a69190614838565b60405180910390f35b6108c960048036038101906108c49190613a5f565b612e5d565b6040516108d6919061443b565b60405180910390f35b6108f960048036038101906108f49190613c64565b612ea2565b60405161090691906143a2565b60405180910390f35b61092960048036038101906109249190613a5f565b612ee1565b604051610936919061443b565b60405180910390f35b610947612f26565b6040516109549190614838565b60405180910390f35b61097760048036038101906109729190613bfd565b612f70565b005b6000600d54601760008473ffffffffffffffffffffffffffffffffffffffff1673ffffffffffffffffffffffffffffffffffffffff1681526020019081526020016000206003015414156109d057600190506109d5565b600090505b919050565b6060600380546109e990614bcf565b80601f0160208091040260200160405190810160405280929190818152602001828054610a1590614bcf565b8015610a625780601f10610a3757610100808354040283529160200191610a62565b820191906000526020600020905b815481529060010190602001808311610a4557829003601f168201915b5050505050905090565b600080610a77613264565b9050610a8481858561326c565b600191505092915050565b6000610a9a336118de565b905090565b6000426007541015610ab2576000610ac1565b42600754610ac09190614b04565b5b905090565b60148181548110610ad657600080fd5b906000526020600020016000915054906101000a900473ffffffffffffffffffffffffffffffffffffffff1681565b6000600254905090565b606080606060011515610b20611732565b151514610b62576040517f08c379a0000000000000000000000000000000000000000000000000000000008152600401610b59906146f8565b60405180910390fd5b6000610b6c610a9f565b1115610bad576040517f08c379a0000000000000000000000000000000000000000000000000000000008152600401610ba4906147f8565b60405180910390fd5b6000601480549050905060008167ffffffffffffffff811115610bf9577f4e487b7100000000000000000000000000000000000000000000000000000000600052604160045260246000fd5b604051908082528060200260200182016040528015610c2c57816020015b6060815260200190600190039081610c175790505b50905060008267ffffffffffffffff811115610c71577f4e487b7100000000000000000000000000000000000000000000000000000000600052604160045260246000fd5b604051908082528060200260200182016040528015610c9f5781602001602082028036833780820191505090505b50905060008367ffffffffffffffff811115610ce4577f4e487b7100000000000000000000000000000000000000000000000000000000600052604160045260246000fd5b604051908082528060200260200182016040528015610d125781602001602082028036833780820191505090505b50905060005b8481101561100857600060148281548110610d5c577f4e487b7100000000000000000000000000000000000000000000000000000000600052603260045260246000fd5b9060005260206000200160009054906101000a900473ffffffffffffffffffffffffffffffffffffffff169050601560008273ffffffffffffffffffffffffffffffffffffffff1673ffffffffffffffffffffffffffffffffffffffff1681526020019081526020016000206003018054610dd690614bcf565b80601f0160208091040260200160405190810160405280929190818152602001828054610e0290614bcf565b8015610e4f5780601f10610e2457610100808354040283529160200191610e4f565b820191906000526020600020905b815481529060010190602001808311610e3257829003601f168201915b5050505050858381518110610e8d577f4e487b7100000000000000000000000000000000000000000000000000000000600052603260045260246000fd5b6020026020010181905250601560008273ffffffffffffffffffffffffffffffffffffffff1673ffffffffffffffffffffffffffffffffffffffff16815260200190815260200160002060020160009054906101000a900473ffffffffffffffffffffffffffffffffffffffff16848381518110610f34577f4e487b7100000000000000000000000000000000000000000000000000000000600052603260045260246000fd5b602002602001019073ffffffffffffffffffffffffffffffffffffffff16908173ffffffffffffffffffffffffffffffffffffffff1681525050601560008273ffffffffffffffffffffffffffffffffffffffff1673ffffffffffffffffffffffffffffffffffffffff16815260200190815260200160002060040154838381518110610fea577f4e487b7100000000000000000000000000000000000000000000000000000000600052603260045260246000fd5b602002602001018181525050508061100190614c32565b9050610d18565b5082828296509650965050505050909192565b6000600c54601760008473ffffffffffffffffffffffffffffffffffffffff1673ffffffffffffffffffffffffffffffffffffffff1681526020019081526020016000206003015414156110725760019050611077565b600090505b919050565b600080611087613264565b9050611094858285613437565b61109f8585856134c3565b60019150509392505050565b60165481565b60006012905090565b6000806110c5613264565b9050611159818585600160008673ffffffffffffffffffffffffffffffffffffffff1673ffffffffffffffffffffffffffffffffffffffff16815260200190815260200160002060008973ffffffffffffffffffffffffffffffffffffffff1673ffffffffffffffffffffffffffffffffffffffff168152602001908152602001600020546111549190614a54565b61326c565b600191505092915050565b600f818154811061117457600080fd5b90600052602060002001600091509050805461118f90614bcf565b80601f01602080910402602001604051908101604052809291908181526020018280546111bb90614bcf565b80156112085780601f106111dd57610100808354040283529160200191611208565b820191906000526020600020905b8154815290600101906020018083116111eb57829003601f168201915b505050505081565b6000600e54601760003373ffffffffffffffffffffffffffffffffffffffff1673ffffffffffffffffffffffffffffffffffffffff168152602001908152602001600020600301541415611267576001905061126c565b600090505b90565b6000600560009054906101000a900473ffffffffffffffffffffffffffffffffffffffff1673ffffffffffffffffffffffffffffffffffffffff163373ffffffffffffffffffffffffffffffffffffffff1614611301576040517f08c379a00000000000000000000000000000000000000000000000000000000081526004016112f890614678565b60405180910390fd5b60005b60128054905081101561154f57600073ffffffffffffffffffffffffffffffffffffffff1660128281548110611363577f4e487b7100000000000000000000000000000000000000000000000000000000600052603260045260246000fd5b9060005260206000200160009054906101000a900473ffffffffffffffffffffffffffffffffffffffff1673ffffffffffffffffffffffffffffffffffffffff1614156113e5576040517f08c379a00000000000000000000000000000000000000000000000000000000081526004016113dc906147b8565b60405180910390fd5b60c8601280549050111561142e576040517f08c379a0000000000000000000000000000000000000000000000000000000008152600401611425906144d8565b60405180910390fd5b60006012828154811061146a577f4e487b7100000000000000000000000000000000000000000000000000000000600052603260045260246000fd5b9060005260206000200160009054906101000a900473ffffffffffffffffffffffffffffffffffffffff169050600115156114a482610979565b151514156114cf576114c981670de0b6b3a7640000886114c49190614aaa565b612341565b5061153d565b600115156114dc8261101b565b151514156115075761150181670de0b6b3a7640000876114fc9190614aaa565b612341565b5061153c565b600115156115148261294a565b1515141561153b5761153981670de0b6b3a7640000866115349190614aaa565b612341565b505b5b5b508061154890614c32565b9050611304565b50600190509392505050565b600560009054906101000a900473ffffffffffffffffffffffffffffffffffffffff1673ffffffffffffffffffffffffffffffffffffffff163373ffffffffffffffffffffffffffffffffffffffff16146115eb576040517f08c379a00000000000000000000000000000000000000000000000000000000081526004016115e290614678565b60405180910390fd5b42600981905550600954816116009190614a54565b600a819055506000601b60006101000a81548160ff02191690831515021790555050565b6000600c54601760008473ffffffffffffffffffffffffffffffffffffffff1673ffffffffffffffffffffffffffffffffffffffff1681526020019081526020016000206003015414806116bb5750600d54601760008473ffffffffffffffffffffffffffffffffffffffff1673ffffffffffffffffffffffffffffffffffffffff16815260200190815260200160002060030154145b156116c957600190506116ce565b600090505b919050565b6000600d54601760003373ffffffffffffffffffffffffffffffffffffffff1673ffffffffffffffffffffffffffffffffffffffff16815260200190815260200160002060030154141561172a576001905061172f565b600090505b90565b6000600d54601760003373ffffffffffffffffffffffffffffffffffffffff1673ffffffffffffffffffffffffffffffffffffffff1681526020019081526020016000206003015414806117c95750600c54601760003373ffffffffffffffffffffffffffffffffffffffff1673ffffffffffffffffffffffffffffffffffffffff16815260200190815260200160002060030154145b156117d757600190506117dc565b600090505b90565b6010818051602081018201805184825260208301602085012081835280955050505050506000915054906101000a900460ff1681565b600560009054906101000a900473ffffffffffffffffffffffffffffffffffffffff1673ffffffffffffffffffffffffffffffffffffffff163373ffffffffffffffffffffffffffffffffffffffff16146118a5576040517f08c379a000000000000000000000000000000000000000000000000000000000815260040161189c90614678565b60405180910390fd5b42600681905550600654816118ba9190614a54565b6007819055506001601b60006101000a81548160ff02191690831515021790555050565b60008060008373ffffffffffffffffffffffffffffffffffffffff1673ffffffffffffffffffffffffffffffffffffffff168152602001908152602001600020549050919050565b600560009054906101000a900473ffffffffffffffffffffffffffffffffffffffff1681565b601560205280600052604060002060009150905080600001549080600101805461197590614bcf565b80601f01602080910402602001604051908101604052809291908181526020018280546119a190614bcf565b80156119ee5780601f106119c3576101008083540402835291602001916119ee565b820191906000526020600020905b8154815290600101906020018083116119d157829003601f168201915b5050505050908060020160009054906101000a900473ffffffffffffffffffffffffffffffffffffffff1690806003018054611a2990614bcf565b80601f0160208091040260200160405190810160405280929190818152602001828054611a5590614bcf565b8015611aa25780601f10611a7757610100808354040283529160200191611aa2565b820191906000526020600020905b815481529060010190602001808311611a8557829003601f168201915b5050505050908060040154905085565b606060048054611ac190614bcf565b80601f0160208091040260200160405190810160405280929190818152602001828054611aed90614bcf565b8015611b3a5780601f10611b0f57610100808354040283529160200191611b3a565b820191906000526020600020905b815481529060010190602001808311611b1d57829003601f168201915b5050505050905090565b600560009054906101000a900473ffffffffffffffffffffffffffffffffffffffff1673ffffffffffffffffffffffffffffffffffffffff163373ffffffffffffffffffffffffffffffffffffffff1614611bd4576040517f08c379a0000000000000000000000000000000000000000000000000000000008152600401611bcb90614678565b60405180910390fd5b600f838390918060018154018082558091505060019003906000526020600020016000909192909192909192909192509190611c1192919061374e565b50600160108484604051611c26929190614389565b908152602001604051809103902060006101000a81548160ff02191690831515021790555080601c8484604051611c5e929190614389565b908152602001604051809103902081905550505050565b60011515601960003373ffffffffffffffffffffffffffffffffffffffff1673ffffffffffffffffffffffffffffffffffffffff16815260200190815260200160002060009054906101000a900460ff16151514611d08576040517f08c379a0000000000000000000000000000000000000000000000000000000008152600401611cff906145d8565b60405180910390fd5b60011515601b60009054906101000a900460ff16151514611d5e576040517f08c379a0000000000000000000000000000000000000000000000000000000008152600401611d55906146b8565b60405180910390fd5b6001151560108383604051611d74929190614389565b908152602001604051809103902060009054906101000a900460ff16151514611dd2576040517f08c379a0000000000000000000000000000000000000000000000000000000008152600401611dc990614758565b60405180910390fd5b6000611ddc610a9f565b11611e1c576040517f08c379a0000000000000000000000000000000000000000000000000000000008152600401611e1390614658565b60405180910390fd5b601360003373ffffffffffffffffffffffffffffffffffffffff1673ffffffffffffffffffffffffffffffffffffffff1681526020019081526020016000208282604051611e6b929190614389565b908152602001604051809103902060009054906101000a900460ff1615611ec7576040517f08c379a0000000000000000000000000000000000000000000000000000000008152600401611ebe90614558565b60405180910390fd5b60011515601a60008573ffffffffffffffffffffffffffffffffffffffff1673ffffffffffffffffffffffffffffffffffffffff1681526020019081526020016000208383604051611f1a929190614389565b908152602001604051809103902060009054906101000a900460ff16151514611f78576040517f08c379a0000000000000000000000000000000000000000000000000000000008152600401611f6f906145f8565b60405180910390fd5b611fad600560009054906101000a900473ffffffffffffffffffffffffffffffffffffffff166802b5e3af16b1880000612341565b611fec576040517f08c379a0000000000000000000000000000000000000000000000000000000008152600401611fe3906146d8565b60405180910390fd5b6001601360003373ffffffffffffffffffffffffffffffffffffffff1673ffffffffffffffffffffffffffffffffffffffff168152602001908152602001600020838360405161203d929190614389565b908152602001604051809103902060006101000a81548160ff021916908315150217905550601560008473ffffffffffffffffffffffffffffffffffffffff1673ffffffffffffffffffffffffffffffffffffffff16815260200190815260200160002060040160008154809291906120b590614c32565b919050555082601560008573ffffffffffffffffffffffffffffffffffffffff1673ffffffffffffffffffffffffffffffffffffffff16815260200190815260200160002060020160006101000a81548173ffffffffffffffffffffffffffffffffffffffff021916908373ffffffffffffffffffffffffffffffffffffffff1602179055508181601560008673ffffffffffffffffffffffffffffffffffffffff1673ffffffffffffffffffffffffffffffffffffffff168152602001908152602001600020600301919061218c92919061374e565b506014839080600181540180825580915050600190039060005260206000200160009091909190916101000a81548173ffffffffffffffffffffffffffffffffffffffff021916908373ffffffffffffffffffffffffffffffffffffffff1602179055507fcb6783276e8a4347387036bbfea000268f0a4b1f8c46ac79980609f2af8d2acd838383604051612223939291906143bd565b60405180910390a1505050565b60008061223b613264565b90506000600160008373ffffffffffffffffffffffffffffffffffffffff1673ffffffffffffffffffffffffffffffffffffffff16815260200190815260200160002060008673ffffffffffffffffffffffffffffffffffffffff1673ffffffffffffffffffffffffffffffffffffffff16815260200190815260200160002054905083811015612301576040517f08c379a00000000000000000000000000000000000000000000000000000000081526004016122f890614818565b60405180910390fd5b61230e828686840361326c565b60019250505092915050565b600042600a54101561232d57600061233c565b42600a5461233b9190614b04565b5b905090565b60008061234c613264565b90506123598185856134c3565b600191505092915050565b600060011515601960003373ffffffffffffffffffffffffffffffffffffffff1673ffffffffffffffffffffffffffffffffffffffff16815260200190815260200160002060009054906101000a900460ff161515146123f9576040517f08c379a00000000000000000000000000000000000000000000000000000000081526004016123f0906145d8565b60405180910390fd5b600061240361231a565b11612443576040517f08c379a000000000000000000000000000000000000000000000000000000000815260040161243a90614778565b60405180910390fd5b6001151560108484604051612459929190614389565b908152602001604051809103902060009054906101000a900460ff161515146124b7576040517f08c379a00000000000000000000000000000000000000000000000000000000081526004016124ae906145b8565b60405180910390fd5b601c83836040516124c9929190614389565b908152602001604051809103902054601760003373ffffffffffffffffffffffffffffffffffffffff1673ffffffffffffffffffffffffffffffffffffffff168152602001908152602001600020600301541461255b576040517f08c379a000000000000000000000000000000000000000000000000000000000815260040161255290614738565b60405180910390fd5b600073ffffffffffffffffffffffffffffffffffffffff163373ffffffffffffffffffffffffffffffffffffffff1614156125cb576040517f08c379a00000000000000000000000000000000000000000000000000000000081526004016125c290614618565b60405180910390fd5b60001515601a60003373ffffffffffffffffffffffffffffffffffffffff1673ffffffffffffffffffffffffffffffffffffffff168152602001908152602001600020848460405161261e929190614389565b908152602001604051809103902060009054906101000a900460ff1615151461267c576040517f08c379a000000000000000000000000000000000000000000000000000000000815260040161267390614518565b60405180910390fd5b6126b1600560009054906101000a900473ffffffffffffffffffffffffffffffffffffffff16680821ab0d4414980000612341565b6126f0576040517f08c379a00000000000000000000000000000000000000000000000000000000081526004016126e790614638565b60405180910390fd5b6016600081548092919061270390614c32565b91905055506040518060a00160405280601654815260200186868080601f016020809104026020016040519081016040528093929190818152602001838380828437600081840152601f19601f8201169050808301925050505050505081526020013373ffffffffffffffffffffffffffffffffffffffff16815260200184848080601f016020809104026020016040519081016040528093929190818152602001838380828437600081840152601f19601f8201169050808301925050505050505081526020016000815250601560003373ffffffffffffffffffffffffffffffffffffffff1673ffffffffffffffffffffffffffffffffffffffff1681526020019081526020016000206000820151816000015560208201518160010190805190602001906128359291906137d4565b5060408201518160020160006101000a81548173ffffffffffffffffffffffffffffffffffffffff021916908373ffffffffffffffffffffffffffffffffffffffff16021790555060608201518160030190805190602001906128999291906137d4565b50608082015181600401559050506001601a60003373ffffffffffffffffffffffffffffffffffffffff1673ffffffffffffffffffffffffffffffffffffffff16815260200190815260200160002084846040516128f8929190614389565b908152602001604051809103902060006101000a81548160ff0219169083151502179055506016549050949350505050565b60196020528060005260406000206000915054906101000a900460ff1681565b6000600e54601760008473ffffffffffffffffffffffffffffffffffffffff1673ffffffffffffffffffffffffffffffffffffffff1681526020019081526020016000206003015414156129a157600190506129a6565b600090505b919050565b60176020528060005260406000206000915090508060000154908060010180546129d490614bcf565b80601f0160208091040260200160405190810160405280929190818152602001828054612a0090614bcf565b8015612a4d5780601f10612a2257610100808354040283529160200191612a4d565b820191906000526020600020905b815481529060010190602001808311612a3057829003601f168201915b5050505050908060020160009054906101000a900473ffffffffffffffffffffffffffffffffffffffff16908060030154905084565b6000600560009054906101000a900473ffffffffffffffffffffffffffffffffffffffff1673ffffffffffffffffffffffffffffffffffffffff163373ffffffffffffffffffffffffffffffffffffffff1614612b15576040517f08c379a0000000000000000000000000000000000000000000000000000000008152600401612b0c90614678565b60405180910390fd5b60011515601960008473ffffffffffffffffffffffffffffffffffffffff1673ffffffffffffffffffffffffffffffffffffffff16815260200190815260200160002060009054906101000a900460ff16151514612ba8576040517f08c379a0000000000000000000000000000000000000000000000000000000008152600401612b9f90614538565b60405180910390fd5b60011515612bb583611624565b151514612bf7576040517f08c379a0000000000000000000000000000000000000000000000000000000008152600401612bee90614718565b60405180910390fd5b60001515612c048361294a565b151514612c46576040517f08c379a0000000000000000000000000000000000000000000000000000000008152600401612c3d90614698565b60405180910390fd5b600073ffffffffffffffffffffffffffffffffffffffff168273ffffffffffffffffffffffffffffffffffffffff161415612cb6576040517f08c379a0000000000000000000000000000000000000000000000000000000008152600401612cad906144b8565b60405180910390fd5b81600560006101000a81548173ffffffffffffffffffffffffffffffffffffffff021916908373ffffffffffffffffffffffffffffffffffffffff1602179055508173ffffffffffffffffffffffffffffffffffffffff167f61329b2927c7b239a1a15dcc92e9d85129956c1fde887e4cc2dc9bad7662ddac60405160405180910390a260019050919050565b6000600c54601760003373ffffffffffffffffffffffffffffffffffffffff1673ffffffffffffffffffffffffffffffffffffffff168152602001908152602001600020600301541415612d9a5760019050612d9f565b600090505b90565b60185481565b6011818051602081018201805184825260208301602085012081835280955050505050506000915090505481565b6000600160008473ffffffffffffffffffffffffffffffffffffffff1673ffffffffffffffffffffffffffffffffffffffff16815260200190815260200160002060008373ffffffffffffffffffffffffffffffffffffffff1673ffffffffffffffffffffffffffffffffffffffff16815260200190815260200160002054905092915050565b6013602052816000526040600020818051602081018201805184825260208301602085012081835280955050505050506000915091509054906101000a900460ff1681565b60128181548110612eb257600080fd5b906000526020600020016000915054906101000a900473ffffffffffffffffffffffffffffffffffffffff1681565b601a602052816000526040600020818051602081018201805184825260208301602085012081835280955050505050506000915091509054906101000a900460ff1681565b6000601560003373ffffffffffffffffffffffffffffffffffffffff1673ffffffffffffffffffffffffffffffffffffffff16815260200190815260200160002060000154905090565b600560009054906101000a900473ffffffffffffffffffffffffffffffffffffffff1673ffffffffffffffffffffffffffffffffffffffff163373ffffffffffffffffffffffffffffffffffffffff1614613000576040517f08c379a0000000000000000000000000000000000000000000000000000000008152600401612ff790614678565b60405180910390fd5b60001515601960008473ffffffffffffffffffffffffffffffffffffffff1673ffffffffffffffffffffffffffffffffffffffff16815260200190815260200160002060009054906101000a900460ff16151514613093576040517f08c379a000000000000000000000000000000000000000000000000000000000815260040161308a90614498565b60405180910390fd5b601860008154809291906130a690614c32565b91905055506000604051806080016040528060185481526020018581526020018473ffffffffffffffffffffffffffffffffffffffff16815260200183815250905080601760008573ffffffffffffffffffffffffffffffffffffffff1673ffffffffffffffffffffffffffffffffffffffff16815260200190815260200160002060008201518160000155602082015181600101908051906020019061314e9291906137d4565b5060408201518160020160006101000a81548173ffffffffffffffffffffffffffffffffffffffff021916908373ffffffffffffffffffffffffffffffffffffffff160217905550606082015181600301559050506001601960008573ffffffffffffffffffffffffffffffffffffffff1673ffffffffffffffffffffffffffffffffffffffff16815260200190815260200160002060006101000a81548160ff0219169083151502179055506012839080600181540180825580915050600190039060005260206000200160009091909190916101000a81548173ffffffffffffffffffffffffffffffffffffffff021916908373ffffffffffffffffffffffffffffffffffffffff16021790555050505050565b600033905090565b600073ffffffffffffffffffffffffffffffffffffffff168373ffffffffffffffffffffffffffffffffffffffff1614156132dc576040517f08c379a00000000000000000000000000000000000000000000000000000000081526004016132d3906147d8565b60405180910390fd5b600073ffffffffffffffffffffffffffffffffffffffff168273ffffffffffffffffffffffffffffffffffffffff16141561334c576040517f08c379a0000000000000000000000000000000000000000000000000000000008152600401613343906144f8565b60405180910390fd5b80600160008573ffffffffffffffffffffffffffffffffffffffff1673ffffffffffffffffffffffffffffffffffffffff16815260200190815260200160002060008473ffffffffffffffffffffffffffffffffffffffff1673ffffffffffffffffffffffffffffffffffffffff168152602001908152602001600020819055508173ffffffffffffffffffffffffffffffffffffffff168373ffffffffffffffffffffffffffffffffffffffff167f8c5be1e5ebec7d5bd14f71427d1e84f3dd0314c0f7b2291e5b200ac8c7c3b9258360405161342a9190614838565b60405180910390a3505050565b60006134438484612dd6565b90507fffffffffffffffffffffffffffffffffffffffffffffffffffffffffffffffff81146134bd57818110156134af576040517f08c379a00000000000000000000000000000000000000000000000000000000081526004016134a690614578565b60405180910390fd5b6134bc848484840361326c565b5b50505050565b600073ffffffffffffffffffffffffffffffffffffffff168373ffffffffffffffffffffffffffffffffffffffff161415613533576040517f08c379a000000000000000000000000000000000000000000000000000000000815260040161352a90614798565b60405180910390fd5b600073ffffffffffffffffffffffffffffffffffffffff168273ffffffffffffffffffffffffffffffffffffffff1614156135a3576040517f08c379a000000000000000000000000000000000000000000000000000000000815260040161359a90614478565b60405180910390fd5b6135ae838383613744565b60008060008573ffffffffffffffffffffffffffffffffffffffff1673ffffffffffffffffffffffffffffffffffffffff16815260200190815260200160002054905081811015613634576040517f08c379a000000000000000000000000000000000000000000000000000000000815260040161362b90614598565b60405180910390fd5b8181036000808673ffffffffffffffffffffffffffffffffffffffff1673ffffffffffffffffffffffffffffffffffffffff16815260200190815260200160002081905550816000808573ffffffffffffffffffffffffffffffffffffffff1673ffffffffffffffffffffffffffffffffffffffff16815260200190815260200160002060008282546136c79190614a54565b925050819055508273ffffffffffffffffffffffffffffffffffffffff168473ffffffffffffffffffffffffffffffffffffffff167fddf252ad1be2c89b69c2b068fc378daa952ba7f163c4a11628f55a4df523b3ef8460405161372b9190614838565b60405180910390a361373e848484613749565b50505050565b505050565b505050565b82805461375a90614bcf565b90600052602060002090601f01602090048101928261377c57600085556137c3565b82601f1061379557803560ff19168380011785556137c3565b828001600101855582156137c3579182015b828111156137c25782358255916020019190600101906137a7565b5b5090506137d0919061385a565b5090565b8280546137e090614bcf565b90600052602060002090601f0160209004810192826138025760008555613849565b82601f1061381b57805160ff1916838001178555613849565b82800160010185558215613849579182015b8281111561384857825182559160200191906001019061382d565b5b509050613856919061385a565b5090565b5b8082111561387357600081600090555060010161385b565b5090565b600061388a61388584614940565b61491b565b9050828152602081018484840111156138a257600080fd5b6138ad848285614b8d565b509392505050565b6000813590506138c481615551565b92915050565b60008083601f8401126138dc57600080fd5b8235905067ffffffffffffffff8111156138f557600080fd5b60208301915083600182028301111561390d57600080fd5b9250929050565b600082601f83011261392557600080fd5b8135613935848260208601613877565b91505092915050565b60008135905061394d81615568565b92915050565b60006020828403121561396557600080fd5b6000613973848285016138b5565b91505092915050565b6000806040838503121561398f57600080fd5b600061399d858286016138b5565b92505060206139ae858286016138b5565b9150509250929050565b6000806000606084860312156139cd57600080fd5b60006139db868287016138b5565b93505060206139ec868287016138b5565b92505060406139fd8682870161393e565b9150509250925092565b600080600060408486031215613a1c57600080fd5b6000613a2a868287016138b5565b935050602084013567ffffffffffffffff811115613a4757600080fd5b613a53868287016138ca565b92509250509250925092565b60008060408385031215613a7257600080fd5b6000613a80858286016138b5565b925050602083013567ffffffffffffffff811115613a9d57600080fd5b613aa985828601613914565b9150509250929050565b60008060408385031215613ac657600080fd5b6000613ad4858286016138b5565b9250506020613ae58582860161393e565b9150509250929050565b60008060008060408587031215613b0557600080fd5b600085013567ffffffffffffffff811115613b1f57600080fd5b613b2b878288016138ca565b9450945050602085013567ffffffffffffffff811115613b4a57600080fd5b613b56878288016138ca565b925092505092959194509250565b600080600060408486031215613b7957600080fd5b600084013567ffffffffffffffff811115613b9357600080fd5b613b9f868287016138ca565b93509350506020613bb28682870161393e565b9150509250925092565b600060208284031215613bce57600080fd5b600082013567ffffffffffffffff811115613be857600080fd5b613bf484828501613914565b91505092915050565b600080600060608486031215613c1257600080fd5b600084013567ffffffffffffffff811115613c2c57600080fd5b613c3886828701613914565b9350506020613c49868287016138b5565b9250506040613c5a8682870161393e565b9150509250925092565b600060208284031215613c7657600080fd5b6000613c848482850161393e565b91505092915050565b600080600060608486031215613ca257600080fd5b6000613cb08682870161393e565b9350506020613cc18682870161393e565b9250506040613cd28682870161393e565b9150509250925092565b6000613ce88383613d20565b60208301905092915050565b6000613d008383613ed0565b905092915050565b6000613d14838361435c565b60208301905092915050565b613d2981614b38565b82525050565b613d3881614b38565b82525050565b6000613d49826149a1565b613d5381856149f4565b9350613d5e83614971565b8060005b83811015613d8f578151613d768882613cdc565b9750613d81836149cd565b925050600181019050613d62565b5085935050505092915050565b6000613da7826149ac565b613db18185614a05565b935083602082028501613dc385614981565b8060005b85811015613dff5784840389528151613de08582613cf4565b9450613deb836149da565b925060208a01995050600181019050613dc7565b50829750879550505050505092915050565b6000613e1c826149b7565b613e268185614a16565b9350613e3183614991565b8060005b83811015613e62578151613e498882613d08565b9750613e54836149e7565b925050600181019050613e35565b5085935050505092915050565b613e7881614b4a565b82525050565b6000613e8a8385614a38565b9350613e97838584614b8d565b613ea083614d08565b840190509392505050565b6000613eb78385614a49565b9350613ec4838584614b8d565b82840190509392505050565b6000613edb826149c2565b613ee58185614a27565b9350613ef5818560208601614b9c565b613efe81614d08565b840191505092915050565b6000613f14826149c2565b613f1e8185614a38565b9350613f2e818560208601614b9c565b613f3781614d08565b840191505092915050565b6000613f4f602383614a38565b9150613f5a82614d19565b604082019050919050565b6000613f72602583614a38565b9150613f7d82614d68565b604082019050919050565b6000613f95600f83614a38565b9150613fa082614db7565b602082019050919050565b6000613fb8602483614a38565b9150613fc382614de0565b604082019050919050565b6000613fdb602283614a38565b9150613fe682614e2f565b604082019050919050565b6000613ffe603083614a38565b915061400982614e7e565b604082019050919050565b6000614021602683614a38565b915061402c82614ecd565b604082019050919050565b6000614044602783614a38565b915061404f82614f1c565b604082019050919050565b6000614067601d83614a38565b915061407282614f6b565b602082019050919050565b600061408a602683614a38565b915061409582614f94565b604082019050919050565b60006140ad602483614a38565b91506140b882614fe3565b604082019050919050565b60006140d0601a83614a38565b91506140db82615032565b602082019050919050565b60006140f3602183614a38565b91506140fe8261505b565b604082019050919050565b6000614116600f83614a38565b9150614121826150aa565b602082019050919050565b6000614139603083614a38565b9150614144826150d3565b604082019050919050565b600061415c601083614a38565b915061416782615122565b602082019050919050565b600061417f602b83614a38565b915061418a8261514b565b604082019050919050565b60006141a2603983614a38565b91506141ad8261519a565b604082019050919050565b60006141c5601783614a38565b91506141d0826151e9565b602082019050919050565b60006141e8602483614a38565b91506141f382615212565b604082019050919050565b600061420b602983614a38565b915061421682615261565b604082019050919050565b600061422e604283614a38565b9150614239826152b0565b606082019050919050565b6000614251602583614a38565b915061425c82615325565b604082019050919050565b6000614274603b83614a38565b915061427f82615374565b604082019050919050565b6000614297603683614a38565b91506142a2826153c3565b604082019050919050565b60006142ba602583614a38565b91506142c582615412565b604082019050919050565b60006142dd600f83614a38565b91506142e882615461565b602082019050919050565b6000614300602483614a38565b915061430b8261548a565b604082019050919050565b6000614323601983614a38565b915061432e826154d9565b602082019050919050565b6000614346602583614a38565b915061435182615502565b604082019050919050565b61436581614b76565b82525050565b61437481614b76565b82525050565b61438381614b80565b82525050565b6000614396828486613eab565b91508190509392505050565b60006020820190506143b76000830184613d2f565b92915050565b60006040820190506143d26000830186613d2f565b81810360208301526143e5818486613e7e565b9050949350505050565b600060608201905081810360008301526144098186613d9c565b9050818103602083015261441d8185613d3e565b905081810360408301526144318184613e11565b9050949350505050565b60006020820190506144506000830184613e6f565b92915050565b600060208201905081810360008301526144708184613f09565b905092915050565b6000602082019050818103600083015261449181613f42565b9050919050565b600060208201905081810360008301526144b181613f65565b9050919050565b600060208201905081810360008301526144d181613f88565b9050919050565b600060208201905081810360008301526144f181613fab565b9050919050565b6000602082019050818103600083015261451181613fce565b9050919050565b6000602082019050818103600083015261453181613ff1565b9050919050565b6000602082019050818103600083015261455181614014565b9050919050565b6000602082019050818103600083015261457181614037565b9050919050565b600060208201905081810360008301526145918161405a565b9050919050565b600060208201905081810360008301526145b18161407d565b9050919050565b600060208201905081810360008301526145d1816140a0565b9050919050565b600060208201905081810360008301526145f1816140c3565b9050919050565b60006020820190508181036000830152614611816140e6565b9050919050565b6000602082019050818103600083015261463181614109565b9050919050565b600060208201905081810360008301526146518161412c565b9050919050565b600060208201905081810360008301526146718161414f565b9050919050565b6000602082019050818103600083015261469181614172565b9050919050565b600060208201905081810360008301526146b181614195565b9050919050565b600060208201905081810360008301526146d1816141b8565b9050919050565b600060208201905081810360008301526146f1816141db565b9050919050565b60006020820190508181036000830152614711816141fe565b9050919050565b6000602082019050818103600083015261473181614221565b9050919050565b6000602082019050818103600083015261475181614244565b9050919050565b6000602082019050818103600083015261477181614267565b9050919050565b600060208201905081810360008301526147918161428a565b9050919050565b600060208201905081810360008301526147b1816142ad565b9050919050565b600060208201905081810360008301526147d1816142d0565b9050919050565b600060208201905081810360008301526147f1816142f3565b9050919050565b6000602082019050818103600083015261481181614316565b9050919050565b6000602082019050818103600083015261483181614339565b9050919050565b600060208201905061484d600083018461436b565b92915050565b600060a082019050614868600083018861436b565b818103602083015261487a8187613f09565b90506148896040830186613d2f565b818103606083015261489b8185613f09565b90506148aa608083018461436b565b9695505050505050565b60006080820190506148c9600083018761436b565b81810360208301526148db8186613f09565b90506148ea6040830185613d2f565b6148f7606083018461436b565b95945050505050565b6000602082019050614915600083018461437a565b92915050565b6000614925614936565b90506149318282614c01565b919050565b6000604051905090565b600067ffffffffffffffff82111561495b5761495a614cd9565b5b61496482614d08565b9050602081019050919050565b6000819050602082019050919050565b6000819050602082019050919050565b6000819050602082019050919050565b600081519050919050565b600081519050919050565b600081519050919050565b600081519050919050565b6000602082019050919050565b6000602082019050919050565b6000602082019050919050565b600082825260208201905092915050565b600082825260208201905092915050565b600082825260208201905092915050565b600082825260208201905092915050565b600082825260208201905092915050565b600081905092915050565b6000614a5f82614b76565b9150614a6a83614b76565b9250827fffffffffffffffffffffffffffffffffffffffffffffffffffffffffffffffff03821115614a9f57614a9e614c7b565b5b828201905092915050565b6000614ab582614b76565b9150614ac083614b76565b9250817fffffffffffffffffffffffffffffffffffffffffffffffffffffffffffffffff0483118215151615614af957614af8614c7b565b5b828202905092915050565b6000614b0f82614b76565b9150614b1a83614b76565b925082821015614b2d57614b2c614c7b565b5b828203905092915050565b6000614b4382614b56565b9050919050565b60008115159050919050565b600073ffffffffffffffffffffffffffffffffffffffff82169050919050565b6000819050919050565b600060ff82169050919050565b82818337600083830152505050565b60005b83811015614bba578082015181840152602081019050614b9f565b83811115614bc9576000848401525b50505050565b60006002820490506001821680614be757607f821691505b60208210811415614bfb57614bfa614caa565b5b50919050565b614c0a82614d08565b810181811067ffffffffffffffff82111715614c2957614c28614cd9565b5b80604052505050565b6000614c3d82614b76565b91507fffffffffffffffffffffffffffffffffffffffffffffffffffffffffffffffff821415614c7057614c6f614c7b565b5b600182019050919050565b7f4e487b7100000000000000000000000000000000000000000000000000000000600052601160045260246000fd5b7f4e487b7100000000000000000000000000000000000000000000000000000000600052602260045260246000fd5b7f4e487b7100000000000000000000000000000000000000000000000000000000600052604160045260246000fd5b6000601f19601f8301169050919050565b7f45524332303a207472616e7366657220746f20746865207a65726f206164647260008201527f6573730000000000000000000000000000000000000000000000000000000000602082015250565b7f54686973206164647265737320697320616c72656164792061207374616b656860008201527f6f6c646572000000000000000000000000000000000000000000000000000000602082015250565b7f496e76616c696420616464726573730000000000000000000000000000000000600082015250565b7f65786365656473206e756d626572206f6620616c6c6f7765642061646472657360008201527f7365737300000000000000000000000000000000000000000000000000000000602082015250565b7f45524332303a20617070726f766520746f20746865207a65726f20616464726560008201527f7373000000000000000000000000000000000000000000000000000000000000602082015250565b7f596f75206861766520616c72656164792073686f776e20696e7465726573742060008201527f696e207468697320706f736974696f6e00000000000000000000000000000000602082015250565b7f546869732061646472657373206973206e6f74207374616b65686f6c6465722060008201527f617420616c6c0000000000000000000000000000000000000000000000000000602082015250565b7f596f75206861766520616c726561647920766f74656420696e2074686973206360008201527f617465676f727900000000000000000000000000000000000000000000000000602082015250565b7f45524332303a20696e73756666696369656e7420616c6c6f77616e6365000000600082015250565b7f45524332303a207472616e7366657220616d6f756e742065786365656473206260008201527f616c616e63650000000000000000000000000000000000000000000000000000602082015250565b7f566f74696e672043617465676f727920686173206e6f74206265656e2073657460008201527f2079657400000000000000000000000000000000000000000000000000000000602082015250565b7f4f6e6c792061207374616b65686f6c64657220646f2074686973000000000000600082015250565b7f496e76616c696420616464726573733a204e6f74206120636f6e74657374616e60008201527f7400000000000000000000000000000000000000000000000000000000000000602082015250565b7f696e76616c696420616464726573730000000000000000000000000000000000600082015250565b7f596f7520646f6e2774206861766520656e6f75676820746f6b656e7320746f2060008201527f6578707265737320696e74657265737400000000000000000000000000000000602082015250565b7f566f74696e672068617320656e64656400000000000000000000000000000000600082015250565b7f4f6e6c79207468652063686169726d616e2063616e20706572666f726d20746860008201527f69732066756e6374696f6e000000000000000000000000000000000000000000602082015250565b7f43686169726d616e7368697020726f6c652063616e2774206265206772616e7460008201527f6564203a20556e617574686f7269736564206164647265737300000000000000602082015250565b7f456c656374696f6e206861736e27742073746172746564000000000000000000600082015250565b7f596f7520646f6e2774206861766520656e6f75676820746f6b656e7320746f2060008201527f766f746500000000000000000000000000000000000000000000000000000000602082015250565b7f4f6e6c79206120636f6d70696c65722063616e20706572666f726d207468697360008201527f2066756e6374696f6e0000000000000000000000000000000000000000000000602082015250565b7f43686169726d616e7368697020726f6c652063616e2774206265206772616e7460008201527f6564203a204e6f7420612074656163686572206f7220626f617264206d656d6260208201527f6572000000000000000000000000000000000000000000000000000000000000604082015250565b7f4e6f7420656c696769626c6520746f20636f6e7465737420666f72207468697360008201527f20726f6c65000000000000000000000000000000000000000000000000000000602082015250565b7f566f74696e6720666f7220746869732063617465676f72792077696c6c206e6f60008201527f742062652074616b696e6720706c616365207269676874206e6f770000000000602082015250565b7f54696d652075703a205468697320706f736974696f6e206973206e6f206d6f7260008201527f6520616363657074696e672063616e6469646174657300000000000000000000602082015250565b7f45524332303a207472616e736665722066726f6d20746865207a65726f20616460008201527f6472657373000000000000000000000000000000000000000000000000000000602082015250565b7f496e76616c696420416464726573730000000000000000000000000000000000600082015250565b7f45524332303a20617070726f76652066726f6d20746865207a65726f2061646460008201527f7265737300000000000000000000000000000000000000000000000000000000602082015250565b7f456c656374696f6e206973207374696c6c206f6e676f696e6700000000000000600082015250565b7f45524332303a2064656372656173656420616c6c6f77616e63652062656c6f7760008201527f207a65726f000000000000000000000000000000000000000000000000000000602082015250565b61555a81614b38565b811461556557600080fd5b50565b61557181614b76565b811461557c57600080fd5b5056fea2646970667358221220a81e1dd943e81f643a0823153976110520b945a895e2418a3903e4c12f7af64764736f6c63430008040033",
  "linkReferences": {},
  "deployedLinkReferences": {}
}