{
    "_format": "hh-sol-artifact-1",
    "contractName": "Election",
    "sourceName": "contracts/Election.sol",
    "abi": [
        {
            "inputs": [],
            "stateMutability": "nonpayable",
            "type": "constructor"
        },
        {
            "anonymous": false,
            "inputs": [
                {
                    "indexed": true,
                    "internalType": "address",
                    "name": "owner",
                    "type": "address"
                },
                {
                    "indexed": true,
                    "internalType": "address",
                    "name": "spender",
                    "type": "address"
                },
                {
                    "indexed": false,
                    "internalType": "uint256",
                    "name": "value",
                    "type": "uint256"
                }
            ],
            "name": "Approval",
            "type": "event"
        },
        {
            "anonymous": false,
            "inputs": [
                {
                    "indexed": true,
                    "internalType": "address",
                    "name": "to",
                    "type": "address"
                }
            ],
            "name": "DelegateChairman",
            "type": "event"
        },
        {
            "anonymous": false,
            "inputs": [
                {
                    "indexed": true,
                    "internalType": "address",
                    "name": "from",
                    "type": "address"
                },
                {
                    "indexed": true,
                    "internalType": "address",
                    "name": "to",
                    "type": "address"
                },
                {
                    "indexed": false,
                    "internalType": "uint256",
                    "name": "value",
                    "type": "uint256"
                }
            ],
            "name": "Transfer",
            "type": "event"
        },
        {
            "anonymous": false,
            "inputs": [
                {
                    "indexed": false,
                    "internalType": "address",
                    "name": "voter",
                    "type": "address"
                }
            ],
            "name": "Voted",
            "type": "event"
        },
        {
            "inputs": [],
            "name": "BoardOfDirectors",
            "outputs": [
                {
                    "internalType": "address",
                    "name": "",
                    "type": "address"
                }
            ],
            "stateMutability": "view",
            "type": "function"
        },
        {
            "inputs": [],
            "name": "Teacher",
            "outputs": [
                {
                    "internalType": "address",
                    "name": "",
                    "type": "address"
                }
            ],
            "stateMutability": "view",
            "type": "function"
        },
        {
            "inputs": [
                {
                    "internalType": "string",
                    "name": "_name",
                    "type": "string"
                },
                {
                    "internalType": "address",
                    "name": "_holder",
                    "type": "address"
                },
                {
                    "internalType": "uint256",
                    "name": "_role",
                    "type": "uint256"
                }
            ],
            "name": "addStakeHolder",
            "outputs": [],
            "stateMutability": "nonpayable",
            "type": "function"
        },
        {
            "inputs": [
                {
                    "internalType": "address",
                    "name": "",
                    "type": "address"
                }
            ],
            "name": "allVotes",
            "outputs": [
                {
                    "internalType": "address",
                    "name": "voteChoice",
                    "type": "address"
                },
                {
                    "internalType": "uint256",
                    "name": "count",
                    "type": "uint256"
                }
            ],
            "stateMutability": "view",
            "type": "function"
        },
        {
            "inputs": [
                {
                    "internalType": "address",
                    "name": "owner",
                    "type": "address"
                },
                {
                    "internalType": "address",
                    "name": "spender",
                    "type": "address"
                }
            ],
            "name": "allowance",
            "outputs": [
                {
                    "internalType": "uint256",
                    "name": "",
                    "type": "uint256"
                }
            ],
            "stateMutability": "view",
            "type": "function"
        },
        {
            "inputs": [
                {
                    "internalType": "address",
                    "name": "spender",
                    "type": "address"
                },
                {
                    "internalType": "uint256",
                    "name": "amount",
                    "type": "uint256"
                }
            ],
            "name": "approve",
            "outputs": [
                {
                    "internalType": "bool",
                    "name": "",
                    "type": "bool"
                }
            ],
            "stateMutability": "nonpayable",
            "type": "function"
        },
        {
            "inputs": [
                {
                    "internalType": "address",
                    "name": "account",
                    "type": "address"
                }
            ],
            "name": "balanceOf",
            "outputs": [
                {
                    "internalType": "uint256",
                    "name": "",
                    "type": "uint256"
                }
            ],
            "stateMutability": "view",
            "type": "function"
        },
        {
            "inputs": [
                {
                    "internalType": "uint256",
                    "name": "boardMemberAmount",
                    "type": "uint256"
                },
                {
                    "internalType": "uint256",
                    "name": "teacherAmount",
                    "type": "uint256"
                },
                {
                    "internalType": "uint256",
                    "name": "studentAmount",
                    "type": "uint256"
                }
            ],
            "name": "batchTransfer",
            "outputs": [
                {
                    "internalType": "bool",
                    "name": "transfered",
                    "type": "bool"
                }
            ],
            "stateMutability": "nonpayable",
            "type": "function"
        },
        {
            "inputs": [
                {
                    "internalType": "address",
                    "name": "_addr",
                    "type": "address"
                }
            ],
            "name": "boardMemberCheck",
            "outputs": [
                {
                    "internalType": "bool",
                    "name": "",
                    "type": "bool"
                }
            ],
            "stateMutability": "view",
            "type": "function"
        },
        {
            "inputs": [
                {
                    "internalType": "address",
                    "name": "",
                    "type": "address"
                }
            ],
            "name": "candidates",
            "outputs": [
                {
                    "internalType": "uint256",
                    "name": "id",
                    "type": "uint256"
                },
                {
                    "internalType": "string",
                    "name": "name",
                    "type": "string"
                },
                {
                    "internalType": "address",
                    "name": "contestant",
                    "type": "address"
                },
                {
                    "internalType": "string",
                    "name": "positionContesting",
                    "type": "string"
                },
                {
                    "internalType": "uint256",
                    "name": "voteCount",
                    "type": "uint256"
                }
            ],
            "stateMutability": "view",
            "type": "function"
        },
        {
            "inputs": [],
            "name": "candidatesCount",
            "outputs": [
                {
                    "internalType": "uint256",
                    "name": "",
                    "type": "uint256"
                }
            ],
            "stateMutability": "view",
            "type": "function"
        },
        {
            "inputs": [],
            "name": "chairman",
            "outputs": [
                {
                    "internalType": "address",
                    "name": "",
                    "type": "address"
                }
            ],
            "stateMutability": "view",
            "type": "function"
        },
        {
            "inputs": [],
            "name": "compileVotes",
            "outputs": [
                {
                    "internalType": "address[]",
                    "name": "",
                    "type": "address[]"
                },
                {
                    "internalType": "uint256[]",
                    "name": "",
                    "type": "uint256[]"
                }
            ],
            "stateMutability": "view",
            "type": "function"
        },
        {
            "inputs": [
                {
                    "internalType": "address",
                    "name": "_addr",
                    "type": "address"
                }
            ],
            "name": "compilerCheck",
            "outputs": [
                {
                    "internalType": "bool",
                    "name": "",
                    "type": "bool"
                }
            ],
            "stateMutability": "view",
            "type": "function"
        },
        {
            "inputs": [],
            "name": "compilers",
            "outputs": [
                {
                    "internalType": "address",
                    "name": "",
                    "type": "address"
                }
            ],
            "stateMutability": "view",
            "type": "function"
        },
        {
            "inputs": [
                {
                    "internalType": "address",
                    "name": "",
                    "type": "address"
                }
            ],
            "name": "contestant",
            "outputs": [
                {
                    "internalType": "uint256",
                    "name": "",
                    "type": "uint256"
                }
            ],
            "stateMutability": "view",
            "type": "function"
        },
        {
            "inputs": [],
            "name": "decimals",
            "outputs": [
                {
                    "internalType": "uint8",
                    "name": "",
                    "type": "uint8"
                }
            ],
            "stateMutability": "view",
            "type": "function"
        },
        {
            "inputs": [
                {
                    "internalType": "address",
                    "name": "spender",
                    "type": "address"
                },
                {
                    "internalType": "uint256",
                    "name": "subtractedValue",
                    "type": "uint256"
                }
            ],
            "name": "decreaseAllowance",
            "outputs": [
                {
                    "internalType": "bool",
                    "name": "",
                    "type": "bool"
                }
            ],
            "stateMutability": "nonpayable",
            "type": "function"
        },
        {
            "inputs": [
                {
                    "internalType": "address",
                    "name": "newChairman",
                    "type": "address"
                }
            ],
            "name": "delegateChairmanship",
            "outputs": [
                {
                    "internalType": "bool",
                    "name": "changed",
                    "type": "bool"
                }
            ],
            "stateMutability": "nonpayable",
            "type": "function"
        },
        {
            "inputs": [
                {
                    "internalType": "string",
                    "name": "_name",
                    "type": "string"
                },
                {
                    "internalType": "string",
                    "name": "_positionContesting",
                    "type": "string"
                }
            ],
            "name": "expressInterest",
            "outputs": [
                {
                    "internalType": "uint256",
                    "name": "",
                    "type": "uint256"
                }
            ],
            "stateMutability": "nonpayable",
            "type": "function"
        },
        {
            "inputs": [],
            "name": "getCandidateID",
            "outputs": [
                {
                    "internalType": "uint256",
                    "name": "",
                    "type": "uint256"
                }
            ],
            "stateMutability": "view",
            "type": "function"
        },
        {
            "inputs": [
                {
                    "internalType": "address",
                    "name": "spender",
                    "type": "address"
                },
                {
                    "internalType": "uint256",
                    "name": "addedValue",
                    "type": "uint256"
                }
            ],
            "name": "increaseAllowance",
            "outputs": [
                {
                    "internalType": "bool",
                    "name": "",
                    "type": "bool"
                }
            ],
            "stateMutability": "nonpayable",
            "type": "function"
        },
        {
            "inputs": [],
            "name": "isBoardMember",
            "outputs": [
                {
                    "internalType": "bool",
                    "name": "",
                    "type": "bool"
                }
            ],
            "stateMutability": "view",
            "type": "function"
        },
        {
            "inputs": [],
            "name": "isCompiler",
            "outputs": [
                {
                    "internalType": "bool",
                    "name": "",
                    "type": "bool"
                }
            ],
            "stateMutability": "view",
            "type": "function"
        },
        {
            "inputs": [
                {
                    "internalType": "address",
                    "name": "",
                    "type": "address"
                },
                {
                    "internalType": "string",
                    "name": "",
                    "type": "string"
                }
            ],
            "name": "isContesting",
            "outputs": [
                {
                    "internalType": "bool",
                    "name": "",
                    "type": "bool"
                }
            ],
            "stateMutability": "view",
            "type": "function"
        },
        {
            "inputs": [],
            "name": "isStudent",
            "outputs": [
                {
                    "internalType": "bool",
                    "name": "",
                    "type": "bool"
                }
            ],
            "stateMutability": "view",
            "type": "function"
        },
        {
            "inputs": [],
            "name": "isTeacher",
            "outputs": [
                {
                    "internalType": "bool",
                    "name": "",
                    "type": "bool"
                }
            ],
            "stateMutability": "view",
            "type": "function"
        },
        {
            "inputs": [],
            "name": "name",
            "outputs": [
                {
                    "internalType": "string",
                    "name": "",
                    "type": "string"
                }
            ],
            "stateMutability": "view",
            "type": "function"
        },
        {
            "inputs": [
                {
                    "internalType": "address",
                    "name": "_candidate",
                    "type": "address"
                },
                {
                    "internalType": "string",
                    "name": "_category",
                    "type": "string"
                }
            ],
            "name": "placeVote",
            "outputs": [],
            "stateMutability": "nonpayable",
            "type": "function"
        },
        {
            "inputs": [
                {
                    "internalType": "uint256",
                    "name": "_electionDuration",
                    "type": "uint256"
                }
            ],
            "name": "setElectionDuration",
            "outputs": [],
            "stateMutability": "nonpayable",
            "type": "function"
        },
        {
            "inputs": [],
            "name": "showInterest",
            "outputs": [
                {
                    "internalType": "uint256",
                    "name": "",
                    "type": "uint256"
                }
            ],
            "stateMutability": "view",
            "type": "function"
        },
        {
            "inputs": [
                {
                    "internalType": "address",
                    "name": "",
                    "type": "address"
                }
            ],
            "name": "stakeHolderExists",
            "outputs": [
                {
                    "internalType": "bool",
                    "name": "",
                    "type": "bool"
                }
            ],
            "stateMutability": "view",
            "type": "function"
        },
        {
            "inputs": [],
            "name": "stakeHoldersCount",
            "outputs": [
                {
                    "internalType": "uint256",
                    "name": "",
                    "type": "uint256"
                }
            ],
            "stateMutability": "view",
            "type": "function"
        },
        {
            "inputs": [
                {
                    "internalType": "uint256",
                    "name": "",
                    "type": "uint256"
                }
            ],
            "name": "stakeholderList",
            "outputs": [
                {
                    "internalType": "address",
                    "name": "",
                    "type": "address"
                }
            ],
            "stateMutability": "view",
            "type": "function"
        },
        {
            "inputs": [
                {
                    "internalType": "address",
                    "name": "",
                    "type": "address"
                }
            ],
            "name": "stakeholders",
            "outputs": [
                {
                    "internalType": "uint256",
                    "name": "id",
                    "type": "uint256"
                },
                {
                    "internalType": "string",
                    "name": "name",
                    "type": "string"
                },
                {
                    "internalType": "address",
                    "name": "holder",
                    "type": "address"
                },
                {
                    "internalType": "uint256",
                    "name": "role",
                    "type": "uint256"
                }
            ],
            "stateMutability": "view",
            "type": "function"
        },
        {
            "inputs": [],
            "name": "startElection",
            "outputs": [],
            "stateMutability": "nonpayable",
            "type": "function"
        },
        {
            "inputs": [],
            "name": "students",
            "outputs": [
                {
                    "internalType": "address",
                    "name": "",
                    "type": "address"
                }
            ],
            "stateMutability": "view",
            "type": "function"
        },
        {
            "inputs": [
                {
                    "internalType": "address",
                    "name": "_addr",
                    "type": "address"
                }
            ],
            "name": "studentshipCheck",
            "outputs": [
                {
                    "internalType": "bool",
                    "name": "",
                    "type": "bool"
                }
            ],
            "stateMutability": "view",
            "type": "function"
        },
        {
            "inputs": [],
            "name": "symbol",
            "outputs": [
                {
                    "internalType": "string",
                    "name": "",
                    "type": "string"
                }
            ],
            "stateMutability": "view",
            "type": "function"
        },
        {
            "inputs": [
                {
                    "internalType": "address",
                    "name": "_addr",
                    "type": "address"
                }
            ],
            "name": "teacherCheck",
            "outputs": [
                {
                    "internalType": "bool",
                    "name": "",
                    "type": "bool"
                }
            ],
            "stateMutability": "view",
            "type": "function"
        },
        {
            "inputs": [],
            "name": "timeLeft",
            "outputs": [
                {
                    "internalType": "uint256",
                    "name": "",
                    "type": "uint256"
                }
            ],
            "stateMutability": "view",
            "type": "function"
        },
        {
            "inputs": [],
            "name": "totalSupply",
            "outputs": [
                {
                    "internalType": "uint256",
                    "name": "",
                    "type": "uint256"
                }
            ],
            "stateMutability": "view",
            "type": "function"
        },
        {
            "inputs": [
                {
                    "internalType": "address",
                    "name": "to",
                    "type": "address"
                },
                {
                    "internalType": "uint256",
                    "name": "amount",
                    "type": "uint256"
                }
            ],
            "name": "transfer",
            "outputs": [
                {
                    "internalType": "bool",
                    "name": "",
                    "type": "bool"
                }
            ],
            "stateMutability": "nonpayable",
            "type": "function"
        },
        {
            "inputs": [
                {
                    "internalType": "address",
                    "name": "from",
                    "type": "address"
                },
                {
                    "internalType": "address",
                    "name": "to",
                    "type": "address"
                },
                {
                    "internalType": "uint256",
                    "name": "amount",
                    "type": "uint256"
                }
            ],
            "name": "transferFrom",
            "outputs": [
                {
                    "internalType": "bool",
                    "name": "",
                    "type": "bool"
                }
            ],
            "stateMutability": "nonpayable",
            "type": "function"
        },
        {
            "inputs": [
                {
                    "internalType": "uint256",
                    "name": "",
                    "type": "uint256"
                }
            ],
            "name": "votedFor",
            "outputs": [
                {
                    "internalType": "address",
                    "name": "",
                    "type": "address"
                }
            ],
            "stateMutability": "view",
            "type": "function"
        },
        {
            "inputs": [
                {
                    "internalType": "address",
                    "name": "",
                    "type": "address"
                },
                {
                    "internalType": "string",
                    "name": "",
                    "type": "string"
                }
            ],
            "name": "voters",
            "outputs": [
                {
                    "internalType": "bool",
                    "name": "",
                    "type": "bool"
                }
            ],
            "stateMutability": "view",
            "type": "function"
        },
        {
            "inputs": [
                {
                    "internalType": "uint256",
                    "name": "",
                    "type": "uint256"
                }
            ],
            "name": "votesss",
            "outputs": [
                {
                    "internalType": "address",
                    "name": "voteChoice",
                    "type": "address"
                },
                {
                    "internalType": "uint256",
                    "name": "count",
                    "type": "uint256"
                }
            ],
            "stateMutability": "view",
            "type": "function"
        }
    ],
    "bytecode": "0x60806040526001600d556000600e556002600f5560f0426200002291906200040d565b6010556001601d60016101000a81548160ff0219169083151502179055503480156200004d57600080fd5b506040518060400160405280600981526020017f5a757269546f6b656e00000000000000000000000000000000000000000000008152506040518060400160405280600381526020017f5a455400000000000000000000000000000000000000000000000000000000008152508160039080519060200190620000d2929190620002d5565b508060049080519060200190620000eb929190620002d5565b5050506200010b336a108b2a2c280290940000006200015260201b60201c565b33600560006101000a81548173ffffffffffffffffffffffffffffffffffffffff021916908373ffffffffffffffffffffffffffffffffffffffff16021790555062000531565b600073ffffffffffffffffffffffffffffffffffffffff168273ffffffffffffffffffffffffffffffffffffffff161415620001c5576040517f08c379a0000000000000000000000000000000000000000000000000000000008152600401620001bc90620003bd565b60405180910390fd5b620001d960008383620002cb60201b60201c565b8060026000828254620001ed91906200040d565b92505081905550806000808473ffffffffffffffffffffffffffffffffffffffff1673ffffffffffffffffffffffffffffffffffffffff16815260200190815260200160002060008282546200024491906200040d565b925050819055508173ffffffffffffffffffffffffffffffffffffffff16600073ffffffffffffffffffffffffffffffffffffffff167fddf252ad1be2c89b69c2b068fc378daa952ba7f163c4a11628f55a4df523b3ef83604051620002ab9190620003df565b60405180910390a3620002c760008383620002d060201b60201c565b5050565b505050565b505050565b828054620002e39062000474565b90600052602060002090601f01602090048101928262000307576000855562000353565b82601f106200032257805160ff191683800117855562000353565b8280016001018555821562000353579182015b828111156200035257825182559160200191906001019062000335565b5b50905062000362919062000366565b5090565b5b808211156200038157600081600090555060010162000367565b5090565b600062000394601f83620003fc565b9150620003a18262000508565b602082019050919050565b620003b7816200046a565b82525050565b60006020820190508181036000830152620003d88162000385565b9050919050565b6000602082019050620003f66000830184620003ac565b92915050565b600082825260208201905092915050565b60006200041a826200046a565b915062000427836200046a565b9250827fffffffffffffffffffffffffffffffffffffffffffffffffffffffffffffffff038211156200045f576200045e620004aa565b5b828201905092915050565b6000819050919050565b600060028204905060018216806200048d57607f821691505b60208210811415620004a457620004a3620004d9565b5b50919050565b7f4e487b7100000000000000000000000000000000000000000000000000000000600052601160045260246000fd5b7f4e487b7100000000000000000000000000000000000000000000000000000000600052602260045260246000fd5b7f45524332303a206d696e7420746f20746865207a65726f206164647265737300600082015250565b614c6780620005416000396000f3fe608060405234801561001057600080fd5b50600436106102945760003560e01c806387f7b97511610167578063c07cfca9116100ce578063e320f57611610087578063e320f576146108d2578063e8dcc55814610902578063ecf944f814610932578063f262571a14610950578063fac53e451461096e578063fac65f971461099f57610294565b8063c07cfca9146107d3578063c3e0e16414610806578063c64a4bad14610836578063c90aa2b414610854578063dd62ed3e14610872578063e18b487a146108a257610294565b8063a457c2d711610120578063a457c2d7146106c7578063a9059cbb146106f7578063b1f013fb14610727578063b1f5086e14610757578063b6a1f28414610787578063bfe162ce146107a357610294565b806387f7b975146105da5780638ab66a90146105f857806395d89b411461062c578063976bea0e1461064a5780639ac4643d1461067a578063a3db6cb31461069657610294565b80632c9681421161020b57806356fd86c6116101c457806356fd86c61461051657806358c0978d146105345780635c1b7f07146105645780635ea976bf1461058257806362d73eb8146105a057806370a08231146105aa57610294565b80632c9681421461043e5780632d35a8a21461046e578063313ce5671461048c57806331b57095146104aa57806339509351146104c857806351e0a6eb146104f857610294565b80631312fa921161025d5780631312fa921461035357806318160ddd1461038357806320be2a85146103a157806322bc2dc9146103c057806322c75d2f146103de57806323b872dd1461040e57610294565b80625ed2ad1461029957806301b24355146102b757806306fdde03146102e7578063095ea7b3146103055780631300a6d114610335575b600080fd5b6102a16109bb565b6040516102ae9190613bbd565b60405180910390f35b6102d160048036038101906102cc91906133b6565b6109e1565b6040516102de9190613c38565b60405180910390f35b6102ef610a42565b6040516102fc9190613c53565b60405180910390f35b61031f600480360381019061031a91906134be565b610ad4565b60405161032c9190613c38565b60405180910390f35b61033d610af7565b60405161034a9190613fd5565b60405180910390f35b61036d600480360381019061036891906135cd565b610b1e565b60405161037a9190613bbd565b60405180910390f35b61038b610b5d565b6040516103989190613fd5565b60405180910390f35b6103a9610b67565b6040516103b7929190613c01565b60405180910390f35b6103c8610e62565b6040516103d59190613bbd565b60405180910390f35b6103f860048036038101906103f391906133b6565b610e88565b6040516104059190613c38565b60405180910390f35b6104286004803603810190610423919061341b565b610ee9565b6040516104359190613c38565b60405180910390f35b610458600480360381019061045391906135f6565b610f18565b6040516104659190613c38565b60405180910390f35b610476611204565b6040516104839190613fd5565b60405180910390f35b61049461120a565b6040516104a1919061409d565b60405180910390f35b6104b2611213565b6040516104bf9190613fd5565b60405180910390f35b6104e260048036038101906104dd91906134be565b611219565b6040516104ef9190613c38565b60405180910390f35b6105006112c3565b60405161050d9190613c38565b60405180910390f35b61051e611322565b60405161052b9190613bbd565b60405180910390f35b61054e600480360381019061054991906133b6565b611348565b60405161055b9190613c38565b60405180910390f35b61056c6113f7565b6040516105799190613c38565b60405180910390f35b61058a611456565b6040516105979190613c38565b60405180910390f35b6105a8611503565b005b6105c460048036038101906105bf91906133b6565b6115e8565b6040516105d19190613fd5565b60405180910390f35b6105e2611630565b6040516105ef9190613bbd565b60405180910390f35b610612600480360381019061060d91906133b6565b611656565b604051610623959493929190613ff0565b60405180910390f35b6106346117bc565b6040516106419190613c53565b60405180910390f35b610664600480360381019061065f91906133b6565b61184e565b6040516106719190613fd5565b60405180910390f35b610694600480360381019061068f919061346a565b611866565b005b6106b060048036038101906106ab91906133b6565b611dac565b6040516106be929190613bd8565b60405180910390f35b6106e160048036038101906106dc91906134be565b611df0565b6040516106ee9190613c38565b60405180910390f35b610711600480360381019061070c91906134be565b611eda565b60405161071e9190613c38565b60405180910390f35b610741600480360381019061073c9190613561565b611efd565b60405161074e9190613fd5565b60405180910390f35b610771600480360381019061076c91906133b6565b612377565b60405161077e9190613c38565b60405180910390f35b6107a1600480360381019061079c91906135cd565b612397565b005b6107bd60048036038101906107b891906133b6565b612431565b6040516107ca9190613c38565b60405180910390f35b6107ed60048036038101906107e891906133b6565b612492565b6040516107fd9493929190614051565b60405180910390f35b610820600480360381019061081b91906133b6565b61256a565b60405161082d9190613c38565b60405180910390f35b61083e61282a565b60405161084b9190613c38565b60405180910390f35b61085c612889565b6040516108699190613fd5565b60405180910390f35b61088c600480360381019061088791906133df565b61288f565b6040516108999190613fd5565b60405180910390f35b6108bc60048036038101906108b7919061346a565b612916565b6040516108c99190613c38565b60405180910390f35b6108ec60048036038101906108e791906135cd565b61295b565b6040516108f99190613bbd565b60405180910390f35b61091c6004803603810190610917919061346a565b61299a565b6040516109299190613c38565b60405180910390f35b61093a6129df565b6040516109479190613bbd565b60405180910390f35b610958612a05565b6040516109659190613fd5565b60405180910390f35b610988600480360381019061098391906135cd565b612a4f565b604051610996929190613bd8565b60405180910390f35b6109b960048036038101906109b491906134fa565b612aa3565b005b600960009054906101000a900473ffffffffffffffffffffffffffffffffffffffff1681565b6000600e54601960008473ffffffffffffffffffffffffffffffffffffffff1673ffffffffffffffffffffffffffffffffffffffff168152602001908152602001600020600301541415610a385760019050610a3d565b600090505b919050565b606060038054610a5190614322565b80601f0160208091040260200160405190810160405280929190818152602001828054610a7d90614322565b8015610aca5780601f10610a9f57610100808354040283529160200191610aca565b820191906000526020600020905b815481529060010190602001808311610aad57829003601f168201915b5050505050905090565b600080610adf612d97565b9050610aec818585612d9f565b600191505092915050565b600042600b541015610b0a576000610b19565b42600b54610b189190614257565b5b905090565b60168181548110610b2e57600080fd5b906000526020600020016000915054906101000a900473ffffffffffffffffffffffffffffffffffffffff1681565b6000600254905090565b60608060011515610b76611456565b151514610bb8576040517f08c379a0000000000000000000000000000000000000000000000000000000008152600401610baf90613ef5565b60405180910390fd5b6000601680549050905060008167ffffffffffffffff811115610c04577f4e487b7100000000000000000000000000000000000000000000000000000000600052604160045260246000fd5b604051908082528060200260200182016040528015610c325781602001602082028036833780820191505090505b50905060008267ffffffffffffffff811115610c77577f4e487b7100000000000000000000000000000000000000000000000000000000600052604160045260246000fd5b604051908082528060200260200182016040528015610ca55781602001602082028036833780820191505090505b50905060005b83811015610e5457600060168281548110610cef577f4e487b7100000000000000000000000000000000000000000000000000000000600052603260045260246000fd5b9060005260206000200160009054906101000a900473ffffffffffffffffffffffffffffffffffffffff1690506000601560008373ffffffffffffffffffffffffffffffffffffffff1673ffffffffffffffffffffffffffffffffffffffff16815260200190815260200160002090508060000160009054906101000a900473ffffffffffffffffffffffffffffffffffffffff16858481518110610dbd577f4e487b7100000000000000000000000000000000000000000000000000000000600052603260045260246000fd5b602002602001019073ffffffffffffffffffffffffffffffffffffffff16908173ffffffffffffffffffffffffffffffffffffffff16815250508060010154848481518110610e35577f4e487b7100000000000000000000000000000000000000000000000000000000600052603260045260246000fd5b602002602001018181525050505080610e4d90614385565b9050610cab565b508181945094505050509091565b600760009054906101000a900473ffffffffffffffffffffffffffffffffffffffff1681565b6000600d54601960008473ffffffffffffffffffffffffffffffffffffffff1673ffffffffffffffffffffffffffffffffffffffff168152602001908152602001600020600301541415610edf5760019050610ee4565b600090505b919050565b600080610ef4612d97565b9050610f01858285612f6a565b610f0c858585612ff6565b60019150509392505050565b6000600560009054906101000a900473ffffffffffffffffffffffffffffffffffffffff1673ffffffffffffffffffffffffffffffffffffffff163373ffffffffffffffffffffffffffffffffffffffff1614610faa576040517f08c379a0000000000000000000000000000000000000000000000000000000008152600401610fa190613e75565b60405180910390fd5b60005b6011805490508110156111f857600073ffffffffffffffffffffffffffffffffffffffff166011828154811061100c577f4e487b7100000000000000000000000000000000000000000000000000000000600052603260045260246000fd5b9060005260206000200160009054906101000a900473ffffffffffffffffffffffffffffffffffffffff1673ffffffffffffffffffffffffffffffffffffffff16141561108e576040517f08c379a000000000000000000000000000000000000000000000000000000000815260040161108590613f75565b60405180910390fd5b60c860118054905011156110d7576040517f08c379a00000000000000000000000000000000000000000000000000000000081526004016110ce90613cf5565b60405180910390fd5b600060118281548110611113577f4e487b7100000000000000000000000000000000000000000000000000000000600052603260045260246000fd5b9060005260206000200160009054906101000a900473ffffffffffffffffffffffffffffffffffffffff1690506001151561114d826109e1565b151514156111785761117281670de0b6b3a76400008861116d91906141fd565b611eda565b506111e6565b6001151561118582610e88565b151514156111b0576111aa81670de0b6b3a7640000876111a591906141fd565b611eda565b506111e5565b600115156111bd82612431565b151514156111e4576111e281670de0b6b3a7640000866111dd91906141fd565b611eda565b505b5b5b50806111f190614385565b9050610fad565b50600190509392505050565b60185481565b60006012905090565b60105481565b600080611224612d97565b90506112b8818585600160008673ffffffffffffffffffffffffffffffffffffffff1673ffffffffffffffffffffffffffffffffffffffff16815260200190815260200160002060008973ffffffffffffffffffffffffffffffffffffffff1673ffffffffffffffffffffffffffffffffffffffff168152602001908152602001600020546112b391906141a7565b612d9f565b600191505092915050565b6000600f54601960003373ffffffffffffffffffffffffffffffffffffffff1673ffffffffffffffffffffffffffffffffffffffff16815260200190815260200160002060030154141561131a576001905061131f565b600090505b90565b600860009054906101000a900473ffffffffffffffffffffffffffffffffffffffff1681565b6000600d54601960008473ffffffffffffffffffffffffffffffffffffffff1673ffffffffffffffffffffffffffffffffffffffff1681526020019081526020016000206003015414806113df5750600e54601960008473ffffffffffffffffffffffffffffffffffffffff1673ffffffffffffffffffffffffffffffffffffffff16815260200190815260200160002060030154145b156113ed57600190506113f2565b600090505b919050565b6000600e54601960003373ffffffffffffffffffffffffffffffffffffffff1673ffffffffffffffffffffffffffffffffffffffff16815260200190815260200160002060030154141561144e5760019050611453565b600090505b90565b6000600e54601960003373ffffffffffffffffffffffffffffffffffffffff1673ffffffffffffffffffffffffffffffffffffffff1681526020019081526020016000206003015414806114ed5750600d54601960003373ffffffffffffffffffffffffffffffffffffffff1673ffffffffffffffffffffffffffffffffffffffff16815260200190815260200160002060030154145b156114fb5760019050611500565b600090505b90565b600560009054906101000a900473ffffffffffffffffffffffffffffffffffffffff1673ffffffffffffffffffffffffffffffffffffffff163373ffffffffffffffffffffffffffffffffffffffff1614611593576040517f08c379a000000000000000000000000000000000000000000000000000000000815260040161158a90613e75565b60405180910390fd5b42600a81905550600a54600c546115aa91906141a7565b600b819055506001601d60006101000a81548160ff0219169083151502179055506000601d60016101000a81548160ff021916908315150217905550565b60008060008373ffffffffffffffffffffffffffffffffffffffff1673ffffffffffffffffffffffffffffffffffffffff168152602001908152602001600020549050919050565b600560009054906101000a900473ffffffffffffffffffffffffffffffffffffffff1681565b601760205280600052604060002060009150905080600001549080600101805461167f90614322565b80601f01602080910402602001604051908101604052809291908181526020018280546116ab90614322565b80156116f85780601f106116cd576101008083540402835291602001916116f8565b820191906000526020600020905b8154815290600101906020018083116116db57829003601f168201915b5050505050908060020160009054906101000a900473ffffffffffffffffffffffffffffffffffffffff169080600301805461173390614322565b80601f016020809104026020016040519081016040528092919081815260200182805461175f90614322565b80156117ac5780601f10611781576101008083540402835291602001916117ac565b820191906000526020600020905b81548152906001019060200180831161178f57829003601f168201915b5050505050908060040154905085565b6060600480546117cb90614322565b80601f01602080910402602001604051908101604052809291908181526020018280546117f790614322565b80156118445780601f1061181957610100808354040283529160200191611844565b820191906000526020600020905b81548152906001019060200180831161182757829003601f168201915b5050505050905090565b60136020528060005260406000206000915090505481565b60011515601b60003373ffffffffffffffffffffffffffffffffffffffff1673ffffffffffffffffffffffffffffffffffffffff16815260200190815260200160002060009054906101000a900460ff161515146118f9576040517f08c379a00000000000000000000000000000000000000000000000000000000081526004016118f090613dd5565b60405180910390fd5b60011515601d60009054906101000a900460ff1615151461194f576040517f08c379a000000000000000000000000000000000000000000000000000000000815260040161194690613eb5565b60405180910390fd5b6000611959610af7565b11611999576040517f08c379a000000000000000000000000000000000000000000000000000000000815260040161199090613e55565b60405180910390fd5b601460003373ffffffffffffffffffffffffffffffffffffffff1673ffffffffffffffffffffffffffffffffffffffff168152602001908152602001600020816040516119e69190613ba6565b908152602001604051809103902060009054906101000a900460ff1615611a42576040517f08c379a0000000000000000000000000000000000000000000000000000000008152600401611a3990613d75565b60405180910390fd5b60011515601c60008473ffffffffffffffffffffffffffffffffffffffff1673ffffffffffffffffffffffffffffffffffffffff16815260200190815260200160002082604051611a939190613ba6565b908152602001604051809103902060009054906101000a900460ff16151514611af1576040517f08c379a0000000000000000000000000000000000000000000000000000000008152600401611ae890613df5565b60405180910390fd5b6000611afc336115e8565b11611b3c576040517f08c379a0000000000000000000000000000000000000000000000000000000008152600401611b3390613ed5565b60405180910390fd5b6001601460003373ffffffffffffffffffffffffffffffffffffffff1673ffffffffffffffffffffffffffffffffffffffff16815260200190815260200160002082604051611b8b9190613ba6565b908152602001604051809103902060006101000a81548160ff021916908315150217905550601760008373ffffffffffffffffffffffffffffffffffffffff1673ffffffffffffffffffffffffffffffffffffffff1681526020019081526020016000206004016000815480929190611c0390614385565b9190505550600060405180604001604052808473ffffffffffffffffffffffffffffffffffffffff168152602001601760008673ffffffffffffffffffffffffffffffffffffffff1673ffffffffffffffffffffffffffffffffffffffff16815260200190815260200160002060040154815250905080601560008573ffffffffffffffffffffffffffffffffffffffff1673ffffffffffffffffffffffffffffffffffffffff16815260200190815260200160002060008201518160000160006101000a81548173ffffffffffffffffffffffffffffffffffffffff021916908373ffffffffffffffffffffffffffffffffffffffff160217905550602082015181600101559050506016839080600181540180825580915050600190039060005260206000200160009091909190916101000a81548173ffffffffffffffffffffffffffffffffffffffff021916908373ffffffffffffffffffffffffffffffffffffffff1602179055507f16a9aa39af49f169911e977347975198c503525f7240d6892a626f0227642fce33604051611d9f9190613bbd565b60405180910390a1505050565b60156020528060005260406000206000915090508060000160009054906101000a900473ffffffffffffffffffffffffffffffffffffffff16908060010154905082565b600080611dfb612d97565b90506000600160008373ffffffffffffffffffffffffffffffffffffffff1673ffffffffffffffffffffffffffffffffffffffff16815260200190815260200160002060008673ffffffffffffffffffffffffffffffffffffffff1673ffffffffffffffffffffffffffffffffffffffff16815260200190815260200160002054905083811015611ec1576040517f08c379a0000000000000000000000000000000000000000000000000000000008152600401611eb890613fb5565b60405180910390fd5b611ece8286868403612d9f565b60019250505092915050565b600080611ee5612d97565b9050611ef2818585612ff6565b600191505092915050565b600060011515601b60003373ffffffffffffffffffffffffffffffffffffffff1673ffffffffffffffffffffffffffffffffffffffff16815260200190815260200160002060009054906101000a900460ff16151514611f92576040517f08c379a0000000000000000000000000000000000000000000000000000000008152600401611f8990613dd5565b60405180910390fd5b60011515601d60019054906101000a900460ff16151514611fe8576040517f08c379a0000000000000000000000000000000000000000000000000000000008152600401611fdf90613c95565b60405180910390fd5b60011515611ff4611456565b151514612036576040517f08c379a000000000000000000000000000000000000000000000000000000000815260040161202d90613f35565b60405180910390fd5b600073ffffffffffffffffffffffffffffffffffffffff163373ffffffffffffffffffffffffffffffffffffffff1614156120a6576040517f08c379a000000000000000000000000000000000000000000000000000000000815260040161209d90613e15565b60405180910390fd5b60001515601c60003373ffffffffffffffffffffffffffffffffffffffff1673ffffffffffffffffffffffffffffffffffffffff168152602001908152602001600020836040516120f79190613ba6565b908152602001604051809103902060009054906101000a900460ff16151514612155576040517f08c379a000000000000000000000000000000000000000000000000000000000815260040161214c90613d35565b60405180910390fd5b61218a600560009054906101000a900473ffffffffffffffffffffffffffffffffffffffff16680821ab0d4414980000611eda565b6121c9576040517f08c379a00000000000000000000000000000000000000000000000000000000081526004016121c090613e35565b60405180910390fd5b601860008154809291906121dc90614385565b91905055506040518060a0016040528060185481526020018481526020013373ffffffffffffffffffffffffffffffffffffffff1681526020018381526020016000815250601760003373ffffffffffffffffffffffffffffffffffffffff1673ffffffffffffffffffffffffffffffffffffffff168152602001908152602001600020600082015181600001556020820151816001019080519060200190612286929190613281565b5060408201518160020160006101000a81548173ffffffffffffffffffffffffffffffffffffffff021916908373ffffffffffffffffffffffffffffffffffffffff16021790555060608201518160030190805190602001906122ea929190613281565b50608082015181600401559050506001601c60003373ffffffffffffffffffffffffffffffffffffffff1673ffffffffffffffffffffffffffffffffffffffff168152602001908152602001600020836040516123479190613ba6565b908152602001604051809103902060006101000a81548160ff021916908315150217905550601854905092915050565b601b6020528060005260406000206000915054906101000a900460ff1681565b600560009054906101000a900473ffffffffffffffffffffffffffffffffffffffff1673ffffffffffffffffffffffffffffffffffffffff163373ffffffffffffffffffffffffffffffffffffffff1614612427576040517f08c379a000000000000000000000000000000000000000000000000000000000815260040161241e90613e75565b60405180910390fd5b80600c8190555050565b6000600f54601960008473ffffffffffffffffffffffffffffffffffffffff1673ffffffffffffffffffffffffffffffffffffffff168152602001908152602001600020600301541415612488576001905061248d565b600090505b919050565b60196020528060005260406000206000915090508060000154908060010180546124bb90614322565b80601f01602080910402602001604051908101604052809291908181526020018280546124e790614322565b80156125345780601f1061250957610100808354040283529160200191612534565b820191906000526020600020905b81548152906001019060200180831161251757829003601f168201915b5050505050908060020160009054906101000a900473ffffffffffffffffffffffffffffffffffffffff16908060030154905084565b6000600560009054906101000a900473ffffffffffffffffffffffffffffffffffffffff1673ffffffffffffffffffffffffffffffffffffffff163373ffffffffffffffffffffffffffffffffffffffff16146125fc576040517f08c379a00000000000000000000000000000000000000000000000000000000081526004016125f390613e75565b60405180910390fd5b60011515601b60008473ffffffffffffffffffffffffffffffffffffffff1673ffffffffffffffffffffffffffffffffffffffff16815260200190815260200160002060009054906101000a900460ff1615151461268f576040517f08c379a000000000000000000000000000000000000000000000000000000000815260040161268690613d55565b60405180910390fd5b6001151561269c83611348565b1515146126de576040517f08c379a00000000000000000000000000000000000000000000000000000000081526004016126d590613f15565b60405180910390fd5b600015156126eb83612431565b15151461272d576040517f08c379a000000000000000000000000000000000000000000000000000000000815260040161272490613e95565b60405180910390fd5b600073ffffffffffffffffffffffffffffffffffffffff168273ffffffffffffffffffffffffffffffffffffffff16141561279d576040517f08c379a000000000000000000000000000000000000000000000000000000000815260040161279490613cd5565b60405180910390fd5b81600560006101000a81548173ffffffffffffffffffffffffffffffffffffffff021916908373ffffffffffffffffffffffffffffffffffffffff1602179055508173ffffffffffffffffffffffffffffffffffffffff167f61329b2927c7b239a1a15dcc92e9d85129956c1fde887e4cc2dc9bad7662ddac60405160405180910390a260019050919050565b6000600d54601960003373ffffffffffffffffffffffffffffffffffffffff1673ffffffffffffffffffffffffffffffffffffffff1681526020019081526020016000206003015414156128815760019050612886565b600090505b90565b601a5481565b6000600160008473ffffffffffffffffffffffffffffffffffffffff1673ffffffffffffffffffffffffffffffffffffffff16815260200190815260200160002060008373ffffffffffffffffffffffffffffffffffffffff1673ffffffffffffffffffffffffffffffffffffffff16815260200190815260200160002054905092915050565b6014602052816000526040600020818051602081018201805184825260208301602085012081835280955050505050506000915091509054906101000a900460ff1681565b6011818154811061296b57600080fd5b906000526020600020016000915054906101000a900473ffffffffffffffffffffffffffffffffffffffff1681565b601c602052816000526040600020818051602081018201805184825260208301602085012081835280955050505050506000915091509054906101000a900460ff1681565b600660009054906101000a900473ffffffffffffffffffffffffffffffffffffffff1681565b6000601760003373ffffffffffffffffffffffffffffffffffffffff1673ffffffffffffffffffffffffffffffffffffffff16815260200190815260200160002060000154905090565b60128181548110612a5f57600080fd5b90600052602060002090600202016000915090508060000160009054906101000a900473ffffffffffffffffffffffffffffffffffffffff16908060010154905082565b600560009054906101000a900473ffffffffffffffffffffffffffffffffffffffff1673ffffffffffffffffffffffffffffffffffffffff163373ffffffffffffffffffffffffffffffffffffffff1614612b33576040517f08c379a0000000000000000000000000000000000000000000000000000000008152600401612b2a90613e75565b60405180910390fd5b60001515601b60008473ffffffffffffffffffffffffffffffffffffffff1673ffffffffffffffffffffffffffffffffffffffff16815260200190815260200160002060009054906101000a900460ff16151514612bc6576040517f08c379a0000000000000000000000000000000000000000000000000000000008152600401612bbd90613cb5565b60405180910390fd5b601a6000815480929190612bd990614385565b919050555060006040518060800160405280601a5481526020018581526020018473ffffffffffffffffffffffffffffffffffffffff16815260200183815250905080601960008573ffffffffffffffffffffffffffffffffffffffff1673ffffffffffffffffffffffffffffffffffffffff168152602001908152602001600020600082015181600001556020820151816001019080519060200190612c81929190613281565b5060408201518160020160006101000a81548173ffffffffffffffffffffffffffffffffffffffff021916908373ffffffffffffffffffffffffffffffffffffffff160217905550606082015181600301559050506001601b60008573ffffffffffffffffffffffffffffffffffffffff1673ffffffffffffffffffffffffffffffffffffffff16815260200190815260200160002060006101000a81548160ff0219169083151502179055506011839080600181540180825580915050600190039060005260206000200160009091909190916101000a81548173ffffffffffffffffffffffffffffffffffffffff021916908373ffffffffffffffffffffffffffffffffffffffff16021790555050505050565b600033905090565b600073ffffffffffffffffffffffffffffffffffffffff168373ffffffffffffffffffffffffffffffffffffffff161415612e0f576040517f08c379a0000000000000000000000000000000000000000000000000000000008152600401612e0690613f95565b60405180910390fd5b600073ffffffffffffffffffffffffffffffffffffffff168273ffffffffffffffffffffffffffffffffffffffff161415612e7f576040517f08c379a0000000000000000000000000000000000000000000000000000000008152600401612e7690613d15565b60405180910390fd5b80600160008573ffffffffffffffffffffffffffffffffffffffff1673ffffffffffffffffffffffffffffffffffffffff16815260200190815260200160002060008473ffffffffffffffffffffffffffffffffffffffff1673ffffffffffffffffffffffffffffffffffffffff168152602001908152602001600020819055508173ffffffffffffffffffffffffffffffffffffffff168373ffffffffffffffffffffffffffffffffffffffff167f8c5be1e5ebec7d5bd14f71427d1e84f3dd0314c0f7b2291e5b200ac8c7c3b92583604051612f5d9190613fd5565b60405180910390a3505050565b6000612f76848461288f565b90507fffffffffffffffffffffffffffffffffffffffffffffffffffffffffffffffff8114612ff05781811015612fe2576040517f08c379a0000000000000000000000000000000000000000000000000000000008152600401612fd990613d95565b60405180910390fd5b612fef8484848403612d9f565b5b50505050565b600073ffffffffffffffffffffffffffffffffffffffff168373ffffffffffffffffffffffffffffffffffffffff161415613066576040517f08c379a000000000000000000000000000000000000000000000000000000000815260040161305d90613f55565b60405180910390fd5b600073ffffffffffffffffffffffffffffffffffffffff168273ffffffffffffffffffffffffffffffffffffffff1614156130d6576040517f08c379a00000000000000000000000000000000000000000000000000000000081526004016130cd90613c75565b60405180910390fd5b6130e1838383613277565b60008060008573ffffffffffffffffffffffffffffffffffffffff1673ffffffffffffffffffffffffffffffffffffffff16815260200190815260200160002054905081811015613167576040517f08c379a000000000000000000000000000000000000000000000000000000000815260040161315e90613db5565b60405180910390fd5b8181036000808673ffffffffffffffffffffffffffffffffffffffff1673ffffffffffffffffffffffffffffffffffffffff16815260200190815260200160002081905550816000808573ffffffffffffffffffffffffffffffffffffffff1673ffffffffffffffffffffffffffffffffffffffff16815260200190815260200160002060008282546131fa91906141a7565b925050819055508273ffffffffffffffffffffffffffffffffffffffff168473ffffffffffffffffffffffffffffffffffffffff167fddf252ad1be2c89b69c2b068fc378daa952ba7f163c4a11628f55a4df523b3ef8460405161325e9190613fd5565b60405180910390a361327184848461327c565b50505050565b505050565b505050565b82805461328d90614322565b90600052602060002090601f0160209004810192826132af57600085556132f6565b82601f106132c857805160ff19168380011785556132f6565b828001600101855582156132f6579182015b828111156132f55782518255916020019190600101906132da565b5b5090506133039190613307565b5090565b5b80821115613320576000816000905550600101613308565b5090565b6000613337613332846140dd565b6140b8565b90508281526020810184848401111561334f57600080fd5b61335a8482856142e0565b509392505050565b60008135905061337181614c03565b92915050565b600082601f83011261338857600080fd5b8135613398848260208601613324565b91505092915050565b6000813590506133b081614c1a565b92915050565b6000602082840312156133c857600080fd5b60006133d684828501613362565b91505092915050565b600080604083850312156133f257600080fd5b600061340085828601613362565b925050602061341185828601613362565b9150509250929050565b60008060006060848603121561343057600080fd5b600061343e86828701613362565b935050602061344f86828701613362565b9250506040613460868287016133a1565b9150509250925092565b6000806040838503121561347d57600080fd5b600061348b85828601613362565b925050602083013567ffffffffffffffff8111156134a857600080fd5b6134b485828601613377565b9150509250929050565b600080604083850312156134d157600080fd5b60006134df85828601613362565b92505060206134f0858286016133a1565b9150509250929050565b60008060006060848603121561350f57600080fd5b600084013567ffffffffffffffff81111561352957600080fd5b61353586828701613377565b935050602061354686828701613362565b9250506040613557868287016133a1565b9150509250925092565b6000806040838503121561357457600080fd5b600083013567ffffffffffffffff81111561358e57600080fd5b61359a85828601613377565b925050602083013567ffffffffffffffff8111156135b757600080fd5b6135c385828601613377565b9150509250929050565b6000602082840312156135df57600080fd5b60006135ed848285016133a1565b91505092915050565b60008060006060848603121561360b57600080fd5b6000613619868287016133a1565b935050602061362a868287016133a1565b925050604061363b868287016133a1565b9150509250925092565b60006136518383613675565b60208301905092915050565b60006136698383613b79565b60208301905092915050565b61367e8161428b565b82525050565b61368d8161428b565b82525050565b600061369e8261412e565b6136a88185614169565b93506136b38361410e565b8060005b838110156136e45781516136cb8882613645565b97506136d68361414f565b9250506001810190506136b7565b5085935050505092915050565b60006136fc82614139565b613706818561417a565b93506137118361411e565b8060005b83811015613742578151613729888261365d565b97506137348361415c565b925050600181019050613715565b5085935050505092915050565b6137588161429d565b82525050565b600061376982614144565b613773818561418b565b93506137838185602086016142ef565b61378c8161445b565b840191505092915050565b60006137a282614144565b6137ac818561419c565b93506137bc8185602086016142ef565b80840191505092915050565b60006137d560238361418b565b91506137e08261446c565b604082019050919050565b60006137f8603b8361418b565b9150613803826144bb565b604082019050919050565b600061381b60258361418b565b91506138268261450a565b604082019050919050565b600061383e600f8361418b565b915061384982614559565b602082019050919050565b600061386160248361418b565b915061386c82614582565b604082019050919050565b600061388460228361418b565b915061388f826145d1565b604082019050919050565b60006138a760308361418b565b91506138b282614620565b604082019050919050565b60006138ca60268361418b565b91506138d58261466f565b604082019050919050565b60006138ed60278361418b565b91506138f8826146be565b604082019050919050565b6000613910601d8361418b565b915061391b8261470d565b602082019050919050565b600061393360268361418b565b915061393e82614736565b604082019050919050565b6000613956601a8361418b565b915061396182614785565b602082019050919050565b600061397960218361418b565b9150613984826147ae565b604082019050919050565b600061399c600f8361418b565b91506139a7826147fd565b602082019050919050565b60006139bf60308361418b565b91506139ca82614826565b604082019050919050565b60006139e260108361418b565b91506139ed82614875565b602082019050919050565b6000613a05602b8361418b565b9150613a108261489e565b604082019050919050565b6000613a2860398361418b565b9150613a33826148ed565b604082019050919050565b6000613a4b60178361418b565b9150613a568261493c565b602082019050919050565b6000613a6e60248361418b565b9150613a7982614965565b604082019050919050565b6000613a9160298361418b565b9150613a9c826149b4565b604082019050919050565b6000613ab460428361418b565b9150613abf82614a03565b606082019050919050565b6000613ad760488361418b565b9150613ae282614a78565b606082019050919050565b6000613afa60258361418b565b9150613b0582614aed565b604082019050919050565b6000613b1d600f8361418b565b9150613b2882614b3c565b602082019050919050565b6000613b4060248361418b565b9150613b4b82614b65565b604082019050919050565b6000613b6360258361418b565b9150613b6e82614bb4565b604082019050919050565b613b82816142c9565b82525050565b613b91816142c9565b82525050565b613ba0816142d3565b82525050565b6000613bb28284613797565b915081905092915050565b6000602082019050613bd26000830184613684565b92915050565b6000604082019050613bed6000830185613684565b613bfa6020830184613b88565b9392505050565b60006040820190508181036000830152613c1b8185613693565b90508181036020830152613c2f81846136f1565b90509392505050565b6000602082019050613c4d600083018461374f565b92915050565b60006020820190508181036000830152613c6d818461375e565b905092915050565b60006020820190508181036000830152613c8e816137c8565b9050919050565b60006020820190508181036000830152613cae816137eb565b9050919050565b60006020820190508181036000830152613cce8161380e565b9050919050565b60006020820190508181036000830152613cee81613831565b9050919050565b60006020820190508181036000830152613d0e81613854565b9050919050565b60006020820190508181036000830152613d2e81613877565b9050919050565b60006020820190508181036000830152613d4e8161389a565b9050919050565b60006020820190508181036000830152613d6e816138bd565b9050919050565b60006020820190508181036000830152613d8e816138e0565b9050919050565b60006020820190508181036000830152613dae81613903565b9050919050565b60006020820190508181036000830152613dce81613926565b9050919050565b60006020820190508181036000830152613dee81613949565b9050919050565b60006020820190508181036000830152613e0e8161396c565b9050919050565b60006020820190508181036000830152613e2e8161398f565b9050919050565b60006020820190508181036000830152613e4e816139b2565b9050919050565b60006020820190508181036000830152613e6e816139d5565b9050919050565b60006020820190508181036000830152613e8e816139f8565b9050919050565b60006020820190508181036000830152613eae81613a1b565b9050919050565b60006020820190508181036000830152613ece81613a3e565b9050919050565b60006020820190508181036000830152613eee81613a61565b9050919050565b60006020820190508181036000830152613f0e81613a84565b9050919050565b60006020820190508181036000830152613f2e81613aa7565b9050919050565b60006020820190508181036000830152613f4e81613aca565b9050919050565b60006020820190508181036000830152613f6e81613aed565b9050919050565b60006020820190508181036000830152613f8e81613b10565b9050919050565b60006020820190508181036000830152613fae81613b33565b9050919050565b60006020820190508181036000830152613fce81613b56565b9050919050565b6000602082019050613fea6000830184613b88565b92915050565b600060a0820190506140056000830188613b88565b8181036020830152614017818761375e565b90506140266040830186613684565b8181036060830152614038818561375e565b90506140476080830184613b88565b9695505050505050565b60006080820190506140666000830187613b88565b8181036020830152614078818661375e565b90506140876040830185613684565b6140946060830184613b88565b95945050505050565b60006020820190506140b26000830184613b97565b92915050565b60006140c26140d3565b90506140ce8282614354565b919050565b6000604051905090565b600067ffffffffffffffff8211156140f8576140f761442c565b5b6141018261445b565b9050602081019050919050565b6000819050602082019050919050565b6000819050602082019050919050565b600081519050919050565b600081519050919050565b600081519050919050565b6000602082019050919050565b6000602082019050919050565b600082825260208201905092915050565b600082825260208201905092915050565b600082825260208201905092915050565b600081905092915050565b60006141b2826142c9565b91506141bd836142c9565b9250827fffffffffffffffffffffffffffffffffffffffffffffffffffffffffffffffff038211156141f2576141f16143ce565b5b828201905092915050565b6000614208826142c9565b9150614213836142c9565b9250817fffffffffffffffffffffffffffffffffffffffffffffffffffffffffffffffff048311821515161561424c5761424b6143ce565b5b828202905092915050565b6000614262826142c9565b915061426d836142c9565b9250828210156142805761427f6143ce565b5b828203905092915050565b6000614296826142a9565b9050919050565b60008115159050919050565b600073ffffffffffffffffffffffffffffffffffffffff82169050919050565b6000819050919050565b600060ff82169050919050565b82818337600083830152505050565b60005b8381101561430d5780820151818401526020810190506142f2565b8381111561431c576000848401525b50505050565b6000600282049050600182168061433a57607f821691505b6020821081141561434e5761434d6143fd565b5b50919050565b61435d8261445b565b810181811067ffffffffffffffff8211171561437c5761437b61442c565b5b80604052505050565b6000614390826142c9565b91507fffffffffffffffffffffffffffffffffffffffffffffffffffffffffffffffff8214156143c3576143c26143ce565b5b600182019050919050565b7f4e487b7100000000000000000000000000000000000000000000000000000000600052601160045260246000fd5b7f4e487b7100000000000000000000000000000000000000000000000000000000600052602260045260246000fd5b7f4e487b7100000000000000000000000000000000000000000000000000000000600052604160045260246000fd5b6000601f19601f8301169050919050565b7f45524332303a207472616e7366657220746f20746865207a65726f206164647260008201527f6573730000000000000000000000000000000000000000000000000000000000602082015250565b7f496e7465726573742044656e6965643a20546f6f206c61746520746f2073686f60008201527f7720696e74657265737420696e207468697320706f736974696f6e0000000000602082015250565b7f54686973206164647265737320697320616c72656164792061207374616b656860008201527f6f6c646572000000000000000000000000000000000000000000000000000000602082015250565b7f496e76616c696420616464726573730000000000000000000000000000000000600082015250565b7f65786365656473206e756d626572206f6620616c6c6f7765642061646472657360008201527f7365737300000000000000000000000000000000000000000000000000000000602082015250565b7f45524332303a20617070726f766520746f20746865207a65726f20616464726560008201527f7373000000000000000000000000000000000000000000000000000000000000602082015250565b7f596f75206861766520616c72656164792073686f776e20696e7465726573742060008201527f696e207468697320706f736974696f6e00000000000000000000000000000000602082015250565b7f546869732061646472657373206973206e6f74207374616b65686f6c6465722060008201527f617420616c6c0000000000000000000000000000000000000000000000000000602082015250565b7f596f75206861766520616c726561647920766f74656420696e2074686973206360008201527f617465676f727900000000000000000000000000000000000000000000000000602082015250565b7f45524332303a20696e73756666696369656e7420616c6c6f77616e6365000000600082015250565b7f45524332303a207472616e7366657220616d6f756e742065786365656473206260008201527f616c616e63650000000000000000000000000000000000000000000000000000602082015250565b7f4f6e6c792061207374616b65686f6c64657220646f2074686973000000000000600082015250565b7f496e76616c696420616464726573733a204e6f74206120636f6e74657374616e60008201527f7400000000000000000000000000000000000000000000000000000000000000602082015250565b7f696e76616c696420616464726573730000000000000000000000000000000000600082015250565b7f596f7520646f6e2774206861766520656e6f75676820746f6b656e7320746f2060008201527f6578707265737320696e74657265737400000000000000000000000000000000602082015250565b7f566f74696e672068617320656e64656400000000000000000000000000000000600082015250565b7f4f6e6c79207468652063686169726d616e2063616e20706572666f726d20746860008201527f69732066756e6374696f6e000000000000000000000000000000000000000000602082015250565b7f43686169726d616e7368697020726f6c652063616e2774206265206772616e7460008201527f6564203a20556e617574686f7269736564206164647265737300000000000000602082015250565b7f456c656374696f6e206861736e27742073746172746564000000000000000000600082015250565b7f596f7520646f6e2774206861766520656e6f75676820746f6b656e7320746f2060008201527f766f746500000000000000000000000000000000000000000000000000000000602082015250565b7f4f6e6c79206120636f6d70696c65722063616e20706572666f726d207468697360008201527f2066756e6374696f6e0000000000000000000000000000000000000000000000602082015250565b7f43686169726d616e7368697020726f6c652063616e2774206265206772616e7460008201527f6564203a204e6f7420612074656163686572206f7220626f617264206d656d6260208201527f6572000000000000000000000000000000000000000000000000000000000000604082015250565b7f496e7465726573742044656e696564203a20556e7265636f676e69736564206160008201527f6464726573732c206e65697468657220626f617264206d656d626572206e6f7260208201527f2074656163686572000000000000000000000000000000000000000000000000604082015250565b7f45524332303a207472616e736665722066726f6d20746865207a65726f20616460008201527f6472657373000000000000000000000000000000000000000000000000000000602082015250565b7f496e76616c696420416464726573730000000000000000000000000000000000600082015250565b7f45524332303a20617070726f76652066726f6d20746865207a65726f2061646460008201527f7265737300000000000000000000000000000000000000000000000000000000602082015250565b7f45524332303a2064656372656173656420616c6c6f77616e63652062656c6f7760008201527f207a65726f000000000000000000000000000000000000000000000000000000602082015250565b614c0c8161428b565b8114614c1757600080fd5b50565b614c23816142c9565b8114614c2e57600080fd5b5056fea264697066735822122019af3b2031fbf39fd2f8736ba9cca0e69b206cb48056f9647c2c3b352a9eb58564736f6c63430008040033",
    "linkReferences": {},
    "deployedLinkReferences": {}
}