{
  "_format": "hh-sol-artifact-1",
  "contractName": "Election",
  "sourceName": "contracts/Election.sol",
  "abi": [
    {
      "anonymous": false,
      "inputs": [
        {
          "indexed": true,
          "internalType": "address",
          "name": "owner",
          "type": "address"
        },
        {
          "indexed": true,
          "internalType": "address",
          "name": "spender",
          "type": "address"
        },
        {
          "indexed": false,
          "internalType": "uint256",
          "name": "value",
          "type": "uint256"
        }
      ],
      "name": "Approval",
      "type": "event"
    },
    {
      "anonymous": false,
      "inputs": [
        {
          "indexed": true,
          "internalType": "string",
          "name": "name",
          "type": "string"
        },
        {
          "indexed": true,
          "internalType": "address",
          "name": "contestant",
          "type": "address"
        },
        {
          "indexed": true,
          "internalType": "string",
          "name": "category",
          "type": "string"
        }
      ],
      "name": "Contest",
      "type": "event"
    },
    {
      "anonymous": false,
      "inputs": [
        {
          "indexed": true,
          "internalType": "address",
          "name": "from",
          "type": "address"
        },
        {
          "indexed": true,
          "internalType": "address",
          "name": "to",
          "type": "address"
        }
      ],
      "name": "DelegateChairman",
      "type": "event"
    },
    {
      "anonymous": false,
      "inputs": [
        {
          "indexed": true,
          "internalType": "address",
          "name": "removed",
          "type": "address"
        }
      ],
      "name": "DelegateRemoval",
      "type": "event"
    },
    {
      "anonymous": false,
      "inputs": [
        {
          "indexed": true,
          "internalType": "uint256",
          "name": "start",
          "type": "uint256"
        },
        {
          "indexed": true,
          "internalType": "uint256",
          "name": "duration",
          "type": "uint256"
        }
      ],
      "name": "ElectionEvent",
      "type": "event"
    },
    {
      "anonymous": false,
      "inputs": [
        {
          "indexed": true,
          "internalType": "bytes32",
          "name": "role",
          "type": "bytes32"
        },
        {
          "indexed": true,
          "internalType": "bytes32",
          "name": "previousAdminRole",
          "type": "bytes32"
        },
        {
          "indexed": true,
          "internalType": "bytes32",
          "name": "newAdminRole",
          "type": "bytes32"
        }
      ],
      "name": "RoleAdminChanged",
      "type": "event"
    },
    {
      "anonymous": false,
      "inputs": [
        {
          "indexed": true,
          "internalType": "bytes32",
          "name": "role",
          "type": "bytes32"
        },
        {
          "indexed": true,
          "internalType": "address",
          "name": "account",
          "type": "address"
        },
        {
          "indexed": true,
          "internalType": "address",
          "name": "sender",
          "type": "address"
        }
      ],
      "name": "RoleGranted",
      "type": "event"
    },
    {
      "anonymous": false,
      "inputs": [
        {
          "indexed": true,
          "internalType": "bytes32",
          "name": "role",
          "type": "bytes32"
        },
        {
          "indexed": true,
          "internalType": "address",
          "name": "account",
          "type": "address"
        },
        {
          "indexed": true,
          "internalType": "address",
          "name": "sender",
          "type": "address"
        }
      ],
      "name": "RoleRevoked",
      "type": "event"
    },
    {
      "anonymous": false,
      "inputs": [
        {
          "indexed": true,
          "internalType": "address",
          "name": "from",
          "type": "address"
        },
        {
          "indexed": true,
          "internalType": "address",
          "name": "to",
          "type": "address"
        },
        {
          "indexed": false,
          "internalType": "uint256",
          "name": "value",
          "type": "uint256"
        }
      ],
      "name": "Transfer",
      "type": "event"
    },
    {
      "anonymous": false,
      "inputs": [
        {
          "indexed": false,
          "internalType": "address",
          "name": "voteChoice",
          "type": "address"
        },
        {
          "indexed": false,
          "internalType": "string",
          "name": "Category",
          "type": "string"
        }
      ],
      "name": "Voted",
      "type": "event"
    },
    {
      "inputs": [],
      "name": "BOARD_MEMBER_ROLE",
      "outputs": [
        {
          "internalType": "bytes32",
          "name": "",
          "type": "bytes32"
        }
      ],
      "stateMutability": "view",
      "type": "function"
    },
    {
      "inputs": [],
      "name": "CHAIRMAN_ROLE",
      "outputs": [
        {
          "internalType": "bytes32",
          "name": "",
          "type": "bytes32"
        }
      ],
      "stateMutability": "view",
      "type": "function"
    },
    {
      "inputs": [],
      "name": "DEFAULT_ADMIN_ROLE",
      "outputs": [
        {
          "internalType": "bytes32",
          "name": "",
          "type": "bytes32"
        }
      ],
      "stateMutability": "view",
      "type": "function"
    },
    {
      "inputs": [],
      "name": "STUDENT_ROLE",
      "outputs": [
        {
          "internalType": "bytes32",
          "name": "",
          "type": "bytes32"
        }
      ],
      "stateMutability": "view",
      "type": "function"
    },
    {
      "inputs": [],
      "name": "TEACHER_ROLE",
      "outputs": [
        {
          "internalType": "bytes32",
          "name": "",
          "type": "bytes32"
        }
      ],
      "stateMutability": "view",
      "type": "function"
    },
    {
      "inputs": [
        {
          "internalType": "string",
          "name": "_name",
          "type": "string"
        },
        {
          "internalType": "address",
          "name": "_holder",
          "type": "address"
        },
        {
          "internalType": "uint256",
          "name": "_role",
          "type": "uint256"
        }
      ],
      "name": "addStakeHolder",
      "outputs": [],
      "stateMutability": "nonpayable",
      "type": "function"
    },
    {
      "inputs": [
        {
          "internalType": "address",
          "name": "owner",
          "type": "address"
        },
        {
          "internalType": "address",
          "name": "spender",
          "type": "address"
        }
      ],
      "name": "allowance",
      "outputs": [
        {
          "internalType": "uint256",
          "name": "",
          "type": "uint256"
        }
      ],
      "stateMutability": "view",
      "type": "function"
    },
    {
      "inputs": [
        {
          "internalType": "address",
          "name": "spender",
          "type": "address"
        },
        {
          "internalType": "uint256",
          "name": "amount",
          "type": "uint256"
        }
      ],
      "name": "approve",
      "outputs": [
        {
          "internalType": "bool",
          "name": "",
          "type": "bool"
        }
      ],
      "stateMutability": "nonpayable",
      "type": "function"
    },
    {
      "inputs": [
        {
          "internalType": "address",
          "name": "account",
          "type": "address"
        }
      ],
      "name": "balanceOf",
      "outputs": [
        {
          "internalType": "uint256",
          "name": "",
          "type": "uint256"
        }
      ],
      "stateMutability": "view",
      "type": "function"
    },
    {
      "inputs": [
        {
          "internalType": "uint256",
          "name": "boardMemberAmount",
          "type": "uint256"
        },
        {
          "internalType": "uint256",
          "name": "teacherAmount",
          "type": "uint256"
        },
        {
          "internalType": "uint256",
          "name": "studentAmount",
          "type": "uint256"
        }
      ],
      "name": "batchTransferToExistingStakeholders",
      "outputs": [
        {
          "internalType": "bool",
          "name": "transfered",
          "type": "bool"
        }
      ],
      "stateMutability": "nonpayable",
      "type": "function"
    },
    {
      "inputs": [
        {
          "internalType": "string[]",
          "name": "_name",
          "type": "string[]"
        },
        {
          "internalType": "address[]",
          "name": "_holder",
          "type": "address[]"
        },
        {
          "internalType": "uint256[]",
          "name": "_role",
          "type": "uint256[]"
        },
        {
          "internalType": "uint256[]",
          "name": "_amounts",
          "type": "uint256[]"
        }
      ],
      "name": "batchTransferandAdd",
      "outputs": [
        {
          "internalType": "bool",
          "name": "",
          "type": "bool"
        }
      ],
      "stateMutability": "nonpayable",
      "type": "function"
    },
    {
      "inputs": [],
      "name": "canStillExpressInterest",
      "outputs": [
        {
          "internalType": "bool",
          "name": "",
          "type": "bool"
        }
      ],
      "stateMutability": "view",
      "type": "function"
    },
    {
      "inputs": [
        {
          "internalType": "address",
          "name": "",
          "type": "address"
        }
      ],
      "name": "candidates",
      "outputs": [
        {
          "internalType": "uint256",
          "name": "id",
          "type": "uint256"
        },
        {
          "internalType": "string",
          "name": "name",
          "type": "string"
        },
        {
          "internalType": "address",
          "name": "contestant",
          "type": "address"
        },
        {
          "internalType": "string",
          "name": "category",
          "type": "string"
        },
        {
          "internalType": "uint256",
          "name": "voteCount",
          "type": "uint256"
        }
      ],
      "stateMutability": "view",
      "type": "function"
    },
    {
      "inputs": [],
      "name": "candidatesCount",
      "outputs": [
        {
          "internalType": "uint256",
          "name": "",
          "type": "uint256"
        }
      ],
      "stateMutability": "view",
      "type": "function"
    },
    {
      "inputs": [
        {
          "internalType": "uint256",
          "name": "",
          "type": "uint256"
        }
      ],
      "name": "category",
      "outputs": [
        {
          "internalType": "string",
          "name": "name",
          "type": "string"
        },
        {
          "internalType": "uint256",
          "name": "role",
          "type": "uint256"
        }
      ],
      "stateMutability": "view",
      "type": "function"
    },
    {
      "inputs": [
        {
          "internalType": "string",
          "name": "",
          "type": "string"
        }
      ],
      "name": "categorySet",
      "outputs": [
        {
          "internalType": "bool",
          "name": "",
          "type": "bool"
        }
      ],
      "stateMutability": "view",
      "type": "function"
    },
    {
      "inputs": [],
      "name": "chairmanAddr",
      "outputs": [
        {
          "internalType": "address",
          "name": "",
          "type": "address"
        }
      ],
      "stateMutability": "view",
      "type": "function"
    },
    {
      "inputs": [],
      "name": "compileVotes",
      "outputs": [],
      "stateMutability": "nonpayable",
      "type": "function"
    },
    {
      "inputs": [
        {
          "internalType": "uint256",
          "name": "",
          "type": "uint256"
        }
      ],
      "name": "contestants",
      "outputs": [
        {
          "internalType": "string",
          "name": "name",
          "type": "string"
        },
        {
          "internalType": "address",
          "name": "addr",
          "type": "address"
        },
        {
          "internalType": "string",
          "name": "category",
          "type": "string"
        }
      ],
      "stateMutability": "view",
      "type": "function"
    },
    {
      "inputs": [],
      "name": "decimals",
      "outputs": [
        {
          "internalType": "uint8",
          "name": "",
          "type": "uint8"
        }
      ],
      "stateMutability": "view",
      "type": "function"
    },
    {
      "inputs": [
        {
          "internalType": "address",
          "name": "spender",
          "type": "address"
        },
        {
          "internalType": "uint256",
          "name": "subtractedValue",
          "type": "uint256"
        }
      ],
      "name": "decreaseAllowance",
      "outputs": [
        {
          "internalType": "bool",
          "name": "",
          "type": "bool"
        }
      ],
      "stateMutability": "nonpayable",
      "type": "function"
    },
    {
      "inputs": [
        {
          "internalType": "address",
          "name": "newChairman",
          "type": "address"
        }
      ],
      "name": "delegateChairmanship",
      "outputs": [
        {
          "internalType": "bool",
          "name": "changed",
          "type": "bool"
        }
      ],
      "stateMutability": "nonpayable",
      "type": "function"
    },
    {
      "inputs": [
        {
          "internalType": "string",
          "name": "_name",
          "type": "string"
        },
        {
          "internalType": "string",
          "name": "_category",
          "type": "string"
        }
      ],
      "name": "expressInterest",
      "outputs": [
        {
          "internalType": "uint256",
          "name": "",
          "type": "uint256"
        }
      ],
      "stateMutability": "nonpayable",
      "type": "function"
    },
    {
      "inputs": [],
      "name": "getContestantDetails",
      "outputs": [
        {
          "internalType": "string[]",
          "name": "",
          "type": "string[]"
        },
        {
          "internalType": "address[]",
          "name": "",
          "type": "address[]"
        },
        {
          "internalType": "string[]",
          "name": "",
          "type": "string[]"
        }
      ],
      "stateMutability": "view",
      "type": "function"
    },
    {
      "inputs": [],
      "name": "getCurrentCategory",
      "outputs": [
        {
          "internalType": "string[]",
          "name": "",
          "type": "string[]"
        },
        {
          "internalType": "uint256[]",
          "name": "roles",
          "type": "uint256[]"
        }
      ],
      "stateMutability": "view",
      "type": "function"
    },
    {
      "inputs": [
        {
          "internalType": "bytes32",
          "name": "role",
          "type": "bytes32"
        }
      ],
      "name": "getRoleAdmin",
      "outputs": [
        {
          "internalType": "bytes32",
          "name": "",
          "type": "bytes32"
        }
      ],
      "stateMutability": "view",
      "type": "function"
    },
    {
      "inputs": [],
      "name": "getStakeholderDetails",
      "outputs": [
        {
          "internalType": "uint256",
          "name": "id",
          "type": "uint256"
        },
        {
          "internalType": "string",
          "name": "name",
          "type": "string"
        },
        {
          "internalType": "address",
          "name": "holder",
          "type": "address"
        },
        {
          "internalType": "uint256",
          "name": "role",
          "type": "uint256"
        }
      ],
      "stateMutability": "view",
      "type": "function"
    },
    {
      "inputs": [
        {
          "internalType": "bytes32",
          "name": "role",
          "type": "bytes32"
        },
        {
          "internalType": "address",
          "name": "account",
          "type": "address"
        }
      ],
      "name": "grantRole",
      "outputs": [],
      "stateMutability": "nonpayable",
      "type": "function"
    },
    {
      "inputs": [
        {
          "internalType": "bytes32",
          "name": "role",
          "type": "bytes32"
        },
        {
          "internalType": "address",
          "name": "account",
          "type": "address"
        }
      ],
      "name": "hasRole",
      "outputs": [
        {
          "internalType": "bool",
          "name": "",
          "type": "bool"
        }
      ],
      "stateMutability": "view",
      "type": "function"
    },
    {
      "inputs": [
        {
          "internalType": "address",
          "name": "spender",
          "type": "address"
        },
        {
          "internalType": "uint256",
          "name": "addedValue",
          "type": "uint256"
        }
      ],
      "name": "increaseAllowance",
      "outputs": [
        {
          "internalType": "bool",
          "name": "",
          "type": "bool"
        }
      ],
      "stateMutability": "nonpayable",
      "type": "function"
    },
    {
      "inputs": [
        {
          "internalType": "address",
          "name": "account",
          "type": "address"
        }
      ],
      "name": "isAdmin",
      "outputs": [
        {
          "internalType": "bool",
          "name": "",
          "type": "bool"
        }
      ],
      "stateMutability": "view",
      "type": "function"
    },
    {
      "inputs": [
        {
          "internalType": "address",
          "name": "account",
          "type": "address"
        }
      ],
      "name": "isBoardMember",
      "outputs": [
        {
          "internalType": "bool",
          "name": "",
          "type": "bool"
        }
      ],
      "stateMutability": "view",
      "type": "function"
    },
    {
      "inputs": [
        {
          "internalType": "address",
          "name": "account",
          "type": "address"
        }
      ],
      "name": "isChairman",
      "outputs": [
        {
          "internalType": "bool",
          "name": "",
          "type": "bool"
        }
      ],
      "stateMutability": "view",
      "type": "function"
    },
    {
      "inputs": [
        {
          "internalType": "address",
          "name": "account",
          "type": "address"
        }
      ],
      "name": "isCompiler",
      "outputs": [
        {
          "internalType": "bool",
          "name": "",
          "type": "bool"
        }
      ],
      "stateMutability": "view",
      "type": "function"
    },
    {
      "inputs": [
        {
          "internalType": "address",
          "name": "",
          "type": "address"
        },
        {
          "internalType": "string",
          "name": "",
          "type": "string"
        }
      ],
      "name": "isContesting",
      "outputs": [
        {
          "internalType": "bool",
          "name": "",
          "type": "bool"
        }
      ],
      "stateMutability": "view",
      "type": "function"
    },
    {
      "inputs": [],
      "name": "isElectionOn",
      "outputs": [
        {
          "internalType": "bool",
          "name": "",
          "type": "bool"
        }
      ],
      "stateMutability": "view",
      "type": "function"
    },
    {
      "inputs": [],
      "name": "isResultAnnounced",
      "outputs": [
        {
          "internalType": "bool",
          "name": "",
          "type": "bool"
        }
      ],
      "stateMutability": "view",
      "type": "function"
    },
    {
      "inputs": [
        {
          "internalType": "address",
          "name": "account",
          "type": "address"
        }
      ],
      "name": "isStudent",
      "outputs": [
        {
          "internalType": "bool",
          "name": "",
          "type": "bool"
        }
      ],
      "stateMutability": "view",
      "type": "function"
    },
    {
      "inputs": [
        {
          "internalType": "address",
          "name": "account",
          "type": "address"
        }
      ],
      "name": "isTeacher",
      "outputs": [
        {
          "internalType": "bool",
          "name": "",
          "type": "bool"
        }
      ],
      "stateMutability": "view",
      "type": "function"
    },
    {
      "inputs": [],
      "name": "makeResultsPublic",
      "outputs": [
        {
          "internalType": "string[]",
          "name": "",
          "type": "string[]"
        },
        {
          "internalType": "address[]",
          "name": "",
          "type": "address[]"
        },
        {
          "internalType": "uint256[]",
          "name": "",
          "type": "uint256[]"
        }
      ],
      "stateMutability": "nonpayable",
      "type": "function"
    },
    {
      "inputs": [],
      "name": "name",
      "outputs": [
        {
          "internalType": "string",
          "name": "",
          "type": "string"
        }
      ],
      "stateMutability": "view",
      "type": "function"
    },
    {
      "inputs": [
        {
          "internalType": "address",
          "name": "_candidate",
          "type": "address"
        },
        {
          "internalType": "string",
          "name": "_category",
          "type": "string"
        }
      ],
      "name": "placeVote",
      "outputs": [],
      "stateMutability": "nonpayable",
      "type": "function"
    },
    {
      "inputs": [
        {
          "internalType": "address",
          "name": "account",
          "type": "address"
        }
      ],
      "name": "removeDelegate",
      "outputs": [],
      "stateMutability": "nonpayable",
      "type": "function"
    },
    {
      "inputs": [
        {
          "internalType": "bytes32",
          "name": "role",
          "type": "bytes32"
        },
        {
          "internalType": "address",
          "name": "account",
          "type": "address"
        }
      ],
      "name": "renounceRole",
      "outputs": [],
      "stateMutability": "nonpayable",
      "type": "function"
    },
    {
      "inputs": [
        {
          "internalType": "string",
          "name": "_category",
          "type": "string"
        }
      ],
      "name": "resetVotingCategory",
      "outputs": [],
      "stateMutability": "nonpayable",
      "type": "function"
    },
    {
      "inputs": [
        {
          "internalType": "bytes32",
          "name": "role",
          "type": "bytes32"
        },
        {
          "internalType": "address",
          "name": "account",
          "type": "address"
        }
      ],
      "name": "revokeRole",
      "outputs": [],
      "stateMutability": "nonpayable",
      "type": "function"
    },
    {
      "inputs": [
        {
          "internalType": "string",
          "name": "",
          "type": "string"
        }
      ],
      "name": "roleEligible",
      "outputs": [
        {
          "internalType": "uint256",
          "name": "",
          "type": "uint256"
        }
      ],
      "stateMutability": "view",
      "type": "function"
    },
    {
      "inputs": [
        {
          "internalType": "uint256",
          "name": "",
          "type": "uint256"
        }
      ],
      "name": "runnerUps",
      "outputs": [
        {
          "internalType": "string",
          "name": "contestantCategory",
          "type": "string"
        },
        {
          "internalType": "address",
          "name": "contestantAddr",
          "type": "address"
        },
        {
          "internalType": "uint256",
          "name": "contestantVoteCount",
          "type": "uint256"
        }
      ],
      "stateMutability": "view",
      "type": "function"
    },
    {
      "inputs": [
        {
          "internalType": "string",
          "name": "_category",
          "type": "string"
        },
        {
          "internalType": "uint256",
          "name": "_roleEligible",
          "type": "uint256"
        }
      ],
      "name": "setVotingCategory",
      "outputs": [],
      "stateMutability": "nonpayable",
      "type": "function"
    },
    {
      "inputs": [
        {
          "internalType": "address",
          "name": "",
          "type": "address"
        }
      ],
      "name": "stakeHolderExists",
      "outputs": [
        {
          "internalType": "bool",
          "name": "",
          "type": "bool"
        }
      ],
      "stateMutability": "view",
      "type": "function"
    },
    {
      "inputs": [],
      "name": "stakeHoldersCount",
      "outputs": [
        {
          "internalType": "uint256",
          "name": "",
          "type": "uint256"
        }
      ],
      "stateMutability": "view",
      "type": "function"
    },
    {
      "inputs": [
        {
          "internalType": "uint256",
          "name": "",
          "type": "uint256"
        }
      ],
      "name": "stakeholderList",
      "outputs": [
        {
          "internalType": "address",
          "name": "",
          "type": "address"
        }
      ],
      "stateMutability": "view",
      "type": "function"
    },
    {
      "inputs": [
        {
          "internalType": "address",
          "name": "",
          "type": "address"
        }
      ],
      "name": "stakeholders",
      "outputs": [
        {
          "internalType": "uint256",
          "name": "id",
          "type": "uint256"
        },
        {
          "internalType": "string",
          "name": "name",
          "type": "string"
        },
        {
          "internalType": "address",
          "name": "holder",
          "type": "address"
        },
        {
          "internalType": "uint256",
          "name": "role",
          "type": "uint256"
        }
      ],
      "stateMutability": "view",
      "type": "function"
    },
    {
      "inputs": [
        {
          "internalType": "uint256",
          "name": "_electionDuration",
          "type": "uint256"
        }
      ],
      "name": "startElection",
      "outputs": [],
      "stateMutability": "nonpayable",
      "type": "function"
    },
    {
      "inputs": [
        {
          "internalType": "uint256",
          "name": "_showInterestDuration",
          "type": "uint256"
        }
      ],
      "name": "startShowInterest",
      "outputs": [],
      "stateMutability": "nonpayable",
      "type": "function"
    },
    {
      "inputs": [
        {
          "internalType": "bytes4",
          "name": "interfaceId",
          "type": "bytes4"
        }
      ],
      "name": "supportsInterface",
      "outputs": [
        {
          "internalType": "bool",
          "name": "",
          "type": "bool"
        }
      ],
      "stateMutability": "view",
      "type": "function"
    },
    {
      "inputs": [],
      "name": "symbol",
      "outputs": [
        {
          "internalType": "string",
          "name": "",
          "type": "string"
        }
      ],
      "stateMutability": "view",
      "type": "function"
    },
    {
      "inputs": [],
      "name": "timeLeft",
      "outputs": [
        {
          "internalType": "uint256",
          "name": "",
          "type": "uint256"
        }
      ],
      "stateMutability": "view",
      "type": "function"
    },
    {
      "inputs": [],
      "name": "timeLefttoShowInterest",
      "outputs": [
        {
          "internalType": "uint256",
          "name": "",
          "type": "uint256"
        }
      ],
      "stateMutability": "view",
      "type": "function"
    },
    {
      "inputs": [],
      "name": "totalSupply",
      "outputs": [
        {
          "internalType": "uint256",
          "name": "",
          "type": "uint256"
        }
      ],
      "stateMutability": "view",
      "type": "function"
    },
    {
      "inputs": [
        {
          "internalType": "address",
          "name": "to",
          "type": "address"
        },
        {
          "internalType": "uint256",
          "name": "amount",
          "type": "uint256"
        }
      ],
      "name": "transfer",
      "outputs": [
        {
          "internalType": "bool",
          "name": "",
          "type": "bool"
        }
      ],
      "stateMutability": "nonpayable",
      "type": "function"
    },
    {
      "inputs": [
        {
          "internalType": "address",
          "name": "from",
          "type": "address"
        },
        {
          "internalType": "address",
          "name": "to",
          "type": "address"
        },
        {
          "internalType": "uint256",
          "name": "amount",
          "type": "uint256"
        }
      ],
      "name": "transferFrom",
      "outputs": [
        {
          "internalType": "bool",
          "name": "",
          "type": "bool"
        }
      ],
      "stateMutability": "nonpayable",
      "type": "function"
    },
    {
      "inputs": [
        {
          "internalType": "uint256",
          "name": "",
          "type": "uint256"
        }
      ],
      "name": "votedFor",
      "outputs": [
        {
          "internalType": "address",
          "name": "",
          "type": "address"
        }
      ],
      "stateMutability": "view",
      "type": "function"
    },
    {
      "inputs": [
        {
          "internalType": "address",
          "name": "",
          "type": "address"
        },
        {
          "internalType": "string",
          "name": "",
          "type": "string"
        }
      ],
      "name": "voters",
      "outputs": [
        {
          "internalType": "bool",
          "name": "voted",
          "type": "bool"
        },
        {
          "internalType": "address",
          "name": "voteChoice",
          "type": "address"
        }
      ],
      "stateMutability": "view",
      "type": "function"
    }
  ],
  "bytecode": "0x6080604052600060075560016008556002600955601e805460ff199081169091556023805490911690553480156200003657600080fd5b50604051806040016040528060098152602001682d3ab934aa37b5b2b760b91b8152506040518060400160405280600381526020016216915560ea1b81525081600390805190602001906200008d929190620005c4565b508051620000a3906004906020840190620005c4565b505050620000c3336a108b2a2c280290940000006200012360201b60201c565b600680546001600160a01b03191633908117909155620000e6906000906200020d565b62000102600080516020620054c98339815191526000620002b1565b6200011d600080516020620054c983398151915233620002fc565b620007f5565b6001600160a01b0382166200017f5760405162461bcd60e51b815260206004820152601f60248201527f45524332303a206d696e7420746f20746865207a65726f20616464726573730060448201526064015b60405180910390fd5b806002600082825462000193919062000718565b90915550506001600160a01b03821660009081526020819052604081208054839290620001c290849062000718565b90915550506040518181526001600160a01b038316906000907fddf252ad1be2c89b69c2b068fc378daa952ba7f163c4a11628f55a4df523b3ef9060200160405180910390a35b5050565b60008281526005602090815260408083206001600160a01b038516845290915290205460ff16620002095760008281526005602090815260408083206001600160a01b03851684529091529020805460ff191660011790556200026d3390565b6001600160a01b0316816001600160a01b0316837f2f8788117e7eff1d82e926ec794901d17c78024a50270940304540a733656f0d60405160405180910390a45050565b600082815260056020526040808220600101805490849055905190918391839186917fbd79b86ffe0ab8e8776151514217cd7cacd52c909f66475c3af44e129f0b00ff9190a4505050565b6000828152600560205260409020600101546200031a81336200032b565b6200032683836200020d565b505050565b60008281526005602090815260408083206001600160a01b038516845290915290205460ff16620002095762000377816001600160a01b03166014620003c860201b620037b11760201c565b6200038d836020620037b1620003c8821b17811c565b604051602001620003a09291906200066a565b60408051601f198184030181529082905262461bcd60e51b82526200017691600401620006e3565b60606000620003d983600262000733565b620003e690600262000718565b6001600160401b038111156200040c57634e487b7160e01b600052604160045260246000fd5b6040519080825280601f01601f19166020018201604052801562000437576020820181803683370190505b509050600360fc1b816000815181106200046157634e487b7160e01b600052603260045260246000fd5b60200101906001600160f81b031916908160001a905350600f60fb1b816001815181106200049f57634e487b7160e01b600052603260045260246000fd5b60200101906001600160f81b031916908160001a9053506000620004c584600262000733565b620004d290600162000718565b90505b60018111156200056c576f181899199a1a9b1b9c1cb0b131b232b360811b85600f16601081106200051657634e487b7160e01b600052603260045260246000fd5b1a60f81b8282815181106200053b57634e487b7160e01b600052603260045260246000fd5b60200101906001600160f81b031916908160001a90535060049490941c93620005648162000788565b9050620004d5565b508315620005bd5760405162461bcd60e51b815260206004820181905260248201527f537472696e67733a20686578206c656e67746820696e73756666696369656e74604482015260640162000176565b9392505050565b828054620005d290620007a2565b90600052602060002090601f016020900481019282620005f6576000855562000641565b82601f106200061157805160ff191683800117855562000641565b8280016001018555821562000641579182015b828111156200064157825182559160200191906001019062000624565b506200064f92915062000653565b5090565b5b808211156200064f576000815560010162000654565b7f416363657373436f6e74726f6c3a206163636f756e7420000000000000000000815260008351620006a481601785016020880162000755565b7001034b99036b4b9b9b4b733903937b6329607d1b6017918401918201528351620006d781602884016020880162000755565b01602801949350505050565b60208152600082518060208401526200070481604085016020870162000755565b601f01601f19169190910160400192915050565b600082198211156200072e576200072e620007df565b500190565b6000816000190483118215151615620007505762000750620007df565b500290565b60005b838110156200077257818101518382015260200162000758565b8381111562000782576000848401525b50505050565b6000816200079a576200079a620007df565b506000190190565b600181811c90821680620007b757607f821691505b60208210811415620007d957634e487b7160e01b600052602260045260246000fd5b50919050565b634e487b7160e01b600052601160045260246000fd5b614cc480620008056000396000f3fe608060405234801561001057600080fd5b50600436106103d05760003560e01c80638ab66a90116101ff578063c3e0e1641161011a578063e0644712116100ad578063f1ad1d0e1161007c578063f1ad1d0e14610975578063f6daef311461098a578063f7be43fb146109a1578063fac65f97146109b657600080fd5b8063e0644712146108a8578063e18b487a146108b5578063e320f57614610923578063e8dcc5581461093657600080fd5b8063da6efb8d116100e9578063da6efb8d1461083d578063dd62ed3e14610845578063df0baf8e1461087e578063dfd50f521461088657600080fd5b8063c3e0e164146107e3578063c90aa2b4146107f6578063cae9fbca146107ff578063d547741f1461082a57600080fd5b8063a457c2d711610192578063b1f013fb11610161578063b1f013fb14610777578063b1f5086e1461078a578063bc9e6d49146107ad578063c07cfca9146107c057600080fd5b8063a457c2d714610736578063a4d1059714610749578063a9059cbb14610751578063aec37eb31461076457600080fd5b806398b1df7e116101ce57806398b1df7e146106f35780639ac4643d14610706578063a097dc4b14610719578063a217fddf1461072e57600080fd5b80638ab66a901461069d57806391d14854146106c157806393fe03a0146106d457806395d89b41146106eb57600080fd5b806336568abe116102ef57806367e7646f1161028257806371942a011161025157806371942a011461064f5780637e7329481461066257806382f7d3921461067557806386e5c15a1461068857600080fd5b806367e7646f146105d257806369c389d0146105e55780636d32dc4b1461061357806370a082311461062657600080fd5b806350c84202116102be57806350c842021461057457806353de7eb11461058a57806355f742951461059d5780635aab453c146105b057600080fd5b806336568abe14610528578063382872591461053b578063395093511461054e57806340cddb4f1461056157600080fd5b806320be2a8511610367578063253eca1f11610336578063253eca1f146104dc5780632d35a8a2146104fd5780632f2ff15d14610506578063313ce5671461051957600080fd5b806320be2a851461048957806323b872dd14610493578063248a9ca3146104a657806324d7806c146104c957600080fd5b80631300a6d1116103a35780631300a6d11461042d5780631312fa921461044357806318160ddd1461046e5780631e5592f41461047657600080fd5b806301ffc9a7146103d557806305cbd154146103fd57806306fdde0314610405578063095ea7b31461041a575b600080fd5b6103e86103e336600461453d565b6109c9565b60405190151581526020015b60405180910390f35b6103e8610a00565b61040d610a1d565b6040516103f4919061495f565b6103e86104283660046143bb565b610aaf565b610435610ac7565b6040519081526020016103f4565b610456610451366004614503565b610aec565b6040516001600160a01b0390911681526020016103f4565b600254610435565b6103e86104843660046143e4565b610b16565b610491611066565b005b6103e86104a13660046142e5565b611450565b6104356104b4366004614503565b60009081526005602052604090206001015490565b6103e86104d7366004614299565b611474565b6104ef6104ea366004614503565b611480565b6040516103f49291906149d4565b610435601c5481565b61049161051436600461451b565b61153c565b604051601281526020016103f4565b61049161053636600461451b565b611567565b6103e8610549366004614299565b6115e5565b6103e861055c3660046143bb565b6115ff565b61049161056f366004614565565b61163e565b61057c611728565b6040516103f4929190614931565b6103e86105983660046146d3565b61194c565b6104916105ab366004614503565b611b2e565b6105c36105be366004614503565b611b69565b6040516103f4939291906149a6565b6104916105e0366004614299565b611c35565b6103e86105f3366004614655565b805160208183018101805160148252928201919093012091525460ff1681565b610491610621366004614503565b611d12565b610435610634366004614299565b6001600160a01b031660009081526020819052604090205490565b6103e861065d366004614299565b611d7c565b600654610456906001600160a01b031681565b6103e8610683366004614299565b611d96565b610435600080516020614c0f83398151915281565b6106b06106ab366004614299565b611db0565b6040516103f4959493929190614a26565b6103e86106cf36600461451b565b611efe565b6106dc611f29565b6040516103f4939291906148b5565b61040d6122bf565b61049161070136600461460c565b6122ce565b610491610714366004614320565b6123ca565b610435600080516020614c2f83398151915281565b610435600081565b6103e86107443660046143bb565b61287c565b61043561290e565b6103e861075f3660046143bb565b61292e565b6103e8610772366004614299565b61293c565b6104356107853660046145a4565b612956565b6103e8610798366004614299565b600d6020526000908152604090205460ff1681565b6103e86107bb366004614299565b612e6a565b6107d36107ce366004614299565b612ebc565b6040516103f49493929190614a73565b6103e86107f1366004614299565b612f77565b610435600c5481565b61043561080d366004614655565b805160208183018101805160158252928201919093012091525481565b61049161083836600461451b565b61309e565b6107d36130c4565b6104356108533660046142b3565b6001600160a01b03918216600090815260016020908152604080832093909416825291909152205490565b6103e861321c565b610899610894366004614503565b613227565b6040516103f493929190614972565b601e546103e89060ff1681565b6109046108c3366004614370565b6019602090815260009283526040909220815180830184018051928152908401929093019190912091525460ff81169061010090046001600160a01b031682565b6040805192151583526001600160a01b039091166020830152016103f4565b610456610931366004614503565b613380565b6103e8610944366004614370565b601d602090815260009283526040909220815180830184018051928152908401929093019190912091525460ff1681565b610435600080516020614c4f83398151915281565b610992613390565b6040516103f4939291906148f8565b610435600080516020614c6f83398151915281565b6104916109c436600461468f565b6135ae565b60006001600160e01b03198216637965db0b60e01b14806109fa57506301ffc9a760e01b6001600160e01b03198316145b92915050565b600080610a0b61290e565b1115610a175750600190565b50600090565b606060038054610a2c90614b8c565b80601f0160208091040260200160405190810160405280929190818152602001828054610a5890614b8c565b8015610aa55780601f10610a7a57610100808354040283529160200191610aa5565b820191906000526020600020905b815481529060010190602001808311610a8857829003601f168201915b5050505050905090565b600033610abd818585613999565b5060019392505050565b600042600f541015610ad95750600090565b42600f54610ae79190614b32565b905090565b601a8181548110610afc57600080fd5b6000918252602090912001546001600160a01b0316905081565b83516000908214610b6e5760405162461bcd60e51b815260206004820152601860248201527f496e76616c696420696e70757420706172616d6574657273000000000000000060448201526064015b60405180910390fd5b60005b85518110156110595760006001600160a01b0316868281518110610ba557634e487b7160e01b600052603260045260246000fd5b60200260200101516001600160a01b03161415610bf65760405162461bcd60e51b815260206004820152600f60248201526e496e76616c6964204164647265737360881b6044820152606401610b65565b838382818110610c1657634e487b7160e01b600052603260045260246000fd5b9050602002013560001415610c2a57600080fd5b60c886511115610c3957600080fd5b60c8831115610c4757600080fd5b600c8054906000610c5783614bc7565b9190505550848181518110610c7c57634e487b7160e01b600052603260045260246000fd5b602002602001015160001415610cd057610ccb600080516020614c4f833981519152878381518110610cbe57634e487b7160e01b600052603260045260246000fd5b602002602001015161153c565b610d94565b848181518110610cf057634e487b7160e01b600052603260045260246000fd5b602002602001015160011415610d3257610ccb600080516020614c0f833981519152878381518110610cbe57634e487b7160e01b600052603260045260246000fd5b848181518110610d5257634e487b7160e01b600052603260045260246000fd5b602002602001015160021415610d9457610d94600080516020614c6f833981519152878381518110610cbe57634e487b7160e01b600052603260045260246000fd5b60006040518060800160405280600c548152602001898481518110610dc957634e487b7160e01b600052603260045260246000fd5b60200260200101518152602001888481518110610df657634e487b7160e01b600052603260045260246000fd5b60200260200101516001600160a01b03168152602001878481518110610e2c57634e487b7160e01b600052603260045260246000fd5b6020026020010151815250905080600b6000898581518110610e5e57634e487b7160e01b600052603260045260246000fd5b60200260200101516001600160a01b03166001600160a01b03168152602001908152602001600020600082015181600001556020820151816001019080519060200190610eac929190613e6e565b5060408201518160020160006101000a8154816001600160a01b0302191690836001600160a01b03160217905550606082015181600301559050506001600d6000898581518110610f0d57634e487b7160e01b600052603260045260246000fd5b60200260200101516001600160a01b03166001600160a01b0316815260200190815260200160002060006101000a81548160ff021916908315150217905550600a878381518110610f6e57634e487b7160e01b600052603260045260246000fd5b60209081029190910181015182546001810184556000938452919092200180546001600160a01b0319166001600160a01b03909216919091179055865161101190889084908110610fcf57634e487b7160e01b600052603260045260246000fd5b6020026020010151868685818110610ff757634e487b7160e01b600052603260045260246000fd5b90506020020135670de0b6b3a764000061075f9190614b13565b6110465760405162461bcd60e51b815260206004820152600660248201526511985a5b195960d21b6044820152606401610b65565b508061105181614bc7565b915050610b71565b5060019695505050505050565b61106f33612e6a565b15156001146110b95760405162461bcd60e51b81526020600482015260166024820152752932b9ba3934b1ba32b2103a379031b7b6b834b632b960511b6044820152606401610b65565b60006110c3610ac7565b11156111115760405162461bcd60e51b815260206004820152601960248201527f456c656374696f6e206973207374696c6c206f6e676f696e67000000000000006044820152606401610b65565b6018546000816001600160401b0381111561113c57634e487b7160e01b600052604160045260246000fd5b604051908082528060200260200182016040528015611165578160200160208202803683370190505b5090506000826001600160401b0381111561119057634e487b7160e01b600052604160045260246000fd5b6040519080825280602002602001820160405280156111b9578160200160208202803683370190505b5090506000836001600160401b038111156111e457634e487b7160e01b600052604160045260246000fd5b60405190808252806020026020018201604052801561121757816020015b60608152602001906001900390816112025790505b50905060005b84811015611401576018818154811061124657634e487b7160e01b600052603260045260246000fd5b906000526020600020906003020160010160009054906101000a90046001600160a01b031684828151811061128b57634e487b7160e01b600052603260045260246000fd5b60200260200101906001600160a01b031690816001600160a01b031681525050601881815481106112cc57634e487b7160e01b600052603260045260246000fd5b9060005260206000209060030201600201548382815181106112fe57634e487b7160e01b600052603260045260246000fd5b6020026020010181815250506018818154811061132b57634e487b7160e01b600052603260045260246000fd5b9060005260206000209060030201600001805461134790614b8c565b80601f016020809104026020016040519081016040528092919081815260200182805461137390614b8c565b80156113c05780601f10611395576101008083540402835291602001916113c0565b820191906000526020600020905b8154815290600101906020018083116113a357829003601f168201915b50505050508282815181106113e557634e487b7160e01b600052603260045260246000fd5b6020026020010181905250806113fa90614bc7565b905061121d565b5082516114149060209081860190613ef2565b508151611428906021906020850190613f47565b50805161143c906022906020840190613f81565b50506023805460ff19166001179055505050565b60003361145e858285613abd565b611469858585613b4f565b506001949350505050565b60006109fa8183611efe565b6017818154811061149057600080fd5b90600052602060002090600202016000915090508060000180546114b390614b8c565b80601f01602080910402602001604051908101604052809291908181526020018280546114df90614b8c565b801561152c5780601f106115015761010080835404028352916020019161152c565b820191906000526020600020905b81548152906001019060200180831161150f57829003601f168201915b5050505050908060010154905082565b6000828152600560205260409020600101546115588133613d1d565b6115628383613d81565b505050565b6001600160a01b03811633146115d75760405162461bcd60e51b815260206004820152602f60248201527f416363657373436f6e74726f6c3a2063616e206f6e6c792072656e6f756e636560448201526e103937b632b9903337b91039b2b63360891b6064820152608401610b65565b6115e18282613e07565b5050565b60006109fa600080516020614c2f83398151915283611efe565b3360008181526001602090815260408083206001600160a01b0387168452909152812054909190610abd9082908690611639908790614afb565b613999565b611647336115e5565b6116635760405162461bcd60e51b8152600401610b65906149f6565b601482826040516116759291906147f0565b9081526040519081900360200190205460ff1615156001146116d95760405162461bcd60e51b815260206004820152601760248201527f43617465676f727920646f6573206e6f742065786973740000000000000000006044820152606401610b65565b601482826040516116eb9291906147f0565b908152604051908190036020018120805460ff19169055601f9061171290849084906147f0565b9081526020016040518091039020600090555050565b60175460609081906000816001600160401b0381111561175857634e487b7160e01b600052604160045260246000fd5b60405190808252806020026020018201604052801561178b57816020015b60608152602001906001900390816117765790505b5090506000826001600160401b038111156117b657634e487b7160e01b600052604160045260246000fd5b6040519080825280602002602001820160405280156117df578160200160208202803683370190505b50905060005b83811015611941576017818154811061180e57634e487b7160e01b600052603260045260246000fd5b9060005260206000209060020201600001805461182a90614b8c565b80601f016020809104026020016040519081016040528092919081815260200182805461185690614b8c565b80156118a35780601f10611878576101008083540402835291602001916118a3565b820191906000526020600020905b81548152906001019060200180831161188657829003601f168201915b50505050508382815181106118c857634e487b7160e01b600052603260045260246000fd5b6020026020010181905250601781815481106118f457634e487b7160e01b600052603260045260246000fd5b90600052602060002090600202016001015482828151811061192657634e487b7160e01b600052603260045260246000fd5b602090810291909101015261193a81614bc7565b90506117e5565b509094909350915050565b6000611957336115e5565b6119735760405162461bcd60e51b8152600401610b65906149f6565b60005b600a548110156114695760006001600160a01b0316600a82815481106119ac57634e487b7160e01b600052603260045260246000fd5b6000918252602090912001546001600160a01b03161415611a015760405162461bcd60e51b815260206004820152600f60248201526e496e76616c6964204164647265737360881b6044820152606401610b65565b600a5460c81015611a605760405162461bcd60e51b8152602060048201526024808201527f65786365656473206e756d626572206f6620616c6c6f776564206164647265736044820152637365737360e01b6064820152608401610b65565b6000600a8281548110611a8357634e487b7160e01b600052603260045260246000fd5b6000918252602090912001546001600160a01b03169050611aa381611d7c565b151560011415611ac957611ac38161075f88670de0b6b3a7640000614b13565b50611b1d565b611ad28161293c565b151560011415611af257611ac38161075f87670de0b6b3a7640000614b13565b611afb81611d96565b151560011415611b1d57611b1b8161075f86670de0b6b3a7640000614b13565b505b50611b2781614bc7565b9050611976565b611b37336115e5565b611b535760405162461bcd60e51b8152600401610b65906149f6565b426011819055611b639082614afb565b60125550565b60188181548110611b7957600080fd5b9060005260206000209060030201600091509050806000018054611b9c90614b8c565b80601f0160208091040260200160405190810160405280929190818152602001828054611bc890614b8c565b8015611c155780601f10611bea57610100808354040283529160200191611c15565b820191906000526020600020905b815481529060010190602001808311611bf857829003601f168201915b50505050600183015460029093015491926001600160a01b031691905083565b611c3e336115e5565b611c5a5760405162461bcd60e51b8152600401610b65906149f6565b611c72600080516020614c2f83398151915282611efe565b1515600114611cc35760405162461bcd60e51b815260206004820152601860248201527f616464726573732069736e277420612064656c656761746500000000000000006044820152606401610b65565b611cdb600080516020614c2f8339815191528261309e565b6040516001600160a01b038216907f927ac0d67c43a3696e15decea2c732884122134cc5185abd7dc8d7b6efd7b8d890600090a250565b611d1b336115e5565b611d375760405162461bcd60e51b8152600401610b65906149f6565b42600e819055611d479082614afb565b600f55600e546040518291907fda870243975052b3d3e838194b621c54d402811f23ff59f9a2fe42bd132317cd90600090a350565b60006109fa600080516020614c4f83398151915283611efe565b60006109fa600080516020614c6f83398151915283611efe565b601b6020526000908152604090208054600182018054919291611dd290614b8c565b80601f0160208091040260200160405190810160405280929190818152602001828054611dfe90614b8c565b8015611e4b5780601f10611e2057610100808354040283529160200191611e4b565b820191906000526020600020905b815481529060010190602001808311611e2e57829003601f168201915b505050600284015460038501805494956001600160a01b03909216949193509150611e7590614b8c565b80601f0160208091040260200160405190810160405280929190818152602001828054611ea190614b8c565b8015611eee5780601f10611ec357610100808354040283529160200191611eee565b820191906000526020600020905b815481529060010190602001808311611ed157829003601f168201915b5050505050908060040154905085565b60009182526005602090815260408084206001600160a01b0393909316845291905290205460ff1690565b601654606090819081906000816001600160401b03811115611f5b57634e487b7160e01b600052604160045260246000fd5b604051908082528060200260200182016040528015611f8e57816020015b6060815260200190600190039081611f795790505b5090506000826001600160401b03811115611fb957634e487b7160e01b600052604160045260246000fd5b604051908082528060200260200182016040528015611fe2578160200160208202803683370190505b5090506000836001600160401b0381111561200d57634e487b7160e01b600052604160045260246000fd5b60405190808252806020026020018201604052801561204057816020015b606081526020019060019003908161202b5790505b50905060005b848110156122b1576016818154811061206f57634e487b7160e01b600052603260045260246000fd5b9060005260206000209060030201600001805461208b90614b8c565b80601f01602080910402602001604051908101604052809291908181526020018280546120b790614b8c565b80156121045780601f106120d957610100808354040283529160200191612104565b820191906000526020600020905b8154815290600101906020018083116120e757829003601f168201915b505050505084828151811061212957634e487b7160e01b600052603260045260246000fd5b60200260200101819052506016818154811061215557634e487b7160e01b600052603260045260246000fd5b906000526020600020906003020160010160009054906101000a90046001600160a01b031683828151811061219a57634e487b7160e01b600052603260045260246000fd5b60200260200101906001600160a01b031690816001600160a01b031681525050601681815481106121db57634e487b7160e01b600052603260045260246000fd5b906000526020600020906003020160020180546121f790614b8c565b80601f016020809104026020016040519081016040528092919081815260200182805461222390614b8c565b80156122705780601f1061224557610100808354040283529160200191612270565b820191906000526020600020905b81548152906001019060200180831161225357829003601f168201915b505050505082828151811061229557634e487b7160e01b600052603260045260246000fd5b6020026020010181905250806122aa90614bc7565b9050612046565b509196909550909350915050565b606060048054610a2c90614b8c565b6122d7336115e5565b6122f35760405162461bcd60e51b8152600401610b65906149f6565b6040805160606020601f8601819004028201810183529181018481526017928291908790879081908501838280828437600092018290525093855250505060209182018590528354600181018555938152819020825180519394600202909101926123619284920190613e6e565b506020820151816001015550506001601484846040516123829291906147f0565b908152604051908190036020018120805492151560ff19909316929092179091558190601f906123b590869086906147f0565b90815260405190819003602001902055505050565b336000908152600d602052604090205460ff16151560011461242e5760405162461bcd60e51b815260206004820152601a60248201527f4f6e6c792061207374616b65686f6c64657220646f20746869730000000000006044820152606401610b65565b61243661321c565b15156001146124875760405162461bcd60e51b815260206004820152601760248201527f456c656374696f6e206861736e277420737461727465640000000000000000006044820152606401610b65565b601482826040516124999291906147f0565b9081526040519081900360200190205460ff1615156001146124f35760405162461bcd60e51b81526020600482015260136024820152723b37ba34b733903430b9b713ba103132b3bab760691b6044820152606401610b65565b60006124fd610ac7565b1161253d5760405162461bcd60e51b815260206004820152601060248201526f159bdd1a5b99c81a185cc8195b99195960821b6044820152606401610b65565b3360009081526019602052604090819020905161255d90849084906147f0565b9081526040519081900360200190205460ff16156125ad5760405162461bcd60e51b815260206004820152600d60248201526c185b1c9958591e481d9bdd1959609a1b6044820152606401610b65565b6001600160a01b0383166000908152601d60205260409081902090516125d690849084906147f0565b9081526040519081900360200190205460ff16151560011461263a5760405162461bcd60e51b815260206004820152601860248201527f61646472657373206e6f74206120636f6e74657374616e7400000000000000006044820152606401610b65565b336000908152601960205260409081902090516001919061265e90859085906147f0565b9081526040805160209281900383018120805460ff19169415159490941790935533600090815260199092529020849161269b90859085906147f0565b90815260408051602092819003830190208054610100600160a81b0319166101006001600160a01b03958616021790559185166000908152601b90915290812060040180546001919083906126f1908490614afb565b91829055506001600160a01b0386166000818152601b602052604090206002810180546001600160a01b031916909217909155909250859150612738906003018585613fda565b50601a80546001810182556000919091527f057c384a7d1c54f3a1b2e5e67b2617b8224fdfd1ea7234eea573a6ff665ff63e0180546001600160a01b0319166001600160a01b038716179055604080516020601f8601819004028101608090810190925260608101858152601892829190889088908190850183828082843760009201829052509385525050506001600160a01b03851660208084019190915260409092018690528354600181018555938152819020825180519394600302909101926128089284920190613e6e565b5060208201516001820180546001600160a01b0319166001600160a01b03909216919091179055604091820151600290910155517fcb6783276e8a4347387036bbfea000268f0a4b1f8c46ac79980609f2af8d2acd9061286d90879087908790614875565b60405180910390a15050505050565b3360008181526001602090815260408083206001600160a01b0387168452909152812054909190838110156129015760405162461bcd60e51b815260206004820152602560248201527f45524332303a2064656372656173656420616c6c6f77616e63652062656c6f77604482015264207a65726f60d81b6064820152608401610b65565b6114698286868403613999565b60004260125410156129205750600090565b42601254610ae79190614b32565b600033610abd818585613b4f565b60006109fa600080516020614c0f83398151915283611efe565b336000908152600d602052604081205460ff1615156001146129ba5760405162461bcd60e51b815260206004820152601a60248201527f4f6e6c792061207374616b65686f6c64657220646f20746869730000000000006044820152606401610b65565b60006129c461290e565b116129fb5760405162461bcd60e51b8152602060048201526007602482015266074696d652075760cc1b6044820152606401610b65565b60148383604051612a0d9291906147f0565b9081526040519081900360200190205460ff161515600114612a645760405162461bcd60e51b815260206004820152601060248201526f18d85d1959dbdc9e481a5b9d985b1a5960821b6044820152606401610b65565b601f8383604051612a769291906147f0565b908152604080516020928190038301902054336000908152600b90935291206003015414612adf5760405162461bcd60e51b8152602060048201526016602482015275125b995b1b1a59da589b19481d1bc818dbdb9d195cdd60521b6044820152606401610b65565b33612b1e5760405162461bcd60e51b815260206004820152600f60248201526e696e76616c6964206164647265737360881b6044820152606401610b65565b336000908152601d6020526040908190209051612b3e90859085906147f0565b9081526040519081900360200190205460ff1615612bae5760405162461bcd60e51b815260206004820152602760248201527f416c72656164792073686f776e20696e74657265737420696e2074686973207060448201526637b9b4ba34b7b760c91b6064820152608401610b65565b601c8054906000612bbe83614bc7565b91905055506040518060a00160405280601c54815260200186868080601f0160208091040260200160405190810160405280939291908181526020018383808284376000920191909152505050908252503360208083019190915260408051601f8701839004830281018301825286815292019190869086908190840183828082843760009201829052509385525050506020918201819052338152601b825260409020825181558282015180519192612c8092600185019290910190613e6e565b5060408201516002820180546001600160a01b0319166001600160a01b0390921691909117905560608201518051612cc2916003840191602090910190613e6e565b5060809190910151600490910155336000908152601d602052604090819020905160019190612cf490869086906147f0565b908152604080519182900360209081018320805494151560ff19909516949094179093556080601f88018490049093028201830190526060810186815260169282919089908990819085018382808284376000920191909152505050908252503360208083019190915260408051601f880183900483028101830182528781529201919087908790819084018382808284376000920182905250939094525050835460018101855593815260209081902083518051949560030290910193612dc3935084929190910190613e6e565b506020828101516001830180546001600160a01b0319166001600160a01b0390921691909117905560408301518051612e029260028501920190613e6e565b5050508282604051612e159291906147f0565b604051908190038120903390612e2e90889088906147f0565b604051908190038120907f03cba2e3c98e48e887437eb5582401c40ffdd3070907507b31010a0630eac22390600090a450601c54949350505050565b6000612e84600080516020614c4f83398151915283611efe565b80612ea25750612ea2600080516020614c0f83398151915283611efe565b15612eaf57506001919050565b506000919050565b919050565b600b6020526000908152604090208054600182018054919291612ede90614b8c565b80601f0160208091040260200160405190810160405280929190818152602001828054612f0a90614b8c565b8015612f575780601f10612f2c57610100808354040283529160200191612f57565b820191906000526020600020905b815481529060010190602001808311612f3a57829003601f168201915b50505050600283015460039093015491926001600160a01b031691905084565b6000612f82336115e5565b612f9e5760405162461bcd60e51b8152600401610b65906149f6565b6001600160a01b0382166000908152600d602052604090205460ff161515600114612fff5760405162461bcd60e51b81526020600482015260116024820152702737ba10309039ba30b5b2b437b63232b960791b6044820152606401610b65565b61300882612e6a565b15156001146130485760405162461bcd60e51b815260206004820152600c60248201526b6e6f7420656c696769626c6560a01b6044820152606401610b65565b613060600080516020614c2f8339815191528361153c565b6040516001600160a01b0383169033907f7178dca5d575a32af7e1a16c7ae7fed6dd17b8fc714643a1cc3715e498531aba90600090a3506001919050565b6000828152600560205260409020600101546130ba8133613d1d565b6115628383613e07565b336000908152600d60205260408120546060908290819060ff1615156001146131235760405162461bcd60e51b81526020600482015260116024820152702737ba10309039ba30b5b2b437b63232b960791b6044820152606401610b65565b336000908152600b6020908152604080832081516080810190925280548252600181018054929391929184019161315990614b8c565b80601f016020809104026020016040519081016040528092919081815260200182805461318590614b8c565b80156131d25780601f106131a7576101008083540402835291602001916131d2565b820191906000526020600020905b8154815290600101906020018083116131b557829003601f168201915b505050918352505060028201546001600160a01b03166020808301919091526003909201546040918201528251918301519083015160609093015191989097509195509350915050565b600080610a0b610ac7565b6016818154811061323757600080fd5b906000526020600020906003020160009150905080600001805461325a90614b8c565b80601f016020809104026020016040519081016040528092919081815260200182805461328690614b8c565b80156132d35780601f106132a8576101008083540402835291602001916132d3565b820191906000526020600020905b8154815290600101906020018083116132b657829003601f168201915b505050600184015460028501805494956001600160a01b039092169491935091506132fd90614b8c565b80601f016020809104026020016040519081016040528092919081815260200182805461332990614b8c565b80156133765780601f1061334b57610100808354040283529160200191613376565b820191906000526020600020905b81548152906001019060200180831161335957829003601f168201915b5050505050905083565b600a8181548110610afc57600080fd5b606080606061339e336115e5565b6133ba5760405162461bcd60e51b8152600401610b65906149f6565b60235460ff1615156001146134115760405162461bcd60e51b815260206004820152601d60248201527f526573756c747320686176656e2774206265656e20636f6d70696c65640000006044820152606401610b65565b601e805460ff191660011790556022805460408051602083810282018101909252828152909160219190849060008386015b828210156134ef57838290600052602060002001805461346290614b8c565b80601f016020809104026020016040519081016040528092919081815260200182805461348e90614b8c565b80156134db5780601f106134b0576101008083540402835291602001916134db565b820191906000526020600020905b8154815290600101906020018083116134be57829003601f168201915b505050505081526020019060010190613443565b5050505092508180548060200260200160405190810160405280929190818152602001828054801561354a57602002820191906000526020600020905b81546001600160a01b0316815260019091019060200180831161352c575b505050505091508080548060200260200160405190810160405280929190818152602001828054801561359c57602002820191906000526020600020905b815481526020019060010190808311613588575b50505050509050925092509250909192565b6135b7336115e5565b6135d35760405162461bcd60e51b8152600401610b65906149f6565b6001600160a01b0382166000908152600d602052604090205460ff161561364a5760405162461bcd60e51b815260206004820152602560248201527f54686973206164647265737320697320616c72656164792061207374616b656860448201526437b63232b960d91b6064820152608401610b65565b600c805490600061365a83614bc7565b9091555050806136815761367c600080516020614c4f8339815191528361153c565b6136c3565b80600114156136a25761367c600080516020614c0f8339815191528361153c565b80600214156136c3576136c3600080516020614c6f8339815191528361153c565b60408051608081018252600c54815260208082018681526001600160a01b038616838501819052606084018690526000908152600b835293909320825181559251805192938493909261371d926001850192910190613e6e565b506040828101516002830180546001600160a01b039283166001600160a01b03199182161790915560609094015160039093019290925594166000818152600d602052948520805460ff19166001908117909155600a805491820181559095527fc65a7bb8d6351c1cf70c95a316cc6a92839c986682d98bc35f958f4883f9d2a89094018054909116909317909255505050565b606060006137c0836002614b13565b6137cb906002614afb565b6001600160401b038111156137f057634e487b7160e01b600052604160045260246000fd5b6040519080825280601f01601f19166020018201604052801561381a576020820181803683370190505b509050600360fc1b8160008151811061384357634e487b7160e01b600052603260045260246000fd5b60200101906001600160f81b031916908160001a905350600f60fb1b8160018151811061388057634e487b7160e01b600052603260045260246000fd5b60200101906001600160f81b031916908160001a90535060006138a4846002614b13565b6138af906001614afb565b90505b6001811115613943576f181899199a1a9b1b9c1cb0b131b232b360811b85600f16601081106138f157634e487b7160e01b600052603260045260246000fd5b1a60f81b82828151811061391557634e487b7160e01b600052603260045260246000fd5b60200101906001600160f81b031916908160001a90535060049490941c9361393c81614b75565b90506138b2565b5083156139925760405162461bcd60e51b815260206004820181905260248201527f537472696e67733a20686578206c656e67746820696e73756666696369656e746044820152606401610b65565b9392505050565b6001600160a01b0383166139fb5760405162461bcd60e51b8152602060048201526024808201527f45524332303a20617070726f76652066726f6d20746865207a65726f206164646044820152637265737360e01b6064820152608401610b65565b6001600160a01b038216613a5c5760405162461bcd60e51b815260206004820152602260248201527f45524332303a20617070726f766520746f20746865207a65726f206164647265604482015261737360f01b6064820152608401610b65565b6001600160a01b0383811660008181526001602090815260408083209487168084529482529182902085905590518481527f8c5be1e5ebec7d5bd14f71427d1e84f3dd0314c0f7b2291e5b200ac8c7c3b925910160405180910390a3505050565b6001600160a01b038381166000908152600160209081526040808320938616835292905220546000198114613b495781811015613b3c5760405162461bcd60e51b815260206004820152601d60248201527f45524332303a20696e73756666696369656e7420616c6c6f77616e63650000006044820152606401610b65565b613b498484848403613999565b50505050565b6001600160a01b038316613bb35760405162461bcd60e51b815260206004820152602560248201527f45524332303a207472616e736665722066726f6d20746865207a65726f206164604482015264647265737360d81b6064820152608401610b65565b6001600160a01b038216613c155760405162461bcd60e51b815260206004820152602360248201527f45524332303a207472616e7366657220746f20746865207a65726f206164647260448201526265737360e81b6064820152608401610b65565b6001600160a01b03831660009081526020819052604090205481811015613c8d5760405162461bcd60e51b815260206004820152602660248201527f45524332303a207472616e7366657220616d6f756e7420657863656564732062604482015265616c616e636560d01b6064820152608401610b65565b6001600160a01b03808516600090815260208190526040808220858503905591851681529081208054849290613cc4908490614afb565b92505081905550826001600160a01b0316846001600160a01b03167fddf252ad1be2c89b69c2b068fc378daa952ba7f163c4a11628f55a4df523b3ef84604051613d1091815260200190565b60405180910390a3613b49565b613d278282611efe565b6115e157613d3f816001600160a01b031660146137b1565b613d4a8360206137b1565b604051602001613d5b929190614800565b60408051601f198184030181529082905262461bcd60e51b8252610b659160040161495f565b613d8b8282611efe565b6115e15760008281526005602090815260408083206001600160a01b03851684529091529020805460ff19166001179055613dc33390565b6001600160a01b0316816001600160a01b0316837f2f8788117e7eff1d82e926ec794901d17c78024a50270940304540a733656f0d60405160405180910390a45050565b613e118282611efe565b156115e15760008281526005602090815260408083206001600160a01b0385168085529252808320805460ff1916905551339285917ff6391f5c32d9c69d2a47ea670b442974b53935d1edc7fd64eb21e047a839171b9190a45050565b828054613e7a90614b8c565b90600052602060002090601f016020900481019282613e9c5760008555613ee2565b82601f10613eb557805160ff1916838001178555613ee2565b82800160010185558215613ee2579182015b82811115613ee2578251825591602001919060010190613ec7565b50613eee92915061404e565b5090565b828054828255906000526020600020908101928215613ee2579160200282015b82811115613ee257825182546001600160a01b0319166001600160a01b03909116178255602090920191600190910190613f12565b828054828255906000526020600020908101928215613ee25791602002820182811115613ee2578251825591602001919060010190613ec7565b828054828255906000526020600020908101928215613fce579160200282015b82811115613fce5782518051613fbe918491602090910190613e6e565b5091602001919060010190613fa1565b50613eee929150614063565b828054613fe690614b8c565b90600052602060002090601f0160209004810192826140085760008555613ee2565b82601f106140215782800160ff19823516178555613ee2565b82800160010185558215613ee2579182015b82811115613ee2578235825591602001919060010190614033565b5b80821115613eee576000815560010161404f565b80821115613eee5760006140778282614080565b50600101614063565b50805461408c90614b8c565b6000825580601f1061409c575050565b601f0160209004906000526020600020908101906140ba919061404e565b50565b80356001600160a01b0381168114612eb757600080fd5b600082601f8301126140e4578081fd5b813560206140f96140f483614ad8565b614aa8565b80838252828201915082860187848660051b8901011115614118578586fd5b855b8581101561413d5761412b826140bd565b8452928401929084019060010161411a565b5090979650505050505050565b60008083601f84011261415b578182fd5b5081356001600160401b03811115614171578182fd5b6020830191508360208260051b850101111561418c57600080fd5b9250929050565b600082601f8301126141a3578081fd5b813560206141b36140f483614ad8565b80838252828201915082860187848660051b89010111156141d2578586fd5b855b8581101561413d578135845292840192908401906001016141d4565b60008083601f840112614201578182fd5b5081356001600160401b03811115614217578182fd5b60208301915083602082850101111561418c57600080fd5b600082601f83011261423f578081fd5b81356001600160401b0381111561425857614258614bf8565b61426b601f8201601f1916602001614aa8565b81815284602083860101111561427f578283fd5b816020850160208301379081016020019190915292915050565b6000602082840312156142aa578081fd5b613992826140bd565b600080604083850312156142c5578081fd5b6142ce836140bd565b91506142dc602084016140bd565b90509250929050565b6000806000606084860312156142f9578081fd5b614302846140bd565b9250614310602085016140bd565b9150604084013590509250925092565b600080600060408486031215614334578283fd5b61433d846140bd565b925060208401356001600160401b03811115614357578283fd5b614363868287016141f0565b9497909650939450505050565b60008060408385031215614382578182fd5b61438b836140bd565b915060208301356001600160401b038111156143a5578182fd5b6143b18582860161422f565b9150509250929050565b600080604083850312156143cd578182fd5b6143d6836140bd565b946020939093013593505050565b6000806000806000608086880312156143fb578081fd5b85356001600160401b0380821115614411578283fd5b818801915088601f830112614424578283fd5b813560206144346140f483614ad8565b8083825282820191508286018d848660051b8901011115614453578788fd5b875b8581101561448b57868235111561446a578889fd5b6144798f8684358b010161422f565b84529284019290840190600101614455565b50909a505050890135925050808211156144a3578283fd5b6144af89838a016140d4565b955060408801359150808211156144c4578283fd5b6144d089838a01614193565b945060608801359150808211156144e5578283fd5b506144f28882890161414a565b969995985093965092949392505050565b600060208284031215614514578081fd5b5035919050565b6000806040838503121561452d578182fd5b823591506142dc602084016140bd565b60006020828403121561454e578081fd5b81356001600160e01b031981168114613992578182fd5b60008060208385031215614577578182fd5b82356001600160401b0381111561458c578283fd5b614598858286016141f0565b90969095509350505050565b600080600080604085870312156145b9578182fd5b84356001600160401b03808211156145cf578384fd5b6145db888389016141f0565b909650945060208701359150808211156145f3578384fd5b50614600878288016141f0565b95989497509550505050565b600080600060408486031215614620578081fd5b83356001600160401b03811115614635578182fd5b614641868287016141f0565b909790965060209590950135949350505050565b600060208284031215614666578081fd5b81356001600160401b0381111561467b578182fd5b6146878482850161422f565b949350505050565b6000806000606084860312156146a3578081fd5b83356001600160401b038111156146b8578182fd5b6146c48682870161422f565b935050614310602085016140bd565b6000806000606084860312156146e7578081fd5b505081359360208301359350604090920135919050565b6000815180845260208085019450808401835b838110156147365781516001600160a01b031687529582019590820190600101614711565b509495945050505050565b600081518084526020808501808196508360051b81019150828601855b858110156147885782840389526147768483516147c4565b9885019893509084019060010161475e565b5091979650505050505050565b6000815180845260208085019450808401835b83811015614736578151875295820195908201906001016147a8565b600081518084526147dc816020860160208601614b49565b601f01601f19169290920160200192915050565b8183823760009101908152919050565b7f416363657373436f6e74726f6c3a206163636f756e7420000000000000000000815260008351614838816017850160208801614b49565b7001034b99036b4b9b9b4b733903937b6329607d1b6017918401918201528351614869816028840160208801614b49565b01602801949350505050565b6001600160a01b03841681526040602082018190528101829052818360608301376000818301606090810191909152601f909201601f1916010192915050565b6060815260006148c86060830186614741565b82810360208401526148da81866146fe565b905082810360408401526148ee8185614741565b9695505050505050565b60608152600061490b6060830186614741565b828103602084015261491d81866146fe565b905082810360408401526148ee8185614795565b6040815260006149446040830185614741565b82810360208401526149568185614795565b95945050505050565b60208152600061399260208301846147c4565b60608152600061498560608301866147c4565b6001600160a01b038516602084015282810360408401526148ee81856147c4565b6060815260006149b960608301866147c4565b6001600160a01b039490941660208301525060400152919050565b6040815260006149e760408301856147c4565b90508260208301529392505050565b6020808252601690820152752932b9ba3934b1ba32b2103a379031b430b4b936b0b760511b604082015260600190565b85815260a060208201526000614a3f60a08301876147c4565b6001600160a01b03861660408401528281036060840152614a6081866147c4565b9150508260808301529695505050505050565b848152608060208201526000614a8c60808301866147c4565b6001600160a01b03949094166040830152506060015292915050565b604051601f8201601f191681016001600160401b0381118282101715614ad057614ad0614bf8565b604052919050565b60006001600160401b03821115614af157614af1614bf8565b5060051b60200190565b60008219821115614b0e57614b0e614be2565b500190565b6000816000190483118215151615614b2d57614b2d614be2565b500290565b600082821015614b4457614b44614be2565b500390565b60005b83811015614b64578181015183820152602001614b4c565b83811115613b495750506000910152565b600081614b8457614b84614be2565b506000190190565b600181811c90821680614ba057607f821691505b60208210811415614bc157634e487b7160e01b600052602260045260246000fd5b50919050565b6000600019821415614bdb57614bdb614be2565b5060010190565b634e487b7160e01b600052601160045260246000fd5b634e487b7160e01b600052604160045260246000fdfe534b5b9fe29299d99ea2855da6940643d68ed225db268dc8d86c1f38df5de7945778c2f7d924e55986d549d645f53119b71708389fc2011260c8a657c569fcaa2d2faaed8c23be685754c2c857d2b54442ae50d4706ce4165904c05bfc05c45fc951d7098b66ba0b8b77265b6e9cf0e187d73125a42bcd0061b09a68be421810a264697066735822122042bf351d2b193f3f706db992a6d3d27ee171430aa255e436cec20aa8e29c0b6664736f6c634300080400335778c2f7d924e55986d549d645f53119b71708389fc2011260c8a657c569fcaa",
  "linkReferences": {},
  "deployedLinkReferences": {}
}