{
  "_format": "hh-sol-artifact-1",
  "contractName": "Election",
  "sourceName": "contracts/Election.sol",
  "abi": [
    {
      "inputs": [],
      "stateMutability": "nonpayable",
      "type": "constructor"
    },
    {
      "anonymous": false,
      "inputs": [
        {
          "indexed": true,
          "internalType": "address",
          "name": "owner",
          "type": "address"
        },
        {
          "indexed": true,
          "internalType": "address",
          "name": "spender",
          "type": "address"
        },
        {
          "indexed": false,
          "internalType": "uint256",
          "name": "value",
          "type": "uint256"
        }
      ],
      "name": "Approval",
      "type": "event"
    },
    {
      "anonymous": false,
      "inputs": [
        {
          "indexed": true,
          "internalType": "address",
          "name": "to",
          "type": "address"
        }
      ],
      "name": "DelegateChairman",
      "type": "event"
    },
    {
      "anonymous": false,
      "inputs": [
        {
          "indexed": true,
          "internalType": "address",
          "name": "from",
          "type": "address"
        },
        {
          "indexed": true,
          "internalType": "address",
          "name": "to",
          "type": "address"
        },
        {
          "indexed": false,
          "internalType": "uint256",
          "name": "value",
          "type": "uint256"
        }
      ],
      "name": "Transfer",
      "type": "event"
    },
    {
      "anonymous": false,
      "inputs": [
        {
          "indexed": false,
          "internalType": "address",
          "name": "voteChoice",
          "type": "address"
        },
        {
          "indexed": false,
          "internalType": "string",
          "name": "Category",
          "type": "string"
        }
      ],
      "name": "Voted",
      "type": "event"
    },
    {
      "inputs": [
        {
          "internalType": "string",
          "name": "_name",
          "type": "string"
        },
        {
          "internalType": "address",
          "name": "_holder",
          "type": "address"
        },
        {
          "internalType": "uint256",
          "name": "_role",
          "type": "uint256"
        }
      ],
      "name": "addStakeHolder",
      "outputs": [],
      "stateMutability": "nonpayable",
      "type": "function"
    },
    {
      "inputs": [
        {
          "internalType": "address",
          "name": "owner",
          "type": "address"
        },
        {
          "internalType": "address",
          "name": "spender",
          "type": "address"
        }
      ],
      "name": "allowance",
      "outputs": [
        {
          "internalType": "uint256",
          "name": "",
          "type": "uint256"
        }
      ],
      "stateMutability": "view",
      "type": "function"
    },
    {
      "inputs": [
        {
          "internalType": "address",
          "name": "spender",
          "type": "address"
        },
        {
          "internalType": "uint256",
          "name": "amount",
          "type": "uint256"
        }
      ],
      "name": "approve",
      "outputs": [
        {
          "internalType": "bool",
          "name": "",
          "type": "bool"
        }
      ],
      "stateMutability": "nonpayable",
      "type": "function"
    },
    {
      "inputs": [
        {
          "internalType": "address",
          "name": "account",
          "type": "address"
        }
      ],
      "name": "balanceOf",
      "outputs": [
        {
          "internalType": "uint256",
          "name": "",
          "type": "uint256"
        }
      ],
      "stateMutability": "view",
      "type": "function"
    },
    {
      "inputs": [
        {
          "internalType": "uint256",
          "name": "boardMemberAmount",
          "type": "uint256"
        },
        {
          "internalType": "uint256",
          "name": "teacherAmount",
          "type": "uint256"
        },
        {
          "internalType": "uint256",
          "name": "studentAmount",
          "type": "uint256"
        }
      ],
      "name": "batchTransferToExistingStakeholders",
      "outputs": [
        {
          "internalType": "bool",
          "name": "transfered",
          "type": "bool"
        }
      ],
      "stateMutability": "nonpayable",
      "type": "function"
    },
    {
      "inputs": [
        {
          "internalType": "address",
          "name": "_addr",
          "type": "address"
        }
      ],
      "name": "boardMemberCheck",
      "outputs": [
        {
          "internalType": "bool",
          "name": "",
          "type": "bool"
        }
      ],
      "stateMutability": "view",
      "type": "function"
    },
    {
      "inputs": [],
      "name": "canStillExpressInterest",
      "outputs": [
        {
          "internalType": "bool",
          "name": "",
          "type": "bool"
        }
      ],
      "stateMutability": "view",
      "type": "function"
    },
    {
      "inputs": [
        {
          "internalType": "address",
          "name": "",
          "type": "address"
        }
      ],
      "name": "candidates",
      "outputs": [
        {
          "internalType": "uint256",
          "name": "id",
          "type": "uint256"
        },
        {
          "internalType": "string",
          "name": "name",
          "type": "string"
        },
        {
          "internalType": "address",
          "name": "contestant",
          "type": "address"
        },
        {
          "internalType": "string",
          "name": "category",
          "type": "string"
        },
        {
          "internalType": "uint256",
          "name": "voteCount",
          "type": "uint256"
        }
      ],
      "stateMutability": "view",
      "type": "function"
    },
    {
      "inputs": [],
      "name": "candidatesCount",
      "outputs": [
        {
          "internalType": "uint256",
          "name": "",
          "type": "uint256"
        }
      ],
      "stateMutability": "view",
      "type": "function"
    },
    {
      "inputs": [
        {
          "internalType": "string",
          "name": "",
          "type": "string"
        }
      ],
      "name": "categorySet",
      "outputs": [
        {
          "internalType": "bool",
          "name": "",
          "type": "bool"
        }
      ],
      "stateMutability": "view",
      "type": "function"
    },
    {
      "inputs": [],
      "name": "chairman",
      "outputs": [
        {
          "internalType": "address",
          "name": "",
          "type": "address"
        }
      ],
      "stateMutability": "view",
      "type": "function"
    },
    {
      "inputs": [],
      "name": "compileVotes",
      "outputs": [
        {
          "internalType": "string[]",
          "name": "",
          "type": "string[]"
        },
        {
          "internalType": "address[]",
          "name": "",
          "type": "address[]"
        },
        {
          "internalType": "uint256[]",
          "name": "",
          "type": "uint256[]"
        }
      ],
      "stateMutability": "view",
      "type": "function"
    },
    {
      "inputs": [
        {
          "internalType": "address",
          "name": "_addr",
          "type": "address"
        }
      ],
      "name": "compilerCheck",
      "outputs": [
        {
          "internalType": "bool",
          "name": "",
          "type": "bool"
        }
      ],
      "stateMutability": "view",
      "type": "function"
    },
    {
      "inputs": [],
      "name": "decimals",
      "outputs": [
        {
          "internalType": "uint8",
          "name": "",
          "type": "uint8"
        }
      ],
      "stateMutability": "view",
      "type": "function"
    },
    {
      "inputs": [
        {
          "internalType": "address",
          "name": "spender",
          "type": "address"
        },
        {
          "internalType": "uint256",
          "name": "subtractedValue",
          "type": "uint256"
        }
      ],
      "name": "decreaseAllowance",
      "outputs": [
        {
          "internalType": "bool",
          "name": "",
          "type": "bool"
        }
      ],
      "stateMutability": "nonpayable",
      "type": "function"
    },
    {
      "inputs": [
        {
          "internalType": "address",
          "name": "newChairman",
          "type": "address"
        }
      ],
      "name": "delegateChairmanship",
      "outputs": [
        {
          "internalType": "bool",
          "name": "changed",
          "type": "bool"
        }
      ],
      "stateMutability": "nonpayable",
      "type": "function"
    },
    {
      "inputs": [
        {
          "internalType": "string",
          "name": "_name",
          "type": "string"
        },
        {
          "internalType": "string",
          "name": "_category",
          "type": "string"
        }
      ],
      "name": "expressInterest",
      "outputs": [
        {
          "internalType": "uint256",
          "name": "",
          "type": "uint256"
        }
      ],
      "stateMutability": "nonpayable",
      "type": "function"
    },
    {
      "inputs": [],
      "name": "getBalance",
      "outputs": [
        {
          "internalType": "uint256",
          "name": "",
          "type": "uint256"
        }
      ],
      "stateMutability": "view",
      "type": "function"
    },
    {
      "inputs": [],
      "name": "getCurrentCategory",
      "outputs": [
        {
          "internalType": "string[]",
          "name": "",
          "type": "string[]"
        },
        {
          "internalType": "uint256",
          "name": "",
          "type": "uint256"
        }
      ],
      "stateMutability": "view",
      "type": "function"
    },
    {
      "inputs": [],
      "name": "getStakeholderDetails",
      "outputs": [
        {
          "internalType": "uint256",
          "name": "id",
          "type": "uint256"
        },
        {
          "internalType": "string",
          "name": "name",
          "type": "string"
        },
        {
          "internalType": "address",
          "name": "holder",
          "type": "address"
        },
        {
          "internalType": "uint256",
          "name": "role",
          "type": "uint256"
        }
      ],
      "stateMutability": "view",
      "type": "function"
    },
    {
      "inputs": [],
      "name": "hasElectionStarted",
      "outputs": [
        {
          "internalType": "bool",
          "name": "",
          "type": "bool"
        }
      ],
      "stateMutability": "view",
      "type": "function"
    },
    {
      "inputs": [
        {
          "internalType": "address",
          "name": "spender",
          "type": "address"
        },
        {
          "internalType": "uint256",
          "name": "addedValue",
          "type": "uint256"
        }
      ],
      "name": "increaseAllowance",
      "outputs": [
        {
          "internalType": "bool",
          "name": "",
          "type": "bool"
        }
      ],
      "stateMutability": "nonpayable",
      "type": "function"
    },
    {
      "inputs": [],
      "name": "isBoardMember",
      "outputs": [
        {
          "internalType": "bool",
          "name": "",
          "type": "bool"
        }
      ],
      "stateMutability": "view",
      "type": "function"
    },
    {
      "inputs": [],
      "name": "isCompiler",
      "outputs": [
        {
          "internalType": "bool",
          "name": "",
          "type": "bool"
        }
      ],
      "stateMutability": "view",
      "type": "function"
    },
    {
      "inputs": [
        {
          "internalType": "address",
          "name": "",
          "type": "address"
        },
        {
          "internalType": "string",
          "name": "",
          "type": "string"
        }
      ],
      "name": "isContesting",
      "outputs": [
        {
          "internalType": "bool",
          "name": "",
          "type": "bool"
        }
      ],
      "stateMutability": "view",
      "type": "function"
    },
    {
      "inputs": [],
      "name": "isResultAnnounced",
      "outputs": [
        {
          "internalType": "bool",
          "name": "",
          "type": "bool"
        }
      ],
      "stateMutability": "view",
      "type": "function"
    },
    {
      "inputs": [],
      "name": "isStudent",
      "outputs": [
        {
          "internalType": "bool",
          "name": "",
          "type": "bool"
        }
      ],
      "stateMutability": "view",
      "type": "function"
    },
    {
      "inputs": [],
      "name": "isTeacher",
      "outputs": [
        {
          "internalType": "bool",
          "name": "",
          "type": "bool"
        }
      ],
      "stateMutability": "view",
      "type": "function"
    },
    {
      "inputs": [],
      "name": "makeResultsPublic",
      "outputs": [
        {
          "internalType": "string[]",
          "name": "",
          "type": "string[]"
        },
        {
          "internalType": "address[]",
          "name": "",
          "type": "address[]"
        },
        {
          "internalType": "uint256[]",
          "name": "",
          "type": "uint256[]"
        }
      ],
      "stateMutability": "nonpayable",
      "type": "function"
    },
    {
      "inputs": [],
      "name": "name",
      "outputs": [
        {
          "internalType": "string",
          "name": "",
          "type": "string"
        }
      ],
      "stateMutability": "view",
      "type": "function"
    },
    {
      "inputs": [
        {
          "internalType": "address",
          "name": "_candidate",
          "type": "address"
        },
        {
          "internalType": "string",
          "name": "_category",
          "type": "string"
        }
      ],
      "name": "placeVote",
      "outputs": [],
      "stateMutability": "nonpayable",
      "type": "function"
    },
    {
      "inputs": [
        {
          "internalType": "string",
          "name": "",
          "type": "string"
        }
      ],
      "name": "roleEligible",
      "outputs": [
        {
          "internalType": "uint256",
          "name": "",
          "type": "uint256"
        }
      ],
      "stateMutability": "view",
      "type": "function"
    },
    {
      "inputs": [
        {
          "internalType": "string",
          "name": "_category",
          "type": "string"
        },
        {
          "internalType": "uint256",
          "name": "_roleEligible",
          "type": "uint256"
        }
      ],
      "name": "setVotingCategory",
      "outputs": [],
      "stateMutability": "nonpayable",
      "type": "function"
    },
    {
      "inputs": [
        {
          "internalType": "address",
          "name": "",
          "type": "address"
        }
      ],
      "name": "stakeHolderExists",
      "outputs": [
        {
          "internalType": "bool",
          "name": "",
          "type": "bool"
        }
      ],
      "stateMutability": "view",
      "type": "function"
    },
    {
      "inputs": [],
      "name": "stakeHoldersCount",
      "outputs": [
        {
          "internalType": "uint256",
          "name": "",
          "type": "uint256"
        }
      ],
      "stateMutability": "view",
      "type": "function"
    },
    {
      "inputs": [
        {
          "internalType": "uint256",
          "name": "",
          "type": "uint256"
        }
      ],
      "name": "stakeholderList",
      "outputs": [
        {
          "internalType": "address",
          "name": "",
          "type": "address"
        }
      ],
      "stateMutability": "view",
      "type": "function"
    },
    {
      "inputs": [
        {
          "internalType": "address",
          "name": "",
          "type": "address"
        }
      ],
      "name": "stakeholders",
      "outputs": [
        {
          "internalType": "uint256",
          "name": "id",
          "type": "uint256"
        },
        {
          "internalType": "string",
          "name": "name",
          "type": "string"
        },
        {
          "internalType": "address",
          "name": "holder",
          "type": "address"
        },
        {
          "internalType": "uint256",
          "name": "role",
          "type": "uint256"
        }
      ],
      "stateMutability": "view",
      "type": "function"
    },
    {
      "inputs": [
        {
          "internalType": "uint256",
          "name": "_electionDuration",
          "type": "uint256"
        }
      ],
      "name": "startElection",
      "outputs": [],
      "stateMutability": "nonpayable",
      "type": "function"
    },
    {
      "inputs": [
        {
          "internalType": "uint256",
          "name": "_showInterestDuration",
          "type": "uint256"
        }
      ],
      "name": "startShowInterest",
      "outputs": [],
      "stateMutability": "nonpayable",
      "type": "function"
    },
    {
      "inputs": [
        {
          "internalType": "address",
          "name": "_addr",
          "type": "address"
        }
      ],
      "name": "studentshipCheck",
      "outputs": [
        {
          "internalType": "bool",
          "name": "",
          "type": "bool"
        }
      ],
      "stateMutability": "view",
      "type": "function"
    },
    {
      "inputs": [],
      "name": "symbol",
      "outputs": [
        {
          "internalType": "string",
          "name": "",
          "type": "string"
        }
      ],
      "stateMutability": "view",
      "type": "function"
    },
    {
      "inputs": [
        {
          "internalType": "address",
          "name": "_addr",
          "type": "address"
        }
      ],
      "name": "teacherCheck",
      "outputs": [
        {
          "internalType": "bool",
          "name": "",
          "type": "bool"
        }
      ],
      "stateMutability": "view",
      "type": "function"
    },
    {
      "inputs": [],
      "name": "timeLeft",
      "outputs": [
        {
          "internalType": "uint256",
          "name": "",
          "type": "uint256"
        }
      ],
      "stateMutability": "view",
      "type": "function"
    },
    {
      "inputs": [],
      "name": "timeLefttoShowInterest",
      "outputs": [
        {
          "internalType": "uint256",
          "name": "",
          "type": "uint256"
        }
      ],
      "stateMutability": "view",
      "type": "function"
    },
    {
      "inputs": [],
      "name": "totalSupply",
      "outputs": [
        {
          "internalType": "uint256",
          "name": "",
          "type": "uint256"
        }
      ],
      "stateMutability": "view",
      "type": "function"
    },
    {
      "inputs": [
        {
          "internalType": "address",
          "name": "to",
          "type": "address"
        },
        {
          "internalType": "uint256",
          "name": "amount",
          "type": "uint256"
        }
      ],
      "name": "transfer",
      "outputs": [
        {
          "internalType": "bool",
          "name": "",
          "type": "bool"
        }
      ],
      "stateMutability": "nonpayable",
      "type": "function"
    },
    {
      "inputs": [
        {
          "internalType": "address",
          "name": "from",
          "type": "address"
        },
        {
          "internalType": "address",
          "name": "to",
          "type": "address"
        },
        {
          "internalType": "uint256",
          "name": "amount",
          "type": "uint256"
        }
      ],
      "name": "transferFrom",
      "outputs": [
        {
          "internalType": "bool",
          "name": "",
          "type": "bool"
        }
      ],
      "stateMutability": "nonpayable",
      "type": "function"
    },
    {
      "inputs": [
        {
          "internalType": "uint256",
          "name": "",
          "type": "uint256"
        }
      ],
      "name": "voteCategory",
      "outputs": [
        {
          "internalType": "string",
          "name": "",
          "type": "string"
        }
      ],
      "stateMutability": "view",
      "type": "function"
    },
    {
      "inputs": [
        {
          "internalType": "uint256",
          "name": "",
          "type": "uint256"
        }
      ],
      "name": "votedFor",
      "outputs": [
        {
          "internalType": "address",
          "name": "",
          "type": "address"
        }
      ],
      "stateMutability": "view",
      "type": "function"
    },
    {
      "inputs": [
        {
          "internalType": "address",
          "name": "",
          "type": "address"
        },
        {
          "internalType": "string",
          "name": "",
          "type": "string"
        }
      ],
      "name": "voters",
      "outputs": [
        {
          "internalType": "bool",
          "name": "",
          "type": "bool"
        }
      ],
      "stateMutability": "view",
      "type": "function"
    }
  ],
  "bytecode": "0x60806040526001600c556000600d556002600e556000601b60006101000a81548160ff0219169083151502179055506000601b60016101000a81548160ff0219169083151502179055503480156200005657600080fd5b506040518060400160405280600981526020017f5a757269546f6b656e00000000000000000000000000000000000000000000008152506040518060400160405280600381526020017f5a455400000000000000000000000000000000000000000000000000000000008152508160039080519060200190620000db929190620002de565b508060049080519060200190620000f4929190620002de565b50505062000114336a108b2a2c280290940000006200015b60201b60201c565b33600560006101000a81548173ffffffffffffffffffffffffffffffffffffffff021916908373ffffffffffffffffffffffffffffffffffffffff1602179055506200053a565b600073ffffffffffffffffffffffffffffffffffffffff168273ffffffffffffffffffffffffffffffffffffffff161415620001ce576040517f08c379a0000000000000000000000000000000000000000000000000000000008152600401620001c590620003c6565b60405180910390fd5b620001e260008383620002d460201b60201c565b8060026000828254620001f6919062000416565b92505081905550806000808473ffffffffffffffffffffffffffffffffffffffff1673ffffffffffffffffffffffffffffffffffffffff16815260200190815260200160002060008282546200024d919062000416565b925050819055508173ffffffffffffffffffffffffffffffffffffffff16600073ffffffffffffffffffffffffffffffffffffffff167fddf252ad1be2c89b69c2b068fc378daa952ba7f163c4a11628f55a4df523b3ef83604051620002b49190620003e8565b60405180910390a3620002d060008383620002d960201b60201c565b5050565b505050565b505050565b828054620002ec906200047d565b90600052602060002090601f0160209004810192826200031057600085556200035c565b82601f106200032b57805160ff19168380011785556200035c565b828001600101855582156200035c579182015b828111156200035b5782518255916020019190600101906200033e565b5b5090506200036b91906200036f565b5090565b5b808211156200038a57600081600090555060010162000370565b5090565b60006200039d601f8362000405565b9150620003aa8262000511565b602082019050919050565b620003c08162000473565b82525050565b60006020820190508181036000830152620003e1816200038e565b9050919050565b6000602082019050620003ff6000830184620003b5565b92915050565b600082825260208201905092915050565b6000620004238262000473565b9150620004308362000473565b9250827fffffffffffffffffffffffffffffffffffffffffffffffffffffffffffffffff03821115620004685762000467620004b3565b5b828201905092915050565b6000819050919050565b600060028204905060018216806200049657607f821691505b60208210811415620004ad57620004ac620004e2565b5b50919050565b7f4e487b7100000000000000000000000000000000000000000000000000000000600052601160045260246000fd5b7f4e487b7100000000000000000000000000000000000000000000000000000000600052602260045260246000fd5b7f45524332303a206d696e7420746f20746865207a65726f206164647265737300600082015250565b615cd7806200054a6000396000f3fe608060405234801561001057600080fd5b50600436106102d65760003560e01c806387f7b97511610182578063c07cfca9116100e9578063dd62ed3e116100a2578063e320f5761161007c578063e320f576146109d0578063e8dcc55814610a00578063f6daef3114610a30578063fac65f9714610a50576102d6565b8063dd62ed3e14610952578063e064471214610982578063e18b487a146109a0576102d6565b8063c07cfca914610862578063c3e0e16414610895578063c64a4bad146108c5578063c90aa2b4146108e3578063cae9fbca14610901578063da6efb8d14610931576102d6565b8063a4d105971161013b578063a4d1059714610766578063a9059cbb14610784578063a9be32fa146107b4578063b1f013fb146107d2578063b1f5086e14610802578063bfe162ce14610832576102d6565b806387f7b9751461068e5780638ab66a90146106ac57806395d89b41146106e057806398b1df7e146106fe5780639ac4643d1461071a578063a457c2d714610736576102d6565b8063313ce5671161024157806355f74295116101fa5780635ea976bf116101d45780635ea976bf146105f457806369c389d0146106125780636d32dc4b1461064257806370a082311461065e576102d6565b806355f742951461058a57806358c0978d146105a65780635c1b7f07146105d6576102d6565b8063313ce5671461049f57806339509351146104bd5780633d1563a9146104ed57806350c842021461051d57806351e0a6eb1461053c57806353de7eb11461055a576102d6565b80631312fa92116102935780631312fa92146103b357806318160ddd146103e357806320be2a851461040157806322c75d2f1461042157806323b872dd146104515780632d35a8a214610481576102d6565b806301b24355146102db57806305cbd1541461030b57806306fdde0314610329578063095ea7b31461034757806312065fe0146103775780631300a6d114610395575b600080fd5b6102f560048036038101906102f09190613f08565b610a6c565b6040516103029190614ad9565b60405180910390f35b610313610acd565b6040516103209190614ad9565b60405180910390f35b610331610aef565b60405161033e9190614af4565b60405180910390f35b610361600480360381019061035c9190614068565b610b81565b60405161036e9190614ad9565b60405180910390f35b61037f610ba4565b60405161038c9190614ef6565b60405180910390f35b61039d610bb4565b6040516103aa9190614ef6565b60405180910390f35b6103cd60048036038101906103c89190614219565b610bdb565b6040516103da9190614a10565b60405180910390f35b6103eb610c1a565b6040516103f89190614ef6565b60405180910390f35b610409610c24565b60405161041893929190614a5d565b60405180910390f35b61043b60048036038101906104369190613f08565b6111c0565b6040516104489190614ad9565b60405180910390f35b61046b60048036038101906104669190613f6d565b611221565b6040516104789190614ad9565b60405180910390f35b610489611250565b6040516104969190614ef6565b60405180910390f35b6104a7611256565b6040516104b49190614fbe565b60405180910390f35b6104d760048036038101906104d29190614068565b61125f565b6040516104e49190614ad9565b60405180910390f35b61050760048036038101906105029190614219565b611309565b6040516105149190614af4565b60405180910390f35b6105256113b5565b604051610533929190614aa9565b60405180910390f35b61054461151f565b6040516105519190614ad9565b60405180910390f35b610574600480360381019061056f9190614242565b61157e565b6040516105819190614ad9565b60405180910390f35b6105a4600480360381019061059f9190614219565b61186a565b005b6105c060048036038101906105bb9190613f08565b611933565b6040516105cd9190614ad9565b60405180910390f35b6105de6119e2565b6040516105eb9190614ad9565b60405180910390f35b6105fc611a41565b6040516106099190614ad9565b60405180910390f35b61062c60048036038101906106279190614171565b611aee565b6040516106399190614ad9565b60405180910390f35b61065c60048036038101906106579190614219565b611b24565b005b61067860048036038101906106739190613f08565b611bed565b6040516106859190614ef6565b60405180910390f35b610696611c35565b6040516106a39190614a10565b60405180910390f35b6106c660048036038101906106c19190613f08565b611c5b565b6040516106d7959493929190614f11565b60405180910390f35b6106e8611dc1565b6040516106f59190614af4565b60405180910390f35b61071860048036038101906107139190614119565b611e53565b005b610734600480360381019061072f9190613fbc565b611f84565b005b610750600480360381019061074b9190614068565b61253f565b60405161075d9190614ad9565b60405180910390f35b61076e612629565b60405161077b9190614ef6565b60405180910390f35b61079e60048036038101906107999190614068565b612650565b6040516107ab9190614ad9565b60405180910390f35b6107bc612673565b6040516107c99190614ad9565b60405180910390f35b6107ec60048036038101906107e791906140a4565b612686565b6040516107f99190614ef6565b60405180910390f35b61081c60048036038101906108179190613f08565b612c4c565b6040516108299190614ad9565b60405180910390f35b61084c60048036038101906108479190613f08565b612c6c565b6040516108599190614ad9565b60405180910390f35b61087c60048036038101906108779190613f08565b612ccd565b60405161088c9493929190614f72565b60405180910390f35b6108af60048036038101906108aa9190613f08565b612da5565b6040516108bc9190614ad9565b60405180910390f35b6108cd613065565b6040516108da9190614ad9565b60405180910390f35b6108eb6130c4565b6040516108f89190614ef6565b60405180910390f35b61091b60048036038101906109169190614171565b6130ca565b6040516109289190614ef6565b60405180910390f35b6109396130f8565b6040516109499493929190614f72565b60405180910390f35b61096c60048036038101906109679190613f31565b6132ff565b6040516109799190614ef6565b60405180910390f35b61098a613386565b6040516109979190614ad9565b60405180910390f35b6109ba60048036038101906109b59190614014565b613399565b6040516109c79190614ad9565b60405180910390f35b6109ea60048036038101906109e59190614219565b6133de565b6040516109f79190614a10565b60405180910390f35b610a1a6004803603810190610a159190614014565b61341d565b604051610a279190614ad9565b60405180910390f35b610a38613462565b604051610a4793929190614a5d565b60405180910390f35b610a6a6004803603810190610a6591906141b2565b613525565b005b6000600d54601760008473ffffffffffffffffffffffffffffffffffffffff1673ffffffffffffffffffffffffffffffffffffffff168152602001908152602001600020600301541415610ac35760019050610ac8565b600090505b919050565b600080610ad8612629565b1115610ae75760019050610aec565b600090505b90565b606060038054610afe906152a2565b80601f0160208091040260200160405190810160405280929190818152602001828054610b2a906152a2565b8015610b775780601f10610b4c57610100808354040283529160200191610b77565b820191906000526020600020905b815481529060010190602001808311610b5a57829003601f168201915b5050505050905090565b600080610b8c613819565b9050610b99818585613821565b600191505092915050565b6000610baf33611bed565b905090565b6000426007541015610bc7576000610bd6565b42600754610bd591906151d7565b5b905090565b60148181548110610beb57600080fd5b906000526020600020016000915054906101000a900473ffffffffffffffffffffffffffffffffffffffff1681565b6000600254905090565b606080606060011515610c35611a41565b151514610c77576040517f08c379a0000000000000000000000000000000000000000000000000000000008152600401610c6e90614db6565b60405180910390fd5b600560009054906101000a900473ffffffffffffffffffffffffffffffffffffffff1673ffffffffffffffffffffffffffffffffffffffff163373ffffffffffffffffffffffffffffffffffffffff1614610d07576040517f08c379a0000000000000000000000000000000000000000000000000000000008152600401610cfe90614d36565b60405180910390fd5b6000610d11610bb4565b1115610d52576040517f08c379a0000000000000000000000000000000000000000000000000000000008152600401610d4990614eb6565b60405180910390fd5b6000601480549050905060008167ffffffffffffffff811115610d9e577f4e487b7100000000000000000000000000000000000000000000000000000000600052604160045260246000fd5b604051908082528060200260200182016040528015610dd157816020015b6060815260200190600190039081610dbc5790505b50905060008267ffffffffffffffff811115610e16577f4e487b7100000000000000000000000000000000000000000000000000000000600052604160045260246000fd5b604051908082528060200260200182016040528015610e445781602001602082028036833780820191505090505b50905060008367ffffffffffffffff811115610e89577f4e487b7100000000000000000000000000000000000000000000000000000000600052604160045260246000fd5b604051908082528060200260200182016040528015610eb75781602001602082028036833780820191505090505b50905060005b848110156111ad57600060148281548110610f01577f4e487b7100000000000000000000000000000000000000000000000000000000600052603260045260246000fd5b9060005260206000200160009054906101000a900473ffffffffffffffffffffffffffffffffffffffff169050601560008273ffffffffffffffffffffffffffffffffffffffff1673ffffffffffffffffffffffffffffffffffffffff1681526020019081526020016000206003018054610f7b906152a2565b80601f0160208091040260200160405190810160405280929190818152602001828054610fa7906152a2565b8015610ff45780601f10610fc957610100808354040283529160200191610ff4565b820191906000526020600020905b815481529060010190602001808311610fd757829003601f168201915b5050505050858381518110611032577f4e487b7100000000000000000000000000000000000000000000000000000000600052603260045260246000fd5b6020026020010181905250601560008273ffffffffffffffffffffffffffffffffffffffff1673ffffffffffffffffffffffffffffffffffffffff16815260200190815260200160002060020160009054906101000a900473ffffffffffffffffffffffffffffffffffffffff168483815181106110d9577f4e487b7100000000000000000000000000000000000000000000000000000000600052603260045260246000fd5b602002602001019073ffffffffffffffffffffffffffffffffffffffff16908173ffffffffffffffffffffffffffffffffffffffff1681525050601560008273ffffffffffffffffffffffffffffffffffffffff1673ffffffffffffffffffffffffffffffffffffffff1681526020019081526020016000206004015483838151811061118f577f4e487b7100000000000000000000000000000000000000000000000000000000600052603260045260246000fd5b60200260200101818152505050806111a690615305565b9050610ebd565b5082828296509650965050505050909192565b6000600c54601760008473ffffffffffffffffffffffffffffffffffffffff1673ffffffffffffffffffffffffffffffffffffffff168152602001908152602001600020600301541415611217576001905061121c565b600090505b919050565b60008061122c613819565b90506112398582856139ec565b611244858585613a78565b60019150509392505050565b60165481565b60006012905090565b60008061126a613819565b90506112fe818585600160008673ffffffffffffffffffffffffffffffffffffffff1673ffffffffffffffffffffffffffffffffffffffff16815260200190815260200160002060008973ffffffffffffffffffffffffffffffffffffffff1673ffffffffffffffffffffffffffffffffffffffff168152602001908152602001600020546112f99190615127565b613821565b600191505092915050565b600f818154811061131957600080fd5b906000526020600020016000915090508054611334906152a2565b80601f0160208091040260200160405190810160405280929190818152602001828054611360906152a2565b80156113ad5780601f10611382576101008083540402835291602001916113ad565b820191906000526020600020905b81548152906001019060200180831161139057829003601f168201915b505050505081565b606060008060005b600f8054905081101561143f57601c600f8281548110611406577f4e487b7100000000000000000000000000000000000000000000000000000000600052603260045260246000fd5b9060005260206000200160405161141d91906149f9565b90815260200160405180910390205491508061143890615305565b90506113bd565b50600f8181805480602002602001604051908101604052809291908181526020016000905b82821015611510578382906000526020600020018054611483906152a2565b80601f01602080910402602001604051908101604052809291908181526020018280546114af906152a2565b80156114fc5780601f106114d1576101008083540402835291602001916114fc565b820191906000526020600020905b8154815290600101906020018083116114df57829003601f168201915b505050505081526020019060010190611464565b50505050915092509250509091565b6000600e54601760003373ffffffffffffffffffffffffffffffffffffffff1673ffffffffffffffffffffffffffffffffffffffff168152602001908152602001600020600301541415611576576001905061157b565b600090505b90565b6000600560009054906101000a900473ffffffffffffffffffffffffffffffffffffffff1673ffffffffffffffffffffffffffffffffffffffff163373ffffffffffffffffffffffffffffffffffffffff1614611610576040517f08c379a000000000000000000000000000000000000000000000000000000000815260040161160790614d36565b60405180910390fd5b60005b60128054905081101561185e57600073ffffffffffffffffffffffffffffffffffffffff1660128281548110611672577f4e487b7100000000000000000000000000000000000000000000000000000000600052603260045260246000fd5b9060005260206000200160009054906101000a900473ffffffffffffffffffffffffffffffffffffffff1673ffffffffffffffffffffffffffffffffffffffff1614156116f4576040517f08c379a00000000000000000000000000000000000000000000000000000000081526004016116eb90614e76565b60405180910390fd5b60c8601280549050111561173d576040517f08c379a000000000000000000000000000000000000000000000000000000000815260040161173490614b96565b60405180910390fd5b600060128281548110611779577f4e487b7100000000000000000000000000000000000000000000000000000000600052603260045260246000fd5b9060005260206000200160009054906101000a900473ffffffffffffffffffffffffffffffffffffffff169050600115156117b382610a6c565b151514156117de576117d881670de0b6b3a7640000886117d3919061517d565b612650565b5061184c565b600115156117eb826111c0565b151514156118165761181081670de0b6b3a76400008761180b919061517d565b612650565b5061184b565b6001151561182382612c6c565b1515141561184a5761184881670de0b6b3a764000086611843919061517d565b612650565b505b5b5b508061185790615305565b9050611613565b50600190509392505050565b600560009054906101000a900473ffffffffffffffffffffffffffffffffffffffff1673ffffffffffffffffffffffffffffffffffffffff163373ffffffffffffffffffffffffffffffffffffffff16146118fa576040517f08c379a00000000000000000000000000000000000000000000000000000000081526004016118f190614d36565b60405180910390fd5b426009819055506009548161190f9190615127565b600a819055506000601b60006101000a81548160ff02191690831515021790555050565b6000600c54601760008473ffffffffffffffffffffffffffffffffffffffff1673ffffffffffffffffffffffffffffffffffffffff1681526020019081526020016000206003015414806119ca5750600d54601760008473ffffffffffffffffffffffffffffffffffffffff1673ffffffffffffffffffffffffffffffffffffffff16815260200190815260200160002060030154145b156119d857600190506119dd565b600090505b919050565b6000600d54601760003373ffffffffffffffffffffffffffffffffffffffff1673ffffffffffffffffffffffffffffffffffffffff168152602001908152602001600020600301541415611a395760019050611a3e565b600090505b90565b6000600d54601760003373ffffffffffffffffffffffffffffffffffffffff1673ffffffffffffffffffffffffffffffffffffffff168152602001908152602001600020600301541480611ad85750600c54601760003373ffffffffffffffffffffffffffffffffffffffff1673ffffffffffffffffffffffffffffffffffffffff16815260200190815260200160002060030154145b15611ae65760019050611aeb565b600090505b90565b6010818051602081018201805184825260208301602085012081835280955050505050506000915054906101000a900460ff1681565b600560009054906101000a900473ffffffffffffffffffffffffffffffffffffffff1673ffffffffffffffffffffffffffffffffffffffff163373ffffffffffffffffffffffffffffffffffffffff1614611bb4576040517f08c379a0000000000000000000000000000000000000000000000000000000008152600401611bab90614d36565b60405180910390fd5b4260068190555060065481611bc99190615127565b6007819055506001601b60006101000a81548160ff02191690831515021790555050565b60008060008373ffffffffffffffffffffffffffffffffffffffff1673ffffffffffffffffffffffffffffffffffffffff168152602001908152602001600020549050919050565b600560009054906101000a900473ffffffffffffffffffffffffffffffffffffffff1681565b6015602052806000526040600020600091509050806000015490806001018054611c84906152a2565b80601f0160208091040260200160405190810160405280929190818152602001828054611cb0906152a2565b8015611cfd5780601f10611cd257610100808354040283529160200191611cfd565b820191906000526020600020905b815481529060010190602001808311611ce057829003601f168201915b5050505050908060020160009054906101000a900473ffffffffffffffffffffffffffffffffffffffff1690806003018054611d38906152a2565b80601f0160208091040260200160405190810160405280929190818152602001828054611d64906152a2565b8015611db15780601f10611d8657610100808354040283529160200191611db1565b820191906000526020600020905b815481529060010190602001808311611d9457829003601f168201915b5050505050908060040154905085565b606060048054611dd0906152a2565b80601f0160208091040260200160405190810160405280929190818152602001828054611dfc906152a2565b8015611e495780601f10611e1e57610100808354040283529160200191611e49565b820191906000526020600020905b815481529060010190602001808311611e2c57829003601f168201915b5050505050905090565b600560009054906101000a900473ffffffffffffffffffffffffffffffffffffffff1673ffffffffffffffffffffffffffffffffffffffff163373ffffffffffffffffffffffffffffffffffffffff1614611ee3576040517f08c379a0000000000000000000000000000000000000000000000000000000008152600401611eda90614d36565b60405180910390fd5b600f838390918060018154018082558091505060019003906000526020600020016000909192909192909192909192509190611f20929190613d03565b50600160108484604051611f359291906149e0565b908152602001604051809103902060006101000a81548160ff02191690831515021790555080601c8484604051611f6d9291906149e0565b908152602001604051809103902081905550505050565b60011515601960003373ffffffffffffffffffffffffffffffffffffffff1673ffffffffffffffffffffffffffffffffffffffff16815260200190815260200160002060009054906101000a900460ff16151514612017576040517f08c379a000000000000000000000000000000000000000000000000000000000815260040161200e90614c96565b60405180910390fd5b60011515601b60009054906101000a900460ff1615151461206d576040517f08c379a000000000000000000000000000000000000000000000000000000000815260040161206490614d76565b60405180910390fd5b60011515601083836040516120839291906149e0565b908152602001604051809103902060009054906101000a900460ff161515146120e1576040517f08c379a00000000000000000000000000000000000000000000000000000000081526004016120d890614e16565b60405180910390fd5b60006120eb610bb4565b1161212b576040517f08c379a000000000000000000000000000000000000000000000000000000000815260040161212290614d16565b60405180910390fd5b601360003373ffffffffffffffffffffffffffffffffffffffff1673ffffffffffffffffffffffffffffffffffffffff168152602001908152602001600020828260405161217a9291906149e0565b908152602001604051809103902060009054906101000a900460ff16156121d6576040517f08c379a00000000000000000000000000000000000000000000000000000000081526004016121cd90614c16565b60405180910390fd5b60011515601a60008573ffffffffffffffffffffffffffffffffffffffff1673ffffffffffffffffffffffffffffffffffffffff16815260200190815260200160002083836040516122299291906149e0565b908152602001604051809103902060009054906101000a900460ff16151514612287576040517f08c379a000000000000000000000000000000000000000000000000000000000815260040161227e90614cb6565b60405180910390fd5b6122bc600560009054906101000a900473ffffffffffffffffffffffffffffffffffffffff166802b5e3af16b1880000612650565b6122fb576040517f08c379a00000000000000000000000000000000000000000000000000000000081526004016122f290614d96565b60405180910390fd5b6001601360003373ffffffffffffffffffffffffffffffffffffffff1673ffffffffffffffffffffffffffffffffffffffff168152602001908152602001600020838360405161234c9291906149e0565b908152602001604051809103902060006101000a81548160ff021916908315150217905550601560008473ffffffffffffffffffffffffffffffffffffffff1673ffffffffffffffffffffffffffffffffffffffff16815260200190815260200160002060040160008154809291906123c490615305565b919050555082601560008573ffffffffffffffffffffffffffffffffffffffff1673ffffffffffffffffffffffffffffffffffffffff16815260200190815260200160002060020160006101000a81548173ffffffffffffffffffffffffffffffffffffffff021916908373ffffffffffffffffffffffffffffffffffffffff1602179055508181601560008673ffffffffffffffffffffffffffffffffffffffff1673ffffffffffffffffffffffffffffffffffffffff168152602001908152602001600020600301919061249b929190613d03565b506014839080600181540180825580915050600190039060005260206000200160009091909190916101000a81548173ffffffffffffffffffffffffffffffffffffffff021916908373ffffffffffffffffffffffffffffffffffffffff1602179055507fcb6783276e8a4347387036bbfea000268f0a4b1f8c46ac79980609f2af8d2acd83838360405161253293929190614a2b565b60405180910390a1505050565b60008061254a613819565b90506000600160008373ffffffffffffffffffffffffffffffffffffffff1673ffffffffffffffffffffffffffffffffffffffff16815260200190815260200160002060008673ffffffffffffffffffffffffffffffffffffffff1673ffffffffffffffffffffffffffffffffffffffff16815260200190815260200160002054905083811015612610576040517f08c379a000000000000000000000000000000000000000000000000000000000815260040161260790614ed6565b60405180910390fd5b61261d8286868403613821565b60019250505092915050565b600042600a54101561263c57600061264b565b42600a5461264a91906151d7565b5b905090565b60008061265b613819565b9050612668818585613a78565b600191505092915050565b601b60009054906101000a900460ff1681565b600060011515601960003373ffffffffffffffffffffffffffffffffffffffff1673ffffffffffffffffffffffffffffffffffffffff16815260200190815260200160002060009054906101000a900460ff1615151461271b576040517f08c379a000000000000000000000000000000000000000000000000000000000815260040161271290614c96565b60405180910390fd5b6000612725612629565b11612765576040517f08c379a000000000000000000000000000000000000000000000000000000000815260040161275c90614e36565b60405180910390fd5b600115156010848460405161277b9291906149e0565b908152602001604051809103902060009054906101000a900460ff161515146127d9576040517f08c379a00000000000000000000000000000000000000000000000000000000081526004016127d090614c76565b60405180910390fd5b601c83836040516127eb9291906149e0565b908152602001604051809103902054601760003373ffffffffffffffffffffffffffffffffffffffff1673ffffffffffffffffffffffffffffffffffffffff168152602001908152602001600020600301541461287d576040517f08c379a000000000000000000000000000000000000000000000000000000000815260040161287490614df6565b60405180910390fd5b600073ffffffffffffffffffffffffffffffffffffffff163373ffffffffffffffffffffffffffffffffffffffff1614156128ed576040517f08c379a00000000000000000000000000000000000000000000000000000000081526004016128e490614cd6565b60405180910390fd5b60001515601a60003373ffffffffffffffffffffffffffffffffffffffff1673ffffffffffffffffffffffffffffffffffffffff16815260200190815260200160002084846040516129409291906149e0565b908152602001604051809103902060009054906101000a900460ff1615151461299e576040517f08c379a000000000000000000000000000000000000000000000000000000000815260040161299590614bd6565b60405180910390fd5b6129d3600560009054906101000a900473ffffffffffffffffffffffffffffffffffffffff16680821ab0d4414980000612650565b612a12576040517f08c379a0000000000000000000000000000000000000000000000000000000008152600401612a0990614cf6565b60405180910390fd5b60166000815480929190612a2590615305565b91905055506040518060a00160405280601654815260200186868080601f016020809104026020016040519081016040528093929190818152602001838380828437600081840152601f19601f8201169050808301925050505050505081526020013373ffffffffffffffffffffffffffffffffffffffff16815260200184848080601f016020809104026020016040519081016040528093929190818152602001838380828437600081840152601f19601f8201169050808301925050505050505081526020016000815250601560003373ffffffffffffffffffffffffffffffffffffffff1673ffffffffffffffffffffffffffffffffffffffff168152602001908152602001600020600082015181600001556020820151816001019080519060200190612b57929190613d89565b5060408201518160020160006101000a81548173ffffffffffffffffffffffffffffffffffffffff021916908373ffffffffffffffffffffffffffffffffffffffff1602179055506060820151816003019080519060200190612bbb929190613d89565b50608082015181600401559050506001601a60003373ffffffffffffffffffffffffffffffffffffffff1673ffffffffffffffffffffffffffffffffffffffff1681526020019081526020016000208484604051612c1a9291906149e0565b908152602001604051809103902060006101000a81548160ff0219169083151502179055506016549050949350505050565b60196020528060005260406000206000915054906101000a900460ff1681565b6000600e54601760008473ffffffffffffffffffffffffffffffffffffffff1673ffffffffffffffffffffffffffffffffffffffff168152602001908152602001600020600301541415612cc35760019050612cc8565b600090505b919050565b6017602052806000526040600020600091509050806000015490806001018054612cf6906152a2565b80601f0160208091040260200160405190810160405280929190818152602001828054612d22906152a2565b8015612d6f5780601f10612d4457610100808354040283529160200191612d6f565b820191906000526020600020905b815481529060010190602001808311612d5257829003601f168201915b5050505050908060020160009054906101000a900473ffffffffffffffffffffffffffffffffffffffff16908060030154905084565b6000600560009054906101000a900473ffffffffffffffffffffffffffffffffffffffff1673ffffffffffffffffffffffffffffffffffffffff163373ffffffffffffffffffffffffffffffffffffffff1614612e37576040517f08c379a0000000000000000000000000000000000000000000000000000000008152600401612e2e90614d36565b60405180910390fd5b60011515601960008473ffffffffffffffffffffffffffffffffffffffff1673ffffffffffffffffffffffffffffffffffffffff16815260200190815260200160002060009054906101000a900460ff16151514612eca576040517f08c379a0000000000000000000000000000000000000000000000000000000008152600401612ec190614bf6565b60405180910390fd5b60011515612ed783611933565b151514612f19576040517f08c379a0000000000000000000000000000000000000000000000000000000008152600401612f1090614dd6565b60405180910390fd5b60001515612f2683612c6c565b151514612f68576040517f08c379a0000000000000000000000000000000000000000000000000000000008152600401612f5f90614d56565b60405180910390fd5b600073ffffffffffffffffffffffffffffffffffffffff168273ffffffffffffffffffffffffffffffffffffffff161415612fd8576040517f08c379a0000000000000000000000000000000000000000000000000000000008152600401612fcf90614b76565b60405180910390fd5b81600560006101000a81548173ffffffffffffffffffffffffffffffffffffffff021916908373ffffffffffffffffffffffffffffffffffffffff1602179055508173ffffffffffffffffffffffffffffffffffffffff167f61329b2927c7b239a1a15dcc92e9d85129956c1fde887e4cc2dc9bad7662ddac60405160405180910390a260019050919050565b6000600c54601760003373ffffffffffffffffffffffffffffffffffffffff1673ffffffffffffffffffffffffffffffffffffffff1681526020019081526020016000206003015414156130bc57600190506130c1565b600090505b90565b60185481565b6011818051602081018201805184825260208301602085012081835280955050505050506000915090505481565b6000606060008060011515601960003373ffffffffffffffffffffffffffffffffffffffff1673ffffffffffffffffffffffffffffffffffffffff16815260200190815260200160002060009054906101000a900460ff16151514613192576040517f08c379a000000000000000000000000000000000000000000000000000000000815260040161318990614b36565b60405180910390fd5b6000601760003373ffffffffffffffffffffffffffffffffffffffff1673ffffffffffffffffffffffffffffffffffffffff168152602001908152602001600020604051806080016040529081600082015481526020016001820180546131f8906152a2565b80601f0160208091040260200160405190810160405280929190818152602001828054613224906152a2565b80156132715780601f1061324657610100808354040283529160200191613271565b820191906000526020600020905b81548152906001019060200180831161325457829003601f168201915b505050505081526020016002820160009054906101000a900473ffffffffffffffffffffffffffffffffffffffff1673ffffffffffffffffffffffffffffffffffffffff1673ffffffffffffffffffffffffffffffffffffffff1681526020016003820154815250509050806000015181602001518260400151836060015194509450945094505090919293565b6000600160008473ffffffffffffffffffffffffffffffffffffffff1673ffffffffffffffffffffffffffffffffffffffff16815260200190815260200160002060008373ffffffffffffffffffffffffffffffffffffffff1673ffffffffffffffffffffffffffffffffffffffff16815260200190815260200160002054905092915050565b601b60019054906101000a900460ff1681565b6013602052816000526040600020818051602081018201805184825260208301602085012081835280955050505050506000915091509054906101000a900460ff1681565b601281815481106133ee57600080fd5b906000526020600020016000915054906101000a900473ffffffffffffffffffffffffffffffffffffffff1681565b601a602052816000526040600020818051602081018201805184825260208301602085012081835280955050505050506000915091509054906101000a900460ff1681565b6060806060600560009054906101000a900473ffffffffffffffffffffffffffffffffffffffff1673ffffffffffffffffffffffffffffffffffffffff163373ffffffffffffffffffffffffffffffffffffffff16146134f7576040517f08c379a00000000000000000000000000000000000000000000000000000000081526004016134ee90614d36565b60405180910390fd5b6001601b60016101000a81548160ff02191690831515021790555061351a610c24565b925092509250909192565b600560009054906101000a900473ffffffffffffffffffffffffffffffffffffffff1673ffffffffffffffffffffffffffffffffffffffff163373ffffffffffffffffffffffffffffffffffffffff16146135b5576040517f08c379a00000000000000000000000000000000000000000000000000000000081526004016135ac90614d36565b60405180910390fd5b60001515601960008473ffffffffffffffffffffffffffffffffffffffff1673ffffffffffffffffffffffffffffffffffffffff16815260200190815260200160002060009054906101000a900460ff16151514613648576040517f08c379a000000000000000000000000000000000000000000000000000000000815260040161363f90614b56565b60405180910390fd5b6018600081548092919061365b90615305565b91905055506000604051806080016040528060185481526020018581526020018473ffffffffffffffffffffffffffffffffffffffff16815260200183815250905080601760008573ffffffffffffffffffffffffffffffffffffffff1673ffffffffffffffffffffffffffffffffffffffff168152602001908152602001600020600082015181600001556020820151816001019080519060200190613703929190613d89565b5060408201518160020160006101000a81548173ffffffffffffffffffffffffffffffffffffffff021916908373ffffffffffffffffffffffffffffffffffffffff160217905550606082015181600301559050506001601960008573ffffffffffffffffffffffffffffffffffffffff1673ffffffffffffffffffffffffffffffffffffffff16815260200190815260200160002060006101000a81548160ff0219169083151502179055506012839080600181540180825580915050600190039060005260206000200160009091909190916101000a81548173ffffffffffffffffffffffffffffffffffffffff021916908373ffffffffffffffffffffffffffffffffffffffff16021790555050505050565b600033905090565b600073ffffffffffffffffffffffffffffffffffffffff168373ffffffffffffffffffffffffffffffffffffffff161415613891576040517f08c379a000000000000000000000000000000000000000000000000000000000815260040161388890614e96565b60405180910390fd5b600073ffffffffffffffffffffffffffffffffffffffff168273ffffffffffffffffffffffffffffffffffffffff161415613901576040517f08c379a00000000000000000000000000000000000000000000000000000000081526004016138f890614bb6565b60405180910390fd5b80600160008573ffffffffffffffffffffffffffffffffffffffff1673ffffffffffffffffffffffffffffffffffffffff16815260200190815260200160002060008473ffffffffffffffffffffffffffffffffffffffff1673ffffffffffffffffffffffffffffffffffffffff168152602001908152602001600020819055508173ffffffffffffffffffffffffffffffffffffffff168373ffffffffffffffffffffffffffffffffffffffff167f8c5be1e5ebec7d5bd14f71427d1e84f3dd0314c0f7b2291e5b200ac8c7c3b925836040516139df9190614ef6565b60405180910390a3505050565b60006139f884846132ff565b90507fffffffffffffffffffffffffffffffffffffffffffffffffffffffffffffffff8114613a725781811015613a64576040517f08c379a0000000000000000000000000000000000000000000000000000000008152600401613a5b90614c36565b60405180910390fd5b613a718484848403613821565b5b50505050565b600073ffffffffffffffffffffffffffffffffffffffff168373ffffffffffffffffffffffffffffffffffffffff161415613ae8576040517f08c379a0000000000000000000000000000000000000000000000000000000008152600401613adf90614e56565b60405180910390fd5b600073ffffffffffffffffffffffffffffffffffffffff168273ffffffffffffffffffffffffffffffffffffffff161415613b58576040517f08c379a0000000000000000000000000000000000000000000000000000000008152600401613b4f90614b16565b60405180910390fd5b613b63838383613cf9565b60008060008573ffffffffffffffffffffffffffffffffffffffff1673ffffffffffffffffffffffffffffffffffffffff16815260200190815260200160002054905081811015613be9576040517f08c379a0000000000000000000000000000000000000000000000000000000008152600401613be090614c56565b60405180910390fd5b8181036000808673ffffffffffffffffffffffffffffffffffffffff1673ffffffffffffffffffffffffffffffffffffffff16815260200190815260200160002081905550816000808573ffffffffffffffffffffffffffffffffffffffff1673ffffffffffffffffffffffffffffffffffffffff1681526020019081526020016000206000828254613c7c9190615127565b925050819055508273ffffffffffffffffffffffffffffffffffffffff168473ffffffffffffffffffffffffffffffffffffffff167fddf252ad1be2c89b69c2b068fc378daa952ba7f163c4a11628f55a4df523b3ef84604051613ce09190614ef6565b60405180910390a3613cf3848484613cfe565b50505050565b505050565b505050565b828054613d0f906152a2565b90600052602060002090601f016020900481019282613d315760008555613d78565b82601f10613d4a57803560ff1916838001178555613d78565b82800160010185558215613d78579182015b82811115613d77578235825591602001919060010190613d5c565b5b509050613d859190613e0f565b5090565b828054613d95906152a2565b90600052602060002090601f016020900481019282613db75760008555613dfe565b82601f10613dd057805160ff1916838001178555613dfe565b82800160010185558215613dfe579182015b82811115613dfd578251825591602001919060010190613de2565b5b509050613e0b9190613e0f565b5090565b5b80821115613e28576000816000905550600101613e10565b5090565b6000613e3f613e3a84614ffe565b614fd9565b905082815260208101848484011115613e5757600080fd5b613e62848285615260565b509392505050565b600081359050613e7981615c73565b92915050565b60008083601f840112613e9157600080fd5b8235905067ffffffffffffffff811115613eaa57600080fd5b602083019150836001820283011115613ec257600080fd5b9250929050565b600082601f830112613eda57600080fd5b8135613eea848260208601613e2c565b91505092915050565b600081359050613f0281615c8a565b92915050565b600060208284031215613f1a57600080fd5b6000613f2884828501613e6a565b91505092915050565b60008060408385031215613f4457600080fd5b6000613f5285828601613e6a565b9250506020613f6385828601613e6a565b9150509250929050565b600080600060608486031215613f8257600080fd5b6000613f9086828701613e6a565b9350506020613fa186828701613e6a565b9250506040613fb286828701613ef3565b9150509250925092565b600080600060408486031215613fd157600080fd5b6000613fdf86828701613e6a565b935050602084013567ffffffffffffffff811115613ffc57600080fd5b61400886828701613e7f565b92509250509250925092565b6000806040838503121561402757600080fd5b600061403585828601613e6a565b925050602083013567ffffffffffffffff81111561405257600080fd5b61405e85828601613ec9565b9150509250929050565b6000806040838503121561407b57600080fd5b600061408985828601613e6a565b925050602061409a85828601613ef3565b9150509250929050565b600080600080604085870312156140ba57600080fd5b600085013567ffffffffffffffff8111156140d457600080fd5b6140e087828801613e7f565b9450945050602085013567ffffffffffffffff8111156140ff57600080fd5b61410b87828801613e7f565b925092505092959194509250565b60008060006040848603121561412e57600080fd5b600084013567ffffffffffffffff81111561414857600080fd5b61415486828701613e7f565b9350935050602061416786828701613ef3565b9150509250925092565b60006020828403121561418357600080fd5b600082013567ffffffffffffffff81111561419d57600080fd5b6141a984828501613ec9565b91505092915050565b6000806000606084860312156141c757600080fd5b600084013567ffffffffffffffff8111156141e157600080fd5b6141ed86828701613ec9565b93505060206141fe86828701613e6a565b925050604061420f86828701613ef3565b9150509250925092565b60006020828403121561422b57600080fd5b600061423984828501613ef3565b91505092915050565b60008060006060848603121561425757600080fd5b600061426586828701613ef3565b935050602061427686828701613ef3565b925050604061428786828701613ef3565b9150509250925092565b600061429d83836142d5565b60208301905092915050565b60006142b58383614485565b905092915050565b60006142c983836149b3565b60208301905092915050565b6142de8161520b565b82525050565b6142ed8161520b565b82525050565b60006142fe82615074565b61430881856150c7565b93506143138361502f565b8060005b8381101561434457815161432b8882614291565b9750614336836150a0565b925050600181019050614317565b5085935050505092915050565b600061435c8261507f565b61436681856150d8565b9350836020820285016143788561503f565b8060005b858110156143b4578484038952815161439585826142a9565b94506143a0836150ad565b925060208a0199505060018101905061437c565b50829750879550505050505092915050565b60006143d18261508a565b6143db81856150e9565b93506143e68361504f565b8060005b838110156144175781516143fe88826142bd565b9750614409836150ba565b9250506001810190506143ea565b5085935050505092915050565b61442d8161521d565b82525050565b600061443f838561510b565b935061444c838584615260565b614455836153db565b840190509392505050565b600061446c838561511c565b9350614479838584615260565b82840190509392505050565b600061449082615095565b61449a81856150fa565b93506144aa81856020860161526f565b6144b3816153db565b840191505092915050565b60006144c982615095565b6144d3818561510b565b93506144e381856020860161526f565b6144ec816153db565b840191505092915050565b60008154614504816152a2565b61450e818661511c565b94506001821660008114614529576001811461453a5761456d565b60ff1983168652818601935061456d565b6145438561505f565b60005b8381101561456557815481890152600182019150602081019050614546565b838801955050505b50505092915050565b600061458360238361510b565b915061458e826153ec565b604082019050919050565b60006145a660218361510b565b91506145b18261543b565b604082019050919050565b60006145c960258361510b565b91506145d48261548a565b604082019050919050565b60006145ec600f8361510b565b91506145f7826154d9565b602082019050919050565b600061460f60248361510b565b915061461a82615502565b604082019050919050565b600061463260228361510b565b915061463d82615551565b604082019050919050565b600061465560308361510b565b9150614660826155a0565b604082019050919050565b600061467860268361510b565b9150614683826155ef565b604082019050919050565b600061469b60278361510b565b91506146a68261563e565b604082019050919050565b60006146be601d8361510b565b91506146c98261568d565b602082019050919050565b60006146e160268361510b565b91506146ec826156b6565b604082019050919050565b600061470460248361510b565b915061470f82615705565b604082019050919050565b6000614727601a8361510b565b915061473282615754565b602082019050919050565b600061474a60218361510b565b91506147558261577d565b604082019050919050565b600061476d600f8361510b565b9150614778826157cc565b602082019050919050565b600061479060308361510b565b915061479b826157f5565b604082019050919050565b60006147b360108361510b565b91506147be82615844565b602082019050919050565b60006147d6602b8361510b565b91506147e18261586d565b604082019050919050565b60006147f960398361510b565b9150614804826158bc565b604082019050919050565b600061481c60178361510b565b91506148278261590b565b602082019050919050565b600061483f60248361510b565b915061484a82615934565b604082019050919050565b600061486260298361510b565b915061486d82615983565b604082019050919050565b600061488560428361510b565b9150614890826159d2565b606082019050919050565b60006148a860258361510b565b91506148b382615a47565b604082019050919050565b60006148cb603b8361510b565b91506148d682615a96565b604082019050919050565b60006148ee60368361510b565b91506148f982615ae5565b604082019050919050565b600061491160258361510b565b915061491c82615b34565b604082019050919050565b6000614934600f8361510b565b915061493f82615b83565b602082019050919050565b600061495760248361510b565b915061496282615bac565b604082019050919050565b600061497a60198361510b565b915061498582615bfb565b602082019050919050565b600061499d60258361510b565b91506149a882615c24565b604082019050919050565b6149bc81615249565b82525050565b6149cb81615249565b82525050565b6149da81615253565b82525050565b60006149ed828486614460565b91508190509392505050565b6000614a0582846144f7565b915081905092915050565b6000602082019050614a2560008301846142e4565b92915050565b6000604082019050614a4060008301866142e4565b8181036020830152614a53818486614433565b9050949350505050565b60006060820190508181036000830152614a778186614351565b90508181036020830152614a8b81856142f3565b90508181036040830152614a9f81846143c6565b9050949350505050565b60006040820190508181036000830152614ac38185614351565b9050614ad260208301846149c2565b9392505050565b6000602082019050614aee6000830184614424565b92915050565b60006020820190508181036000830152614b0e81846144be565b905092915050565b60006020820190508181036000830152614b2f81614576565b9050919050565b60006020820190508181036000830152614b4f81614599565b9050919050565b60006020820190508181036000830152614b6f816145bc565b9050919050565b60006020820190508181036000830152614b8f816145df565b9050919050565b60006020820190508181036000830152614baf81614602565b9050919050565b60006020820190508181036000830152614bcf81614625565b9050919050565b60006020820190508181036000830152614bef81614648565b9050919050565b60006020820190508181036000830152614c0f8161466b565b9050919050565b60006020820190508181036000830152614c2f8161468e565b9050919050565b60006020820190508181036000830152614c4f816146b1565b9050919050565b60006020820190508181036000830152614c6f816146d4565b9050919050565b60006020820190508181036000830152614c8f816146f7565b9050919050565b60006020820190508181036000830152614caf8161471a565b9050919050565b60006020820190508181036000830152614ccf8161473d565b9050919050565b60006020820190508181036000830152614cef81614760565b9050919050565b60006020820190508181036000830152614d0f81614783565b9050919050565b60006020820190508181036000830152614d2f816147a6565b9050919050565b60006020820190508181036000830152614d4f816147c9565b9050919050565b60006020820190508181036000830152614d6f816147ec565b9050919050565b60006020820190508181036000830152614d8f8161480f565b9050919050565b60006020820190508181036000830152614daf81614832565b9050919050565b60006020820190508181036000830152614dcf81614855565b9050919050565b60006020820190508181036000830152614def81614878565b9050919050565b60006020820190508181036000830152614e0f8161489b565b9050919050565b60006020820190508181036000830152614e2f816148be565b9050919050565b60006020820190508181036000830152614e4f816148e1565b9050919050565b60006020820190508181036000830152614e6f81614904565b9050919050565b60006020820190508181036000830152614e8f81614927565b9050919050565b60006020820190508181036000830152614eaf8161494a565b9050919050565b60006020820190508181036000830152614ecf8161496d565b9050919050565b60006020820190508181036000830152614eef81614990565b9050919050565b6000602082019050614f0b60008301846149c2565b92915050565b600060a082019050614f2660008301886149c2565b8181036020830152614f3881876144be565b9050614f4760408301866142e4565b8181036060830152614f5981856144be565b9050614f6860808301846149c2565b9695505050505050565b6000608082019050614f8760008301876149c2565b8181036020830152614f9981866144be565b9050614fa860408301856142e4565b614fb560608301846149c2565b95945050505050565b6000602082019050614fd360008301846149d1565b92915050565b6000614fe3614ff4565b9050614fef82826152d4565b919050565b6000604051905090565b600067ffffffffffffffff821115615019576150186153ac565b5b615022826153db565b9050602081019050919050565b6000819050602082019050919050565b6000819050602082019050919050565b6000819050602082019050919050565b60008190508160005260206000209050919050565b600081519050919050565b600081519050919050565b600081519050919050565b600081519050919050565b6000602082019050919050565b6000602082019050919050565b6000602082019050919050565b600082825260208201905092915050565b600082825260208201905092915050565b600082825260208201905092915050565b600082825260208201905092915050565b600082825260208201905092915050565b600081905092915050565b600061513282615249565b915061513d83615249565b9250827fffffffffffffffffffffffffffffffffffffffffffffffffffffffffffffffff038211156151725761517161534e565b5b828201905092915050565b600061518882615249565b915061519383615249565b9250817fffffffffffffffffffffffffffffffffffffffffffffffffffffffffffffffff04831182151516156151cc576151cb61534e565b5b828202905092915050565b60006151e282615249565b91506151ed83615249565b925082821015615200576151ff61534e565b5b828203905092915050565b600061521682615229565b9050919050565b60008115159050919050565b600073ffffffffffffffffffffffffffffffffffffffff82169050919050565b6000819050919050565b600060ff82169050919050565b82818337600083830152505050565b60005b8381101561528d578082015181840152602081019050615272565b8381111561529c576000848401525b50505050565b600060028204905060018216806152ba57607f821691505b602082108114156152ce576152cd61537d565b5b50919050565b6152dd826153db565b810181811067ffffffffffffffff821117156152fc576152fb6153ac565b5b80604052505050565b600061531082615249565b91507fffffffffffffffffffffffffffffffffffffffffffffffffffffffffffffffff8214156153435761534261534e565b5b600182019050919050565b7f4e487b7100000000000000000000000000000000000000000000000000000000600052601160045260246000fd5b7f4e487b7100000000000000000000000000000000000000000000000000000000600052602260045260246000fd5b7f4e487b7100000000000000000000000000000000000000000000000000000000600052604160045260246000fd5b6000601f19601f8301169050919050565b7f45524332303a207472616e7366657220746f20746865207a65726f206164647260008201527f6573730000000000000000000000000000000000000000000000000000000000602082015250565b7f546869732061646472657373206973206e6f742061207374616b65686f6c646560008201527f7200000000000000000000000000000000000000000000000000000000000000602082015250565b7f54686973206164647265737320697320616c72656164792061207374616b656860008201527f6f6c646572000000000000000000000000000000000000000000000000000000602082015250565b7f496e76616c696420616464726573730000000000000000000000000000000000600082015250565b7f65786365656473206e756d626572206f6620616c6c6f7765642061646472657360008201527f7365737300000000000000000000000000000000000000000000000000000000602082015250565b7f45524332303a20617070726f766520746f20746865207a65726f20616464726560008201527f7373000000000000000000000000000000000000000000000000000000000000602082015250565b7f596f75206861766520616c72656164792073686f776e20696e7465726573742060008201527f696e207468697320706f736974696f6e00000000000000000000000000000000602082015250565b7f546869732061646472657373206973206e6f74207374616b65686f6c6465722060008201527f617420616c6c0000000000000000000000000000000000000000000000000000602082015250565b7f596f75206861766520616c726561647920766f74656420696e2074686973206360008201527f617465676f727900000000000000000000000000000000000000000000000000602082015250565b7f45524332303a20696e73756666696369656e7420616c6c6f77616e6365000000600082015250565b7f45524332303a207472616e7366657220616d6f756e742065786365656473206260008201527f616c616e63650000000000000000000000000000000000000000000000000000602082015250565b7f566f74696e672043617465676f727920686173206e6f74206265656e2073657460008201527f2079657400000000000000000000000000000000000000000000000000000000602082015250565b7f4f6e6c792061207374616b65686f6c64657220646f2074686973000000000000600082015250565b7f496e76616c696420616464726573733a204e6f74206120636f6e74657374616e60008201527f7400000000000000000000000000000000000000000000000000000000000000602082015250565b7f696e76616c696420616464726573730000000000000000000000000000000000600082015250565b7f596f7520646f6e2774206861766520656e6f75676820746f6b656e7320746f2060008201527f6578707265737320696e74657265737400000000000000000000000000000000602082015250565b7f566f74696e672068617320656e64656400000000000000000000000000000000600082015250565b7f4f6e6c79207468652063686169726d616e2063616e20706572666f726d20746860008201527f69732066756e6374696f6e000000000000000000000000000000000000000000602082015250565b7f43686169726d616e7368697020726f6c652063616e2774206265206772616e7460008201527f6564203a20556e617574686f7269736564206164647265737300000000000000602082015250565b7f456c656374696f6e206861736e27742073746172746564000000000000000000600082015250565b7f596f7520646f6e2774206861766520656e6f75676820746f6b656e7320746f2060008201527f766f746500000000000000000000000000000000000000000000000000000000602082015250565b7f4f6e6c79206120636f6d70696c65722063616e20706572666f726d207468697360008201527f2066756e6374696f6e0000000000000000000000000000000000000000000000602082015250565b7f43686169726d616e7368697020726f6c652063616e2774206265206772616e7460008201527f6564203a204e6f7420612074656163686572206f7220626f617264206d656d6260208201527f6572000000000000000000000000000000000000000000000000000000000000604082015250565b7f4e6f7420656c696769626c6520746f20636f6e7465737420666f72207468697360008201527f20726f6c65000000000000000000000000000000000000000000000000000000602082015250565b7f566f74696e6720666f7220746869732063617465676f72792077696c6c206e6f60008201527f742062652074616b696e6720706c616365207269676874206e6f770000000000602082015250565b7f54696d652075703a205468697320706f736974696f6e206973206e6f206d6f7260008201527f6520616363657074696e672063616e6469646174657300000000000000000000602082015250565b7f45524332303a207472616e736665722066726f6d20746865207a65726f20616460008201527f6472657373000000000000000000000000000000000000000000000000000000602082015250565b7f496e76616c696420416464726573730000000000000000000000000000000000600082015250565b7f45524332303a20617070726f76652066726f6d20746865207a65726f2061646460008201527f7265737300000000000000000000000000000000000000000000000000000000602082015250565b7f456c656374696f6e206973207374696c6c206f6e676f696e6700000000000000600082015250565b7f45524332303a2064656372656173656420616c6c6f77616e63652062656c6f7760008201527f207a65726f000000000000000000000000000000000000000000000000000000602082015250565b615c7c8161520b565b8114615c8757600080fd5b50565b615c9381615249565b8114615c9e57600080fd5b5056fea2646970667358221220877640b4420309eb0650284d40e1efc437382615a65af5bfbbe0d854bc89879c64736f6c63430008040033",
  "linkReferences": {},
  "deployedLinkReferences": {}
}