{
  "_format": "hh-sol-artifact-1",
  "contractName": "Election",
  "sourceName": "contracts/Election.sol",
  "abi": [
    {
      "inputs": [],
      "stateMutability": "nonpayable",
      "type": "constructor"
    },
    {
      "anonymous": false,
      "inputs": [
        {
          "indexed": true,
          "internalType": "address",
          "name": "owner",
          "type": "address"
        },
        {
          "indexed": true,
          "internalType": "address",
          "name": "spender",
          "type": "address"
        },
        {
          "indexed": false,
          "internalType": "uint256",
          "name": "value",
          "type": "uint256"
        }
      ],
      "name": "Approval",
      "type": "event"
    },
    {
      "anonymous": false,
      "inputs": [
        {
          "indexed": true,
          "internalType": "address",
          "name": "to",
          "type": "address"
        }
      ],
      "name": "DelegateChairman",
      "type": "event"
    },
    {
      "anonymous": false,
      "inputs": [
        {
          "indexed": true,
          "internalType": "address",
          "name": "from",
          "type": "address"
        },
        {
          "indexed": true,
          "internalType": "address",
          "name": "to",
          "type": "address"
        },
        {
          "indexed": false,
          "internalType": "uint256",
          "name": "value",
          "type": "uint256"
        }
      ],
      "name": "Transfer",
      "type": "event"
    },
    {
      "anonymous": false,
      "inputs": [
        {
          "indexed": false,
          "internalType": "address",
          "name": "voteChoice",
          "type": "address"
        },
        {
          "indexed": false,
          "internalType": "string",
          "name": "Category",
          "type": "string"
        }
      ],
      "name": "Voted",
      "type": "event"
    },
    {
      "inputs": [
        {
          "internalType": "string",
          "name": "_name",
          "type": "string"
        },
        {
          "internalType": "address",
          "name": "_holder",
          "type": "address"
        },
        {
          "internalType": "uint256",
          "name": "_role",
          "type": "uint256"
        }
      ],
      "name": "addStakeHolder",
      "outputs": [],
      "stateMutability": "nonpayable",
      "type": "function"
    },
    {
      "inputs": [
        {
          "internalType": "address",
          "name": "owner",
          "type": "address"
        },
        {
          "internalType": "address",
          "name": "spender",
          "type": "address"
        }
      ],
      "name": "allowance",
      "outputs": [
        {
          "internalType": "uint256",
          "name": "",
          "type": "uint256"
        }
      ],
      "stateMutability": "view",
      "type": "function"
    },
    {
      "inputs": [
        {
          "internalType": "address",
          "name": "spender",
          "type": "address"
        },
        {
          "internalType": "uint256",
          "name": "amount",
          "type": "uint256"
        }
      ],
      "name": "approve",
      "outputs": [
        {
          "internalType": "bool",
          "name": "",
          "type": "bool"
        }
      ],
      "stateMutability": "nonpayable",
      "type": "function"
    },
    {
      "inputs": [
        {
          "internalType": "address",
          "name": "account",
          "type": "address"
        }
      ],
      "name": "balanceOf",
      "outputs": [
        {
          "internalType": "uint256",
          "name": "",
          "type": "uint256"
        }
      ],
      "stateMutability": "view",
      "type": "function"
    },
    {
      "inputs": [
        {
          "internalType": "uint256",
          "name": "boardMemberAmount",
          "type": "uint256"
        },
        {
          "internalType": "uint256",
          "name": "teacherAmount",
          "type": "uint256"
        },
        {
          "internalType": "uint256",
          "name": "studentAmount",
          "type": "uint256"
        }
      ],
      "name": "batchTransfer",
      "outputs": [
        {
          "internalType": "bool",
          "name": "transfered",
          "type": "bool"
        }
      ],
      "stateMutability": "nonpayable",
      "type": "function"
    },
    {
      "inputs": [
        {
          "internalType": "address",
          "name": "_addr",
          "type": "address"
        }
      ],
      "name": "boardMemberCheck",
      "outputs": [
        {
          "internalType": "bool",
          "name": "",
          "type": "bool"
        }
      ],
      "stateMutability": "view",
      "type": "function"
    },
    {
      "inputs": [],
      "name": "canStillExpressInterest",
      "outputs": [
        {
          "internalType": "bool",
          "name": "",
          "type": "bool"
        }
      ],
      "stateMutability": "view",
      "type": "function"
    },
    {
      "inputs": [
        {
          "internalType": "address",
          "name": "",
          "type": "address"
        }
      ],
      "name": "candidates",
      "outputs": [
        {
          "internalType": "uint256",
          "name": "id",
          "type": "uint256"
        },
        {
          "internalType": "string",
          "name": "name",
          "type": "string"
        },
        {
          "internalType": "address",
          "name": "contestant",
          "type": "address"
        },
        {
          "internalType": "string",
          "name": "category",
          "type": "string"
        },
        {
          "internalType": "uint256",
          "name": "voteCount",
          "type": "uint256"
        }
      ],
      "stateMutability": "view",
      "type": "function"
    },
    {
      "inputs": [],
      "name": "candidatesCount",
      "outputs": [
        {
          "internalType": "uint256",
          "name": "",
          "type": "uint256"
        }
      ],
      "stateMutability": "view",
      "type": "function"
    },
    {
      "inputs": [
        {
          "internalType": "string",
          "name": "",
          "type": "string"
        }
      ],
      "name": "categorySet",
      "outputs": [
        {
          "internalType": "bool",
          "name": "",
          "type": "bool"
        }
      ],
      "stateMutability": "view",
      "type": "function"
    },
    {
      "inputs": [],
      "name": "chairman",
      "outputs": [
        {
          "internalType": "address",
          "name": "",
          "type": "address"
        }
      ],
      "stateMutability": "view",
      "type": "function"
    },
    {
      "inputs": [],
      "name": "compileVotes",
      "outputs": [
        {
          "internalType": "string[]",
          "name": "",
          "type": "string[]"
        },
        {
          "internalType": "address[]",
          "name": "",
          "type": "address[]"
        },
        {
          "internalType": "uint256[]",
          "name": "",
          "type": "uint256[]"
        }
      ],
      "stateMutability": "view",
      "type": "function"
    },
    {
      "inputs": [
        {
          "internalType": "address",
          "name": "_addr",
          "type": "address"
        }
      ],
      "name": "compilerCheck",
      "outputs": [
        {
          "internalType": "bool",
          "name": "",
          "type": "bool"
        }
      ],
      "stateMutability": "view",
      "type": "function"
    },
    {
      "inputs": [],
      "name": "decimals",
      "outputs": [
        {
          "internalType": "uint8",
          "name": "",
          "type": "uint8"
        }
      ],
      "stateMutability": "view",
      "type": "function"
    },
    {
      "inputs": [
        {
          "internalType": "address",
          "name": "spender",
          "type": "address"
        },
        {
          "internalType": "uint256",
          "name": "subtractedValue",
          "type": "uint256"
        }
      ],
      "name": "decreaseAllowance",
      "outputs": [
        {
          "internalType": "bool",
          "name": "",
          "type": "bool"
        }
      ],
      "stateMutability": "nonpayable",
      "type": "function"
    },
    {
      "inputs": [
        {
          "internalType": "address",
          "name": "newChairman",
          "type": "address"
        }
      ],
      "name": "delegateChairmanship",
      "outputs": [
        {
          "internalType": "bool",
          "name": "changed",
          "type": "bool"
        }
      ],
      "stateMutability": "nonpayable",
      "type": "function"
    },
    {
      "inputs": [
        {
          "internalType": "string",
          "name": "_name",
          "type": "string"
        },
        {
          "internalType": "string",
          "name": "_category",
          "type": "string"
        }
      ],
      "name": "expressInterest",
      "outputs": [
        {
          "internalType": "uint256",
          "name": "",
          "type": "uint256"
        }
      ],
      "stateMutability": "nonpayable",
      "type": "function"
    },
    {
      "inputs": [],
      "name": "getBalance",
      "outputs": [
        {
          "internalType": "uint256",
          "name": "",
          "type": "uint256"
        }
      ],
      "stateMutability": "view",
      "type": "function"
    },
    {
      "inputs": [],
      "name": "getCandidateID",
      "outputs": [
        {
          "internalType": "uint256",
          "name": "",
          "type": "uint256"
        }
      ],
      "stateMutability": "view",
      "type": "function"
    },
    {
      "inputs": [],
      "name": "getStakeholderDetails",
      "outputs": [
        {
          "internalType": "uint256",
          "name": "id",
          "type": "uint256"
        },
        {
          "internalType": "string",
          "name": "name",
          "type": "string"
        },
        {
          "internalType": "address",
          "name": "holder",
          "type": "address"
        },
        {
          "internalType": "uint256",
          "name": "role",
          "type": "uint256"
        }
      ],
      "stateMutability": "view",
      "type": "function"
    },
    {
      "inputs": [],
      "name": "hasElectionStarted",
      "outputs": [
        {
          "internalType": "bool",
          "name": "",
          "type": "bool"
        }
      ],
      "stateMutability": "view",
      "type": "function"
    },
    {
      "inputs": [
        {
          "internalType": "address",
          "name": "spender",
          "type": "address"
        },
        {
          "internalType": "uint256",
          "name": "addedValue",
          "type": "uint256"
        }
      ],
      "name": "increaseAllowance",
      "outputs": [
        {
          "internalType": "bool",
          "name": "",
          "type": "bool"
        }
      ],
      "stateMutability": "nonpayable",
      "type": "function"
    },
    {
      "inputs": [],
      "name": "isBoardMember",
      "outputs": [
        {
          "internalType": "bool",
          "name": "",
          "type": "bool"
        }
      ],
      "stateMutability": "view",
      "type": "function"
    },
    {
      "inputs": [],
      "name": "isCompiler",
      "outputs": [
        {
          "internalType": "bool",
          "name": "",
          "type": "bool"
        }
      ],
      "stateMutability": "view",
      "type": "function"
    },
    {
      "inputs": [
        {
          "internalType": "address",
          "name": "",
          "type": "address"
        },
        {
          "internalType": "string",
          "name": "",
          "type": "string"
        }
      ],
      "name": "isContesting",
      "outputs": [
        {
          "internalType": "bool",
          "name": "",
          "type": "bool"
        }
      ],
      "stateMutability": "view",
      "type": "function"
    },
    {
      "inputs": [],
      "name": "isResultAnnounced",
      "outputs": [
        {
          "internalType": "bool",
          "name": "",
          "type": "bool"
        }
      ],
      "stateMutability": "view",
      "type": "function"
    },
    {
      "inputs": [],
      "name": "isStudent",
      "outputs": [
        {
          "internalType": "bool",
          "name": "",
          "type": "bool"
        }
      ],
      "stateMutability": "view",
      "type": "function"
    },
    {
      "inputs": [],
      "name": "isTeacher",
      "outputs": [
        {
          "internalType": "bool",
          "name": "",
          "type": "bool"
        }
      ],
      "stateMutability": "view",
      "type": "function"
    },
    {
      "inputs": [],
      "name": "makeResultsPublic",
      "outputs": [
        {
          "internalType": "string[]",
          "name": "",
          "type": "string[]"
        },
        {
          "internalType": "address[]",
          "name": "",
          "type": "address[]"
        },
        {
          "internalType": "uint256[]",
          "name": "",
          "type": "uint256[]"
        }
      ],
      "stateMutability": "nonpayable",
      "type": "function"
    },
    {
      "inputs": [],
      "name": "name",
      "outputs": [
        {
          "internalType": "string",
          "name": "",
          "type": "string"
        }
      ],
      "stateMutability": "view",
      "type": "function"
    },
    {
      "inputs": [
        {
          "internalType": "address",
          "name": "_candidate",
          "type": "address"
        },
        {
          "internalType": "string",
          "name": "_category",
          "type": "string"
        }
      ],
      "name": "placeVote",
      "outputs": [],
      "stateMutability": "nonpayable",
      "type": "function"
    },
    {
      "inputs": [
        {
          "internalType": "string",
          "name": "",
          "type": "string"
        }
      ],
      "name": "roleEligible",
      "outputs": [
        {
          "internalType": "uint256",
          "name": "",
          "type": "uint256"
        }
      ],
      "stateMutability": "view",
      "type": "function"
    },
    {
      "inputs": [
        {
          "internalType": "uint256",
          "name": "_electionDuration",
          "type": "uint256"
        }
      ],
      "name": "setElectionDuration",
      "outputs": [],
      "stateMutability": "nonpayable",
      "type": "function"
    },
    {
      "inputs": [
        {
          "internalType": "uint256",
          "name": "_showInterestDuration",
          "type": "uint256"
        }
      ],
      "name": "setInterestDuration",
      "outputs": [],
      "stateMutability": "nonpayable",
      "type": "function"
    },
    {
      "inputs": [
        {
          "internalType": "string",
          "name": "_category",
          "type": "string"
        },
        {
          "internalType": "uint256",
          "name": "_roleEligible",
          "type": "uint256"
        }
      ],
      "name": "setVotingCategory",
      "outputs": [],
      "stateMutability": "nonpayable",
      "type": "function"
    },
    {
      "inputs": [
        {
          "internalType": "address",
          "name": "",
          "type": "address"
        }
      ],
      "name": "stakeHolderExists",
      "outputs": [
        {
          "internalType": "bool",
          "name": "",
          "type": "bool"
        }
      ],
      "stateMutability": "view",
      "type": "function"
    },
    {
      "inputs": [],
      "name": "stakeHoldersCount",
      "outputs": [
        {
          "internalType": "uint256",
          "name": "",
          "type": "uint256"
        }
      ],
      "stateMutability": "view",
      "type": "function"
    },
    {
      "inputs": [
        {
          "internalType": "uint256",
          "name": "",
          "type": "uint256"
        }
      ],
      "name": "stakeholderList",
      "outputs": [
        {
          "internalType": "address",
          "name": "",
          "type": "address"
        }
      ],
      "stateMutability": "view",
      "type": "function"
    },
    {
      "inputs": [
        {
          "internalType": "address",
          "name": "",
          "type": "address"
        }
      ],
      "name": "stakeholders",
      "outputs": [
        {
          "internalType": "uint256",
          "name": "id",
          "type": "uint256"
        },
        {
          "internalType": "string",
          "name": "name",
          "type": "string"
        },
        {
          "internalType": "address",
          "name": "holder",
          "type": "address"
        },
        {
          "internalType": "uint256",
          "name": "role",
          "type": "uint256"
        }
      ],
      "stateMutability": "view",
      "type": "function"
    },
    {
      "inputs": [],
      "name": "startElection",
      "outputs": [],
      "stateMutability": "nonpayable",
      "type": "function"
    },
    {
      "inputs": [],
      "name": "startShowInterest",
      "outputs": [],
      "stateMutability": "nonpayable",
      "type": "function"
    },
    {
      "inputs": [
        {
          "internalType": "address",
          "name": "_addr",
          "type": "address"
        }
      ],
      "name": "studentshipCheck",
      "outputs": [
        {
          "internalType": "bool",
          "name": "",
          "type": "bool"
        }
      ],
      "stateMutability": "view",
      "type": "function"
    },
    {
      "inputs": [],
      "name": "symbol",
      "outputs": [
        {
          "internalType": "string",
          "name": "",
          "type": "string"
        }
      ],
      "stateMutability": "view",
      "type": "function"
    },
    {
      "inputs": [
        {
          "internalType": "address",
          "name": "_addr",
          "type": "address"
        }
      ],
      "name": "teacherCheck",
      "outputs": [
        {
          "internalType": "bool",
          "name": "",
          "type": "bool"
        }
      ],
      "stateMutability": "view",
      "type": "function"
    },
    {
      "inputs": [],
      "name": "timeLeft",
      "outputs": [
        {
          "internalType": "uint256",
          "name": "",
          "type": "uint256"
        }
      ],
      "stateMutability": "view",
      "type": "function"
    },
    {
      "inputs": [],
      "name": "timeLefttoShowInterest",
      "outputs": [
        {
          "internalType": "uint256",
          "name": "",
          "type": "uint256"
        }
      ],
      "stateMutability": "view",
      "type": "function"
    },
    {
      "inputs": [],
      "name": "totalSupply",
      "outputs": [
        {
          "internalType": "uint256",
          "name": "",
          "type": "uint256"
        }
      ],
      "stateMutability": "view",
      "type": "function"
    },
    {
      "inputs": [
        {
          "internalType": "address",
          "name": "to",
          "type": "address"
        },
        {
          "internalType": "uint256",
          "name": "amount",
          "type": "uint256"
        }
      ],
      "name": "transfer",
      "outputs": [
        {
          "internalType": "bool",
          "name": "",
          "type": "bool"
        }
      ],
      "stateMutability": "nonpayable",
      "type": "function"
    },
    {
      "inputs": [
        {
          "internalType": "address",
          "name": "from",
          "type": "address"
        },
        {
          "internalType": "address",
          "name": "to",
          "type": "address"
        },
        {
          "internalType": "uint256",
          "name": "amount",
          "type": "uint256"
        }
      ],
      "name": "transferFrom",
      "outputs": [
        {
          "internalType": "bool",
          "name": "",
          "type": "bool"
        }
      ],
      "stateMutability": "nonpayable",
      "type": "function"
    },
    {
      "inputs": [
        {
          "internalType": "uint256",
          "name": "",
          "type": "uint256"
        }
      ],
      "name": "voteCategory",
      "outputs": [
        {
          "internalType": "string",
          "name": "",
          "type": "string"
        }
      ],
      "stateMutability": "view",
      "type": "function"
    },
    {
      "inputs": [
        {
          "internalType": "uint256",
          "name": "",
          "type": "uint256"
        }
      ],
      "name": "votedFor",
      "outputs": [
        {
          "internalType": "address",
          "name": "",
          "type": "address"
        }
      ],
      "stateMutability": "view",
      "type": "function"
    },
    {
      "inputs": [
        {
          "internalType": "address",
          "name": "",
          "type": "address"
        },
        {
          "internalType": "string",
          "name": "",
          "type": "string"
        }
      ],
      "name": "voters",
      "outputs": [
        {
          "internalType": "bool",
          "name": "",
          "type": "bool"
        }
      ],
      "stateMutability": "view",
      "type": "function"
    }
  ],
  "bytecode": "0x60806040526001600c556000600d556002600e556000601b60006101000a81548160ff0219169083151502179055506000601b60016101000a81548160ff0219169083151502179055503480156200005657600080fd5b506040518060400160405280600981526020017f5a757269546f6b656e00000000000000000000000000000000000000000000008152506040518060400160405280600381526020017f5a455400000000000000000000000000000000000000000000000000000000008152508160039080519060200190620000db929190620002de565b508060049080519060200190620000f4929190620002de565b50505062000114336a108b2a2c280290940000006200015b60201b60201c565b33600560006101000a81548173ffffffffffffffffffffffffffffffffffffffff021916908373ffffffffffffffffffffffffffffffffffffffff1602179055506200053a565b600073ffffffffffffffffffffffffffffffffffffffff168273ffffffffffffffffffffffffffffffffffffffff161415620001ce576040517f08c379a0000000000000000000000000000000000000000000000000000000008152600401620001c590620003c6565b60405180910390fd5b620001e260008383620002d460201b60201c565b8060026000828254620001f6919062000416565b92505081905550806000808473ffffffffffffffffffffffffffffffffffffffff1673ffffffffffffffffffffffffffffffffffffffff16815260200190815260200160002060008282546200024d919062000416565b925050819055508173ffffffffffffffffffffffffffffffffffffffff16600073ffffffffffffffffffffffffffffffffffffffff167fddf252ad1be2c89b69c2b068fc378daa952ba7f163c4a11628f55a4df523b3ef83604051620002b49190620003e8565b60405180910390a3620002d060008383620002d960201b60201c565b5050565b505050565b505050565b828054620002ec906200047d565b90600052602060002090601f0160209004810192826200031057600085556200035c565b82601f106200032b57805160ff19168380011785556200035c565b828001600101855582156200035c579182015b828111156200035b5782518255916020019190600101906200033e565b5b5090506200036b91906200036f565b5090565b5b808211156200038a57600081600090555060010162000370565b5090565b60006200039d601f8362000405565b9150620003aa8262000511565b602082019050919050565b620003c08162000473565b82525050565b60006020820190508181036000830152620003e1816200038e565b9050919050565b6000602082019050620003ff6000830184620003b5565b92915050565b600082825260208201905092915050565b6000620004238262000473565b9150620004308362000473565b9250827fffffffffffffffffffffffffffffffffffffffffffffffffffffffffffffffff03821115620004685762000467620004b3565b5b828201905092915050565b6000819050919050565b600060028204905060018216806200049657607f821691505b60208210811415620004ad57620004ac620004e2565b5b50919050565b7f4e487b7100000000000000000000000000000000000000000000000000000000600052601160045260246000fd5b7f4e487b7100000000000000000000000000000000000000000000000000000000600052602260045260246000fd5b7f45524332303a206d696e7420746f20746865207a65726f206164647265737300600082015250565b615c5b806200054a6000396000f3fe608060405234801561001057600080fd5b506004361061030c5760003560e01c806398b1df7e1161019d578063c90aa2b4116100e9578063e320f576116100a2578063f262571a1161007c578063f262571a14610a3f578063f6daef3114610a5d578063f9ee237214610a7d578063fac65f9714610a995761030c565b8063e320f576146109d5578063e8dcc55814610a05578063eedf464c14610a355761030c565b8063c90aa2b4146108e8578063cae9fbca14610906578063da6efb8d14610936578063dd62ed3e14610957578063e064471214610987578063e18b487a146109a55761030c565b8063b1f013fb11610156578063bfe162ce11610130578063bfe162ce14610837578063c07cfca914610867578063c3e0e1641461089a578063c64a4bad146108ca5761030c565b8063b1f013fb146107bb578063b1f5086e146107eb578063b6a1f2841461081b5761030c565b806398b1df7e146106e75780639ac4643d14610703578063a457c2d71461071f578063a4d105971461074f578063a9059cbb1461076d578063a9be32fa1461079d5761030c565b8063313ce5671161025c5780635ea976bf1161021557806370a08231116101ef57806370a082311461064757806387f7b975146106775780638ab66a901461069557806395d89b41146106c95761030c565b80635ea976bf146105ef57806362d73eb81461060d57806369c389d0146106175761030c565b8063313ce5671461050557806339509351146105235780633d1563a91461055357806351e0a6eb1461058357806358c0978d146105a15780635c1b7f07146105d15761030c565b80631312fa92116102c957806322c75d2f116102a357806322c75d2f1461045757806323b872dd146104875780632c968142146104b75780632d35a8a2146104e75761030c565b80631312fa92146103e957806318160ddd1461041957806320be2a85146104375761030c565b806301b243551461031157806305cbd1541461034157806306fdde031461035f578063095ea7b31461037d57806312065fe0146103ad5780631300a6d1146103cb575b600080fd5b61032b60048036038101906103269190613f67565b610ab5565b6040516103389190614a72565b60405180910390f35b610349610b16565b6040516103569190614a72565b60405180910390f35b610367610b38565b6040516103749190614a8d565b60405180910390f35b610397600480360381019061039291906140c7565b610bca565b6040516103a49190614a72565b60405180910390f35b6103b5610bed565b6040516103c29190614e8f565b60405180910390f35b6103d3610bfd565b6040516103e09190614e8f565b60405180910390f35b61040360048036038101906103fe9190614278565b610c24565b60405161041091906149d9565b60405180910390f35b610421610c63565b60405161042e9190614e8f565b60405180910390f35b61043f610c6d565b60405161044e93929190614a26565b60405180910390f35b610471600480360381019061046c9190613f67565b611209565b60405161047e9190614a72565b60405180910390f35b6104a1600480360381019061049c9190613fcc565b61126a565b6040516104ae9190614a72565b60405180910390f35b6104d160048036038101906104cc91906142a1565b611299565b6040516104de9190614a72565b60405180910390f35b6104ef611585565b6040516104fc9190614e8f565b60405180910390f35b61050d61158b565b60405161051a9190614f57565b60405180910390f35b61053d600480360381019061053891906140c7565b611594565b60405161054a9190614a72565b60405180910390f35b61056d60048036038101906105689190614278565b61163e565b60405161057a9190614a8d565b60405180910390f35b61058b6116ea565b6040516105989190614a72565b60405180910390f35b6105bb60048036038101906105b69190613f67565b611749565b6040516105c89190614a72565b60405180910390f35b6105d96117f8565b6040516105e69190614a72565b60405180910390f35b6105f7611857565b6040516106049190614a72565b60405180910390f35b610615611904565b005b610631600480360381019061062c91906141d0565b6119ce565b60405161063e9190614a72565b60405180910390f35b610661600480360381019061065c9190613f67565b611a04565b60405161066e9190614e8f565b60405180910390f35b61067f611a4c565b60405161068c91906149d9565b60405180910390f35b6106af60048036038101906106aa9190613f67565b611a72565b6040516106c0959493929190614eaa565b60405180910390f35b6106d1611bd8565b6040516106de9190614a8d565b60405180910390f35b61070160048036038101906106fc9190614178565b611c6a565b005b61071d6004803603810190610718919061401b565b611d9b565b005b610739600480360381019061073491906140c7565b612356565b6040516107469190614a72565b60405180910390f35b610757612440565b6040516107649190614e8f565b60405180910390f35b610787600480360381019061078291906140c7565b612467565b6040516107949190614a72565b60405180910390f35b6107a561248a565b6040516107b29190614a72565b60405180910390f35b6107d560048036038101906107d09190614103565b61249d565b6040516107e29190614e8f565b60405180910390f35b61080560048036038101906108009190613f67565b612a63565b6040516108129190614a72565b60405180910390f35b61083560048036038101906108309190614278565b612a83565b005b610851600480360381019061084c9190613f67565b612b1d565b60405161085e9190614a72565b60405180910390f35b610881600480360381019061087c9190613f67565b612b7e565b6040516108919493929190614f0b565b60405180910390f35b6108b460048036038101906108af9190613f67565b612c56565b6040516108c19190614a72565b60405180910390f35b6108d2612f16565b6040516108df9190614a72565b60405180910390f35b6108f0612f75565b6040516108fd9190614e8f565b60405180910390f35b610920600480360381019061091b91906141d0565b612f7b565b60405161092d9190614e8f565b60405180910390f35b61093e612fa9565b60405161094e9493929190614f0b565b60405180910390f35b610971600480360381019061096c9190613f90565b6131b0565b60405161097e9190614e8f565b60405180910390f35b61098f613237565b60405161099c9190614a72565b60405180910390f35b6109bf60048036038101906109ba9190614073565b61324a565b6040516109cc9190614a72565b60405180910390f35b6109ef60048036038101906109ea9190614278565b61328f565b6040516109fc91906149d9565b60405180910390f35b610a1f6004803603810190610a1a9190614073565b6132ce565b604051610a2c9190614a72565b60405180910390f35b610a3d613313565b005b610a476133dd565b604051610a549190614e8f565b60405180910390f35b610a65613427565b604051610a7493929190614a26565b60405180910390f35b610a976004803603810190610a929190614278565b6134ea565b005b610ab36004803603810190610aae9190614211565b613584565b005b6000600d54601760008473ffffffffffffffffffffffffffffffffffffffff1673ffffffffffffffffffffffffffffffffffffffff168152602001908152602001600020600301541415610b0c5760019050610b11565b600090505b919050565b600080610b21612440565b1115610b305760019050610b35565b600090505b90565b606060038054610b4790615226565b80601f0160208091040260200160405190810160405280929190818152602001828054610b7390615226565b8015610bc05780601f10610b9557610100808354040283529160200191610bc0565b820191906000526020600020905b815481529060010190602001808311610ba357829003601f168201915b5050505050905090565b600080610bd5613878565b9050610be2818585613880565b600191505092915050565b6000610bf833611a04565b905090565b6000426007541015610c10576000610c1f565b42600754610c1e919061515b565b5b905090565b60148181548110610c3457600080fd5b906000526020600020016000915054906101000a900473ffffffffffffffffffffffffffffffffffffffff1681565b6000600254905090565b606080606060011515610c7e611857565b151514610cc0576040517f08c379a0000000000000000000000000000000000000000000000000000000008152600401610cb790614d6f565b60405180910390fd5b600560009054906101000a900473ffffffffffffffffffffffffffffffffffffffff1673ffffffffffffffffffffffffffffffffffffffff163373ffffffffffffffffffffffffffffffffffffffff1614610d50576040517f08c379a0000000000000000000000000000000000000000000000000000000008152600401610d4790614cef565b60405180910390fd5b6000610d5a610bfd565b1115610d9b576040517f08c379a0000000000000000000000000000000000000000000000000000000008152600401610d9290614e4f565b60405180910390fd5b6000601480549050905060008167ffffffffffffffff811115610de7577f4e487b7100000000000000000000000000000000000000000000000000000000600052604160045260246000fd5b604051908082528060200260200182016040528015610e1a57816020015b6060815260200190600190039081610e055790505b50905060008267ffffffffffffffff811115610e5f577f4e487b7100000000000000000000000000000000000000000000000000000000600052604160045260246000fd5b604051908082528060200260200182016040528015610e8d5781602001602082028036833780820191505090505b50905060008367ffffffffffffffff811115610ed2577f4e487b7100000000000000000000000000000000000000000000000000000000600052604160045260246000fd5b604051908082528060200260200182016040528015610f005781602001602082028036833780820191505090505b50905060005b848110156111f657600060148281548110610f4a577f4e487b7100000000000000000000000000000000000000000000000000000000600052603260045260246000fd5b9060005260206000200160009054906101000a900473ffffffffffffffffffffffffffffffffffffffff169050601560008273ffffffffffffffffffffffffffffffffffffffff1673ffffffffffffffffffffffffffffffffffffffff1681526020019081526020016000206003018054610fc490615226565b80601f0160208091040260200160405190810160405280929190818152602001828054610ff090615226565b801561103d5780601f106110125761010080835404028352916020019161103d565b820191906000526020600020905b81548152906001019060200180831161102057829003601f168201915b505050505085838151811061107b577f4e487b7100000000000000000000000000000000000000000000000000000000600052603260045260246000fd5b6020026020010181905250601560008273ffffffffffffffffffffffffffffffffffffffff1673ffffffffffffffffffffffffffffffffffffffff16815260200190815260200160002060020160009054906101000a900473ffffffffffffffffffffffffffffffffffffffff16848381518110611122577f4e487b7100000000000000000000000000000000000000000000000000000000600052603260045260246000fd5b602002602001019073ffffffffffffffffffffffffffffffffffffffff16908173ffffffffffffffffffffffffffffffffffffffff1681525050601560008273ffffffffffffffffffffffffffffffffffffffff1673ffffffffffffffffffffffffffffffffffffffff168152602001908152602001600020600401548383815181106111d8577f4e487b7100000000000000000000000000000000000000000000000000000000600052603260045260246000fd5b60200260200101818152505050806111ef90615289565b9050610f06565b5082828296509650965050505050909192565b6000600c54601760008473ffffffffffffffffffffffffffffffffffffffff1673ffffffffffffffffffffffffffffffffffffffff1681526020019081526020016000206003015414156112605760019050611265565b600090505b919050565b600080611275613878565b9050611282858285613a4b565b61128d858585613ad7565b60019150509392505050565b6000600560009054906101000a900473ffffffffffffffffffffffffffffffffffffffff1673ffffffffffffffffffffffffffffffffffffffff163373ffffffffffffffffffffffffffffffffffffffff161461132b576040517f08c379a000000000000000000000000000000000000000000000000000000000815260040161132290614cef565b60405180910390fd5b60005b60128054905081101561157957600073ffffffffffffffffffffffffffffffffffffffff166012828154811061138d577f4e487b7100000000000000000000000000000000000000000000000000000000600052603260045260246000fd5b9060005260206000200160009054906101000a900473ffffffffffffffffffffffffffffffffffffffff1673ffffffffffffffffffffffffffffffffffffffff16141561140f576040517f08c379a000000000000000000000000000000000000000000000000000000000815260040161140690614e0f565b60405180910390fd5b60c86012805490501115611458576040517f08c379a000000000000000000000000000000000000000000000000000000000815260040161144f90614b4f565b60405180910390fd5b600060128281548110611494577f4e487b7100000000000000000000000000000000000000000000000000000000600052603260045260246000fd5b9060005260206000200160009054906101000a900473ffffffffffffffffffffffffffffffffffffffff169050600115156114ce82610ab5565b151514156114f9576114f381670de0b6b3a7640000886114ee9190615101565b612467565b50611567565b6001151561150682611209565b151514156115315761152b81670de0b6b3a7640000876115269190615101565b612467565b50611566565b6001151561153e82612b1d565b151514156115655761156381670de0b6b3a76400008661155e9190615101565b612467565b505b5b5b508061157290615289565b905061132e565b50600190509392505050565b60165481565b60006012905090565b60008061159f613878565b9050611633818585600160008673ffffffffffffffffffffffffffffffffffffffff1673ffffffffffffffffffffffffffffffffffffffff16815260200190815260200160002060008973ffffffffffffffffffffffffffffffffffffffff1673ffffffffffffffffffffffffffffffffffffffff1681526020019081526020016000205461162e91906150ab565b613880565b600191505092915050565b600f818154811061164e57600080fd5b90600052602060002001600091509050805461166990615226565b80601f016020809104026020016040519081016040528092919081815260200182805461169590615226565b80156116e25780601f106116b7576101008083540402835291602001916116e2565b820191906000526020600020905b8154815290600101906020018083116116c557829003601f168201915b505050505081565b6000600e54601760003373ffffffffffffffffffffffffffffffffffffffff1673ffffffffffffffffffffffffffffffffffffffff1681526020019081526020016000206003015414156117415760019050611746565b600090505b90565b6000600c54601760008473ffffffffffffffffffffffffffffffffffffffff1673ffffffffffffffffffffffffffffffffffffffff1681526020019081526020016000206003015414806117e05750600d54601760008473ffffffffffffffffffffffffffffffffffffffff1673ffffffffffffffffffffffffffffffffffffffff16815260200190815260200160002060030154145b156117ee57600190506117f3565b600090505b919050565b6000600d54601760003373ffffffffffffffffffffffffffffffffffffffff1673ffffffffffffffffffffffffffffffffffffffff16815260200190815260200160002060030154141561184f5760019050611854565b600090505b90565b6000600d54601760003373ffffffffffffffffffffffffffffffffffffffff1673ffffffffffffffffffffffffffffffffffffffff1681526020019081526020016000206003015414806118ee5750600c54601760003373ffffffffffffffffffffffffffffffffffffffff1673ffffffffffffffffffffffffffffffffffffffff16815260200190815260200160002060030154145b156118fc5760019050611901565b600090505b90565b600560009054906101000a900473ffffffffffffffffffffffffffffffffffffffff1673ffffffffffffffffffffffffffffffffffffffff163373ffffffffffffffffffffffffffffffffffffffff1614611994576040517f08c379a000000000000000000000000000000000000000000000000000000000815260040161198b90614cef565b60405180910390fd5b426006819055506006546008546119ab91906150ab565b6007819055506001601b60006101000a81548160ff021916908315150217905550565b6010818051602081018201805184825260208301602085012081835280955050505050506000915054906101000a900460ff1681565b60008060008373ffffffffffffffffffffffffffffffffffffffff1673ffffffffffffffffffffffffffffffffffffffff168152602001908152602001600020549050919050565b600560009054906101000a900473ffffffffffffffffffffffffffffffffffffffff1681565b6015602052806000526040600020600091509050806000015490806001018054611a9b90615226565b80601f0160208091040260200160405190810160405280929190818152602001828054611ac790615226565b8015611b145780601f10611ae957610100808354040283529160200191611b14565b820191906000526020600020905b815481529060010190602001808311611af757829003601f168201915b5050505050908060020160009054906101000a900473ffffffffffffffffffffffffffffffffffffffff1690806003018054611b4f90615226565b80601f0160208091040260200160405190810160405280929190818152602001828054611b7b90615226565b8015611bc85780601f10611b9d57610100808354040283529160200191611bc8565b820191906000526020600020905b815481529060010190602001808311611bab57829003601f168201915b5050505050908060040154905085565b606060048054611be790615226565b80601f0160208091040260200160405190810160405280929190818152602001828054611c1390615226565b8015611c605780601f10611c3557610100808354040283529160200191611c60565b820191906000526020600020905b815481529060010190602001808311611c4357829003601f168201915b5050505050905090565b600560009054906101000a900473ffffffffffffffffffffffffffffffffffffffff1673ffffffffffffffffffffffffffffffffffffffff163373ffffffffffffffffffffffffffffffffffffffff1614611cfa576040517f08c379a0000000000000000000000000000000000000000000000000000000008152600401611cf190614cef565b60405180910390fd5b600f838390918060018154018082558091505060019003906000526020600020016000909192909192909192909192509190611d37929190613d62565b50600160108484604051611d4c9291906149c0565b908152602001604051809103902060006101000a81548160ff02191690831515021790555080601c8484604051611d849291906149c0565b908152602001604051809103902081905550505050565b60011515601960003373ffffffffffffffffffffffffffffffffffffffff1673ffffffffffffffffffffffffffffffffffffffff16815260200190815260200160002060009054906101000a900460ff16151514611e2e576040517f08c379a0000000000000000000000000000000000000000000000000000000008152600401611e2590614c4f565b60405180910390fd5b60011515601b60009054906101000a900460ff16151514611e84576040517f08c379a0000000000000000000000000000000000000000000000000000000008152600401611e7b90614d2f565b60405180910390fd5b6001151560108383604051611e9a9291906149c0565b908152602001604051809103902060009054906101000a900460ff16151514611ef8576040517f08c379a0000000000000000000000000000000000000000000000000000000008152600401611eef90614daf565b60405180910390fd5b6000611f02610bfd565b11611f42576040517f08c379a0000000000000000000000000000000000000000000000000000000008152600401611f3990614ccf565b60405180910390fd5b601360003373ffffffffffffffffffffffffffffffffffffffff1673ffffffffffffffffffffffffffffffffffffffff1681526020019081526020016000208282604051611f919291906149c0565b908152602001604051809103902060009054906101000a900460ff1615611fed576040517f08c379a0000000000000000000000000000000000000000000000000000000008152600401611fe490614bcf565b60405180910390fd5b60011515601a60008573ffffffffffffffffffffffffffffffffffffffff1673ffffffffffffffffffffffffffffffffffffffff16815260200190815260200160002083836040516120409291906149c0565b908152602001604051809103902060009054906101000a900460ff1615151461209e576040517f08c379a000000000000000000000000000000000000000000000000000000000815260040161209590614c6f565b60405180910390fd5b6120d3600560009054906101000a900473ffffffffffffffffffffffffffffffffffffffff166802b5e3af16b1880000612467565b612112576040517f08c379a000000000000000000000000000000000000000000000000000000000815260040161210990614d4f565b60405180910390fd5b6001601360003373ffffffffffffffffffffffffffffffffffffffff1673ffffffffffffffffffffffffffffffffffffffff16815260200190815260200160002083836040516121639291906149c0565b908152602001604051809103902060006101000a81548160ff021916908315150217905550601560008473ffffffffffffffffffffffffffffffffffffffff1673ffffffffffffffffffffffffffffffffffffffff16815260200190815260200160002060040160008154809291906121db90615289565b919050555082601560008573ffffffffffffffffffffffffffffffffffffffff1673ffffffffffffffffffffffffffffffffffffffff16815260200190815260200160002060020160006101000a81548173ffffffffffffffffffffffffffffffffffffffff021916908373ffffffffffffffffffffffffffffffffffffffff1602179055508181601560008673ffffffffffffffffffffffffffffffffffffffff1673ffffffffffffffffffffffffffffffffffffffff16815260200190815260200160002060030191906122b2929190613d62565b506014839080600181540180825580915050600190039060005260206000200160009091909190916101000a81548173ffffffffffffffffffffffffffffffffffffffff021916908373ffffffffffffffffffffffffffffffffffffffff1602179055507fcb6783276e8a4347387036bbfea000268f0a4b1f8c46ac79980609f2af8d2acd838383604051612349939291906149f4565b60405180910390a1505050565b600080612361613878565b90506000600160008373ffffffffffffffffffffffffffffffffffffffff1673ffffffffffffffffffffffffffffffffffffffff16815260200190815260200160002060008673ffffffffffffffffffffffffffffffffffffffff1673ffffffffffffffffffffffffffffffffffffffff16815260200190815260200160002054905083811015612427576040517f08c379a000000000000000000000000000000000000000000000000000000000815260040161241e90614e6f565b60405180910390fd5b6124348286868403613880565b60019250505092915050565b600042600a541015612453576000612462565b42600a54612461919061515b565b5b905090565b600080612472613878565b905061247f818585613ad7565b600191505092915050565b601b60009054906101000a900460ff1681565b600060011515601960003373ffffffffffffffffffffffffffffffffffffffff1673ffffffffffffffffffffffffffffffffffffffff16815260200190815260200160002060009054906101000a900460ff16151514612532576040517f08c379a000000000000000000000000000000000000000000000000000000000815260040161252990614c4f565b60405180910390fd5b600061253c612440565b1161257c576040517f08c379a000000000000000000000000000000000000000000000000000000000815260040161257390614dcf565b60405180910390fd5b60011515601084846040516125929291906149c0565b908152602001604051809103902060009054906101000a900460ff161515146125f0576040517f08c379a00000000000000000000000000000000000000000000000000000000081526004016125e790614c2f565b60405180910390fd5b601c83836040516126029291906149c0565b908152602001604051809103902054601760003373ffffffffffffffffffffffffffffffffffffffff1673ffffffffffffffffffffffffffffffffffffffff1681526020019081526020016000206003015414612694576040517f08c379a000000000000000000000000000000000000000000000000000000000815260040161268b90614acf565b60405180910390fd5b600073ffffffffffffffffffffffffffffffffffffffff163373ffffffffffffffffffffffffffffffffffffffff161415612704576040517f08c379a00000000000000000000000000000000000000000000000000000000081526004016126fb90614c8f565b60405180910390fd5b60001515601a60003373ffffffffffffffffffffffffffffffffffffffff1673ffffffffffffffffffffffffffffffffffffffff16815260200190815260200160002084846040516127579291906149c0565b908152602001604051809103902060009054906101000a900460ff161515146127b5576040517f08c379a00000000000000000000000000000000000000000000000000000000081526004016127ac90614b8f565b60405180910390fd5b6127ea600560009054906101000a900473ffffffffffffffffffffffffffffffffffffffff16680821ab0d4414980000612467565b612829576040517f08c379a000000000000000000000000000000000000000000000000000000000815260040161282090614caf565b60405180910390fd5b6016600081548092919061283c90615289565b91905055506040518060a00160405280601654815260200186868080601f016020809104026020016040519081016040528093929190818152602001838380828437600081840152601f19601f8201169050808301925050505050505081526020013373ffffffffffffffffffffffffffffffffffffffff16815260200184848080601f016020809104026020016040519081016040528093929190818152602001838380828437600081840152601f19601f8201169050808301925050505050505081526020016000815250601560003373ffffffffffffffffffffffffffffffffffffffff1673ffffffffffffffffffffffffffffffffffffffff16815260200190815260200160002060008201518160000155602082015181600101908051906020019061296e929190613de8565b5060408201518160020160006101000a81548173ffffffffffffffffffffffffffffffffffffffff021916908373ffffffffffffffffffffffffffffffffffffffff16021790555060608201518160030190805190602001906129d2929190613de8565b50608082015181600401559050506001601a60003373ffffffffffffffffffffffffffffffffffffffff1673ffffffffffffffffffffffffffffffffffffffff1681526020019081526020016000208484604051612a319291906149c0565b908152602001604051809103902060006101000a81548160ff0219169083151502179055506016549050949350505050565b60196020528060005260406000206000915054906101000a900460ff1681565b600560009054906101000a900473ffffffffffffffffffffffffffffffffffffffff1673ffffffffffffffffffffffffffffffffffffffff163373ffffffffffffffffffffffffffffffffffffffff1614612b13576040517f08c379a0000000000000000000000000000000000000000000000000000000008152600401612b0a90614cef565b60405180910390fd5b8060088190555050565b6000600e54601760008473ffffffffffffffffffffffffffffffffffffffff1673ffffffffffffffffffffffffffffffffffffffff168152602001908152602001600020600301541415612b745760019050612b79565b600090505b919050565b6017602052806000526040600020600091509050806000015490806001018054612ba790615226565b80601f0160208091040260200160405190810160405280929190818152602001828054612bd390615226565b8015612c205780601f10612bf557610100808354040283529160200191612c20565b820191906000526020600020905b815481529060010190602001808311612c0357829003601f168201915b5050505050908060020160009054906101000a900473ffffffffffffffffffffffffffffffffffffffff16908060030154905084565b6000600560009054906101000a900473ffffffffffffffffffffffffffffffffffffffff1673ffffffffffffffffffffffffffffffffffffffff163373ffffffffffffffffffffffffffffffffffffffff1614612ce8576040517f08c379a0000000000000000000000000000000000000000000000000000000008152600401612cdf90614cef565b60405180910390fd5b60011515601960008473ffffffffffffffffffffffffffffffffffffffff1673ffffffffffffffffffffffffffffffffffffffff16815260200190815260200160002060009054906101000a900460ff16151514612d7b576040517f08c379a0000000000000000000000000000000000000000000000000000000008152600401612d7290614baf565b60405180910390fd5b60011515612d8883611749565b151514612dca576040517f08c379a0000000000000000000000000000000000000000000000000000000008152600401612dc190614d8f565b60405180910390fd5b60001515612dd783612b1d565b151514612e19576040517f08c379a0000000000000000000000000000000000000000000000000000000008152600401612e1090614d0f565b60405180910390fd5b600073ffffffffffffffffffffffffffffffffffffffff168273ffffffffffffffffffffffffffffffffffffffff161415612e89576040517f08c379a0000000000000000000000000000000000000000000000000000000008152600401612e8090614b2f565b60405180910390fd5b81600560006101000a81548173ffffffffffffffffffffffffffffffffffffffff021916908373ffffffffffffffffffffffffffffffffffffffff1602179055508173ffffffffffffffffffffffffffffffffffffffff167f61329b2927c7b239a1a15dcc92e9d85129956c1fde887e4cc2dc9bad7662ddac60405160405180910390a260019050919050565b6000600c54601760003373ffffffffffffffffffffffffffffffffffffffff1673ffffffffffffffffffffffffffffffffffffffff168152602001908152602001600020600301541415612f6d5760019050612f72565b600090505b90565b60185481565b6011818051602081018201805184825260208301602085012081835280955050505050506000915090505481565b6000606060008060011515601960003373ffffffffffffffffffffffffffffffffffffffff1673ffffffffffffffffffffffffffffffffffffffff16815260200190815260200160002060009054906101000a900460ff16151514613043576040517f08c379a000000000000000000000000000000000000000000000000000000000815260040161303a90614aef565b60405180910390fd5b6000601760003373ffffffffffffffffffffffffffffffffffffffff1673ffffffffffffffffffffffffffffffffffffffff168152602001908152602001600020604051806080016040529081600082015481526020016001820180546130a990615226565b80601f01602080910402602001604051908101604052809291908181526020018280546130d590615226565b80156131225780601f106130f757610100808354040283529160200191613122565b820191906000526020600020905b81548152906001019060200180831161310557829003601f168201915b505050505081526020016002820160009054906101000a900473ffffffffffffffffffffffffffffffffffffffff1673ffffffffffffffffffffffffffffffffffffffff1673ffffffffffffffffffffffffffffffffffffffff1681526020016003820154815250509050806000015181602001518260400151836060015194509450945094505090919293565b6000600160008473ffffffffffffffffffffffffffffffffffffffff1673ffffffffffffffffffffffffffffffffffffffff16815260200190815260200160002060008373ffffffffffffffffffffffffffffffffffffffff1673ffffffffffffffffffffffffffffffffffffffff16815260200190815260200160002054905092915050565b601b60019054906101000a900460ff1681565b6013602052816000526040600020818051602081018201805184825260208301602085012081835280955050505050506000915091509054906101000a900460ff1681565b6012818154811061329f57600080fd5b906000526020600020016000915054906101000a900473ffffffffffffffffffffffffffffffffffffffff1681565b601a602052816000526040600020818051602081018201805184825260208301602085012081835280955050505050506000915091509054906101000a900460ff1681565b600560009054906101000a900473ffffffffffffffffffffffffffffffffffffffff1673ffffffffffffffffffffffffffffffffffffffff163373ffffffffffffffffffffffffffffffffffffffff16146133a3576040517f08c379a000000000000000000000000000000000000000000000000000000000815260040161339a90614cef565b60405180910390fd5b42600981905550600954600b546133ba91906150ab565b600a819055506000601b60006101000a81548160ff021916908315150217905550565b6000601560003373ffffffffffffffffffffffffffffffffffffffff1673ffffffffffffffffffffffffffffffffffffffff16815260200190815260200160002060000154905090565b6060806060600560009054906101000a900473ffffffffffffffffffffffffffffffffffffffff1673ffffffffffffffffffffffffffffffffffffffff163373ffffffffffffffffffffffffffffffffffffffff16146134bc576040517f08c379a00000000000000000000000000000000000000000000000000000000081526004016134b390614cef565b60405180910390fd5b6001601b60016101000a81548160ff0219169083151502179055506134df610c6d565b925092509250909192565b600560009054906101000a900473ffffffffffffffffffffffffffffffffffffffff1673ffffffffffffffffffffffffffffffffffffffff163373ffffffffffffffffffffffffffffffffffffffff161461357a576040517f08c379a000000000000000000000000000000000000000000000000000000000815260040161357190614cef565b60405180910390fd5b80600b8190555050565b600560009054906101000a900473ffffffffffffffffffffffffffffffffffffffff1673ffffffffffffffffffffffffffffffffffffffff163373ffffffffffffffffffffffffffffffffffffffff1614613614576040517f08c379a000000000000000000000000000000000000000000000000000000000815260040161360b90614cef565b60405180910390fd5b60001515601960008473ffffffffffffffffffffffffffffffffffffffff1673ffffffffffffffffffffffffffffffffffffffff16815260200190815260200160002060009054906101000a900460ff161515146136a7576040517f08c379a000000000000000000000000000000000000000000000000000000000815260040161369e90614b0f565b60405180910390fd5b601860008154809291906136ba90615289565b91905055506000604051806080016040528060185481526020018581526020018473ffffffffffffffffffffffffffffffffffffffff16815260200183815250905080601760008573ffffffffffffffffffffffffffffffffffffffff1673ffffffffffffffffffffffffffffffffffffffff168152602001908152602001600020600082015181600001556020820151816001019080519060200190613762929190613de8565b5060408201518160020160006101000a81548173ffffffffffffffffffffffffffffffffffffffff021916908373ffffffffffffffffffffffffffffffffffffffff160217905550606082015181600301559050506001601960008573ffffffffffffffffffffffffffffffffffffffff1673ffffffffffffffffffffffffffffffffffffffff16815260200190815260200160002060006101000a81548160ff0219169083151502179055506012839080600181540180825580915050600190039060005260206000200160009091909190916101000a81548173ffffffffffffffffffffffffffffffffffffffff021916908373ffffffffffffffffffffffffffffffffffffffff16021790555050505050565b600033905090565b600073ffffffffffffffffffffffffffffffffffffffff168373ffffffffffffffffffffffffffffffffffffffff1614156138f0576040517f08c379a00000000000000000000000000000000000000000000000000000000081526004016138e790614e2f565b60405180910390fd5b600073ffffffffffffffffffffffffffffffffffffffff168273ffffffffffffffffffffffffffffffffffffffff161415613960576040517f08c379a000000000000000000000000000000000000000000000000000000000815260040161395790614b6f565b60405180910390fd5b80600160008573ffffffffffffffffffffffffffffffffffffffff1673ffffffffffffffffffffffffffffffffffffffff16815260200190815260200160002060008473ffffffffffffffffffffffffffffffffffffffff1673ffffffffffffffffffffffffffffffffffffffff168152602001908152602001600020819055508173ffffffffffffffffffffffffffffffffffffffff168373ffffffffffffffffffffffffffffffffffffffff167f8c5be1e5ebec7d5bd14f71427d1e84f3dd0314c0f7b2291e5b200ac8c7c3b92583604051613a3e9190614e8f565b60405180910390a3505050565b6000613a5784846131b0565b90507fffffffffffffffffffffffffffffffffffffffffffffffffffffffffffffffff8114613ad15781811015613ac3576040517f08c379a0000000000000000000000000000000000000000000000000000000008152600401613aba90614bef565b60405180910390fd5b613ad08484848403613880565b5b50505050565b600073ffffffffffffffffffffffffffffffffffffffff168373ffffffffffffffffffffffffffffffffffffffff161415613b47576040517f08c379a0000000000000000000000000000000000000000000000000000000008152600401613b3e90614def565b60405180910390fd5b600073ffffffffffffffffffffffffffffffffffffffff168273ffffffffffffffffffffffffffffffffffffffff161415613bb7576040517f08c379a0000000000000000000000000000000000000000000000000000000008152600401613bae90614aaf565b60405180910390fd5b613bc2838383613d58565b60008060008573ffffffffffffffffffffffffffffffffffffffff1673ffffffffffffffffffffffffffffffffffffffff16815260200190815260200160002054905081811015613c48576040517f08c379a0000000000000000000000000000000000000000000000000000000008152600401613c3f90614c0f565b60405180910390fd5b8181036000808673ffffffffffffffffffffffffffffffffffffffff1673ffffffffffffffffffffffffffffffffffffffff16815260200190815260200160002081905550816000808573ffffffffffffffffffffffffffffffffffffffff1673ffffffffffffffffffffffffffffffffffffffff1681526020019081526020016000206000828254613cdb91906150ab565b925050819055508273ffffffffffffffffffffffffffffffffffffffff168473ffffffffffffffffffffffffffffffffffffffff167fddf252ad1be2c89b69c2b068fc378daa952ba7f163c4a11628f55a4df523b3ef84604051613d3f9190614e8f565b60405180910390a3613d52848484613d5d565b50505050565b505050565b505050565b828054613d6e90615226565b90600052602060002090601f016020900481019282613d905760008555613dd7565b82601f10613da957803560ff1916838001178555613dd7565b82800160010185558215613dd7579182015b82811115613dd6578235825591602001919060010190613dbb565b5b509050613de49190613e6e565b5090565b828054613df490615226565b90600052602060002090601f016020900481019282613e165760008555613e5d565b82601f10613e2f57805160ff1916838001178555613e5d565b82800160010185558215613e5d579182015b82811115613e5c578251825591602001919060010190613e41565b5b509050613e6a9190613e6e565b5090565b5b80821115613e87576000816000905550600101613e6f565b5090565b6000613e9e613e9984614f97565b614f72565b905082815260208101848484011115613eb657600080fd5b613ec18482856151e4565b509392505050565b600081359050613ed881615bf7565b92915050565b60008083601f840112613ef057600080fd5b8235905067ffffffffffffffff811115613f0957600080fd5b602083019150836001820283011115613f2157600080fd5b9250929050565b600082601f830112613f3957600080fd5b8135613f49848260208601613e8b565b91505092915050565b600081359050613f6181615c0e565b92915050565b600060208284031215613f7957600080fd5b6000613f8784828501613ec9565b91505092915050565b60008060408385031215613fa357600080fd5b6000613fb185828601613ec9565b9250506020613fc285828601613ec9565b9150509250929050565b600080600060608486031215613fe157600080fd5b6000613fef86828701613ec9565b935050602061400086828701613ec9565b925050604061401186828701613f52565b9150509250925092565b60008060006040848603121561403057600080fd5b600061403e86828701613ec9565b935050602084013567ffffffffffffffff81111561405b57600080fd5b61406786828701613ede565b92509250509250925092565b6000806040838503121561408657600080fd5b600061409485828601613ec9565b925050602083013567ffffffffffffffff8111156140b157600080fd5b6140bd85828601613f28565b9150509250929050565b600080604083850312156140da57600080fd5b60006140e885828601613ec9565b92505060206140f985828601613f52565b9150509250929050565b6000806000806040858703121561411957600080fd5b600085013567ffffffffffffffff81111561413357600080fd5b61413f87828801613ede565b9450945050602085013567ffffffffffffffff81111561415e57600080fd5b61416a87828801613ede565b925092505092959194509250565b60008060006040848603121561418d57600080fd5b600084013567ffffffffffffffff8111156141a757600080fd5b6141b386828701613ede565b935093505060206141c686828701613f52565b9150509250925092565b6000602082840312156141e257600080fd5b600082013567ffffffffffffffff8111156141fc57600080fd5b61420884828501613f28565b91505092915050565b60008060006060848603121561422657600080fd5b600084013567ffffffffffffffff81111561424057600080fd5b61424c86828701613f28565b935050602061425d86828701613ec9565b925050604061426e86828701613f52565b9150509250925092565b60006020828403121561428a57600080fd5b600061429884828501613f52565b91505092915050565b6000806000606084860312156142b657600080fd5b60006142c486828701613f52565b93505060206142d586828701613f52565b92505060406142e686828701613f52565b9150509250925092565b60006142fc8383614334565b60208301905092915050565b600061431483836144e4565b905092915050565b60006143288383614993565b60208301905092915050565b61433d8161518f565b82525050565b61434c8161518f565b82525050565b600061435d82614ff8565b614367818561504b565b935061437283614fc8565b8060005b838110156143a357815161438a88826142f0565b975061439583615024565b925050600181019050614376565b5085935050505092915050565b60006143bb82615003565b6143c5818561505c565b9350836020820285016143d785614fd8565b8060005b8581101561441357848403895281516143f48582614308565b94506143ff83615031565b925060208a019950506001810190506143db565b50829750879550505050505092915050565b60006144308261500e565b61443a818561506d565b935061444583614fe8565b8060005b8381101561447657815161445d888261431c565b97506144688361503e565b925050600181019050614449565b5085935050505092915050565b61448c816151a1565b82525050565b600061449e838561508f565b93506144ab8385846151e4565b6144b48361535f565b840190509392505050565b60006144cb83856150a0565b93506144d88385846151e4565b82840190509392505050565b60006144ef82615019565b6144f9818561507e565b93506145098185602086016151f3565b6145128161535f565b840191505092915050565b600061452882615019565b614532818561508f565b93506145428185602086016151f3565b61454b8161535f565b840191505092915050565b600061456360238361508f565b915061456e82615370565b604082019050919050565b600061458660248361508f565b9150614591826153bf565b604082019050919050565b60006145a960218361508f565b91506145b48261540e565b604082019050919050565b60006145cc60258361508f565b91506145d78261545d565b604082019050919050565b60006145ef600f8361508f565b91506145fa826154ac565b602082019050919050565b600061461260248361508f565b915061461d826154d5565b604082019050919050565b600061463560228361508f565b915061464082615524565b604082019050919050565b600061465860308361508f565b915061466382615573565b604082019050919050565b600061467b60268361508f565b9150614686826155c2565b604082019050919050565b600061469e60278361508f565b91506146a982615611565b604082019050919050565b60006146c1601d8361508f565b91506146cc82615660565b602082019050919050565b60006146e460268361508f565b91506146ef82615689565b604082019050919050565b600061470760248361508f565b9150614712826156d8565b604082019050919050565b600061472a601a8361508f565b915061473582615727565b602082019050919050565b600061474d60218361508f565b915061475882615750565b604082019050919050565b6000614770600f8361508f565b915061477b8261579f565b602082019050919050565b600061479360308361508f565b915061479e826157c8565b604082019050919050565b60006147b660108361508f565b91506147c182615817565b602082019050919050565b60006147d9602b8361508f565b91506147e482615840565b604082019050919050565b60006147fc60398361508f565b91506148078261588f565b604082019050919050565b600061481f60178361508f565b915061482a826158de565b602082019050919050565b600061484260248361508f565b915061484d82615907565b604082019050919050565b600061486560298361508f565b915061487082615956565b604082019050919050565b600061488860428361508f565b9150614893826159a5565b606082019050919050565b60006148ab603b8361508f565b91506148b682615a1a565b604082019050919050565b60006148ce60368361508f565b91506148d982615a69565b604082019050919050565b60006148f160258361508f565b91506148fc82615ab8565b604082019050919050565b6000614914600f8361508f565b915061491f82615b07565b602082019050919050565b600061493760248361508f565b915061494282615b30565b604082019050919050565b600061495a60198361508f565b915061496582615b7f565b602082019050919050565b600061497d60258361508f565b915061498882615ba8565b604082019050919050565b61499c816151cd565b82525050565b6149ab816151cd565b82525050565b6149ba816151d7565b82525050565b60006149cd8284866144bf565b91508190509392505050565b60006020820190506149ee6000830184614343565b92915050565b6000604082019050614a096000830186614343565b8181036020830152614a1c818486614492565b9050949350505050565b60006060820190508181036000830152614a4081866143b0565b90508181036020830152614a548185614352565b90508181036040830152614a688184614425565b9050949350505050565b6000602082019050614a876000830184614483565b92915050565b60006020820190508181036000830152614aa7818461451d565b905092915050565b60006020820190508181036000830152614ac881614556565b9050919050565b60006020820190508181036000830152614ae881614579565b9050919050565b60006020820190508181036000830152614b088161459c565b9050919050565b60006020820190508181036000830152614b28816145bf565b9050919050565b60006020820190508181036000830152614b48816145e2565b9050919050565b60006020820190508181036000830152614b6881614605565b9050919050565b60006020820190508181036000830152614b8881614628565b9050919050565b60006020820190508181036000830152614ba88161464b565b9050919050565b60006020820190508181036000830152614bc88161466e565b9050919050565b60006020820190508181036000830152614be881614691565b9050919050565b60006020820190508181036000830152614c08816146b4565b9050919050565b60006020820190508181036000830152614c28816146d7565b9050919050565b60006020820190508181036000830152614c48816146fa565b9050919050565b60006020820190508181036000830152614c688161471d565b9050919050565b60006020820190508181036000830152614c8881614740565b9050919050565b60006020820190508181036000830152614ca881614763565b9050919050565b60006020820190508181036000830152614cc881614786565b9050919050565b60006020820190508181036000830152614ce8816147a9565b9050919050565b60006020820190508181036000830152614d08816147cc565b9050919050565b60006020820190508181036000830152614d28816147ef565b9050919050565b60006020820190508181036000830152614d4881614812565b9050919050565b60006020820190508181036000830152614d6881614835565b9050919050565b60006020820190508181036000830152614d8881614858565b9050919050565b60006020820190508181036000830152614da88161487b565b9050919050565b60006020820190508181036000830152614dc88161489e565b9050919050565b60006020820190508181036000830152614de8816148c1565b9050919050565b60006020820190508181036000830152614e08816148e4565b9050919050565b60006020820190508181036000830152614e2881614907565b9050919050565b60006020820190508181036000830152614e488161492a565b9050919050565b60006020820190508181036000830152614e688161494d565b9050919050565b60006020820190508181036000830152614e8881614970565b9050919050565b6000602082019050614ea460008301846149a2565b92915050565b600060a082019050614ebf60008301886149a2565b8181036020830152614ed1818761451d565b9050614ee06040830186614343565b8181036060830152614ef2818561451d565b9050614f0160808301846149a2565b9695505050505050565b6000608082019050614f2060008301876149a2565b8181036020830152614f32818661451d565b9050614f416040830185614343565b614f4e60608301846149a2565b95945050505050565b6000602082019050614f6c60008301846149b1565b92915050565b6000614f7c614f8d565b9050614f888282615258565b919050565b6000604051905090565b600067ffffffffffffffff821115614fb257614fb1615330565b5b614fbb8261535f565b9050602081019050919050565b6000819050602082019050919050565b6000819050602082019050919050565b6000819050602082019050919050565b600081519050919050565b600081519050919050565b600081519050919050565b600081519050919050565b6000602082019050919050565b6000602082019050919050565b6000602082019050919050565b600082825260208201905092915050565b600082825260208201905092915050565b600082825260208201905092915050565b600082825260208201905092915050565b600082825260208201905092915050565b600081905092915050565b60006150b6826151cd565b91506150c1836151cd565b9250827fffffffffffffffffffffffffffffffffffffffffffffffffffffffffffffffff038211156150f6576150f56152d2565b5b828201905092915050565b600061510c826151cd565b9150615117836151cd565b9250817fffffffffffffffffffffffffffffffffffffffffffffffffffffffffffffffff04831182151516156151505761514f6152d2565b5b828202905092915050565b6000615166826151cd565b9150615171836151cd565b925082821015615184576151836152d2565b5b828203905092915050565b600061519a826151ad565b9050919050565b60008115159050919050565b600073ffffffffffffffffffffffffffffffffffffffff82169050919050565b6000819050919050565b600060ff82169050919050565b82818337600083830152505050565b60005b838110156152115780820151818401526020810190506151f6565b83811115615220576000848401525b50505050565b6000600282049050600182168061523e57607f821691505b6020821081141561525257615251615301565b5b50919050565b6152618261535f565b810181811067ffffffffffffffff821117156152805761527f615330565b5b80604052505050565b6000615294826151cd565b91507fffffffffffffffffffffffffffffffffffffffffffffffffffffffffffffffff8214156152c7576152c66152d2565b5b600182019050919050565b7f4e487b7100000000000000000000000000000000000000000000000000000000600052601160045260246000fd5b7f4e487b7100000000000000000000000000000000000000000000000000000000600052602260045260246000fd5b7f4e487b7100000000000000000000000000000000000000000000000000000000600052604160045260246000fd5b6000601f19601f8301169050919050565b7f45524332303a207472616e7366657220746f20746865207a65726f206164647260008201527f6573730000000000000000000000000000000000000000000000000000000000602082015250565b7f5468697320726f6c65206973206e6f7420656c696769626c6520746f20636f6e60008201527f7465737400000000000000000000000000000000000000000000000000000000602082015250565b7f546869732061646472657373206973206e6f742061207374616b65686f6c646560008201527f7200000000000000000000000000000000000000000000000000000000000000602082015250565b7f54686973206164647265737320697320616c72656164792061207374616b656860008201527f6f6c646572000000000000000000000000000000000000000000000000000000602082015250565b7f496e76616c696420616464726573730000000000000000000000000000000000600082015250565b7f65786365656473206e756d626572206f6620616c6c6f7765642061646472657360008201527f7365737300000000000000000000000000000000000000000000000000000000602082015250565b7f45524332303a20617070726f766520746f20746865207a65726f20616464726560008201527f7373000000000000000000000000000000000000000000000000000000000000602082015250565b7f596f75206861766520616c72656164792073686f776e20696e7465726573742060008201527f696e207468697320706f736974696f6e00000000000000000000000000000000602082015250565b7f546869732061646472657373206973206e6f74207374616b65686f6c6465722060008201527f617420616c6c0000000000000000000000000000000000000000000000000000602082015250565b7f596f75206861766520616c726561647920766f74656420696e2074686973206360008201527f617465676f727900000000000000000000000000000000000000000000000000602082015250565b7f45524332303a20696e73756666696369656e7420616c6c6f77616e6365000000600082015250565b7f45524332303a207472616e7366657220616d6f756e742065786365656473206260008201527f616c616e63650000000000000000000000000000000000000000000000000000602082015250565b7f566f74696e672043617465676f727920686173206e6f74206265656e2073657460008201527f2079657400000000000000000000000000000000000000000000000000000000602082015250565b7f4f6e6c792061207374616b65686f6c64657220646f2074686973000000000000600082015250565b7f496e76616c696420616464726573733a204e6f74206120636f6e74657374616e60008201527f7400000000000000000000000000000000000000000000000000000000000000602082015250565b7f696e76616c696420616464726573730000000000000000000000000000000000600082015250565b7f596f7520646f6e2774206861766520656e6f75676820746f6b656e7320746f2060008201527f6578707265737320696e74657265737400000000000000000000000000000000602082015250565b7f566f74696e672068617320656e64656400000000000000000000000000000000600082015250565b7f4f6e6c79207468652063686169726d616e2063616e20706572666f726d20746860008201527f69732066756e6374696f6e000000000000000000000000000000000000000000602082015250565b7f43686169726d616e7368697020726f6c652063616e2774206265206772616e7460008201527f6564203a20556e617574686f7269736564206164647265737300000000000000602082015250565b7f456c656374696f6e206861736e27742073746172746564000000000000000000600082015250565b7f596f7520646f6e2774206861766520656e6f75676820746f6b656e7320746f2060008201527f766f746500000000000000000000000000000000000000000000000000000000602082015250565b7f4f6e6c79206120636f6d70696c65722063616e20706572666f726d207468697360008201527f2066756e6374696f6e0000000000000000000000000000000000000000000000602082015250565b7f43686169726d616e7368697020726f6c652063616e2774206265206772616e7460008201527f6564203a204e6f7420612074656163686572206f7220626f617264206d656d6260208201527f6572000000000000000000000000000000000000000000000000000000000000604082015250565b7f566f74696e6720666f7220746869732063617465676f72792077696c6c206e6f60008201527f742062652074616b696e6720706c616365207269676874206e6f770000000000602082015250565b7f54696d652075703a205468697320706f736974696f6e206973206e6f206d6f7260008201527f6520616363657074696e672063616e6469646174657300000000000000000000602082015250565b7f45524332303a207472616e736665722066726f6d20746865207a65726f20616460008201527f6472657373000000000000000000000000000000000000000000000000000000602082015250565b7f496e76616c696420416464726573730000000000000000000000000000000000600082015250565b7f45524332303a20617070726f76652066726f6d20746865207a65726f2061646460008201527f7265737300000000000000000000000000000000000000000000000000000000602082015250565b7f456c656374696f6e206973207374696c6c206f6e676f696e6700000000000000600082015250565b7f45524332303a2064656372656173656420616c6c6f77616e63652062656c6f7760008201527f207a65726f000000000000000000000000000000000000000000000000000000602082015250565b615c008161518f565b8114615c0b57600080fd5b50565b615c17816151cd565b8114615c2257600080fd5b5056fea2646970667358221220ff82d9e65fd3797470df81fd1520f75795d5280e5c89ad6aa52c5153f3ebbd1564736f6c63430008040033",
  "linkReferences": {},
  "deployedLinkReferences": {}
}