{
  "_format": "hh-sol-artifact-1",
  "contractName": "Election",
  "sourceName": "contracts/Election.sol",
  "abi": [
    {
      "anonymous": false,
      "inputs": [
        {
          "indexed": true,
          "internalType": "address",
          "name": "owner",
          "type": "address"
        },
        {
          "indexed": true,
          "internalType": "address",
          "name": "spender",
          "type": "address"
        },
        {
          "indexed": false,
          "internalType": "uint256",
          "name": "value",
          "type": "uint256"
        }
      ],
      "name": "Approval",
      "type": "event"
    },
    {
      "anonymous": false,
      "inputs": [
        {
          "indexed": true,
          "internalType": "string",
          "name": "name",
          "type": "string"
        },
        {
          "indexed": true,
          "internalType": "address",
          "name": "contestant",
          "type": "address"
        },
        {
          "indexed": true,
          "internalType": "string",
          "name": "category",
          "type": "string"
        }
      ],
      "name": "Contest",
      "type": "event"
    },
    {
      "anonymous": false,
      "inputs": [
        {
          "indexed": true,
          "internalType": "address",
          "name": "from",
          "type": "address"
        },
        {
          "indexed": true,
          "internalType": "address",
          "name": "to",
          "type": "address"
        }
      ],
      "name": "DelegateChairman",
      "type": "event"
    },
    {
      "anonymous": false,
      "inputs": [
        {
          "indexed": true,
          "internalType": "address",
          "name": "removed",
          "type": "address"
        }
      ],
      "name": "DelegateRemoval",
      "type": "event"
    },
    {
      "anonymous": false,
      "inputs": [
        {
          "indexed": true,
          "internalType": "uint256",
          "name": "start",
          "type": "uint256"
        },
        {
          "indexed": true,
          "internalType": "uint256",
          "name": "duration",
          "type": "uint256"
        }
      ],
      "name": "ElectionEvent",
      "type": "event"
    },
    {
      "anonymous": false,
      "inputs": [
        {
          "indexed": true,
          "internalType": "bytes32",
          "name": "role",
          "type": "bytes32"
        },
        {
          "indexed": true,
          "internalType": "bytes32",
          "name": "previousAdminRole",
          "type": "bytes32"
        },
        {
          "indexed": true,
          "internalType": "bytes32",
          "name": "newAdminRole",
          "type": "bytes32"
        }
      ],
      "name": "RoleAdminChanged",
      "type": "event"
    },
    {
      "anonymous": false,
      "inputs": [
        {
          "indexed": true,
          "internalType": "bytes32",
          "name": "role",
          "type": "bytes32"
        },
        {
          "indexed": true,
          "internalType": "address",
          "name": "account",
          "type": "address"
        },
        {
          "indexed": true,
          "internalType": "address",
          "name": "sender",
          "type": "address"
        }
      ],
      "name": "RoleGranted",
      "type": "event"
    },
    {
      "anonymous": false,
      "inputs": [
        {
          "indexed": true,
          "internalType": "bytes32",
          "name": "role",
          "type": "bytes32"
        },
        {
          "indexed": true,
          "internalType": "address",
          "name": "account",
          "type": "address"
        },
        {
          "indexed": true,
          "internalType": "address",
          "name": "sender",
          "type": "address"
        }
      ],
      "name": "RoleRevoked",
      "type": "event"
    },
    {
      "anonymous": false,
      "inputs": [
        {
          "indexed": true,
          "internalType": "address",
          "name": "from",
          "type": "address"
        },
        {
          "indexed": true,
          "internalType": "address",
          "name": "to",
          "type": "address"
        },
        {
          "indexed": false,
          "internalType": "uint256",
          "name": "value",
          "type": "uint256"
        }
      ],
      "name": "Transfer",
      "type": "event"
    },
    {
      "anonymous": false,
      "inputs": [
        {
          "indexed": false,
          "internalType": "address",
          "name": "voteChoice",
          "type": "address"
        },
        {
          "indexed": false,
          "internalType": "string",
          "name": "Category",
          "type": "string"
        }
      ],
      "name": "Voted",
      "type": "event"
    },
    {
      "inputs": [],
      "name": "BOARD_MEMBER_ROLE",
      "outputs": [
        {
          "internalType": "bytes32",
          "name": "",
          "type": "bytes32"
        }
      ],
      "stateMutability": "view",
      "type": "function"
    },
    {
      "inputs": [],
      "name": "CHAIRMAN_ROLE",
      "outputs": [
        {
          "internalType": "bytes32",
          "name": "",
          "type": "bytes32"
        }
      ],
      "stateMutability": "view",
      "type": "function"
    },
    {
      "inputs": [],
      "name": "DEFAULT_ADMIN_ROLE",
      "outputs": [
        {
          "internalType": "bytes32",
          "name": "",
          "type": "bytes32"
        }
      ],
      "stateMutability": "view",
      "type": "function"
    },
    {
      "inputs": [],
      "name": "STUDENT_ROLE",
      "outputs": [
        {
          "internalType": "bytes32",
          "name": "",
          "type": "bytes32"
        }
      ],
      "stateMutability": "view",
      "type": "function"
    },
    {
      "inputs": [],
      "name": "TEACHER_ROLE",
      "outputs": [
        {
          "internalType": "bytes32",
          "name": "",
          "type": "bytes32"
        }
      ],
      "stateMutability": "view",
      "type": "function"
    },
    {
      "inputs": [
        {
          "internalType": "string",
          "name": "_name",
          "type": "string"
        },
        {
          "internalType": "address",
          "name": "_holder",
          "type": "address"
        },
        {
          "internalType": "uint256",
          "name": "_role",
          "type": "uint256"
        }
      ],
      "name": "addStakeHolder",
      "outputs": [],
      "stateMutability": "nonpayable",
      "type": "function"
    },
    {
      "inputs": [
        {
          "internalType": "address",
          "name": "owner",
          "type": "address"
        },
        {
          "internalType": "address",
          "name": "spender",
          "type": "address"
        }
      ],
      "name": "allowance",
      "outputs": [
        {
          "internalType": "uint256",
          "name": "",
          "type": "uint256"
        }
      ],
      "stateMutability": "view",
      "type": "function"
    },
    {
      "inputs": [
        {
          "internalType": "address",
          "name": "spender",
          "type": "address"
        },
        {
          "internalType": "uint256",
          "name": "amount",
          "type": "uint256"
        }
      ],
      "name": "approve",
      "outputs": [
        {
          "internalType": "bool",
          "name": "",
          "type": "bool"
        }
      ],
      "stateMutability": "nonpayable",
      "type": "function"
    },
    {
      "inputs": [
        {
          "internalType": "address",
          "name": "account",
          "type": "address"
        }
      ],
      "name": "balanceOf",
      "outputs": [
        {
          "internalType": "uint256",
          "name": "",
          "type": "uint256"
        }
      ],
      "stateMutability": "view",
      "type": "function"
    },
    {
      "inputs": [
        {
          "internalType": "uint256",
          "name": "boardMemberAmount",
          "type": "uint256"
        },
        {
          "internalType": "uint256",
          "name": "teacherAmount",
          "type": "uint256"
        },
        {
          "internalType": "uint256",
          "name": "studentAmount",
          "type": "uint256"
        }
      ],
      "name": "batchTransferToExistingStakeholders",
      "outputs": [
        {
          "internalType": "bool",
          "name": "transfered",
          "type": "bool"
        }
      ],
      "stateMutability": "nonpayable",
      "type": "function"
    },
    {
      "inputs": [
        {
          "internalType": "string[]",
          "name": "_name",
          "type": "string[]"
        },
        {
          "internalType": "address[]",
          "name": "_holder",
          "type": "address[]"
        },
        {
          "internalType": "uint256[]",
          "name": "_role",
          "type": "uint256[]"
        },
        {
          "internalType": "uint256[]",
          "name": "_amounts",
          "type": "uint256[]"
        }
      ],
      "name": "batchTransferandAdd",
      "outputs": [
        {
          "internalType": "bool",
          "name": "",
          "type": "bool"
        }
      ],
      "stateMutability": "nonpayable",
      "type": "function"
    },
    {
      "inputs": [],
      "name": "canStillExpressInterest",
      "outputs": [
        {
          "internalType": "bool",
          "name": "",
          "type": "bool"
        }
      ],
      "stateMutability": "view",
      "type": "function"
    },
    {
      "inputs": [
        {
          "internalType": "address",
          "name": "",
          "type": "address"
        }
      ],
      "name": "candidates",
      "outputs": [
        {
          "internalType": "uint256",
          "name": "id",
          "type": "uint256"
        },
        {
          "internalType": "string",
          "name": "name",
          "type": "string"
        },
        {
          "internalType": "address",
          "name": "contestant",
          "type": "address"
        },
        {
          "internalType": "string",
          "name": "category",
          "type": "string"
        },
        {
          "internalType": "uint256",
          "name": "voteCount",
          "type": "uint256"
        }
      ],
      "stateMutability": "view",
      "type": "function"
    },
    {
      "inputs": [],
      "name": "candidatesCount",
      "outputs": [
        {
          "internalType": "uint256",
          "name": "",
          "type": "uint256"
        }
      ],
      "stateMutability": "view",
      "type": "function"
    },
    {
      "inputs": [
        {
          "internalType": "uint256",
          "name": "",
          "type": "uint256"
        }
      ],
      "name": "candidatesResultCompiled",
      "outputs": [
        {
          "internalType": "address",
          "name": "",
          "type": "address"
        }
      ],
      "stateMutability": "view",
      "type": "function"
    },
    {
      "inputs": [
        {
          "internalType": "uint256",
          "name": "",
          "type": "uint256"
        }
      ],
      "name": "categoriesResultCompiled",
      "outputs": [
        {
          "internalType": "string",
          "name": "",
          "type": "string"
        }
      ],
      "stateMutability": "view",
      "type": "function"
    },
    {
      "inputs": [
        {
          "internalType": "uint256",
          "name": "",
          "type": "uint256"
        }
      ],
      "name": "category",
      "outputs": [
        {
          "internalType": "string",
          "name": "name",
          "type": "string"
        },
        {
          "internalType": "uint256",
          "name": "role",
          "type": "uint256"
        }
      ],
      "stateMutability": "view",
      "type": "function"
    },
    {
      "inputs": [
        {
          "internalType": "string",
          "name": "",
          "type": "string"
        }
      ],
      "name": "categorySet",
      "outputs": [
        {
          "internalType": "bool",
          "name": "",
          "type": "bool"
        }
      ],
      "stateMutability": "view",
      "type": "function"
    },
    {
      "inputs": [],
      "name": "chairmanAddr",
      "outputs": [
        {
          "internalType": "address",
          "name": "",
          "type": "address"
        }
      ],
      "stateMutability": "view",
      "type": "function"
    },
    {
      "inputs": [],
      "name": "compileVotes",
      "outputs": [],
      "stateMutability": "nonpayable",
      "type": "function"
    },
    {
      "inputs": [
        {
          "internalType": "uint256",
          "name": "",
          "type": "uint256"
        }
      ],
      "name": "contestants",
      "outputs": [
        {
          "internalType": "string",
          "name": "name",
          "type": "string"
        },
        {
          "internalType": "address",
          "name": "addr",
          "type": "address"
        },
        {
          "internalType": "string",
          "name": "category",
          "type": "string"
        }
      ],
      "stateMutability": "view",
      "type": "function"
    },
    {
      "inputs": [],
      "name": "decimals",
      "outputs": [
        {
          "internalType": "uint8",
          "name": "",
          "type": "uint8"
        }
      ],
      "stateMutability": "view",
      "type": "function"
    },
    {
      "inputs": [
        {
          "internalType": "address",
          "name": "spender",
          "type": "address"
        },
        {
          "internalType": "uint256",
          "name": "subtractedValue",
          "type": "uint256"
        }
      ],
      "name": "decreaseAllowance",
      "outputs": [
        {
          "internalType": "bool",
          "name": "",
          "type": "bool"
        }
      ],
      "stateMutability": "nonpayable",
      "type": "function"
    },
    {
      "inputs": [
        {
          "internalType": "address",
          "name": "newChairman",
          "type": "address"
        }
      ],
      "name": "delegateChairmanship",
      "outputs": [
        {
          "internalType": "bool",
          "name": "changed",
          "type": "bool"
        }
      ],
      "stateMutability": "nonpayable",
      "type": "function"
    },
    {
      "inputs": [
        {
          "internalType": "string",
          "name": "_name",
          "type": "string"
        },
        {
          "internalType": "string",
          "name": "_category",
          "type": "string"
        }
      ],
      "name": "expressInterest",
      "outputs": [
        {
          "internalType": "uint256",
          "name": "",
          "type": "uint256"
        }
      ],
      "stateMutability": "nonpayable",
      "type": "function"
    },
    {
      "inputs": [],
      "name": "getContestantDetails",
      "outputs": [
        {
          "internalType": "string[]",
          "name": "",
          "type": "string[]"
        },
        {
          "internalType": "address[]",
          "name": "",
          "type": "address[]"
        },
        {
          "internalType": "string[]",
          "name": "",
          "type": "string[]"
        }
      ],
      "stateMutability": "view",
      "type": "function"
    },
    {
      "inputs": [],
      "name": "getCurrentCategory",
      "outputs": [
        {
          "internalType": "string[]",
          "name": "",
          "type": "string[]"
        },
        {
          "internalType": "uint256[]",
          "name": "roles",
          "type": "uint256[]"
        }
      ],
      "stateMutability": "view",
      "type": "function"
    },
    {
      "inputs": [
        {
          "internalType": "bytes32",
          "name": "role",
          "type": "bytes32"
        }
      ],
      "name": "getRoleAdmin",
      "outputs": [
        {
          "internalType": "bytes32",
          "name": "",
          "type": "bytes32"
        }
      ],
      "stateMutability": "view",
      "type": "function"
    },
    {
      "inputs": [],
      "name": "getStakeholderDetails",
      "outputs": [
        {
          "internalType": "uint256",
          "name": "id",
          "type": "uint256"
        },
        {
          "internalType": "string",
          "name": "name",
          "type": "string"
        },
        {
          "internalType": "address",
          "name": "holder",
          "type": "address"
        },
        {
          "internalType": "uint256",
          "name": "role",
          "type": "uint256"
        }
      ],
      "stateMutability": "view",
      "type": "function"
    },
    {
      "inputs": [
        {
          "internalType": "bytes32",
          "name": "role",
          "type": "bytes32"
        },
        {
          "internalType": "address",
          "name": "account",
          "type": "address"
        }
      ],
      "name": "grantRole",
      "outputs": [],
      "stateMutability": "nonpayable",
      "type": "function"
    },
    {
      "inputs": [
        {
          "internalType": "bytes32",
          "name": "role",
          "type": "bytes32"
        },
        {
          "internalType": "address",
          "name": "account",
          "type": "address"
        }
      ],
      "name": "hasRole",
      "outputs": [
        {
          "internalType": "bool",
          "name": "",
          "type": "bool"
        }
      ],
      "stateMutability": "view",
      "type": "function"
    },
    {
      "inputs": [
        {
          "internalType": "address",
          "name": "spender",
          "type": "address"
        },
        {
          "internalType": "uint256",
          "name": "addedValue",
          "type": "uint256"
        }
      ],
      "name": "increaseAllowance",
      "outputs": [
        {
          "internalType": "bool",
          "name": "",
          "type": "bool"
        }
      ],
      "stateMutability": "nonpayable",
      "type": "function"
    },
    {
      "inputs": [
        {
          "internalType": "address",
          "name": "account",
          "type": "address"
        }
      ],
      "name": "isAdmin",
      "outputs": [
        {
          "internalType": "bool",
          "name": "",
          "type": "bool"
        }
      ],
      "stateMutability": "view",
      "type": "function"
    },
    {
      "inputs": [
        {
          "internalType": "address",
          "name": "account",
          "type": "address"
        }
      ],
      "name": "isBoardMember",
      "outputs": [
        {
          "internalType": "bool",
          "name": "",
          "type": "bool"
        }
      ],
      "stateMutability": "view",
      "type": "function"
    },
    {
      "inputs": [
        {
          "internalType": "address",
          "name": "account",
          "type": "address"
        }
      ],
      "name": "isChairman",
      "outputs": [
        {
          "internalType": "bool",
          "name": "",
          "type": "bool"
        }
      ],
      "stateMutability": "view",
      "type": "function"
    },
    {
      "inputs": [
        {
          "internalType": "address",
          "name": "account",
          "type": "address"
        }
      ],
      "name": "isCompiler",
      "outputs": [
        {
          "internalType": "bool",
          "name": "",
          "type": "bool"
        }
      ],
      "stateMutability": "view",
      "type": "function"
    },
    {
      "inputs": [
        {
          "internalType": "address",
          "name": "",
          "type": "address"
        },
        {
          "internalType": "string",
          "name": "",
          "type": "string"
        }
      ],
      "name": "isContesting",
      "outputs": [
        {
          "internalType": "bool",
          "name": "",
          "type": "bool"
        }
      ],
      "stateMutability": "view",
      "type": "function"
    },
    {
      "inputs": [],
      "name": "isElectionOn",
      "outputs": [
        {
          "internalType": "bool",
          "name": "",
          "type": "bool"
        }
      ],
      "stateMutability": "view",
      "type": "function"
    },
    {
      "inputs": [],
      "name": "isResultAnnounced",
      "outputs": [
        {
          "internalType": "bool",
          "name": "",
          "type": "bool"
        }
      ],
      "stateMutability": "view",
      "type": "function"
    },
    {
      "inputs": [
        {
          "internalType": "address",
          "name": "account",
          "type": "address"
        }
      ],
      "name": "isStudent",
      "outputs": [
        {
          "internalType": "bool",
          "name": "",
          "type": "bool"
        }
      ],
      "stateMutability": "view",
      "type": "function"
    },
    {
      "inputs": [
        {
          "internalType": "address",
          "name": "account",
          "type": "address"
        }
      ],
      "name": "isTeacher",
      "outputs": [
        {
          "internalType": "bool",
          "name": "",
          "type": "bool"
        }
      ],
      "stateMutability": "view",
      "type": "function"
    },
    {
      "inputs": [],
      "name": "makeResultsPublic",
      "outputs": [
        {
          "internalType": "string[]",
          "name": "",
          "type": "string[]"
        },
        {
          "internalType": "address[]",
          "name": "",
          "type": "address[]"
        },
        {
          "internalType": "uint256[]",
          "name": "",
          "type": "uint256[]"
        }
      ],
      "stateMutability": "nonpayable",
      "type": "function"
    },
    {
      "inputs": [],
      "name": "name",
      "outputs": [
        {
          "internalType": "string",
          "name": "",
          "type": "string"
        }
      ],
      "stateMutability": "view",
      "type": "function"
    },
    {
      "inputs": [
        {
          "internalType": "address[]",
          "name": "_candidate",
          "type": "address[]"
        },
        {
          "internalType": "string[]",
          "name": "_category",
          "type": "string[]"
        }
      ],
      "name": "placeVote",
      "outputs": [],
      "stateMutability": "nonpayable",
      "type": "function"
    },
    {
      "inputs": [
        {
          "internalType": "address",
          "name": "account",
          "type": "address"
        }
      ],
      "name": "removeDelegate",
      "outputs": [],
      "stateMutability": "nonpayable",
      "type": "function"
    },
    {
      "inputs": [
        {
          "internalType": "bytes32",
          "name": "role",
          "type": "bytes32"
        },
        {
          "internalType": "address",
          "name": "account",
          "type": "address"
        }
      ],
      "name": "renounceRole",
      "outputs": [],
      "stateMutability": "nonpayable",
      "type": "function"
    },
    {
      "inputs": [
        {
          "internalType": "string",
          "name": "_category",
          "type": "string"
        }
      ],
      "name": "resetVotingCategory",
      "outputs": [],
      "stateMutability": "nonpayable",
      "type": "function"
    },
    {
      "inputs": [
        {
          "internalType": "bytes32",
          "name": "role",
          "type": "bytes32"
        },
        {
          "internalType": "address",
          "name": "account",
          "type": "address"
        }
      ],
      "name": "revokeRole",
      "outputs": [],
      "stateMutability": "nonpayable",
      "type": "function"
    },
    {
      "inputs": [
        {
          "internalType": "string",
          "name": "",
          "type": "string"
        }
      ],
      "name": "roleEligible",
      "outputs": [
        {
          "internalType": "uint256",
          "name": "",
          "type": "uint256"
        }
      ],
      "stateMutability": "view",
      "type": "function"
    },
    {
      "inputs": [
        {
          "internalType": "uint256",
          "name": "",
          "type": "uint256"
        }
      ],
      "name": "runnerUps",
      "outputs": [
        {
          "internalType": "string",
          "name": "contestantCategory",
          "type": "string"
        },
        {
          "internalType": "address",
          "name": "contestantAddr",
          "type": "address"
        },
        {
          "internalType": "uint256",
          "name": "contestantVoteCount",
          "type": "uint256"
        }
      ],
      "stateMutability": "view",
      "type": "function"
    },
    {
      "inputs": [
        {
          "internalType": "string",
          "name": "_category",
          "type": "string"
        },
        {
          "internalType": "uint256",
          "name": "_roleEligible",
          "type": "uint256"
        }
      ],
      "name": "setVotingCategory",
      "outputs": [],
      "stateMutability": "nonpayable",
      "type": "function"
    },
    {
      "inputs": [
        {
          "internalType": "address",
          "name": "",
          "type": "address"
        }
      ],
      "name": "stakeHolderExists",
      "outputs": [
        {
          "internalType": "bool",
          "name": "",
          "type": "bool"
        }
      ],
      "stateMutability": "view",
      "type": "function"
    },
    {
      "inputs": [],
      "name": "stakeHoldersCount",
      "outputs": [
        {
          "internalType": "uint256",
          "name": "",
          "type": "uint256"
        }
      ],
      "stateMutability": "view",
      "type": "function"
    },
    {
      "inputs": [
        {
          "internalType": "uint256",
          "name": "",
          "type": "uint256"
        }
      ],
      "name": "stakeholderList",
      "outputs": [
        {
          "internalType": "address",
          "name": "",
          "type": "address"
        }
      ],
      "stateMutability": "view",
      "type": "function"
    },
    {
      "inputs": [
        {
          "internalType": "address",
          "name": "",
          "type": "address"
        }
      ],
      "name": "stakeholders",
      "outputs": [
        {
          "internalType": "uint256",
          "name": "id",
          "type": "uint256"
        },
        {
          "internalType": "string",
          "name": "name",
          "type": "string"
        },
        {
          "internalType": "address",
          "name": "holder",
          "type": "address"
        },
        {
          "internalType": "uint256",
          "name": "role",
          "type": "uint256"
        }
      ],
      "stateMutability": "view",
      "type": "function"
    },
    {
      "inputs": [
        {
          "internalType": "uint256",
          "name": "_electionDuration",
          "type": "uint256"
        }
      ],
      "name": "startElection",
      "outputs": [],
      "stateMutability": "nonpayable",
      "type": "function"
    },
    {
      "inputs": [
        {
          "internalType": "uint256",
          "name": "_showInterestDuration",
          "type": "uint256"
        }
      ],
      "name": "startShowInterest",
      "outputs": [],
      "stateMutability": "nonpayable",
      "type": "function"
    },
    {
      "inputs": [
        {
          "internalType": "bytes4",
          "name": "interfaceId",
          "type": "bytes4"
        }
      ],
      "name": "supportsInterface",
      "outputs": [
        {
          "internalType": "bool",
          "name": "",
          "type": "bool"
        }
      ],
      "stateMutability": "view",
      "type": "function"
    },
    {
      "inputs": [],
      "name": "symbol",
      "outputs": [
        {
          "internalType": "string",
          "name": "",
          "type": "string"
        }
      ],
      "stateMutability": "view",
      "type": "function"
    },
    {
      "inputs": [],
      "name": "timeLeft",
      "outputs": [
        {
          "internalType": "uint256",
          "name": "",
          "type": "uint256"
        }
      ],
      "stateMutability": "view",
      "type": "function"
    },
    {
      "inputs": [],
      "name": "timeLefttoShowInterest",
      "outputs": [
        {
          "internalType": "uint256",
          "name": "",
          "type": "uint256"
        }
      ],
      "stateMutability": "view",
      "type": "function"
    },
    {
      "inputs": [],
      "name": "totalSupply",
      "outputs": [
        {
          "internalType": "uint256",
          "name": "",
          "type": "uint256"
        }
      ],
      "stateMutability": "view",
      "type": "function"
    },
    {
      "inputs": [
        {
          "internalType": "address",
          "name": "to",
          "type": "address"
        },
        {
          "internalType": "uint256",
          "name": "amount",
          "type": "uint256"
        }
      ],
      "name": "transfer",
      "outputs": [
        {
          "internalType": "bool",
          "name": "",
          "type": "bool"
        }
      ],
      "stateMutability": "nonpayable",
      "type": "function"
    },
    {
      "inputs": [
        {
          "internalType": "address",
          "name": "from",
          "type": "address"
        },
        {
          "internalType": "address",
          "name": "to",
          "type": "address"
        },
        {
          "internalType": "uint256",
          "name": "amount",
          "type": "uint256"
        }
      ],
      "name": "transferFrom",
      "outputs": [
        {
          "internalType": "bool",
          "name": "",
          "type": "bool"
        }
      ],
      "stateMutability": "nonpayable",
      "type": "function"
    },
    {
      "inputs": [
        {
          "internalType": "uint256",
          "name": "",
          "type": "uint256"
        }
      ],
      "name": "votedFor",
      "outputs": [
        {
          "internalType": "address",
          "name": "",
          "type": "address"
        }
      ],
      "stateMutability": "view",
      "type": "function"
    },
    {
      "inputs": [
        {
          "internalType": "address",
          "name": "",
          "type": "address"
        },
        {
          "internalType": "string",
          "name": "",
          "type": "string"
        }
      ],
      "name": "voters",
      "outputs": [
        {
          "internalType": "bool",
          "name": "voted",
          "type": "bool"
        },
        {
          "internalType": "address",
          "name": "voteChoice",
          "type": "address"
        }
      ],
      "stateMutability": "view",
      "type": "function"
    },
    {
      "inputs": [
        {
          "internalType": "uint256",
          "name": "",
          "type": "uint256"
        }
      ],
      "name": "votesResultCompiled",
      "outputs": [
        {
          "internalType": "uint256",
          "name": "",
          "type": "uint256"
        }
      ],
      "stateMutability": "view",
      "type": "function"
    }
  ],
  "bytecode": "0x6080604052600060075560016008556002600955601e805460ff199081169091556023805490911690553480156200003657600080fd5b50604051806040016040528060098152602001682d3ab934aa37b5b2b760b91b8152506040518060400160405280600381526020016216915560ea1b81525081600390805190602001906200008d929190620005c4565b508051620000a3906004906020840190620005c4565b505050620000c3336a108b2a2c280290940000006200012360201b60201c565b600680546001600160a01b03191633908117909155620000e6906000906200020d565b6200010260008051602062005b7d8339815191526000620002b1565b6200011d60008051602062005b7d83398151915233620002fc565b620007f5565b6001600160a01b0382166200017f5760405162461bcd60e51b815260206004820152601f60248201527f45524332303a206d696e7420746f20746865207a65726f20616464726573730060448201526064015b60405180910390fd5b806002600082825462000193919062000718565b90915550506001600160a01b03821660009081526020819052604081208054839290620001c290849062000718565b90915550506040518181526001600160a01b038316906000907fddf252ad1be2c89b69c2b068fc378daa952ba7f163c4a11628f55a4df523b3ef9060200160405180910390a35b5050565b60008281526005602090815260408083206001600160a01b038516845290915290205460ff16620002095760008281526005602090815260408083206001600160a01b03851684529091529020805460ff191660011790556200026d3390565b6001600160a01b0316816001600160a01b0316837f2f8788117e7eff1d82e926ec794901d17c78024a50270940304540a733656f0d60405160405180910390a45050565b600082815260056020526040808220600101805490849055905190918391839186917fbd79b86ffe0ab8e8776151514217cd7cacd52c909f66475c3af44e129f0b00ff9190a4505050565b6000828152600560205260409020600101546200031a81336200032b565b6200032683836200020d565b505050565b60008281526005602090815260408083206001600160a01b038516845290915290205460ff16620002095762000377816001600160a01b03166014620003c860201b62003dbb1760201c565b6200038d83602062003dbb620003c8821b17811c565b604051602001620003a09291906200066a565b60408051601f198184030181529082905262461bcd60e51b82526200017691600401620006e3565b60606000620003d983600262000733565b620003e690600262000718565b6001600160401b038111156200040c57634e487b7160e01b600052604160045260246000fd5b6040519080825280601f01601f19166020018201604052801562000437576020820181803683370190505b509050600360fc1b816000815181106200046157634e487b7160e01b600052603260045260246000fd5b60200101906001600160f81b031916908160001a905350600f60fb1b816001815181106200049f57634e487b7160e01b600052603260045260246000fd5b60200101906001600160f81b031916908160001a9053506000620004c584600262000733565b620004d290600162000718565b90505b60018111156200056c576f181899199a1a9b1b9c1cb0b131b232b360811b85600f16601081106200051657634e487b7160e01b600052603260045260246000fd5b1a60f81b8282815181106200053b57634e487b7160e01b600052603260045260246000fd5b60200101906001600160f81b031916908160001a90535060049490941c93620005648162000788565b9050620004d5565b508315620005bd5760405162461bcd60e51b815260206004820181905260248201527f537472696e67733a20686578206c656e67746820696e73756666696369656e74604482015260640162000176565b9392505050565b828054620005d290620007a2565b90600052602060002090601f016020900481019282620005f6576000855562000641565b82601f106200061157805160ff191683800117855562000641565b8280016001018555821562000641579182015b828111156200064157825182559160200191906001019062000624565b506200064f92915062000653565b5090565b5b808211156200064f576000815560010162000654565b7f416363657373436f6e74726f6c3a206163636f756e7420000000000000000000815260008351620006a481601785016020880162000755565b7001034b99036b4b9b9b4b733903937b6329607d1b6017918401918201528351620006d781602884016020880162000755565b01602801949350505050565b60208152600082518060208401526200070481604085016020870162000755565b601f01601f19169190910160400192915050565b600082198211156200072e576200072e620007df565b500190565b6000816000190483118215151615620007505762000750620007df565b500290565b60005b838110156200077257818101518382015260200162000758565b8381111562000782576000848401525b50505050565b6000816200079a576200079a620007df565b506000190190565b600181811c90821680620007b757607f821691505b60208210811415620007d957634e487b7160e01b600052602260045260246000fd5b50919050565b634e487b7160e01b600052601160045260246000fd5b61537880620008056000396000f3fe608060405234801561001057600080fd5b50600436106103f15760003560e01c806382f7d39211610215578063c3e0e16411610125578063dfd50f52116100b8578063e8dcc55811610087578063e8dcc55814610990578063f1ad1d0e146109cf578063f6daef31146109e4578063f7be43fb146109fb578063fac65f9714610a1057600080fd5b8063dfd50f52146108e0578063e064471214610902578063e18b487a1461090f578063e320f5761461097d57600080fd5b8063da6efb8d116100f4578063da6efb8d14610884578063dba57c801461088c578063dd62ed3e1461089f578063df0baf8e146108d857600080fd5b8063c3e0e1641461082a578063c90aa2b41461083d578063cae9fbca14610846578063d547741f1461087157600080fd5b8063a217fddf116101a8578063aec37eb311610177578063aec37eb3146107ab578063b1f013fb146107be578063b1f5086e146107d1578063bc9e6d49146107f4578063c07cfca91461080757600080fd5b8063a217fddf14610775578063a457c2d71461077d578063a4d1059714610790578063a9059cbb1461079857600080fd5b806393fe03a0116101e457806393fe03a01461072e57806395d89b411461074557806398b1df7e1461074d578063a097dc4b1461076057600080fd5b806382f7d392146106cf57806386e5c15a146106e25780638ab66a90146106f757806391d148541461071b57600080fd5b80632f2ff15d1161031057806353de7eb1116102a357806369c389d01161027257806369c389d01461063f5780636d32dc4b1461066d57806370a082311461068057806371942a01146106a95780637e732948146106bc57600080fd5b806353de7eb1146105e457806355f74295146105f75780635aab453c1461060a57806367e7646f1461062c57600080fd5b806338287259116102df578063382872591461059557806339509351146105a857806340cddb4f146105bb57806350c84202146105ce57600080fd5b80632f2ff15d1461054d578063313ce56714610560578063346f81f11461056f57806336568abe1461058257600080fd5b806318160ddd11610388578063248a9ca311610357578063248a9ca3146104ed57806324d7806c14610510578063253eca1f146105235780632d35a8a21461054457600080fd5b806318160ddd146104b75780631e5592f4146104bf57806320be2a85146104d257806323b872dd146104da57600080fd5b8063087b8872116103c4578063087b887214610450578063095ea7b3146104715780631300a6d1146104845780631312fa921461048c57600080fd5b806301ffc9a7146103f6578063058a13a51461041e57806305cbd1541461043357806306fdde031461043b575b600080fd5b610409610404366004614bf1565b610a23565b60405190151581526020015b60405180910390f35b61043161042c366004614a5c565b610a5a565b005b610409611264565b610443611281565b6040516104159190615013565b61046361045e366004614bb7565b611313565b604051908152602001610415565b61040961047f366004614a33565b611334565b61046361134c565b61049f61049a366004614bb7565b611371565b6040516001600160a01b039091168152602001610415565b600254610463565b6104096104cd366004614ab2565b61139b565b6104316118e6565b6104096104e83660046149ad565b611cd0565b6104636104fb366004614bb7565b60009081526005602052604090206001015490565b61040961051e366004614961565b611cf4565b610536610531366004614bb7565b611d00565b604051610415929190615088565b610463601c5481565b61043161055b366004614bcf565b611dbc565b60405160128152602001610415565b61044361057d366004614bb7565b611de2565b610431610590366004614bcf565b611e8e565b6104096105a3366004614961565b611f0c565b6104096105b6366004614a33565b611f26565b6104316105c9366004614c19565b611f65565b6105d661204f565b604051610415929190614fe5565b6104096105f2366004614d87565b612273565b610431610605366004614bb7565b612455565b61061d610618366004614bb7565b612490565b6040516104159392919061505a565b61043161063a366004614961565b61255c565b61040961064d366004614d09565b805160208183018101805160148252928201919093012091525460ff1681565b61043161067b366004614bb7565b612639565b61046361068e366004614961565b6001600160a01b031660009081526020819052604090205490565b6104096106b7366004614961565b61270a565b60065461049f906001600160a01b031681565b6104096106dd366004614961565b612724565b6104636000805160206152c383398151915281565b61070a610705366004614961565b61273e565b6040516104159594939291906150da565b610409610729366004614bcf565b61288c565b6107366128b7565b60405161041593929190614f69565b610443612c4d565b61043161075b366004614cc0565b612c5c565b6104636000805160206152e383398151915281565b610463600081565b61040961078b366004614a33565b612d58565b610463612dea565b6104096107a6366004614a33565b612e0a565b6104096107b9366004614961565b612e18565b6104636107cc366004614c58565b612e32565b6104096107df366004614961565b600d6020526000908152604090205460ff1681565b610409610802366004614961565b61342f565b61081a610815366004614961565b613481565b6040516104159493929190615127565b610409610838366004614961565b61353c565b610463600c5481565b610463610854366004614d09565b805160208183018101805160158252928201919093012091525481565b61043161087f366004614bcf565b613663565b61081a613689565b61049f61089a366004614bb7565b6137e1565b6104636108ad36600461497b565b6001600160a01b03918216600090815260016020908152604080832093909416825291909152205490565b6104096137f1565b6108f36108ee366004614bb7565b6137fc565b60405161041593929190615026565b601e546104099060ff1681565b61095e61091d3660046149e8565b6019602090815260009283526040909220815180830184018051928152908401929093019190912091525460ff81169061010090046001600160a01b031682565b6040805192151583526001600160a01b03909116602083015201610415565b61049f61098b366004614bb7565b613955565b61040961099e3660046149e8565b601d602090815260009283526040909220815180830184018051928152908401929093019190912091525460ff1681565b61046360008051602061530383398151915281565b6109ec613965565b60405161041593929190614fac565b61046360008051602061532383398151915281565b610431610a1e366004614d43565b613bb8565b60006001600160e01b03198216637965db0b60e01b1480610a5457506301ffc9a760e01b6001600160e01b03198316145b92915050565b336000908152600d602052604090205460ff161515600114610ac35760405162461bcd60e51b815260206004820152601a60248201527f4f6e6c792061207374616b65686f6c64657220646f207468697300000000000060448201526064015b60405180910390fd5b6000610acd61134c565b11610b0d5760405162461bcd60e51b815260206004820152601060248201526f159bdd1a5b99c81a185cc8195b99195960821b6044820152606401610aba565b610b156137f1565b1515600114610b665760405162461bcd60e51b815260206004820152601760248201527f456c656374696f6e206861736e277420737461727465640000000000000000006044820152606401610aba565b600654610b85906001600160a01b03166802b5e3af16b1880000612e0a565b610bdd5760405162461bcd60e51b8152602060048201526024808201527f596f7520646f6e2774206861766520656e6f75676820746f6b656e7320746f20604482015263766f746560e01b6064820152608401610aba565b60005b60165481101561125f576014828281518110610c0c57634e487b7160e01b600052603260045260246000fd5b6020026020010151604051610c219190614eb4565b9081526040519081900360200190205460ff161515600114610c7b5760405162461bcd60e51b81526020600482015260136024820152723b37ba34b733903430b9b713ba103132b3bab760691b6044820152606401610aba565b3360009081526019602052604090208251839083908110610cac57634e487b7160e01b600052603260045260246000fd5b6020026020010151604051610cc19190614eb4565b9081526040519081900360200190205460ff1615610d115760405162461bcd60e51b815260206004820152600d60248201526c185b1c9958591e481d9bdd1959609a1b6044820152606401610aba565b601d6000848381518110610d3557634e487b7160e01b600052603260045260246000fd5b60200260200101516001600160a01b03166001600160a01b03168152602001908152602001600020828281518110610d7d57634e487b7160e01b600052603260045260246000fd5b6020026020010151604051610d929190614eb4565b9081526040519081900360200190205460ff161515600114610df65760405162461bcd60e51b815260206004820152601860248201527f61646472657373206e6f74206120636f6e74657374616e7400000000000000006044820152606401610aba565b336000908152601960205260409020825160019190849084908110610e2b57634e487b7160e01b600052603260045260246000fd5b6020026020010151604051610e409190614eb4565b908152604051908190036020019020805491151560ff199092169190911790558251839082908110610e8257634e487b7160e01b600052603260045260246000fd5b602002602001015160196000336001600160a01b03166001600160a01b03168152602001908152602001600020838381518110610ecf57634e487b7160e01b600052603260045260246000fd5b6020026020010151604051610ee49190614eb4565b908152602001604051809103902060000160016101000a8154816001600160a01b0302191690836001600160a01b0316021790555060006001601b6000868581518110610f4157634e487b7160e01b600052603260045260246000fd5b60200260200101516001600160a01b03166001600160a01b031681526020019081526020016000206004016000828254610f7b91906151af565b92505081905590506000848381518110610fa557634e487b7160e01b600052603260045260246000fd5b6020026020010151601b6000878681518110610fd157634e487b7160e01b600052603260045260246000fd5b60200260200101516001600160a01b03166001600160a01b0316815260200190815260200160002060020160006101000a8154816001600160a01b0302191690836001600160a01b031602179055905083838151811061104157634e487b7160e01b600052603260045260246000fd5b6020026020010151601b600087868151811061106d57634e487b7160e01b600052603260045260246000fd5b60200260200101516001600160a01b03166001600160a01b0316815260200190815260200160002060030190805190602001906110ab929190614478565b50601a8584815181106110ce57634e487b7160e01b600052603260045260246000fd5b60209081029190910181015182546001810184556000938452919092200180546001600160a01b0319166001600160a01b039092169190911790556040805160608101909152845160189190819087908790811061113c57634e487b7160e01b600052603260045260246000fd5b60209081029190910181015182526001600160a01b03851682820152604090910185905282546001810184556000938452928190208251805193946003029091019261118b9284920190614478565b5060208201518160010160006101000a8154816001600160a01b0302191690836001600160a01b031602179055506040820151816002015550507fcb6783276e8a4347387036bbfea000268f0a4b1f8c46ac79980609f2af8d2acd85848151811061120657634e487b7160e01b600052603260045260246000fd5b602002602001015185858151811061122e57634e487b7160e01b600052603260045260246000fd5b6020026020010151604051611244929190614f45565b60405180910390a15050806112589061527b565b9050610be0565b505050565b60008061126f612dea565b111561127b5750600190565b50600090565b60606003805461129090615240565b80601f01602080910402602001604051908101604052809291908181526020018280546112bc90615240565b80156113095780601f106112de57610100808354040283529160200191611309565b820191906000526020600020905b8154815290600101906020018083116112ec57829003601f168201915b5050505050905090565b6025818154811061132357600080fd5b600091825260209091200154905081565b600033611342818585613fa3565b5060019392505050565b600042600f54101561135e5750600090565b42600f5461136c91906151e6565b905090565b601a818154811061138157600080fd5b6000918252602090912001546001600160a01b0316905081565b835160009082146113ee5760405162461bcd60e51b815260206004820152601860248201527f496e76616c696420696e70757420706172616d657465727300000000000000006044820152606401610aba565b60005b85518110156118d95760006001600160a01b031686828151811061142557634e487b7160e01b600052603260045260246000fd5b60200260200101516001600160a01b031614156114765760405162461bcd60e51b815260206004820152600f60248201526e496e76616c6964204164647265737360881b6044820152606401610aba565b83838281811061149657634e487b7160e01b600052603260045260246000fd5b90506020020135600014156114aa57600080fd5b60c8865111156114b957600080fd5b60c88311156114c757600080fd5b600c80549060006114d78361527b565b91905055508481815181106114fc57634e487b7160e01b600052603260045260246000fd5b6020026020010151600014156115505761154b60008051602061530383398151915287838151811061153e57634e487b7160e01b600052603260045260246000fd5b6020026020010151611dbc565b611614565b84818151811061157057634e487b7160e01b600052603260045260246000fd5b6020026020010151600114156115b25761154b6000805160206152c383398151915287838151811061153e57634e487b7160e01b600052603260045260246000fd5b8481815181106115d257634e487b7160e01b600052603260045260246000fd5b6020026020010151600214156116145761161460008051602061532383398151915287838151811061153e57634e487b7160e01b600052603260045260246000fd5b60006040518060800160405280600c54815260200189848151811061164957634e487b7160e01b600052603260045260246000fd5b6020026020010151815260200188848151811061167657634e487b7160e01b600052603260045260246000fd5b60200260200101516001600160a01b031681526020018784815181106116ac57634e487b7160e01b600052603260045260246000fd5b6020026020010151815250905080600b60008985815181106116de57634e487b7160e01b600052603260045260246000fd5b60200260200101516001600160a01b03166001600160a01b0316815260200190815260200160002060008201518160000155602082015181600101908051906020019061172c929190614478565b5060408201518160020160006101000a8154816001600160a01b0302191690836001600160a01b03160217905550606082015181600301559050506001600d600089858151811061178d57634e487b7160e01b600052603260045260246000fd5b60200260200101516001600160a01b03166001600160a01b0316815260200190815260200160002060006101000a81548160ff021916908315150217905550600a8783815181106117ee57634e487b7160e01b600052603260045260246000fd5b60209081029190910181015182546001810184556000938452919092200180546001600160a01b0319166001600160a01b0390921691909117905586516118919088908490811061184f57634e487b7160e01b600052603260045260246000fd5b602002602001015186868581811061187757634e487b7160e01b600052603260045260246000fd5b90506020020135670de0b6b3a76400006107a691906151c7565b6118c65760405162461bcd60e51b815260206004820152600660248201526511985a5b195960d21b6044820152606401610aba565b50806118d18161527b565b9150506113f1565b5060019695505050505050565b6118ef3361342f565b15156001146119395760405162461bcd60e51b81526020600482015260166024820152752932b9ba3934b1ba32b2103a379031b7b6b834b632b960511b6044820152606401610aba565b600061194361134c565b11156119915760405162461bcd60e51b815260206004820152601960248201527f456c656374696f6e206973207374696c6c206f6e676f696e67000000000000006044820152606401610aba565b6018546000816001600160401b038111156119bc57634e487b7160e01b600052604160045260246000fd5b6040519080825280602002602001820160405280156119e5578160200160208202803683370190505b5090506000826001600160401b03811115611a1057634e487b7160e01b600052604160045260246000fd5b604051908082528060200260200182016040528015611a39578160200160208202803683370190505b5090506000836001600160401b03811115611a6457634e487b7160e01b600052604160045260246000fd5b604051908082528060200260200182016040528015611a9757816020015b6060815260200190600190039081611a825790505b50905060005b84811015611c815760188181548110611ac657634e487b7160e01b600052603260045260246000fd5b906000526020600020906003020160010160009054906101000a90046001600160a01b0316848281518110611b0b57634e487b7160e01b600052603260045260246000fd5b60200260200101906001600160a01b031690816001600160a01b03168152505060188181548110611b4c57634e487b7160e01b600052603260045260246000fd5b906000526020600020906003020160020154838281518110611b7e57634e487b7160e01b600052603260045260246000fd5b60200260200101818152505060188181548110611bab57634e487b7160e01b600052603260045260246000fd5b90600052602060002090600302016000018054611bc790615240565b80601f0160208091040260200160405190810160405280929190818152602001828054611bf390615240565b8015611c405780601f10611c1557610100808354040283529160200191611c40565b820191906000526020600020905b815481529060010190602001808311611c2357829003601f168201915b5050505050828281518110611c6557634e487b7160e01b600052603260045260246000fd5b602002602001018190525080611c7a9061527b565b9050611a9d565b508251611c9490602090818601906144fc565b508151611ca8906021906020850190614551565b508051611cbc90602290602084019061458b565b50506023805460ff19166001179055505050565b600033611cde8582856140c7565b611ce9858585614159565b506001949350505050565b6000610a54818361288c565b60178181548110611d1057600080fd5b9060005260206000209060020201600091509050806000018054611d3390615240565b80601f0160208091040260200160405190810160405280929190818152602001828054611d5f90615240565b8015611dac5780601f10611d8157610100808354040283529160200191611dac565b820191906000526020600020905b815481529060010190602001808311611d8f57829003601f168201915b5050505050908060010154905082565b600082815260056020526040902060010154611dd88133614327565b61125f838361438b565b60268181548110611df257600080fd5b906000526020600020016000915090508054611e0d90615240565b80601f0160208091040260200160405190810160405280929190818152602001828054611e3990615240565b8015611e865780601f10611e5b57610100808354040283529160200191611e86565b820191906000526020600020905b815481529060010190602001808311611e6957829003601f168201915b505050505081565b6001600160a01b0381163314611efe5760405162461bcd60e51b815260206004820152602f60248201527f416363657373436f6e74726f6c3a2063616e206f6e6c792072656e6f756e636560448201526e103937b632b9903337b91039b2b63360891b6064820152608401610aba565b611f088282614411565b5050565b6000610a546000805160206152e38339815191528361288c565b3360008181526001602090815260408083206001600160a01b03871684529091528120549091906113429082908690611f609087906151af565b613fa3565b611f6e33611f0c565b611f8a5760405162461bcd60e51b8152600401610aba906150aa565b60148282604051611f9c929190614ea4565b9081526040519081900360200190205460ff1615156001146120005760405162461bcd60e51b815260206004820152601760248201527f43617465676f727920646f6573206e6f742065786973740000000000000000006044820152606401610aba565b60148282604051612012929190614ea4565b908152604051908190036020018120805460ff19169055601f906120399084908490614ea4565b9081526020016040518091039020600090555050565b60175460609081906000816001600160401b0381111561207f57634e487b7160e01b600052604160045260246000fd5b6040519080825280602002602001820160405280156120b257816020015b606081526020019060019003908161209d5790505b5090506000826001600160401b038111156120dd57634e487b7160e01b600052604160045260246000fd5b604051908082528060200260200182016040528015612106578160200160208202803683370190505b50905060005b83811015612268576017818154811061213557634e487b7160e01b600052603260045260246000fd5b9060005260206000209060020201600001805461215190615240565b80601f016020809104026020016040519081016040528092919081815260200182805461217d90615240565b80156121ca5780601f1061219f576101008083540402835291602001916121ca565b820191906000526020600020905b8154815290600101906020018083116121ad57829003601f168201915b50505050508382815181106121ef57634e487b7160e01b600052603260045260246000fd5b60200260200101819052506017818154811061221b57634e487b7160e01b600052603260045260246000fd5b90600052602060002090600202016001015482828151811061224d57634e487b7160e01b600052603260045260246000fd5b60209081029190910101526122618161527b565b905061210c565b509094909350915050565b600061227e33611f0c565b61229a5760405162461bcd60e51b8152600401610aba906150aa565b60005b600a54811015611ce95760006001600160a01b0316600a82815481106122d357634e487b7160e01b600052603260045260246000fd5b6000918252602090912001546001600160a01b031614156123285760405162461bcd60e51b815260206004820152600f60248201526e496e76616c6964204164647265737360881b6044820152606401610aba565b600a5460c810156123875760405162461bcd60e51b8152602060048201526024808201527f65786365656473206e756d626572206f6620616c6c6f776564206164647265736044820152637365737360e01b6064820152608401610aba565b6000600a82815481106123aa57634e487b7160e01b600052603260045260246000fd5b6000918252602090912001546001600160a01b031690506123ca8161270a565b1515600114156123f0576123ea816107a688670de0b6b3a76400006151c7565b50612444565b6123f981612e18565b151560011415612419576123ea816107a687670de0b6b3a76400006151c7565b61242281612724565b15156001141561244457612442816107a686670de0b6b3a76400006151c7565b505b5061244e8161527b565b905061229d565b61245e33611f0c565b61247a5760405162461bcd60e51b8152600401610aba906150aa565b42601181905561248a90826151af565b60125550565b601881815481106124a057600080fd5b90600052602060002090600302016000915090508060000180546124c390615240565b80601f01602080910402602001604051908101604052809291908181526020018280546124ef90615240565b801561253c5780601f106125115761010080835404028352916020019161253c565b820191906000526020600020905b81548152906001019060200180831161251f57829003601f168201915b50505050600183015460029093015491926001600160a01b031691905083565b61256533611f0c565b6125815760405162461bcd60e51b8152600401610aba906150aa565b6125996000805160206152e38339815191528261288c565b15156001146125ea5760405162461bcd60e51b815260206004820152601860248201527f616464726573732069736e277420612064656c656761746500000000000000006044820152606401610aba565b6126026000805160206152e383398151915282613663565b6040516001600160a01b038216907f927ac0d67c43a3696e15decea2c732884122134cc5185abd7dc8d7b6efd7b8d890600090a250565b61264233611f0c565b61265e5760405162461bcd60e51b8152600401610aba906150aa565b6000612668612dea565b11156126c55760405162461bcd60e51b815260206004820152602660248201527f436f6e74657374616e742773207374696c6c2065787072657373696e6720696e6044820152651d195c995cdd60d21b6064820152608401610aba565b42600e8190556126d590826151af565b600f55600e546040518291907fda870243975052b3d3e838194b621c54d402811f23ff59f9a2fe42bd132317cd90600090a350565b6000610a546000805160206153038339815191528361288c565b6000610a546000805160206153238339815191528361288c565b601b602052600090815260409020805460018201805491929161276090615240565b80601f016020809104026020016040519081016040528092919081815260200182805461278c90615240565b80156127d95780601f106127ae576101008083540402835291602001916127d9565b820191906000526020600020905b8154815290600101906020018083116127bc57829003601f168201915b505050600284015460038501805494956001600160a01b0390921694919350915061280390615240565b80601f016020809104026020016040519081016040528092919081815260200182805461282f90615240565b801561287c5780601f106128515761010080835404028352916020019161287c565b820191906000526020600020905b81548152906001019060200180831161285f57829003601f168201915b5050505050908060040154905085565b60009182526005602090815260408084206001600160a01b0393909316845291905290205460ff1690565b601654606090819081906000816001600160401b038111156128e957634e487b7160e01b600052604160045260246000fd5b60405190808252806020026020018201604052801561291c57816020015b60608152602001906001900390816129075790505b5090506000826001600160401b0381111561294757634e487b7160e01b600052604160045260246000fd5b604051908082528060200260200182016040528015612970578160200160208202803683370190505b5090506000836001600160401b0381111561299b57634e487b7160e01b600052604160045260246000fd5b6040519080825280602002602001820160405280156129ce57816020015b60608152602001906001900390816129b95790505b50905060005b84811015612c3f57601681815481106129fd57634e487b7160e01b600052603260045260246000fd5b90600052602060002090600302016000018054612a1990615240565b80601f0160208091040260200160405190810160405280929190818152602001828054612a4590615240565b8015612a925780601f10612a6757610100808354040283529160200191612a92565b820191906000526020600020905b815481529060010190602001808311612a7557829003601f168201915b5050505050848281518110612ab757634e487b7160e01b600052603260045260246000fd5b602002602001018190525060168181548110612ae357634e487b7160e01b600052603260045260246000fd5b906000526020600020906003020160010160009054906101000a90046001600160a01b0316838281518110612b2857634e487b7160e01b600052603260045260246000fd5b60200260200101906001600160a01b031690816001600160a01b03168152505060168181548110612b6957634e487b7160e01b600052603260045260246000fd5b90600052602060002090600302016002018054612b8590615240565b80601f0160208091040260200160405190810160405280929190818152602001828054612bb190615240565b8015612bfe5780601f10612bd357610100808354040283529160200191612bfe565b820191906000526020600020905b815481529060010190602001808311612be157829003601f168201915b5050505050828281518110612c2357634e487b7160e01b600052603260045260246000fd5b602002602001018190525080612c389061527b565b90506129d4565b509196909550909350915050565b60606004805461129090615240565b612c6533611f0c565b612c815760405162461bcd60e51b8152600401610aba906150aa565b6040805160606020601f860181900402820181018352918101848152601792829190879087908190850183828082843760009201829052509385525050506020918201859052835460018101855593815281902082518051939460020290910192612cef9284920190614478565b50602082015181600101555050600160148484604051612d10929190614ea4565b908152604051908190036020018120805492151560ff19909316929092179091558190601f90612d439086908690614ea4565b90815260405190819003602001902055505050565b3360008181526001602090815260408083206001600160a01b038716845290915281205490919083811015612ddd5760405162461bcd60e51b815260206004820152602560248201527f45524332303a2064656372656173656420616c6c6f77616e63652062656c6f77604482015264207a65726f60d81b6064820152608401610aba565b611ce98286868403613fa3565b6000426012541015612dfc5750600090565b4260125461136c91906151e6565b600033611342818585614159565b6000610a546000805160206152c38339815191528361288c565b336000908152600d602052604081205460ff161515600114612e965760405162461bcd60e51b815260206004820152601a60248201527f4f6e6c792061207374616b65686f6c64657220646f20746869730000000000006044820152606401610aba565b612eae6000805160206152e38339815191523361288c565b15612efb5760405162461bcd60e51b815260206004820181905260248201527f43686169726d616e2063616e6e6f74206578707265737320696e7465726573746044820152606401610aba565b6000612f05612dea565b11612f3c5760405162461bcd60e51b8152602060048201526007602482015266074696d652075760cc1b6044820152606401610aba565b60148383604051612f4e929190614ea4565b9081526040519081900360200190205460ff161515600114612fa55760405162461bcd60e51b815260206004820152601060248201526f18d85d1959dbdc9e481a5b9d985b1a5960821b6044820152606401610aba565b601f8383604051612fb7929190614ea4565b908152604080516020928190038301902054336000908152600b909352912060030154146130205760405162461bcd60e51b8152602060048201526016602482015275125b995b1b1a59da589b19481d1bc818dbdb9d195cdd60521b6044820152606401610aba565b3361305f5760405162461bcd60e51b815260206004820152600f60248201526e696e76616c6964206164647265737360881b6044820152606401610aba565b336000908152601d602052604090819020905161307f9085908590614ea4565b9081526040519081900360200190205460ff16156130ef5760405162461bcd60e51b815260206004820152602760248201527f416c72656164792073686f776e20696e74657265737420696e2074686973207060448201526637b9b4ba34b7b760c91b6064820152608401610aba565b60065461310e906001600160a01b0316680821ab0d4414980000612e0a565b6131735760405162461bcd60e51b815260206004820152603060248201527f596f7520646f6e2774206861766520656e6f75676820746f6b656e7320746f2060448201526f195e1c1c995cdcc81a5b9d195c995cdd60821b6064820152608401610aba565b601c80549060006131838361527b565b91905055506040518060a00160405280601c54815260200186868080601f0160208091040260200160405190810160405280939291908181526020018383808284376000920191909152505050908252503360208083019190915260408051601f8701839004830281018301825286815292019190869086908190840183828082843760009201829052509385525050506020918201819052338152601b82526040902082518155828201518051919261324592600185019290910190614478565b5060408201516002820180546001600160a01b0319166001600160a01b0390921691909117905560608201518051613287916003840191602090910190614478565b5060809190910151600490910155336000908152601d6020526040908190209051600191906132b99086908690614ea4565b908152604080519182900360209081018320805494151560ff19909516949094179093556080601f88018490049093028201830190526060810186815260169282919089908990819085018382808284376000920191909152505050908252503360208083019190915260408051601f880183900483028101830182528781529201919087908790819084018382808284376000920182905250939094525050835460018101855593815260209081902083518051949560030290910193613388935084929190910190614478565b506020828101516001830180546001600160a01b0319166001600160a01b03909216919091179055604083015180516133c79260028501920190614478565b50505082826040516133da929190614ea4565b6040519081900381209033906133f39088908890614ea4565b604051908190038120907f03cba2e3c98e48e887437eb5582401c40ffdd3070907507b31010a0630eac22390600090a450601c54949350505050565b60006134496000805160206153038339815191528361288c565b8061346757506134676000805160206152c38339815191528361288c565b1561347457506001919050565b506000919050565b919050565b600b60205260009081526040902080546001820180549192916134a390615240565b80601f01602080910402602001604051908101604052809291908181526020018280546134cf90615240565b801561351c5780601f106134f15761010080835404028352916020019161351c565b820191906000526020600020905b8154815290600101906020018083116134ff57829003601f168201915b50505050600283015460039093015491926001600160a01b031691905084565b600061354733611f0c565b6135635760405162461bcd60e51b8152600401610aba906150aa565b6001600160a01b0382166000908152600d602052604090205460ff1615156001146135c45760405162461bcd60e51b81526020600482015260116024820152702737ba10309039ba30b5b2b437b63232b960791b6044820152606401610aba565b6135cd8261342f565b151560011461360d5760405162461bcd60e51b815260206004820152600c60248201526b6e6f7420656c696769626c6560a01b6044820152606401610aba565b6136256000805160206152e383398151915283611dbc565b6040516001600160a01b0383169033907f7178dca5d575a32af7e1a16c7ae7fed6dd17b8fc714643a1cc3715e498531aba90600090a3506001919050565b60008281526005602052604090206001015461367f8133614327565b61125f8383614411565b336000908152600d60205260408120546060908290819060ff1615156001146136e85760405162461bcd60e51b81526020600482015260116024820152702737ba10309039ba30b5b2b437b63232b960791b6044820152606401610aba565b336000908152600b6020908152604080832081516080810190925280548252600181018054929391929184019161371e90615240565b80601f016020809104026020016040519081016040528092919081815260200182805461374a90615240565b80156137975780601f1061376c57610100808354040283529160200191613797565b820191906000526020600020905b81548152906001019060200180831161377a57829003601f168201915b505050918352505060028201546001600160a01b03166020808301919091526003909201546040918201528251918301519083015160609093015191989097509195509350915050565b6024818154811061138157600080fd5b60008061126f61134c565b6016818154811061380c57600080fd5b906000526020600020906003020160009150905080600001805461382f90615240565b80601f016020809104026020016040519081016040528092919081815260200182805461385b90615240565b80156138a85780601f1061387d576101008083540402835291602001916138a8565b820191906000526020600020905b81548152906001019060200180831161388b57829003601f168201915b505050600184015460028501805494956001600160a01b039092169491935091506138d290615240565b80601f01602080910402602001604051908101604052809291908181526020018280546138fe90615240565b801561394b5780601f106139205761010080835404028352916020019161394b565b820191906000526020600020905b81548152906001019060200180831161392e57829003601f168201915b5050505050905083565b600a818154811061138157600080fd5b606080606061397333611f0c565b61398f5760405162461bcd60e51b8152600401610aba906150aa565b60235460ff1615156001146139e65760405162461bcd60e51b815260206004820152601d60248201527f526573756c747320686176656e2774206265656e20636f6d70696c65640000006044820152606401610aba565b601e805460ff1916600117905560228054613a03916026916145e4565b5060208054613a149160249161463a565b5060218054613a259160259161463a565b5060266024602582805480602002602001604051908101604052809291908181526020016000905b82821015613af9578382906000526020600020018054613a6c90615240565b80601f0160208091040260200160405190810160405280929190818152602001828054613a9890615240565b8015613ae55780601f10613aba57610100808354040283529160200191613ae5565b820191906000526020600020905b815481529060010190602001808311613ac857829003601f168201915b505050505081526020019060010190613a4d565b50505050925081805480602002602001604051908101604052809291908181526020018280548015613b5457602002820191906000526020600020905b81546001600160a01b03168152600190910190602001808311613b36575b5050505050915080805480602002602001604051908101604052809291908181526020018280548015613ba657602002820191906000526020600020905b815481526020019060010190808311613b92575b50505050509050925092509250909192565b613bc133611f0c565b613bdd5760405162461bcd60e51b8152600401610aba906150aa565b6001600160a01b0382166000908152600d602052604090205460ff1615613c545760405162461bcd60e51b815260206004820152602560248201527f54686973206164647265737320697320616c72656164792061207374616b656860448201526437b63232b960d91b6064820152608401610aba565b600c8054906000613c648361527b565b909155505080613c8b57613c8660008051602061530383398151915283611dbc565b613ccd565b8060011415613cac57613c866000805160206152c383398151915283611dbc565b8060021415613ccd57613ccd60008051602061532383398151915283611dbc565b60408051608081018252600c54815260208082018681526001600160a01b038616838501819052606084018690526000908152600b8352939093208251815592518051929384939092613d27926001850192910190614478565b506040828101516002830180546001600160a01b039283166001600160a01b03199182161790915560609094015160039093019290925594166000818152600d602052948520805460ff19166001908117909155600a805491820181559095527fc65a7bb8d6351c1cf70c95a316cc6a92839c986682d98bc35f958f4883f9d2a89094018054909116909317909255505050565b60606000613dca8360026151c7565b613dd59060026151af565b6001600160401b03811115613dfa57634e487b7160e01b600052604160045260246000fd5b6040519080825280601f01601f191660200182016040528015613e24576020820181803683370190505b509050600360fc1b81600081518110613e4d57634e487b7160e01b600052603260045260246000fd5b60200101906001600160f81b031916908160001a905350600f60fb1b81600181518110613e8a57634e487b7160e01b600052603260045260246000fd5b60200101906001600160f81b031916908160001a9053506000613eae8460026151c7565b613eb99060016151af565b90505b6001811115613f4d576f181899199a1a9b1b9c1cb0b131b232b360811b85600f1660108110613efb57634e487b7160e01b600052603260045260246000fd5b1a60f81b828281518110613f1f57634e487b7160e01b600052603260045260246000fd5b60200101906001600160f81b031916908160001a90535060049490941c93613f4681615229565b9050613ebc565b508315613f9c5760405162461bcd60e51b815260206004820181905260248201527f537472696e67733a20686578206c656e67746820696e73756666696369656e746044820152606401610aba565b9392505050565b6001600160a01b0383166140055760405162461bcd60e51b8152602060048201526024808201527f45524332303a20617070726f76652066726f6d20746865207a65726f206164646044820152637265737360e01b6064820152608401610aba565b6001600160a01b0382166140665760405162461bcd60e51b815260206004820152602260248201527f45524332303a20617070726f766520746f20746865207a65726f206164647265604482015261737360f01b6064820152608401610aba565b6001600160a01b0383811660008181526001602090815260408083209487168084529482529182902085905590518481527f8c5be1e5ebec7d5bd14f71427d1e84f3dd0314c0f7b2291e5b200ac8c7c3b925910160405180910390a3505050565b6001600160a01b03838116600090815260016020908152604080832093861683529290522054600019811461415357818110156141465760405162461bcd60e51b815260206004820152601d60248201527f45524332303a20696e73756666696369656e7420616c6c6f77616e63650000006044820152606401610aba565b6141538484848403613fa3565b50505050565b6001600160a01b0383166141bd5760405162461bcd60e51b815260206004820152602560248201527f45524332303a207472616e736665722066726f6d20746865207a65726f206164604482015264647265737360d81b6064820152608401610aba565b6001600160a01b03821661421f5760405162461bcd60e51b815260206004820152602360248201527f45524332303a207472616e7366657220746f20746865207a65726f206164647260448201526265737360e81b6064820152608401610aba565b6001600160a01b038316600090815260208190526040902054818110156142975760405162461bcd60e51b815260206004820152602660248201527f45524332303a207472616e7366657220616d6f756e7420657863656564732062604482015265616c616e636560d01b6064820152608401610aba565b6001600160a01b038085166000908152602081905260408082208585039055918516815290812080548492906142ce9084906151af565b92505081905550826001600160a01b0316846001600160a01b03167fddf252ad1be2c89b69c2b068fc378daa952ba7f163c4a11628f55a4df523b3ef8460405161431a91815260200190565b60405180910390a3614153565b614331828261288c565b611f0857614349816001600160a01b03166014613dbb565b614354836020613dbb565b604051602001614365929190614ed0565b60408051601f198184030181529082905262461bcd60e51b8252610aba91600401615013565b614395828261288c565b611f085760008281526005602090815260408083206001600160a01b03851684529091529020805460ff191660011790556143cd3390565b6001600160a01b0316816001600160a01b0316837f2f8788117e7eff1d82e926ec794901d17c78024a50270940304540a733656f0d60405160405180910390a45050565b61441b828261288c565b15611f085760008281526005602090815260408083206001600160a01b0385168085529252808320805460ff1916905551339285917ff6391f5c32d9c69d2a47ea670b442974b53935d1edc7fd64eb21e047a839171b9190a45050565b82805461448490615240565b90600052602060002090601f0160209004810192826144a657600085556144ec565b82601f106144bf57805160ff19168380011785556144ec565b828001600101855582156144ec579182015b828111156144ec5782518255916020019190600101906144d1565b506144f892915061467a565b5090565b8280548282559060005260206000209081019282156144ec579160200282015b828111156144ec57825182546001600160a01b0319166001600160a01b0390911617825560209092019160019091019061451c565b8280548282559060005260206000209081019282156144ec57916020028201828111156144ec5782518255916020019190600101906144d1565b8280548282559060005260206000209081019282156145d8579160200282015b828111156145d857825180516145c8918491602090910190614478565b50916020019190600101906145ab565b506144f892915061468f565b8280548282559060005260206000209081019282156145d85760005260206000209182015b828111156145d857828290805461461f90615240565b61462a9291906146ac565b5091600101919060010190614609565b8280548282559060005260206000209081019282156144ec5760005260206000209182015b828111156144ec57825482559160010191906001019061465f565b5b808211156144f8576000815560010161467b565b808211156144f85760006146a38282614726565b5060010161468f565b8280546146b890615240565b90600052602060002090601f0160209004810192826146da57600085556144ec565b82601f106146eb57805485556144ec565b828001600101855582156144ec57600052602060002091601f01602090048201828111156144ec57825482559160010191906001019061465f565b50805461473290615240565b6000825580601f10614742575050565b601f016020900490600052602060002090810190614760919061467a565b50565b80356001600160a01b038116811461347c57600080fd5b600082601f83011261478a578081fd5b8135602061479f61479a8361518c565b61515c565b80838252828201915082860187848660051b89010111156147be578586fd5b855b858110156147e3576147d182614763565b845292840192908401906001016147c0565b5090979650505050505050565b600082601f830112614800578081fd5b8135602061481061479a8361518c565b80838252828201915082860187848660051b890101111561482f578586fd5b855b858110156147e35781356001600160401b0381111561484e578788fd5b61485c8a87838c01016148f7565b8552509284019290840190600101614831565b60008083601f840112614880578182fd5b5081356001600160401b03811115614896578182fd5b6020830191508360208260051b85010111156148b157600080fd5b9250929050565b60008083601f8401126148c9578182fd5b5081356001600160401b038111156148df578182fd5b6020830191508360208285010111156148b157600080fd5b600082601f830112614907578081fd5b81356001600160401b03811115614920576149206152ac565b614933601f8201601f191660200161515c565b818152846020838601011115614947578283fd5b816020850160208301379081016020019190915292915050565b600060208284031215614972578081fd5b613f9c82614763565b6000806040838503121561498d578081fd5b61499683614763565b91506149a460208401614763565b90509250929050565b6000806000606084860312156149c1578081fd5b6149ca84614763565b92506149d860208501614763565b9150604084013590509250925092565b600080604083850312156149fa578182fd5b614a0383614763565b915060208301356001600160401b03811115614a1d578182fd5b614a29858286016148f7565b9150509250929050565b60008060408385031215614a45578182fd5b614a4e83614763565b946020939093013593505050565b60008060408385031215614a6e578182fd5b82356001600160401b0380821115614a84578384fd5b614a908683870161477a565b93506020850135915080821115614aa5578283fd5b50614a29858286016147f0565b600080600080600060808688031215614ac9578081fd5b85356001600160401b0380821115614adf578283fd5b614aeb89838a016147f0565b9650602091508188013581811115614b01578384fd5b614b0d8a828b0161477a565b965050604088013581811115614b21578384fd5b8801601f81018a13614b31578384fd5b8035614b3f61479a8261518c565b8082825285820191508584018d878560051b8701011115614b5e578788fd5b8794505b83851015614b80578035835260019490940193918601918601614b62565b5097505050506060880135915080821115614b99578283fd5b50614ba68882890161486f565b969995985093965092949392505050565b600060208284031215614bc8578081fd5b5035919050565b60008060408385031215614be1578182fd5b823591506149a460208401614763565b600060208284031215614c02578081fd5b81356001600160e01b031981168114613f9c578182fd5b60008060208385031215614c2b578182fd5b82356001600160401b03811115614c40578283fd5b614c4c858286016148b8565b90969095509350505050565b60008060008060408587031215614c6d578182fd5b84356001600160401b0380821115614c83578384fd5b614c8f888389016148b8565b90965094506020870135915080821115614ca7578384fd5b50614cb4878288016148b8565b95989497509550505050565b600080600060408486031215614cd4578081fd5b83356001600160401b03811115614ce9578182fd5b614cf5868287016148b8565b909790965060209590950135949350505050565b600060208284031215614d1a578081fd5b81356001600160401b03811115614d2f578182fd5b614d3b848285016148f7565b949350505050565b600080600060608486031215614d57578081fd5b83356001600160401b03811115614d6c578182fd5b614d78868287016148f7565b9350506149d860208501614763565b600080600060608486031215614d9b578081fd5b505081359360208301359350604090920135919050565b6000815180845260208085019450808401835b83811015614dea5781516001600160a01b031687529582019590820190600101614dc5565b509495945050505050565b600081518084526020808501808196508360051b81019150828601855b85811015614e3c578284038952614e2a848351614e78565b98850198935090840190600101614e12565b5091979650505050505050565b6000815180845260208085019450808401835b83811015614dea57815187529582019590820190600101614e5c565b60008151808452614e908160208601602086016151fd565b601f01601f19169290920160200192915050565b8183823760009101908152919050565b60008251614ec68184602087016151fd565b9190910192915050565b7f416363657373436f6e74726f6c3a206163636f756e7420000000000000000000815260008351614f088160178501602088016151fd565b7001034b99036b4b9b9b4b733903937b6329607d1b6017918401918201528351614f398160288401602088016151fd565b01602801949350505050565b6001600160a01b0383168152604060208201819052600090614d3b90830184614e78565b606081526000614f7c6060830186614df5565b8281036020840152614f8e8186614db2565b90508281036040840152614fa28185614df5565b9695505050505050565b606081526000614fbf6060830186614df5565b8281036020840152614fd18186614db2565b90508281036040840152614fa28185614e49565b604081526000614ff86040830185614df5565b828103602084015261500a8185614e49565b95945050505050565b602081526000613f9c6020830184614e78565b6060815260006150396060830186614e78565b6001600160a01b03851660208401528281036040840152614fa28185614e78565b60608152600061506d6060830186614e78565b6001600160a01b039490941660208301525060400152919050565b60408152600061509b6040830185614e78565b90508260208301529392505050565b6020808252601690820152752932b9ba3934b1ba32b2103a379031b430b4b936b0b760511b604082015260600190565b85815260a0602082015260006150f360a0830187614e78565b6001600160a01b038616604084015282810360608401526151148186614e78565b9150508260808301529695505050505050565b8481526080602082015260006151406080830186614e78565b6001600160a01b03949094166040830152506060015292915050565b604051601f8201601f191681016001600160401b0381118282101715615184576151846152ac565b604052919050565b60006001600160401b038211156151a5576151a56152ac565b5060051b60200190565b600082198211156151c2576151c2615296565b500190565b60008160001904831182151516156151e1576151e1615296565b500290565b6000828210156151f8576151f8615296565b500390565b60005b83811015615218578181015183820152602001615200565b838111156141535750506000910152565b60008161523857615238615296565b506000190190565b600181811c9082168061525457607f821691505b6020821081141561527557634e487b7160e01b600052602260045260246000fd5b50919050565b600060001982141561528f5761528f615296565b5060010190565b634e487b7160e01b600052601160045260246000fd5b634e487b7160e01b600052604160045260246000fdfe534b5b9fe29299d99ea2855da6940643d68ed225db268dc8d86c1f38df5de7945778c2f7d924e55986d549d645f53119b71708389fc2011260c8a657c569fcaa2d2faaed8c23be685754c2c857d2b54442ae50d4706ce4165904c05bfc05c45fc951d7098b66ba0b8b77265b6e9cf0e187d73125a42bcd0061b09a68be421810a2646970667358221220eac24dffe329757f57d779dc2ab1542cfd05572fc14854ea1ec75f055b69784664736f6c634300080400335778c2f7d924e55986d549d645f53119b71708389fc2011260c8a657c569fcaa",
  "linkReferences": {},
  "deployedLinkReferences": {}
}