{
  "_format": "hh-sol-artifact-1",
  "contractName": "Election",
  "sourceName": "contracts/Election.sol",
  "abi": [
    {
      "anonymous": false,
      "inputs": [
        {
          "indexed": true,
          "internalType": "address",
          "name": "owner",
          "type": "address"
        },
        {
          "indexed": true,
          "internalType": "address",
          "name": "spender",
          "type": "address"
        },
        {
          "indexed": false,
          "internalType": "uint256",
          "name": "value",
          "type": "uint256"
        }
      ],
      "name": "Approval",
      "type": "event"
    },
    {
      "anonymous": false,
      "inputs": [
        {
          "indexed": true,
          "internalType": "string",
          "name": "name",
          "type": "string"
        },
        {
          "indexed": true,
          "internalType": "address",
          "name": "contestant",
          "type": "address"
        },
        {
          "indexed": true,
          "internalType": "string",
          "name": "category",
          "type": "string"
        }
      ],
      "name": "Contest",
      "type": "event"
    },
    {
      "anonymous": false,
      "inputs": [
        {
          "indexed": true,
          "internalType": "address",
          "name": "to",
          "type": "address"
        }
      ],
      "name": "DelegateChairman",
      "type": "event"
    },
    {
      "anonymous": false,
      "inputs": [
        {
          "indexed": true,
          "internalType": "address",
          "name": "from",
          "type": "address"
        },
        {
          "indexed": true,
          "internalType": "address",
          "name": "to",
          "type": "address"
        }
      ],
      "name": "DelegateChairman",
      "type": "event"
    },
    {
      "anonymous": false,
      "inputs": [
        {
          "indexed": true,
          "internalType": "address",
          "name": "removed",
          "type": "address"
        }
      ],
      "name": "DelegateRemoval",
      "type": "event"
    },
    {
      "anonymous": false,
      "inputs": [
        {
          "indexed": true,
          "internalType": "uint256",
          "name": "start",
          "type": "uint256"
        },
        {
          "indexed": true,
          "internalType": "uint256",
          "name": "duration",
          "type": "uint256"
        }
      ],
      "name": "ElectionEvent",
      "type": "event"
    },
    {
      "anonymous": false,
      "inputs": [
        {
          "indexed": true,
          "internalType": "bytes32",
          "name": "role",
          "type": "bytes32"
        },
        {
          "indexed": true,
          "internalType": "bytes32",
          "name": "previousAdminRole",
          "type": "bytes32"
        },
        {
          "indexed": true,
          "internalType": "bytes32",
          "name": "newAdminRole",
          "type": "bytes32"
        }
      ],
      "name": "RoleAdminChanged",
      "type": "event"
    },
    {
      "anonymous": false,
      "inputs": [
        {
          "indexed": true,
          "internalType": "bytes32",
          "name": "role",
          "type": "bytes32"
        },
        {
          "indexed": true,
          "internalType": "address",
          "name": "account",
          "type": "address"
        },
        {
          "indexed": true,
          "internalType": "address",
          "name": "sender",
          "type": "address"
        }
      ],
      "name": "RoleGranted",
      "type": "event"
    },
    {
      "anonymous": false,
      "inputs": [
        {
          "indexed": true,
          "internalType": "bytes32",
          "name": "role",
          "type": "bytes32"
        },
        {
          "indexed": true,
          "internalType": "address",
          "name": "account",
          "type": "address"
        },
        {
          "indexed": true,
          "internalType": "address",
          "name": "sender",
          "type": "address"
        }
      ],
      "name": "RoleRevoked",
      "type": "event"
    },
    {
      "anonymous": false,
      "inputs": [
        {
          "indexed": true,
          "internalType": "address",
          "name": "from",
          "type": "address"
        },
        {
          "indexed": true,
          "internalType": "address",
          "name": "to",
          "type": "address"
        },
        {
          "indexed": false,
          "internalType": "uint256",
          "name": "value",
          "type": "uint256"
        }
      ],
      "name": "Transfer",
      "type": "event"
    },
    {
      "anonymous": false,
      "inputs": [
        {
          "indexed": false,
          "internalType": "address",
          "name": "voteChoice",
          "type": "address"
        },
        {
          "indexed": false,
          "internalType": "string",
          "name": "Category",
          "type": "string"
        }
      ],
      "name": "Voted",
      "type": "event"
    },
    {
      "inputs": [],
      "name": "BOARD_MEMBER_ROLE",
      "outputs": [
        {
          "internalType": "bytes32",
          "name": "",
          "type": "bytes32"
        }
      ],
      "stateMutability": "view",
      "type": "function"
    },
    {
      "inputs": [],
      "name": "CHAIRMAN_ROLE",
      "outputs": [
        {
          "internalType": "bytes32",
          "name": "",
          "type": "bytes32"
        }
      ],
      "stateMutability": "view",
      "type": "function"
    },
    {
      "inputs": [],
      "name": "DEFAULT_ADMIN_ROLE",
      "outputs": [
        {
          "internalType": "bytes32",
          "name": "",
          "type": "bytes32"
        }
      ],
      "stateMutability": "view",
      "type": "function"
    },
    {
      "inputs": [],
      "name": "STUDENT_ROLE",
      "outputs": [
        {
          "internalType": "bytes32",
          "name": "",
          "type": "bytes32"
        }
      ],
      "stateMutability": "view",
      "type": "function"
    },
    {
      "inputs": [],
      "name": "TEACHER_ROLE",
      "outputs": [
        {
          "internalType": "bytes32",
          "name": "",
          "type": "bytes32"
        }
      ],
      "stateMutability": "view",
      "type": "function"
    },
    {
      "inputs": [
        {
          "internalType": "string",
          "name": "_name",
          "type": "string"
        },
        {
          "internalType": "address",
          "name": "_holder",
          "type": "address"
        },
        {
          "internalType": "uint256",
          "name": "_role",
          "type": "uint256"
        }
      ],
      "name": "addStakeHolder",
      "outputs": [],
      "stateMutability": "nonpayable",
      "type": "function"
    },
    {
      "inputs": [
        {
          "internalType": "address",
          "name": "owner",
          "type": "address"
        },
        {
          "internalType": "address",
          "name": "spender",
          "type": "address"
        }
      ],
      "name": "allowance",
      "outputs": [
        {
          "internalType": "uint256",
          "name": "",
          "type": "uint256"
        }
      ],
      "stateMutability": "view",
      "type": "function"
    },
    {
      "inputs": [
        {
          "internalType": "address",
          "name": "spender",
          "type": "address"
        },
        {
          "internalType": "uint256",
          "name": "amount",
          "type": "uint256"
        }
      ],
      "name": "approve",
      "outputs": [
        {
          "internalType": "bool",
          "name": "",
          "type": "bool"
        }
      ],
      "stateMutability": "nonpayable",
      "type": "function"
    },
    {
      "inputs": [
        {
          "internalType": "address",
          "name": "account",
          "type": "address"
        }
      ],
      "name": "balanceOf",
      "outputs": [
        {
          "internalType": "uint256",
          "name": "",
          "type": "uint256"
        }
      ],
      "stateMutability": "view",
      "type": "function"
    },
    {
      "inputs": [
        {
          "internalType": "uint256",
          "name": "boardMemberAmount",
          "type": "uint256"
        },
        {
          "internalType": "uint256",
          "name": "teacherAmount",
          "type": "uint256"
        },
        {
          "internalType": "uint256",
          "name": "studentAmount",
          "type": "uint256"
        }
      ],
      "name": "batchTransferToExistingStakeholders",
      "outputs": [
        {
          "internalType": "bool",
          "name": "transfered",
          "type": "bool"
        }
      ],
      "stateMutability": "nonpayable",
      "type": "function"
    },
    {
      "inputs": [
        {
          "internalType": "string[]",
          "name": "_name",
          "type": "string[]"
        },
        {
          "internalType": "address[]",
          "name": "_holder",
          "type": "address[]"
        },
        {
          "internalType": "uint256[]",
          "name": "_role",
          "type": "uint256[]"
        },
        {
          "internalType": "uint256[]",
          "name": "_amounts",
          "type": "uint256[]"
        }
      ],
      "name": "batchTransferandAdd",
      "outputs": [
        {
          "internalType": "bool",
          "name": "",
          "type": "bool"
        }
      ],
      "stateMutability": "nonpayable",
      "type": "function"
    },
    {
      "inputs": [],
      "name": "canStillExpressInterest",
      "outputs": [
        {
          "internalType": "bool",
          "name": "",
          "type": "bool"
        }
      ],
      "stateMutability": "view",
      "type": "function"
    },
    {
      "inputs": [
        {
          "internalType": "address",
          "name": "",
          "type": "address"
        }
      ],
      "name": "candidates",
      "outputs": [
        {
          "internalType": "uint256",
          "name": "id",
          "type": "uint256"
        },
        {
          "internalType": "string",
          "name": "name",
          "type": "string"
        },
        {
          "internalType": "address",
          "name": "contestant",
          "type": "address"
        },
        {
          "internalType": "string",
          "name": "category",
          "type": "string"
        },
        {
          "internalType": "uint256",
          "name": "voteCount",
          "type": "uint256"
        }
      ],
      "stateMutability": "view",
      "type": "function"
    },
    {
      "inputs": [],
      "name": "candidatesCount",
      "outputs": [
        {
          "internalType": "uint256",
          "name": "",
          "type": "uint256"
        }
      ],
      "stateMutability": "view",
      "type": "function"
    },
    {
      "inputs": [
        {
          "internalType": "uint256",
          "name": "",
          "type": "uint256"
        }
      ],
      "name": "category",
      "outputs": [
        {
          "internalType": "string",
          "name": "name",
          "type": "string"
        },
        {
          "internalType": "uint256",
          "name": "role",
          "type": "uint256"
        }
      ],
      "stateMutability": "view",
      "type": "function"
    },
    {
      "inputs": [
        {
          "internalType": "string",
          "name": "",
          "type": "string"
        }
      ],
      "name": "categorySet",
      "outputs": [
        {
          "internalType": "bool",
          "name": "",
          "type": "bool"
        }
      ],
      "stateMutability": "view",
      "type": "function"
    },
    {
      "inputs": [],
      "name": "chairmanAddr",
      "outputs": [
        {
          "internalType": "address",
          "name": "",
          "type": "address"
        }
      ],
      "stateMutability": "view",
      "type": "function"
    },
    {
      "inputs": [],
      "name": "compileVotes",
      "outputs": [],
      "stateMutability": "nonpayable",
      "type": "function"
    },
    {
      "inputs": [
        {
          "internalType": "uint256",
          "name": "",
          "type": "uint256"
        }
      ],
      "name": "contestants",
      "outputs": [
        {
          "internalType": "string",
          "name": "name",
          "type": "string"
        },
        {
          "internalType": "address",
          "name": "addr",
          "type": "address"
        },
        {
          "internalType": "string",
          "name": "category",
          "type": "string"
        }
      ],
      "stateMutability": "view",
      "type": "function"
    },
    {
      "inputs": [],
      "name": "decimals",
      "outputs": [
        {
          "internalType": "uint8",
          "name": "",
          "type": "uint8"
        }
      ],
      "stateMutability": "view",
      "type": "function"
    },
    {
      "inputs": [
        {
          "internalType": "address",
          "name": "spender",
          "type": "address"
        },
        {
          "internalType": "uint256",
          "name": "subtractedValue",
          "type": "uint256"
        }
      ],
      "name": "decreaseAllowance",
      "outputs": [
        {
          "internalType": "bool",
          "name": "",
          "type": "bool"
        }
      ],
      "stateMutability": "nonpayable",
      "type": "function"
    },
    {
      "inputs": [
        {
          "internalType": "address",
          "name": "newChairman",
          "type": "address"
        }
      ],
      "name": "delegateChairmanship",
      "outputs": [
        {
          "internalType": "bool",
          "name": "changed",
          "type": "bool"
        }
      ],
      "stateMutability": "nonpayable",
      "type": "function"
    },
    {
      "inputs": [
        {
          "internalType": "string",
          "name": "_name",
          "type": "string"
        },
        {
          "internalType": "string",
          "name": "_category",
          "type": "string"
        }
      ],
      "name": "expressInterest",
      "outputs": [
        {
          "internalType": "uint256",
          "name": "",
          "type": "uint256"
        }
      ],
      "stateMutability": "nonpayable",
      "type": "function"
    },
    {
      "inputs": [],
      "name": "getContestantDetails",
      "outputs": [
        {
          "internalType": "string[]",
          "name": "",
          "type": "string[]"
        },
        {
          "internalType": "address[]",
          "name": "",
          "type": "address[]"
        },
        {
          "internalType": "string[]",
          "name": "",
          "type": "string[]"
        }
      ],
      "stateMutability": "view",
      "type": "function"
    },
    {
      "inputs": [],
      "name": "getCurrentCategory",
      "outputs": [
        {
          "internalType": "string[]",
          "name": "",
          "type": "string[]"
        },
        {
          "internalType": "uint256[]",
          "name": "roles",
          "type": "uint256[]"
        }
      ],
      "stateMutability": "view",
      "type": "function"
    },
    {
      "inputs": [
        {
          "internalType": "bytes32",
          "name": "role",
          "type": "bytes32"
        }
      ],
      "name": "getRoleAdmin",
      "outputs": [
        {
          "internalType": "bytes32",
          "name": "",
          "type": "bytes32"
        }
      ],
      "stateMutability": "view",
      "type": "function"
    },
    {
      "inputs": [],
      "name": "getStakeholderDetails",
      "outputs": [
        {
          "internalType": "uint256",
          "name": "id",
          "type": "uint256"
        },
        {
          "internalType": "string",
          "name": "name",
          "type": "string"
        },
        {
          "internalType": "address",
          "name": "holder",
          "type": "address"
        },
        {
          "internalType": "uint256",
          "name": "role",
          "type": "uint256"
        }
      ],
      "stateMutability": "view",
      "type": "function"
    },
    {
      "inputs": [
        {
          "internalType": "bytes32",
          "name": "role",
          "type": "bytes32"
        },
        {
          "internalType": "address",
          "name": "account",
          "type": "address"
        }
      ],
      "name": "grantRole",
      "outputs": [],
      "stateMutability": "nonpayable",
      "type": "function"
    },
    {
      "inputs": [
        {
          "internalType": "bytes32",
          "name": "role",
          "type": "bytes32"
        },
        {
          "internalType": "address",
          "name": "account",
          "type": "address"
        }
      ],
      "name": "hasRole",
      "outputs": [
        {
          "internalType": "bool",
          "name": "",
          "type": "bool"
        }
      ],
      "stateMutability": "view",
      "type": "function"
    },
    {
      "inputs": [
        {
          "internalType": "address",
          "name": "spender",
          "type": "address"
        },
        {
          "internalType": "uint256",
          "name": "addedValue",
          "type": "uint256"
        }
      ],
      "name": "increaseAllowance",
      "outputs": [
        {
          "internalType": "bool",
          "name": "",
          "type": "bool"
        }
      ],
      "stateMutability": "nonpayable",
      "type": "function"
    },
    {
      "inputs": [
        {
          "internalType": "address",
          "name": "account",
          "type": "address"
        }
      ],
      "name": "isAdmin",
      "outputs": [
        {
          "internalType": "bool",
          "name": "",
          "type": "bool"
        }
      ],
      "stateMutability": "view",
      "type": "function"
    },
    {
      "inputs": [
        {
          "internalType": "address",
          "name": "account",
          "type": "address"
        }
      ],
      "name": "isBoardMember",
      "outputs": [
        {
          "internalType": "bool",
          "name": "",
          "type": "bool"
        }
      ],
      "stateMutability": "view",
      "type": "function"
    },
    {
      "inputs": [
        {
          "internalType": "address",
          "name": "account",
          "type": "address"
        }
      ],
      "name": "isChairman",
      "outputs": [
        {
          "internalType": "bool",
          "name": "",
          "type": "bool"
        }
      ],
      "stateMutability": "view",
      "type": "function"
    },
    {
      "inputs": [
        {
          "internalType": "address",
          "name": "account",
          "type": "address"
        }
      ],
      "name": "isCompiler",
      "outputs": [
        {
          "internalType": "bool",
          "name": "",
          "type": "bool"
        }
      ],
      "stateMutability": "view",
      "type": "function"
    },
    {
      "inputs": [
        {
          "internalType": "address",
          "name": "",
          "type": "address"
        },
        {
          "internalType": "string",
          "name": "",
          "type": "string"
        }
      ],
      "name": "isContesting",
      "outputs": [
        {
          "internalType": "bool",
          "name": "",
          "type": "bool"
        }
      ],
      "stateMutability": "view",
      "type": "function"
    },
    {
      "inputs": [],
      "name": "isElectionOn",
      "outputs": [
        {
          "internalType": "bool",
          "name": "",
          "type": "bool"
        }
      ],
      "stateMutability": "view",
      "type": "function"
    },
    {
      "inputs": [],
      "name": "isResultAnnounced",
      "outputs": [
        {
          "internalType": "bool",
          "name": "",
          "type": "bool"
        }
      ],
      "stateMutability": "view",
      "type": "function"
    },
    {
      "inputs": [
        {
          "internalType": "address",
          "name": "account",
          "type": "address"
        }
      ],
      "name": "isStudent",
      "outputs": [
        {
          "internalType": "bool",
          "name": "",
          "type": "bool"
        }
      ],
      "stateMutability": "view",
      "type": "function"
    },
    {
      "inputs": [
        {
          "internalType": "address",
          "name": "account",
          "type": "address"
        }
      ],
      "name": "isTeacher",
      "outputs": [
        {
          "internalType": "bool",
          "name": "",
          "type": "bool"
        }
      ],
      "stateMutability": "view",
      "type": "function"
    },
    {
      "inputs": [],
      "name": "makeResultsPublic",
      "outputs": [
        {
          "internalType": "string[]",
          "name": "",
          "type": "string[]"
        },
        {
          "internalType": "address[]",
          "name": "",
          "type": "address[]"
        },
        {
          "internalType": "uint256[]",
          "name": "",
          "type": "uint256[]"
        }
      ],
      "stateMutability": "nonpayable",
      "type": "function"
    },
    {
      "inputs": [],
      "name": "name",
      "outputs": [
        {
          "internalType": "string",
          "name": "",
          "type": "string"
        }
      ],
      "stateMutability": "view",
      "type": "function"
    },
    {
      "inputs": [
        {
          "internalType": "address[]",
          "name": "_candidate",
          "type": "address[]"
        },
        {
          "internalType": "string[]",
          "name": "_category",
          "type": "string[]"
        }
      ],
      "name": "placeVote",
      "outputs": [],
      "stateMutability": "nonpayable",
      "type": "function"
    },
    {
      "inputs": [
        {
          "internalType": "address",
          "name": "account",
          "type": "address"
        }
      ],
      "name": "removeDelegate",
      "outputs": [],
      "stateMutability": "nonpayable",
      "type": "function"
    },
    {
      "inputs": [
        {
          "internalType": "bytes32",
          "name": "role",
          "type": "bytes32"
        },
        {
          "internalType": "address",
          "name": "account",
          "type": "address"
        }
      ],
      "name": "renounceRole",
      "outputs": [],
      "stateMutability": "nonpayable",
      "type": "function"
    },
    {
      "inputs": [
        {
          "internalType": "string",
          "name": "_category",
          "type": "string"
        }
      ],
      "name": "resetVotingCategory",
      "outputs": [],
      "stateMutability": "nonpayable",
      "type": "function"
    },
    {
      "inputs": [
        {
          "internalType": "bytes32",
          "name": "role",
          "type": "bytes32"
        },
        {
          "internalType": "address",
          "name": "account",
          "type": "address"
        }
      ],
      "name": "revokeRole",
      "outputs": [],
      "stateMutability": "nonpayable",
      "type": "function"
    },
    {
      "inputs": [
        {
          "internalType": "string",
          "name": "",
          "type": "string"
        }
      ],
      "name": "roleEligible",
      "outputs": [
        {
          "internalType": "uint256",
          "name": "",
          "type": "uint256"
        }
      ],
      "stateMutability": "view",
      "type": "function"
    },
    {
      "inputs": [
        {
          "internalType": "uint256",
          "name": "",
          "type": "uint256"
        }
      ],
      "name": "runnerUps",
      "outputs": [
        {
          "internalType": "string",
          "name": "contestantCategory",
          "type": "string"
        },
        {
          "internalType": "address",
          "name": "contestantAddr",
          "type": "address"
        },
        {
          "internalType": "uint256",
          "name": "contestantVoteCount",
          "type": "uint256"
        }
      ],
      "stateMutability": "view",
      "type": "function"
    },
    {
      "inputs": [
        {
          "internalType": "string",
          "name": "_category",
          "type": "string"
        },
        {
          "internalType": "uint256",
          "name": "_roleEligible",
          "type": "uint256"
        }
      ],
      "name": "setVotingCategory",
      "outputs": [],
      "stateMutability": "nonpayable",
      "type": "function"
    },
    {
      "inputs": [
        {
          "internalType": "address",
          "name": "",
          "type": "address"
        }
      ],
      "name": "stakeHolderExists",
      "outputs": [
        {
          "internalType": "bool",
          "name": "",
          "type": "bool"
        }
      ],
      "stateMutability": "view",
      "type": "function"
    },
    {
      "inputs": [],
      "name": "stakeHoldersCount",
      "outputs": [
        {
          "internalType": "uint256",
          "name": "",
          "type": "uint256"
        }
      ],
      "stateMutability": "view",
      "type": "function"
    },
    {
      "inputs": [
        {
          "internalType": "uint256",
          "name": "",
          "type": "uint256"
        }
      ],
      "name": "stakeholderList",
      "outputs": [
        {
          "internalType": "address",
          "name": "",
          "type": "address"
        }
      ],
      "stateMutability": "view",
      "type": "function"
    },
    {
      "inputs": [
        {
          "internalType": "address",
          "name": "",
          "type": "address"
        }
      ],
      "name": "stakeholders",
      "outputs": [
        {
          "internalType": "uint256",
          "name": "id",
          "type": "uint256"
        },
        {
          "internalType": "string",
          "name": "name",
          "type": "string"
        },
        {
          "internalType": "address",
          "name": "holder",
          "type": "address"
        },
        {
          "internalType": "uint256",
          "name": "role",
          "type": "uint256"
        }
      ],
      "stateMutability": "view",
      "type": "function"
    },
    {
      "inputs": [
        {
          "internalType": "uint256",
          "name": "_electionDuration",
          "type": "uint256"
        }
      ],
      "name": "startElection",
      "outputs": [],
      "stateMutability": "nonpayable",
      "type": "function"
    },
    {
      "inputs": [
        {
          "internalType": "uint256",
          "name": "_showInterestDuration",
          "type": "uint256"
        }
      ],
      "name": "startShowInterest",
      "outputs": [],
      "stateMutability": "nonpayable",
      "type": "function"
    },
    {
      "inputs": [
        {
          "internalType": "bytes4",
          "name": "interfaceId",
          "type": "bytes4"
        }
      ],
      "name": "supportsInterface",
      "outputs": [
        {
          "internalType": "bool",
          "name": "",
          "type": "bool"
        }
      ],
      "stateMutability": "view",
      "type": "function"
    },
    {
      "inputs": [],
      "name": "symbol",
      "outputs": [
        {
          "internalType": "string",
          "name": "",
          "type": "string"
        }
      ],
      "stateMutability": "view",
      "type": "function"
    },
    {
      "inputs": [],
      "name": "timeLeft",
      "outputs": [
        {
          "internalType": "uint256",
          "name": "",
          "type": "uint256"
        }
      ],
      "stateMutability": "view",
      "type": "function"
    },
    {
      "inputs": [],
      "name": "timeLefttoShowInterest",
      "outputs": [
        {
          "internalType": "uint256",
          "name": "",
          "type": "uint256"
        }
      ],
      "stateMutability": "view",
      "type": "function"
    },
    {
      "inputs": [],
      "name": "totalSupply",
      "outputs": [
        {
          "internalType": "uint256",
          "name": "",
          "type": "uint256"
        }
      ],
      "stateMutability": "view",
      "type": "function"
    },
    {
      "inputs": [
        {
          "internalType": "address",
          "name": "to",
          "type": "address"
        },
        {
          "internalType": "uint256",
          "name": "amount",
          "type": "uint256"
        }
      ],
      "name": "transfer",
      "outputs": [
        {
          "internalType": "bool",
          "name": "",
          "type": "bool"
        }
      ],
      "stateMutability": "nonpayable",
      "type": "function"
    },
    {
      "inputs": [
        {
          "internalType": "address",
          "name": "from",
          "type": "address"
        },
        {
          "internalType": "address",
          "name": "to",
          "type": "address"
        },
        {
          "internalType": "uint256",
          "name": "amount",
          "type": "uint256"
        }
      ],
      "name": "transferFrom",
      "outputs": [
        {
          "internalType": "bool",
          "name": "",
          "type": "bool"
        }
      ],
      "stateMutability": "nonpayable",
      "type": "function"
    },
    {
      "inputs": [
        {
          "internalType": "uint256",
          "name": "",
          "type": "uint256"
        }
      ],
      "name": "votedFor",
      "outputs": [
        {
          "internalType": "address",
          "name": "",
          "type": "address"
        }
      ],
      "stateMutability": "view",
      "type": "function"
    },
    {
      "inputs": [
        {
          "internalType": "address",
          "name": "",
          "type": "address"
        },
        {
          "internalType": "string",
          "name": "",
          "type": "string"
        }
      ],
      "name": "voters",
      "outputs": [
        {
          "internalType": "bool",
          "name": "voted",
          "type": "bool"
        },
        {
          "internalType": "address",
          "name": "voteChoice",
          "type": "address"
        }
      ],
      "stateMutability": "view",
      "type": "function"
    }
  ],
  "bytecode": "0x6080604052600060075560016008556002600955601e805460ff199081169091556023805490911690553480156200003657600080fd5b50604051806040016040528060098152602001682d3ab934aa37b5b2b760b91b8152506040518060400160405280600381526020016216915560ea1b81525081600390805190602001906200008d929190620005c4565b508051620000a3906004906020840190620005c4565b505050620000c3336a108b2a2c280290940000006200012360201b60201c565b600680546001600160a01b03191633908117909155620000e6906000906200020d565b62000102600080516020620059018339815191526000620002b1565b6200011d6000805160206200590183398151915233620002fc565b620007f5565b6001600160a01b0382166200017f5760405162461bcd60e51b815260206004820152601f60248201527f45524332303a206d696e7420746f20746865207a65726f20616464726573730060448201526064015b60405180910390fd5b806002600082825462000193919062000718565b90915550506001600160a01b03821660009081526020819052604081208054839290620001c290849062000718565b90915550506040518181526001600160a01b038316906000907fddf252ad1be2c89b69c2b068fc378daa952ba7f163c4a11628f55a4df523b3ef9060200160405180910390a35b5050565b60008281526005602090815260408083206001600160a01b038516845290915290205460ff16620002095760008281526005602090815260408083206001600160a01b03851684529091529020805460ff191660011790556200026d3390565b6001600160a01b0316816001600160a01b0316837f2f8788117e7eff1d82e926ec794901d17c78024a50270940304540a733656f0d60405160405180910390a45050565b600082815260056020526040808220600101805490849055905190918391839186917fbd79b86ffe0ab8e8776151514217cd7cacd52c909f66475c3af44e129f0b00ff9190a4505050565b6000828152600560205260409020600101546200031a81336200032b565b6200032683836200020d565b505050565b60008281526005602090815260408083206001600160a01b038516845290915290205460ff16620002095762000377816001600160a01b03166014620003c860201b62003c4f1760201c565b6200038d83602062003c4f620003c8821b17811c565b604051602001620003a09291906200066a565b60408051601f198184030181529082905262461bcd60e51b82526200017691600401620006e3565b60606000620003d983600262000733565b620003e690600262000718565b6001600160401b038111156200040c57634e487b7160e01b600052604160045260246000fd5b6040519080825280601f01601f19166020018201604052801562000437576020820181803683370190505b509050600360fc1b816000815181106200046157634e487b7160e01b600052603260045260246000fd5b60200101906001600160f81b031916908160001a905350600f60fb1b816001815181106200049f57634e487b7160e01b600052603260045260246000fd5b60200101906001600160f81b031916908160001a9053506000620004c584600262000733565b620004d290600162000718565b90505b60018111156200056c576f181899199a1a9b1b9c1cb0b131b232b360811b85600f16601081106200051657634e487b7160e01b600052603260045260246000fd5b1a60f81b8282815181106200053b57634e487b7160e01b600052603260045260246000fd5b60200101906001600160f81b031916908160001a90535060049490941c93620005648162000788565b9050620004d5565b508315620005bd5760405162461bcd60e51b815260206004820181905260248201527f537472696e67733a20686578206c656e67746820696e73756666696369656e74604482015260640162000176565b9392505050565b828054620005d290620007a2565b90600052602060002090601f016020900481019282620005f6576000855562000641565b82601f106200061157805160ff191683800117855562000641565b8280016001018555821562000641579182015b828111156200064157825182559160200191906001019062000624565b506200064f92915062000653565b5090565b5b808211156200064f576000815560010162000654565b7f416363657373436f6e74726f6c3a206163636f756e7420000000000000000000815260008351620006a481601785016020880162000755565b7001034b99036b4b9b9b4b733903937b6329607d1b6017918401918201528351620006d781602884016020880162000755565b01602801949350505050565b60208152600082518060208401526200070481604085016020870162000755565b601f01601f19169190910160400192915050565b600082198211156200072e576200072e620007df565b500190565b6000816000190483118215151615620007505762000750620007df565b500290565b60005b838110156200077257818101518382015260200162000758565b8381111562000782576000848401525b50505050565b6000816200079a576200079a620007df565b506000190190565b600181811c90821680620007b757607f821691505b60208210811415620007d957634e487b7160e01b600052602260045260246000fd5b50919050565b634e487b7160e01b600052601160045260246000fd5b6150fc80620008056000396000f3fe608060405234801561001057600080fd5b50600436106103d05760003560e01c806386e5c15a116101ff578063c3e0e1641161011a578063e0644712116100ad578063f1ad1d0e1161007c578063f1ad1d0e14610975578063f6daef311461098a578063f7be43fb146109a1578063fac65f97146109b657600080fd5b8063e0644712146108a8578063e18b487a146108b5578063e320f57614610923578063e8dcc5581461093657600080fd5b8063da6efb8d116100e9578063da6efb8d1461083d578063dd62ed3e14610845578063df0baf8e1461087e578063dfd50f521461088657600080fd5b8063c3e0e164146107e3578063c90aa2b4146107f6578063cae9fbca146107ff578063d547741f1461082a57600080fd5b8063a457c2d711610192578063b1f013fb11610161578063b1f013fb14610777578063b1f5086e1461078a578063bc9e6d49146107ad578063c07cfca9146107c057600080fd5b8063a457c2d714610736578063a4d1059714610749578063a9059cbb14610751578063aec37eb31461076457600080fd5b806395d89b41116101ce57806395d89b41146106fe57806398b1df7e14610706578063a097dc4b14610719578063a217fddf1461072e57600080fd5b806386e5c15a1461069b5780638ab66a90146106b057806391d14854146106d457806393fe03a0146106e757600080fd5b8063313ce567116102ef5780635aab453c1161028257806370a082311161025157806370a082311461063957806371942a01146106625780637e7329481461067557806382f7d3921461068857600080fd5b80635aab453c146105c357806367e7646f146105e557806369c389d0146105f85780636d32dc4b1461062657600080fd5b806340cddb4f116102be57806340cddb4f1461057457806350c842021461058757806353de7eb11461059d57806355f74295146105b057600080fd5b8063313ce5671461052c57806336568abe1461053b578063382872591461054e578063395093511461056157600080fd5b80631e5592f41161036757806324d7806c1161033657806324d7806c146104dc578063253eca1f146104ef5780632d35a8a2146105105780632f2ff15d1461051957600080fd5b80631e5592f41461048b57806320be2a851461049e57806323b872dd146104a6578063248a9ca3146104b957600080fd5b8063095ea7b3116103a3578063095ea7b31461042f5780631300a6d1146104425780631312fa921461045857806318160ddd1461048357600080fd5b806301ffc9a7146103d5578063058a13a5146103fd57806305cbd1541461041257806306fdde031461041a575b600080fd5b6103e86103e3366004614975565b6109c9565b60405190151581526020015b60405180910390f35b61041061040b3660046147e0565b610a00565b005b6103e861120a565b610422611227565b6040516103f49190614d97565b6103e861043d3660046147b7565b6112b9565b61044a6112d1565b6040519081526020016103f4565b61046b61046636600461493b565b6112f6565b6040516001600160a01b0390911681526020016103f4565b60025461044a565b6103e8610499366004614836565b611320565b61041061186b565b6103e86104b4366004614731565b611c55565b61044a6104c736600461493b565b60009081526005602052604090206001015490565b6103e86104ea3660046146e5565b611c79565b6105026104fd36600461493b565b611c85565b6040516103f4929190614e0c565b61044a601c5481565b610410610527366004614953565b611d41565b604051601281526020016103f4565b610410610549366004614953565b611d67565b6103e861055c3660046146e5565b611de5565b6103e861056f3660046147b7565b611dff565b61041061058236600461499d565b611e3e565b61058f611f28565b6040516103f4929190614d69565b6103e86105ab366004614b0b565b61214c565b6104106105be36600461493b565b61232e565b6105d66105d136600461493b565b612369565b6040516103f493929190614dde565b6104106105f33660046146e5565b612435565b6103e8610606366004614a8d565b805160208183018101805160148252928201919093012091525460ff1681565b61041061063436600461493b565b612512565b61044a6106473660046146e5565b6001600160a01b031660009081526020819052604090205490565b6103e86106703660046146e5565b6125e3565b60065461046b906001600160a01b031681565b6103e86106963660046146e5565b6125fd565b61044a60008051602061504783398151915281565b6106c36106be3660046146e5565b612617565b6040516103f4959493929190614e5e565b6103e86106e2366004614953565b612765565b6106ef612790565b6040516103f493929190614ced565b610422612b26565b610410610714366004614a44565b612b35565b61044a60008051602061506783398151915281565b61044a600081565b6103e86107443660046147b7565b612c31565b61044a612cc3565b6103e861075f3660046147b7565b612ce3565b6103e86107723660046146e5565b612cf1565b61044a6107853660046149dc565b612d0b565b6103e86107983660046146e5565b600d6020526000908152604090205460ff1681565b6103e86107bb3660046146e5565b613308565b6107d36107ce3660046146e5565b61335a565b6040516103f49493929190614eab565b6103e86107f13660046146e5565b613415565b61044a600c5481565b61044a61080d366004614a8d565b805160208183018101805160158252928201919093012091525481565b610410610838366004614953565b61353c565b6107d3613562565b61044a6108533660046146ff565b6001600160a01b03918216600090815260016020908152604080832093909416825291909152205490565b6103e86136ba565b61089961089436600461493b565b6136c5565b6040516103f493929190614daa565b601e546103e89060ff1681565b6109046108c336600461476c565b6019602090815260009283526040909220815180830184018051928152908401929093019190912091525460ff81169061010090046001600160a01b031682565b6040805192151583526001600160a01b039091166020830152016103f4565b61046b61093136600461493b565b61381e565b6103e861094436600461476c565b601d602090815260009283526040909220815180830184018051928152908401929093019190912091525460ff1681565b61044a60008051602061508783398151915281565b61099261382e565b6040516103f493929190614d30565b61044a6000805160206150a783398151915281565b6104106109c4366004614ac7565b613a4c565b60006001600160e01b03198216637965db0b60e01b14806109fa57506301ffc9a760e01b6001600160e01b03198316145b92915050565b336000908152600d602052604090205460ff161515600114610a695760405162461bcd60e51b815260206004820152601a60248201527f4f6e6c792061207374616b65686f6c64657220646f207468697300000000000060448201526064015b60405180910390fd5b6000610a736112d1565b11610ab35760405162461bcd60e51b815260206004820152601060248201526f159bdd1a5b99c81a185cc8195b99195960821b6044820152606401610a60565b610abb6136ba565b1515600114610b0c5760405162461bcd60e51b815260206004820152601760248201527f456c656374696f6e206861736e277420737461727465640000000000000000006044820152606401610a60565b600654610b2b906001600160a01b03166802b5e3af16b1880000612ce3565b610b835760405162461bcd60e51b8152602060048201526024808201527f596f7520646f6e2774206861766520656e6f75676820746f6b656e7320746f20604482015263766f746560e01b6064820152608401610a60565b60005b601654811015611205576014828281518110610bb257634e487b7160e01b600052603260045260246000fd5b6020026020010151604051610bc79190614c38565b9081526040519081900360200190205460ff161515600114610c215760405162461bcd60e51b81526020600482015260136024820152723b37ba34b733903430b9b713ba103132b3bab760691b6044820152606401610a60565b3360009081526019602052604090208251839083908110610c5257634e487b7160e01b600052603260045260246000fd5b6020026020010151604051610c679190614c38565b9081526040519081900360200190205460ff1615610cb75760405162461bcd60e51b815260206004820152600d60248201526c185b1c9958591e481d9bdd1959609a1b6044820152606401610a60565b601d6000848381518110610cdb57634e487b7160e01b600052603260045260246000fd5b60200260200101516001600160a01b03166001600160a01b03168152602001908152602001600020828281518110610d2357634e487b7160e01b600052603260045260246000fd5b6020026020010151604051610d389190614c38565b9081526040519081900360200190205460ff161515600114610d9c5760405162461bcd60e51b815260206004820152601860248201527f61646472657373206e6f74206120636f6e74657374616e7400000000000000006044820152606401610a60565b336000908152601960205260409020825160019190849084908110610dd157634e487b7160e01b600052603260045260246000fd5b6020026020010151604051610de69190614c38565b908152604051908190036020019020805491151560ff199092169190911790558251839082908110610e2857634e487b7160e01b600052603260045260246000fd5b602002602001015160196000336001600160a01b03166001600160a01b03168152602001908152602001600020838381518110610e7557634e487b7160e01b600052603260045260246000fd5b6020026020010151604051610e8a9190614c38565b908152602001604051809103902060000160016101000a8154816001600160a01b0302191690836001600160a01b0316021790555060006001601b6000868581518110610ee757634e487b7160e01b600052603260045260246000fd5b60200260200101516001600160a01b03166001600160a01b031681526020019081526020016000206004016000828254610f219190614f33565b92505081905590506000848381518110610f4b57634e487b7160e01b600052603260045260246000fd5b6020026020010151601b6000878681518110610f7757634e487b7160e01b600052603260045260246000fd5b60200260200101516001600160a01b03166001600160a01b0316815260200190815260200160002060020160006101000a8154816001600160a01b0302191690836001600160a01b0316021790559050838381518110610fe757634e487b7160e01b600052603260045260246000fd5b6020026020010151601b600087868151811061101357634e487b7160e01b600052603260045260246000fd5b60200260200101516001600160a01b03166001600160a01b03168152602001908152602001600020600301908051906020019061105192919061430c565b50601a85848151811061107457634e487b7160e01b600052603260045260246000fd5b60209081029190910181015182546001810184556000938452919092200180546001600160a01b0319166001600160a01b03909216919091179055604080516060810190915284516018919081908790879081106110e257634e487b7160e01b600052603260045260246000fd5b60209081029190910181015182526001600160a01b038516828201526040909101859052825460018101845560009384529281902082518051939460030290910192611131928492019061430c565b5060208201518160010160006101000a8154816001600160a01b0302191690836001600160a01b031602179055506040820151816002015550507fcb6783276e8a4347387036bbfea000268f0a4b1f8c46ac79980609f2af8d2acd8584815181106111ac57634e487b7160e01b600052603260045260246000fd5b60200260200101518585815181106111d457634e487b7160e01b600052603260045260246000fd5b60200260200101516040516111ea929190614cc9565b60405180910390a15050806111fe90614fff565b9050610b86565b505050565b600080611215612cc3565b11156112215750600190565b50600090565b60606003805461123690614fc4565b80601f016020809104026020016040519081016040528092919081815260200182805461126290614fc4565b80156112af5780601f10611284576101008083540402835291602001916112af565b820191906000526020600020905b81548152906001019060200180831161129257829003601f168201915b5050505050905090565b6000336112c7818585613e37565b5060019392505050565b600042600f5410156112e35750600090565b42600f546112f19190614f6a565b905090565b601a818154811061130657600080fd5b6000918252602090912001546001600160a01b0316905081565b835160009082146113735760405162461bcd60e51b815260206004820152601860248201527f496e76616c696420696e70757420706172616d657465727300000000000000006044820152606401610a60565b60005b855181101561185e5760006001600160a01b03168682815181106113aa57634e487b7160e01b600052603260045260246000fd5b60200260200101516001600160a01b031614156113fb5760405162461bcd60e51b815260206004820152600f60248201526e496e76616c6964204164647265737360881b6044820152606401610a60565b83838281811061141b57634e487b7160e01b600052603260045260246000fd5b905060200201356000141561142f57600080fd5b60c88651111561143e57600080fd5b60c883111561144c57600080fd5b600c805490600061145c83614fff565b919050555084818151811061148157634e487b7160e01b600052603260045260246000fd5b6020026020010151600014156114d5576114d06000805160206150878339815191528783815181106114c357634e487b7160e01b600052603260045260246000fd5b6020026020010151611d41565b611599565b8481815181106114f557634e487b7160e01b600052603260045260246000fd5b602002602001015160011415611537576114d06000805160206150478339815191528783815181106114c357634e487b7160e01b600052603260045260246000fd5b84818151811061155757634e487b7160e01b600052603260045260246000fd5b602002602001015160021415611599576115996000805160206150a78339815191528783815181106114c357634e487b7160e01b600052603260045260246000fd5b60006040518060800160405280600c5481526020018984815181106115ce57634e487b7160e01b600052603260045260246000fd5b602002602001015181526020018884815181106115fb57634e487b7160e01b600052603260045260246000fd5b60200260200101516001600160a01b0316815260200187848151811061163157634e487b7160e01b600052603260045260246000fd5b6020026020010151815250905080600b600089858151811061166357634e487b7160e01b600052603260045260246000fd5b60200260200101516001600160a01b03166001600160a01b031681526020019081526020016000206000820151816000015560208201518160010190805190602001906116b192919061430c565b5060408201518160020160006101000a8154816001600160a01b0302191690836001600160a01b03160217905550606082015181600301559050506001600d600089858151811061171257634e487b7160e01b600052603260045260246000fd5b60200260200101516001600160a01b03166001600160a01b0316815260200190815260200160002060006101000a81548160ff021916908315150217905550600a87838151811061177357634e487b7160e01b600052603260045260246000fd5b60209081029190910181015182546001810184556000938452919092200180546001600160a01b0319166001600160a01b039092169190911790558651611816908890849081106117d457634e487b7160e01b600052603260045260246000fd5b60200260200101518686858181106117fc57634e487b7160e01b600052603260045260246000fd5b90506020020135670de0b6b3a764000061075f9190614f4b565b61184b5760405162461bcd60e51b815260206004820152600660248201526511985a5b195960d21b6044820152606401610a60565b508061185681614fff565b915050611376565b5060019695505050505050565b61187433613308565b15156001146118be5760405162461bcd60e51b81526020600482015260166024820152752932b9ba3934b1ba32b2103a379031b7b6b834b632b960511b6044820152606401610a60565b60006118c86112d1565b11156119165760405162461bcd60e51b815260206004820152601960248201527f456c656374696f6e206973207374696c6c206f6e676f696e67000000000000006044820152606401610a60565b6018546000816001600160401b0381111561194157634e487b7160e01b600052604160045260246000fd5b60405190808252806020026020018201604052801561196a578160200160208202803683370190505b5090506000826001600160401b0381111561199557634e487b7160e01b600052604160045260246000fd5b6040519080825280602002602001820160405280156119be578160200160208202803683370190505b5090506000836001600160401b038111156119e957634e487b7160e01b600052604160045260246000fd5b604051908082528060200260200182016040528015611a1c57816020015b6060815260200190600190039081611a075790505b50905060005b84811015611c065760188181548110611a4b57634e487b7160e01b600052603260045260246000fd5b906000526020600020906003020160010160009054906101000a90046001600160a01b0316848281518110611a9057634e487b7160e01b600052603260045260246000fd5b60200260200101906001600160a01b031690816001600160a01b03168152505060188181548110611ad157634e487b7160e01b600052603260045260246000fd5b906000526020600020906003020160020154838281518110611b0357634e487b7160e01b600052603260045260246000fd5b60200260200101818152505060188181548110611b3057634e487b7160e01b600052603260045260246000fd5b90600052602060002090600302016000018054611b4c90614fc4565b80601f0160208091040260200160405190810160405280929190818152602001828054611b7890614fc4565b8015611bc55780601f10611b9a57610100808354040283529160200191611bc5565b820191906000526020600020905b815481529060010190602001808311611ba857829003601f168201915b5050505050828281518110611bea57634e487b7160e01b600052603260045260246000fd5b602002602001018190525080611bff90614fff565b9050611a22565b508251611c199060209081860190614390565b508151611c2d9060219060208501906143e5565b508051611c4190602290602084019061441f565b50506023805460ff19166001179055505050565b600033611c63858285613f5b565b611c6e858585613fed565b506001949350505050565b60006109fa8183612765565b60178181548110611c9557600080fd5b9060005260206000209060020201600091509050806000018054611cb890614fc4565b80601f0160208091040260200160405190810160405280929190818152602001828054611ce490614fc4565b8015611d315780601f10611d0657610100808354040283529160200191611d31565b820191906000526020600020905b815481529060010190602001808311611d1457829003601f168201915b5050505050908060010154905082565b600082815260056020526040902060010154611d5d81336141bb565b611205838361421f565b6001600160a01b0381163314611dd75760405162461bcd60e51b815260206004820152602f60248201527f416363657373436f6e74726f6c3a2063616e206f6e6c792072656e6f756e636560448201526e103937b632b9903337b91039b2b63360891b6064820152608401610a60565b611de182826142a5565b5050565b60006109fa60008051602061506783398151915283612765565b3360008181526001602090815260408083206001600160a01b03871684529091528120549091906112c79082908690611e39908790614f33565b613e37565b611e4733611de5565b611e635760405162461bcd60e51b8152600401610a6090614e2e565b60148282604051611e75929190614c28565b9081526040519081900360200190205460ff161515600114611ed95760405162461bcd60e51b815260206004820152601760248201527f43617465676f727920646f6573206e6f742065786973740000000000000000006044820152606401610a60565b60148282604051611eeb929190614c28565b908152604051908190036020018120805460ff19169055601f90611f129084908490614c28565b9081526020016040518091039020600090555050565b60175460609081906000816001600160401b03811115611f5857634e487b7160e01b600052604160045260246000fd5b604051908082528060200260200182016040528015611f8b57816020015b6060815260200190600190039081611f765790505b5090506000826001600160401b03811115611fb657634e487b7160e01b600052604160045260246000fd5b604051908082528060200260200182016040528015611fdf578160200160208202803683370190505b50905060005b83811015612141576017818154811061200e57634e487b7160e01b600052603260045260246000fd5b9060005260206000209060020201600001805461202a90614fc4565b80601f016020809104026020016040519081016040528092919081815260200182805461205690614fc4565b80156120a35780601f10612078576101008083540402835291602001916120a3565b820191906000526020600020905b81548152906001019060200180831161208657829003601f168201915b50505050508382815181106120c857634e487b7160e01b600052603260045260246000fd5b6020026020010181905250601781815481106120f457634e487b7160e01b600052603260045260246000fd5b90600052602060002090600202016001015482828151811061212657634e487b7160e01b600052603260045260246000fd5b602090810291909101015261213a81614fff565b9050611fe5565b509094909350915050565b600061215733611de5565b6121735760405162461bcd60e51b8152600401610a6090614e2e565b60005b600a54811015611c6e5760006001600160a01b0316600a82815481106121ac57634e487b7160e01b600052603260045260246000fd5b6000918252602090912001546001600160a01b031614156122015760405162461bcd60e51b815260206004820152600f60248201526e496e76616c6964204164647265737360881b6044820152606401610a60565b600a5460c810156122605760405162461bcd60e51b8152602060048201526024808201527f65786365656473206e756d626572206f6620616c6c6f776564206164647265736044820152637365737360e01b6064820152608401610a60565b6000600a828154811061228357634e487b7160e01b600052603260045260246000fd5b6000918252602090912001546001600160a01b031690506122a3816125e3565b1515600114156122c9576122c38161075f88670de0b6b3a7640000614f4b565b5061231d565b6122d281612cf1565b1515600114156122f2576122c38161075f87670de0b6b3a7640000614f4b565b6122fb816125fd565b15156001141561231d5761231b8161075f86670de0b6b3a7640000614f4b565b505b5061232781614fff565b9050612176565b61233733611de5565b6123535760405162461bcd60e51b8152600401610a6090614e2e565b4260118190556123639082614f33565b60125550565b6018818154811061237957600080fd5b906000526020600020906003020160009150905080600001805461239c90614fc4565b80601f01602080910402602001604051908101604052809291908181526020018280546123c890614fc4565b80156124155780601f106123ea57610100808354040283529160200191612415565b820191906000526020600020905b8154815290600101906020018083116123f857829003601f168201915b50505050600183015460029093015491926001600160a01b031691905083565b61243e33611de5565b61245a5760405162461bcd60e51b8152600401610a6090614e2e565b61247260008051602061506783398151915282612765565b15156001146124c35760405162461bcd60e51b815260206004820152601860248201527f616464726573732069736e277420612064656c656761746500000000000000006044820152606401610a60565b6124db6000805160206150678339815191528261353c565b6040516001600160a01b038216907f927ac0d67c43a3696e15decea2c732884122134cc5185abd7dc8d7b6efd7b8d890600090a250565b61251b33611de5565b6125375760405162461bcd60e51b8152600401610a6090614e2e565b6000612541612cc3565b111561259e5760405162461bcd60e51b815260206004820152602660248201527f436f6e74657374616e742773207374696c6c2065787072657373696e6720696e6044820152651d195c995cdd60d21b6064820152608401610a60565b42600e8190556125ae9082614f33565b600f55600e546040518291907fda870243975052b3d3e838194b621c54d402811f23ff59f9a2fe42bd132317cd90600090a350565b60006109fa60008051602061508783398151915283612765565b60006109fa6000805160206150a783398151915283612765565b601b602052600090815260409020805460018201805491929161263990614fc4565b80601f016020809104026020016040519081016040528092919081815260200182805461266590614fc4565b80156126b25780601f10612687576101008083540402835291602001916126b2565b820191906000526020600020905b81548152906001019060200180831161269557829003601f168201915b505050600284015460038501805494956001600160a01b039092169491935091506126dc90614fc4565b80601f016020809104026020016040519081016040528092919081815260200182805461270890614fc4565b80156127555780601f1061272a57610100808354040283529160200191612755565b820191906000526020600020905b81548152906001019060200180831161273857829003601f168201915b5050505050908060040154905085565b60009182526005602090815260408084206001600160a01b0393909316845291905290205460ff1690565b601654606090819081906000816001600160401b038111156127c257634e487b7160e01b600052604160045260246000fd5b6040519080825280602002602001820160405280156127f557816020015b60608152602001906001900390816127e05790505b5090506000826001600160401b0381111561282057634e487b7160e01b600052604160045260246000fd5b604051908082528060200260200182016040528015612849578160200160208202803683370190505b5090506000836001600160401b0381111561287457634e487b7160e01b600052604160045260246000fd5b6040519080825280602002602001820160405280156128a757816020015b60608152602001906001900390816128925790505b50905060005b84811015612b1857601681815481106128d657634e487b7160e01b600052603260045260246000fd5b906000526020600020906003020160000180546128f290614fc4565b80601f016020809104026020016040519081016040528092919081815260200182805461291e90614fc4565b801561296b5780601f106129405761010080835404028352916020019161296b565b820191906000526020600020905b81548152906001019060200180831161294e57829003601f168201915b505050505084828151811061299057634e487b7160e01b600052603260045260246000fd5b6020026020010181905250601681815481106129bc57634e487b7160e01b600052603260045260246000fd5b906000526020600020906003020160010160009054906101000a90046001600160a01b0316838281518110612a0157634e487b7160e01b600052603260045260246000fd5b60200260200101906001600160a01b031690816001600160a01b03168152505060168181548110612a4257634e487b7160e01b600052603260045260246000fd5b90600052602060002090600302016002018054612a5e90614fc4565b80601f0160208091040260200160405190810160405280929190818152602001828054612a8a90614fc4565b8015612ad75780601f10612aac57610100808354040283529160200191612ad7565b820191906000526020600020905b815481529060010190602001808311612aba57829003601f168201915b5050505050828281518110612afc57634e487b7160e01b600052603260045260246000fd5b602002602001018190525080612b1190614fff565b90506128ad565b509196909550909350915050565b60606004805461123690614fc4565b612b3e33611de5565b612b5a5760405162461bcd60e51b8152600401610a6090614e2e565b6040805160606020601f860181900402820181018352918101848152601792829190879087908190850183828082843760009201829052509385525050506020918201859052835460018101855593815281902082518051939460020290910192612bc8928492019061430c565b50602082015181600101555050600160148484604051612be9929190614c28565b908152604051908190036020018120805492151560ff19909316929092179091558190601f90612c1c9086908690614c28565b90815260405190819003602001902055505050565b3360008181526001602090815260408083206001600160a01b038716845290915281205490919083811015612cb65760405162461bcd60e51b815260206004820152602560248201527f45524332303a2064656372656173656420616c6c6f77616e63652062656c6f77604482015264207a65726f60d81b6064820152608401610a60565b611c6e8286868403613e37565b6000426012541015612cd55750600090565b426012546112f19190614f6a565b6000336112c7818585613fed565b60006109fa60008051602061504783398151915283612765565b336000908152600d602052604081205460ff161515600114612d6f5760405162461bcd60e51b815260206004820152601a60248201527f4f6e6c792061207374616b65686f6c64657220646f20746869730000000000006044820152606401610a60565b612d8760008051602061506783398151915233612765565b15612dd45760405162461bcd60e51b815260206004820181905260248201527f43686169726d616e2063616e6e6f74206578707265737320696e7465726573746044820152606401610a60565b6000612dde612cc3565b11612e155760405162461bcd60e51b8152602060048201526007602482015266074696d652075760cc1b6044820152606401610a60565b60148383604051612e27929190614c28565b9081526040519081900360200190205460ff161515600114612e7e5760405162461bcd60e51b815260206004820152601060248201526f18d85d1959dbdc9e481a5b9d985b1a5960821b6044820152606401610a60565b601f8383604051612e90929190614c28565b908152604080516020928190038301902054336000908152600b90935291206003015414612ef95760405162461bcd60e51b8152602060048201526016602482015275125b995b1b1a59da589b19481d1bc818dbdb9d195cdd60521b6044820152606401610a60565b33612f385760405162461bcd60e51b815260206004820152600f60248201526e696e76616c6964206164647265737360881b6044820152606401610a60565b336000908152601d6020526040908190209051612f589085908590614c28565b9081526040519081900360200190205460ff1615612fc85760405162461bcd60e51b815260206004820152602760248201527f416c72656164792073686f776e20696e74657265737420696e2074686973207060448201526637b9b4ba34b7b760c91b6064820152608401610a60565b600654612fe7906001600160a01b0316680821ab0d4414980000612ce3565b61304c5760405162461bcd60e51b815260206004820152603060248201527f596f7520646f6e2774206861766520656e6f75676820746f6b656e7320746f2060448201526f195e1c1c995cdcc81a5b9d195c995cdd60821b6064820152608401610a60565b601c805490600061305c83614fff565b91905055506040518060a00160405280601c54815260200186868080601f0160208091040260200160405190810160405280939291908181526020018383808284376000920191909152505050908252503360208083019190915260408051601f8701839004830281018301825286815292019190869086908190840183828082843760009201829052509385525050506020918201819052338152601b82526040902082518155828201518051919261311e9260018501929091019061430c565b5060408201516002820180546001600160a01b0319166001600160a01b039092169190911790556060820151805161316091600384019160209091019061430c565b5060809190910151600490910155336000908152601d6020526040908190209051600191906131929086908690614c28565b908152604080519182900360209081018320805494151560ff19909516949094179093556080601f88018490049093028201830190526060810186815260169282919089908990819085018382808284376000920191909152505050908252503360208083019190915260408051601f88018390048302810183018252878152920191908790879081908401838280828437600092018290525093909452505083546001810185559381526020908190208351805194956003029091019361326193508492919091019061430c565b506020828101516001830180546001600160a01b0319166001600160a01b03909216919091179055604083015180516132a0926002850192019061430c565b50505082826040516132b3929190614c28565b6040519081900381209033906132cc9088908890614c28565b604051908190038120907f03cba2e3c98e48e887437eb5582401c40ffdd3070907507b31010a0630eac22390600090a450601c54949350505050565b600061332260008051602061508783398151915283612765565b80613340575061334060008051602061504783398151915283612765565b1561334d57506001919050565b506000919050565b919050565b600b602052600090815260409020805460018201805491929161337c90614fc4565b80601f01602080910402602001604051908101604052809291908181526020018280546133a890614fc4565b80156133f55780601f106133ca576101008083540402835291602001916133f5565b820191906000526020600020905b8154815290600101906020018083116133d857829003601f168201915b50505050600283015460039093015491926001600160a01b031691905084565b600061342033611de5565b61343c5760405162461bcd60e51b8152600401610a6090614e2e565b6001600160a01b0382166000908152600d602052604090205460ff16151560011461349d5760405162461bcd60e51b81526020600482015260116024820152702737ba10309039ba30b5b2b437b63232b960791b6044820152606401610a60565b6134a682613308565b15156001146134e65760405162461bcd60e51b815260206004820152600c60248201526b6e6f7420656c696769626c6560a01b6044820152606401610a60565b6134fe60008051602061506783398151915283611d41565b6040516001600160a01b0383169033907f7178dca5d575a32af7e1a16c7ae7fed6dd17b8fc714643a1cc3715e498531aba90600090a3506001919050565b60008281526005602052604090206001015461355881336141bb565b61120583836142a5565b336000908152600d60205260408120546060908290819060ff1615156001146135c15760405162461bcd60e51b81526020600482015260116024820152702737ba10309039ba30b5b2b437b63232b960791b6044820152606401610a60565b336000908152600b602090815260408083208151608081019092528054825260018101805492939192918401916135f790614fc4565b80601f016020809104026020016040519081016040528092919081815260200182805461362390614fc4565b80156136705780601f1061364557610100808354040283529160200191613670565b820191906000526020600020905b81548152906001019060200180831161365357829003601f168201915b505050918352505060028201546001600160a01b03166020808301919091526003909201546040918201528251918301519083015160609093015191989097509195509350915050565b6000806112156112d1565b601681815481106136d557600080fd5b90600052602060002090600302016000915090508060000180546136f890614fc4565b80601f016020809104026020016040519081016040528092919081815260200182805461372490614fc4565b80156137715780601f1061374657610100808354040283529160200191613771565b820191906000526020600020905b81548152906001019060200180831161375457829003601f168201915b505050600184015460028501805494956001600160a01b0390921694919350915061379b90614fc4565b80601f01602080910402602001604051908101604052809291908181526020018280546137c790614fc4565b80156138145780601f106137e957610100808354040283529160200191613814565b820191906000526020600020905b8154815290600101906020018083116137f757829003601f168201915b5050505050905083565b600a818154811061130657600080fd5b606080606061383c33611de5565b6138585760405162461bcd60e51b8152600401610a6090614e2e565b60235460ff1615156001146138af5760405162461bcd60e51b815260206004820152601d60248201527f526573756c747320686176656e2774206265656e20636f6d70696c65640000006044820152606401610a60565b601e805460ff191660011790556022805460408051602083810282018101909252828152909160219190849060008386015b8282101561398d57838290600052602060002001805461390090614fc4565b80601f016020809104026020016040519081016040528092919081815260200182805461392c90614fc4565b80156139795780601f1061394e57610100808354040283529160200191613979565b820191906000526020600020905b81548152906001019060200180831161395c57829003601f168201915b5050505050815260200190600101906138e1565b505050509250818054806020026020016040519081016040528092919081815260200182805480156139e857602002820191906000526020600020905b81546001600160a01b031681526001909101906020018083116139ca575b5050505050915080805480602002602001604051908101604052809291908181526020018280548015613a3a57602002820191906000526020600020905b815481526020019060010190808311613a26575b50505050509050925092509250909192565b613a5533611de5565b613a715760405162461bcd60e51b8152600401610a6090614e2e565b6001600160a01b0382166000908152600d602052604090205460ff1615613ae85760405162461bcd60e51b815260206004820152602560248201527f54686973206164647265737320697320616c72656164792061207374616b656860448201526437b63232b960d91b6064820152608401610a60565b600c8054906000613af883614fff565b909155505080613b1f57613b1a60008051602061508783398151915283611d41565b613b61565b8060011415613b4057613b1a60008051602061504783398151915283611d41565b8060021415613b6157613b616000805160206150a783398151915283611d41565b60408051608081018252600c54815260208082018681526001600160a01b038616838501819052606084018690526000908152600b8352939093208251815592518051929384939092613bbb92600185019291019061430c565b506040828101516002830180546001600160a01b039283166001600160a01b03199182161790915560609094015160039093019290925594166000818152600d602052948520805460ff19166001908117909155600a805491820181559095527fc65a7bb8d6351c1cf70c95a316cc6a92839c986682d98bc35f958f4883f9d2a89094018054909116909317909255505050565b60606000613c5e836002614f4b565b613c69906002614f33565b6001600160401b03811115613c8e57634e487b7160e01b600052604160045260246000fd5b6040519080825280601f01601f191660200182016040528015613cb8576020820181803683370190505b509050600360fc1b81600081518110613ce157634e487b7160e01b600052603260045260246000fd5b60200101906001600160f81b031916908160001a905350600f60fb1b81600181518110613d1e57634e487b7160e01b600052603260045260246000fd5b60200101906001600160f81b031916908160001a9053506000613d42846002614f4b565b613d4d906001614f33565b90505b6001811115613de1576f181899199a1a9b1b9c1cb0b131b232b360811b85600f1660108110613d8f57634e487b7160e01b600052603260045260246000fd5b1a60f81b828281518110613db357634e487b7160e01b600052603260045260246000fd5b60200101906001600160f81b031916908160001a90535060049490941c93613dda81614fad565b9050613d50565b508315613e305760405162461bcd60e51b815260206004820181905260248201527f537472696e67733a20686578206c656e67746820696e73756666696369656e746044820152606401610a60565b9392505050565b6001600160a01b038316613e995760405162461bcd60e51b8152602060048201526024808201527f45524332303a20617070726f76652066726f6d20746865207a65726f206164646044820152637265737360e01b6064820152608401610a60565b6001600160a01b038216613efa5760405162461bcd60e51b815260206004820152602260248201527f45524332303a20617070726f766520746f20746865207a65726f206164647265604482015261737360f01b6064820152608401610a60565b6001600160a01b0383811660008181526001602090815260408083209487168084529482529182902085905590518481527f8c5be1e5ebec7d5bd14f71427d1e84f3dd0314c0f7b2291e5b200ac8c7c3b925910160405180910390a3505050565b6001600160a01b038381166000908152600160209081526040808320938616835292905220546000198114613fe75781811015613fda5760405162461bcd60e51b815260206004820152601d60248201527f45524332303a20696e73756666696369656e7420616c6c6f77616e63650000006044820152606401610a60565b613fe78484848403613e37565b50505050565b6001600160a01b0383166140515760405162461bcd60e51b815260206004820152602560248201527f45524332303a207472616e736665722066726f6d20746865207a65726f206164604482015264647265737360d81b6064820152608401610a60565b6001600160a01b0382166140b35760405162461bcd60e51b815260206004820152602360248201527f45524332303a207472616e7366657220746f20746865207a65726f206164647260448201526265737360e81b6064820152608401610a60565b6001600160a01b0383166000908152602081905260409020548181101561412b5760405162461bcd60e51b815260206004820152602660248201527f45524332303a207472616e7366657220616d6f756e7420657863656564732062604482015265616c616e636560d01b6064820152608401610a60565b6001600160a01b03808516600090815260208190526040808220858503905591851681529081208054849290614162908490614f33565b92505081905550826001600160a01b0316846001600160a01b03167fddf252ad1be2c89b69c2b068fc378daa952ba7f163c4a11628f55a4df523b3ef846040516141ae91815260200190565b60405180910390a3613fe7565b6141c58282612765565b611de1576141dd816001600160a01b03166014613c4f565b6141e8836020613c4f565b6040516020016141f9929190614c54565b60408051601f198184030181529082905262461bcd60e51b8252610a6091600401614d97565b6142298282612765565b611de15760008281526005602090815260408083206001600160a01b03851684529091529020805460ff191660011790556142613390565b6001600160a01b0316816001600160a01b0316837f2f8788117e7eff1d82e926ec794901d17c78024a50270940304540a733656f0d60405160405180910390a45050565b6142af8282612765565b15611de15760008281526005602090815260408083206001600160a01b0385168085529252808320805460ff1916905551339285917ff6391f5c32d9c69d2a47ea670b442974b53935d1edc7fd64eb21e047a839171b9190a45050565b82805461431890614fc4565b90600052602060002090601f01602090048101928261433a5760008555614380565b82601f1061435357805160ff1916838001178555614380565b82800160010185558215614380579182015b82811115614380578251825591602001919060010190614365565b5061438c929150614478565b5090565b828054828255906000526020600020908101928215614380579160200282015b8281111561438057825182546001600160a01b0319166001600160a01b039091161782556020909201916001909101906143b0565b8280548282559060005260206000209081019282156143805791602002820182811115614380578251825591602001919060010190614365565b82805482825590600052602060002090810192821561446c579160200282015b8281111561446c578251805161445c91849160209091019061430c565b509160200191906001019061443f565b5061438c92915061448d565b5b8082111561438c5760008155600101614479565b8082111561438c5760006144a182826144aa565b5060010161448d565b5080546144b690614fc4565b6000825580601f106144c6575050565b601f0160209004906000526020600020908101906144e49190614478565b50565b80356001600160a01b038116811461335557600080fd5b600082601f83011261450e578081fd5b8135602061452361451e83614f10565b614ee0565b80838252828201915082860187848660051b8901011115614542578586fd5b855b8581101561456757614555826144e7565b84529284019290840190600101614544565b5090979650505050505050565b600082601f830112614584578081fd5b8135602061459461451e83614f10565b80838252828201915082860187848660051b89010111156145b3578586fd5b855b858110156145675781356001600160401b038111156145d2578788fd5b6145e08a87838c010161467b565b85525092840192908401906001016145b5565b60008083601f840112614604578182fd5b5081356001600160401b0381111561461a578182fd5b6020830191508360208260051b850101111561463557600080fd5b9250929050565b60008083601f84011261464d578182fd5b5081356001600160401b03811115614663578182fd5b60208301915083602082850101111561463557600080fd5b600082601f83011261468b578081fd5b81356001600160401b038111156146a4576146a4615030565b6146b7601f8201601f1916602001614ee0565b8181528460208386010111156146cb578283fd5b816020850160208301379081016020019190915292915050565b6000602082840312156146f6578081fd5b613e30826144e7565b60008060408385031215614711578081fd5b61471a836144e7565b9150614728602084016144e7565b90509250929050565b600080600060608486031215614745578081fd5b61474e846144e7565b925061475c602085016144e7565b9150604084013590509250925092565b6000806040838503121561477e578182fd5b614787836144e7565b915060208301356001600160401b038111156147a1578182fd5b6147ad8582860161467b565b9150509250929050565b600080604083850312156147c9578182fd5b6147d2836144e7565b946020939093013593505050565b600080604083850312156147f2578182fd5b82356001600160401b0380821115614808578384fd5b614814868387016144fe565b93506020850135915080821115614829578283fd5b506147ad85828601614574565b60008060008060006080868803121561484d578081fd5b85356001600160401b0380821115614863578283fd5b61486f89838a01614574565b9650602091508188013581811115614885578384fd5b6148918a828b016144fe565b9650506040880135818111156148a5578384fd5b8801601f81018a136148b5578384fd5b80356148c361451e82614f10565b8082825285820191508584018d878560051b87010111156148e2578788fd5b8794505b838510156149045780358352600194909401939186019186016148e6565b509750505050606088013591508082111561491d578283fd5b5061492a888289016145f3565b969995985093965092949392505050565b60006020828403121561494c578081fd5b5035919050565b60008060408385031215614965578182fd5b82359150614728602084016144e7565b600060208284031215614986578081fd5b81356001600160e01b031981168114613e30578182fd5b600080602083850312156149af578182fd5b82356001600160401b038111156149c4578283fd5b6149d08582860161463c565b90969095509350505050565b600080600080604085870312156149f1578182fd5b84356001600160401b0380821115614a07578384fd5b614a138883890161463c565b90965094506020870135915080821115614a2b578384fd5b50614a388782880161463c565b95989497509550505050565b600080600060408486031215614a58578081fd5b83356001600160401b03811115614a6d578182fd5b614a798682870161463c565b909790965060209590950135949350505050565b600060208284031215614a9e578081fd5b81356001600160401b03811115614ab3578182fd5b614abf8482850161467b565b949350505050565b600080600060608486031215614adb578081fd5b83356001600160401b03811115614af0578182fd5b614afc8682870161467b565b93505061475c602085016144e7565b600080600060608486031215614b1f578081fd5b505081359360208301359350604090920135919050565b6000815180845260208085019450808401835b83811015614b6e5781516001600160a01b031687529582019590820190600101614b49565b509495945050505050565b600081518084526020808501808196508360051b81019150828601855b85811015614bc0578284038952614bae848351614bfc565b98850198935090840190600101614b96565b5091979650505050505050565b6000815180845260208085019450808401835b83811015614b6e57815187529582019590820190600101614be0565b60008151808452614c14816020860160208601614f81565b601f01601f19169290920160200192915050565b8183823760009101908152919050565b60008251614c4a818460208701614f81565b9190910192915050565b7f416363657373436f6e74726f6c3a206163636f756e7420000000000000000000815260008351614c8c816017850160208801614f81565b7001034b99036b4b9b9b4b733903937b6329607d1b6017918401918201528351614cbd816028840160208801614f81565b01602801949350505050565b6001600160a01b0383168152604060208201819052600090614abf90830184614bfc565b606081526000614d006060830186614b79565b8281036020840152614d128186614b36565b90508281036040840152614d268185614b79565b9695505050505050565b606081526000614d436060830186614b79565b8281036020840152614d558186614b36565b90508281036040840152614d268185614bcd565b604081526000614d7c6040830185614b79565b8281036020840152614d8e8185614bcd565b95945050505050565b602081526000613e306020830184614bfc565b606081526000614dbd6060830186614bfc565b6001600160a01b03851660208401528281036040840152614d268185614bfc565b606081526000614df16060830186614bfc565b6001600160a01b039490941660208301525060400152919050565b604081526000614e1f6040830185614bfc565b90508260208301529392505050565b6020808252601690820152752932b9ba3934b1ba32b2103a379031b430b4b936b0b760511b604082015260600190565b85815260a060208201526000614e7760a0830187614bfc565b6001600160a01b03861660408401528281036060840152614e988186614bfc565b9150508260808301529695505050505050565b848152608060208201526000614ec46080830186614bfc565b6001600160a01b03949094166040830152506060015292915050565b604051601f8201601f191681016001600160401b0381118282101715614f0857614f08615030565b604052919050565b60006001600160401b03821115614f2957614f29615030565b5060051b60200190565b60008219821115614f4657614f4661501a565b500190565b6000816000190483118215151615614f6557614f6561501a565b500290565b600082821015614f7c57614f7c61501a565b500390565b60005b83811015614f9c578181015183820152602001614f84565b83811115613fe75750506000910152565b600081614fbc57614fbc61501a565b506000190190565b600181811c90821680614fd857607f821691505b60208210811415614ff957634e487b7160e01b600052602260045260246000fd5b50919050565b60006000198214156150135761501361501a565b5060010190565b634e487b7160e01b600052601160045260246000fd5b634e487b7160e01b600052604160045260246000fdfe534b5b9fe29299d99ea2855da6940643d68ed225db268dc8d86c1f38df5de7945778c2f7d924e55986d549d645f53119b71708389fc2011260c8a657c569fcaa2d2faaed8c23be685754c2c857d2b54442ae50d4706ce4165904c05bfc05c45fc951d7098b66ba0b8b77265b6e9cf0e187d73125a42bcd0061b09a68be421810a26469706673582212205a4a94cffe155bac131d4fb2cc8acaef453bd1ab14efac9495101caa1a3d307b64736f6c634300080400335778c2f7d924e55986d549d645f53119b71708389fc2011260c8a657c569fcaa",
  "linkReferences": {},
  "deployedLinkReferences": {}
}