{
  "_format": "hh-sol-artifact-1",
  "contractName": "Election",
  "sourceName": "contracts/Election.sol",
  "abi": [
    {
      "anonymous": false,
      "inputs": [
        {
          "indexed": true,
          "internalType": "address",
          "name": "owner",
          "type": "address"
        },
        {
          "indexed": true,
          "internalType": "address",
          "name": "spender",
          "type": "address"
        },
        {
          "indexed": false,
          "internalType": "uint256",
          "name": "value",
          "type": "uint256"
        }
      ],
      "name": "Approval",
      "type": "event"
    },
    {
      "anonymous": false,
      "inputs": [
        {
          "indexed": true,
          "internalType": "string",
          "name": "name",
          "type": "string"
        },
        {
          "indexed": true,
          "internalType": "address",
          "name": "contestant",
          "type": "address"
        },
        {
          "indexed": true,
          "internalType": "string",
          "name": "category",
          "type": "string"
        }
      ],
      "name": "Contest",
      "type": "event"
    },
    {
      "anonymous": false,
      "inputs": [
        {
          "indexed": true,
          "internalType": "address",
          "name": "to",
          "type": "address"
        }
      ],
      "name": "DelegateChairman",
      "type": "event"
    },
    {
      "anonymous": false,
      "inputs": [
        {
          "indexed": true,
          "internalType": "address",
          "name": "from",
          "type": "address"
        },
        {
          "indexed": true,
          "internalType": "address",
          "name": "to",
          "type": "address"
        }
      ],
      "name": "DelegateChairman",
      "type": "event"
    },
    {
      "anonymous": false,
      "inputs": [
        {
          "indexed": true,
          "internalType": "uint256",
          "name": "start",
          "type": "uint256"
        },
        {
          "indexed": true,
          "internalType": "uint256",
          "name": "duration",
          "type": "uint256"
        }
      ],
      "name": "ElectionEvent",
      "type": "event"
    },
    {
      "anonymous": false,
      "inputs": [
        {
          "indexed": true,
          "internalType": "bytes32",
          "name": "role",
          "type": "bytes32"
        },
        {
          "indexed": true,
          "internalType": "bytes32",
          "name": "previousAdminRole",
          "type": "bytes32"
        },
        {
          "indexed": true,
          "internalType": "bytes32",
          "name": "newAdminRole",
          "type": "bytes32"
        }
      ],
      "name": "RoleAdminChanged",
      "type": "event"
    },
    {
      "anonymous": false,
      "inputs": [
        {
          "indexed": true,
          "internalType": "bytes32",
          "name": "role",
          "type": "bytes32"
        },
        {
          "indexed": true,
          "internalType": "address",
          "name": "account",
          "type": "address"
        },
        {
          "indexed": true,
          "internalType": "address",
          "name": "sender",
          "type": "address"
        }
      ],
      "name": "RoleGranted",
      "type": "event"
    },
    {
      "anonymous": false,
      "inputs": [
        {
          "indexed": true,
          "internalType": "bytes32",
          "name": "role",
          "type": "bytes32"
        },
        {
          "indexed": true,
          "internalType": "address",
          "name": "account",
          "type": "address"
        },
        {
          "indexed": true,
          "internalType": "address",
          "name": "sender",
          "type": "address"
        }
      ],
      "name": "RoleRevoked",
      "type": "event"
    },
    {
      "anonymous": false,
      "inputs": [
        {
          "indexed": true,
          "internalType": "address",
          "name": "from",
          "type": "address"
        },
        {
          "indexed": true,
          "internalType": "address",
          "name": "to",
          "type": "address"
        },
        {
          "indexed": false,
          "internalType": "uint256",
          "name": "value",
          "type": "uint256"
        }
      ],
      "name": "Transfer",
      "type": "event"
    },
    {
      "anonymous": false,
      "inputs": [
        {
          "indexed": false,
          "internalType": "address",
          "name": "voteChoice",
          "type": "address"
        },
        {
          "indexed": false,
          "internalType": "string",
          "name": "Category",
          "type": "string"
        }
      ],
      "name": "Voted",
      "type": "event"
    },
    {
      "inputs": [],
      "name": "BOARD_MEMBER_ROLE",
      "outputs": [
        {
          "internalType": "bytes32",
          "name": "",
          "type": "bytes32"
        }
      ],
      "stateMutability": "view",
      "type": "function"
    },
    {
      "inputs": [],
      "name": "CHAIRMAN_ROLE",
      "outputs": [
        {
          "internalType": "bytes32",
          "name": "",
          "type": "bytes32"
        }
      ],
      "stateMutability": "view",
      "type": "function"
    },
    {
      "inputs": [],
      "name": "DEFAULT_ADMIN_ROLE",
      "outputs": [
        {
          "internalType": "bytes32",
          "name": "",
          "type": "bytes32"
        }
      ],
      "stateMutability": "view",
      "type": "function"
    },
    {
      "inputs": [],
      "name": "STUDENT_ROLE",
      "outputs": [
        {
          "internalType": "bytes32",
          "name": "",
          "type": "bytes32"
        }
      ],
      "stateMutability": "view",
      "type": "function"
    },
    {
      "inputs": [],
      "name": "TEACHER_ROLE",
      "outputs": [
        {
          "internalType": "bytes32",
          "name": "",
          "type": "bytes32"
        }
      ],
      "stateMutability": "view",
      "type": "function"
    },
    {
      "inputs": [
        {
          "internalType": "string",
          "name": "_name",
          "type": "string"
        },
        {
          "internalType": "address",
          "name": "_holder",
          "type": "address"
        },
        {
          "internalType": "uint256",
          "name": "_role",
          "type": "uint256"
        }
      ],
      "name": "addStakeHolder",
      "outputs": [],
      "stateMutability": "nonpayable",
      "type": "function"
    },
    {
      "inputs": [
        {
          "internalType": "address",
          "name": "owner",
          "type": "address"
        },
        {
          "internalType": "address",
          "name": "spender",
          "type": "address"
        }
      ],
      "name": "allowance",
      "outputs": [
        {
          "internalType": "uint256",
          "name": "",
          "type": "uint256"
        }
      ],
      "stateMutability": "view",
      "type": "function"
    },
    {
      "inputs": [
        {
          "internalType": "address",
          "name": "spender",
          "type": "address"
        },
        {
          "internalType": "uint256",
          "name": "amount",
          "type": "uint256"
        }
      ],
      "name": "approve",
      "outputs": [
        {
          "internalType": "bool",
          "name": "",
          "type": "bool"
        }
      ],
      "stateMutability": "nonpayable",
      "type": "function"
    },
    {
      "inputs": [
        {
          "internalType": "address",
          "name": "account",
          "type": "address"
        }
      ],
      "name": "balanceOf",
      "outputs": [
        {
          "internalType": "uint256",
          "name": "",
          "type": "uint256"
        }
      ],
      "stateMutability": "view",
      "type": "function"
    },
    {
      "inputs": [
        {
          "internalType": "uint256",
          "name": "boardMemberAmount",
          "type": "uint256"
        },
        {
          "internalType": "uint256",
          "name": "teacherAmount",
          "type": "uint256"
        },
        {
          "internalType": "uint256",
          "name": "studentAmount",
          "type": "uint256"
        }
      ],
      "name": "batchTransferToExistingStakeholders",
      "outputs": [
        {
          "internalType": "bool",
          "name": "transfered",
          "type": "bool"
        }
      ],
      "stateMutability": "nonpayable",
      "type": "function"
    },
    {
      "inputs": [
        {
          "internalType": "string[]",
          "name": "_name",
          "type": "string[]"
        },
        {
          "internalType": "address[]",
          "name": "_holder",
          "type": "address[]"
        },
        {
          "internalType": "uint256[]",
          "name": "_role",
          "type": "uint256[]"
        },
        {
          "internalType": "uint256[]",
          "name": "_amounts",
          "type": "uint256[]"
        }
      ],
      "name": "batchTransferandAdd",
      "outputs": [
        {
          "internalType": "bool",
          "name": "",
          "type": "bool"
        }
      ],
      "stateMutability": "nonpayable",
      "type": "function"
    },
    {
      "inputs": [],
      "name": "canStillExpressInterest",
      "outputs": [
        {
          "internalType": "bool",
          "name": "",
          "type": "bool"
        }
      ],
      "stateMutability": "view",
      "type": "function"
    },
    {
      "inputs": [
        {
          "internalType": "address",
          "name": "",
          "type": "address"
        }
      ],
      "name": "candidates",
      "outputs": [
        {
          "internalType": "uint256",
          "name": "id",
          "type": "uint256"
        },
        {
          "internalType": "string",
          "name": "name",
          "type": "string"
        },
        {
          "internalType": "address",
          "name": "contestant",
          "type": "address"
        },
        {
          "internalType": "string",
          "name": "category",
          "type": "string"
        },
        {
          "internalType": "uint256",
          "name": "voteCount",
          "type": "uint256"
        }
      ],
      "stateMutability": "view",
      "type": "function"
    },
    {
      "inputs": [],
      "name": "candidatesCount",
      "outputs": [
        {
          "internalType": "uint256",
          "name": "",
          "type": "uint256"
        }
      ],
      "stateMutability": "view",
      "type": "function"
    },
    {
      "inputs": [
        {
          "internalType": "uint256",
          "name": "",
          "type": "uint256"
        }
      ],
      "name": "category",
      "outputs": [
        {
          "internalType": "string",
          "name": "name",
          "type": "string"
        },
        {
          "internalType": "uint256",
          "name": "role",
          "type": "uint256"
        }
      ],
      "stateMutability": "view",
      "type": "function"
    },
    {
      "inputs": [
        {
          "internalType": "string",
          "name": "",
          "type": "string"
        }
      ],
      "name": "categorySet",
      "outputs": [
        {
          "internalType": "bool",
          "name": "",
          "type": "bool"
        }
      ],
      "stateMutability": "view",
      "type": "function"
    },
    {
      "inputs": [],
      "name": "chairmanAddr",
      "outputs": [
        {
          "internalType": "address",
          "name": "",
          "type": "address"
        }
      ],
      "stateMutability": "view",
      "type": "function"
    },
    {
      "inputs": [],
      "name": "compileVotes",
      "outputs": [
        {
          "internalType": "address[]",
          "name": "",
          "type": "address[]"
        },
        {
          "internalType": "uint256[]",
          "name": "",
          "type": "uint256[]"
        }
      ],
      "stateMutability": "view",
      "type": "function"
    },
    {
      "inputs": [
        {
          "internalType": "uint256",
          "name": "",
          "type": "uint256"
        }
      ],
      "name": "contestants",
      "outputs": [
        {
          "internalType": "string",
          "name": "name",
          "type": "string"
        },
        {
          "internalType": "address",
          "name": "addr",
          "type": "address"
        },
        {
          "internalType": "string",
          "name": "category",
          "type": "string"
        }
      ],
      "stateMutability": "view",
      "type": "function"
    },
    {
      "inputs": [],
      "name": "decimals",
      "outputs": [
        {
          "internalType": "uint8",
          "name": "",
          "type": "uint8"
        }
      ],
      "stateMutability": "view",
      "type": "function"
    },
    {
      "inputs": [
        {
          "internalType": "address",
          "name": "spender",
          "type": "address"
        },
        {
          "internalType": "uint256",
          "name": "subtractedValue",
          "type": "uint256"
        }
      ],
      "name": "decreaseAllowance",
      "outputs": [
        {
          "internalType": "bool",
          "name": "",
          "type": "bool"
        }
      ],
      "stateMutability": "nonpayable",
      "type": "function"
    },
    {
      "inputs": [
        {
          "internalType": "address",
          "name": "newChairman",
          "type": "address"
        }
      ],
      "name": "delegateChairmanship",
      "outputs": [
        {
          "internalType": "bool",
          "name": "changed",
          "type": "bool"
        }
      ],
      "stateMutability": "nonpayable",
      "type": "function"
    },
    {
      "inputs": [
        {
          "internalType": "string",
          "name": "_name",
          "type": "string"
        },
        {
          "internalType": "string",
          "name": "_category",
          "type": "string"
        }
      ],
      "name": "expressInterest",
      "outputs": [
        {
          "internalType": "uint256",
          "name": "",
          "type": "uint256"
        }
      ],
      "stateMutability": "nonpayable",
      "type": "function"
    },
    {
      "inputs": [],
      "name": "getContestantDetails",
      "outputs": [
        {
          "internalType": "string[]",
          "name": "",
          "type": "string[]"
        },
        {
          "internalType": "address[]",
          "name": "",
          "type": "address[]"
        },
        {
          "internalType": "string[]",
          "name": "",
          "type": "string[]"
        }
      ],
      "stateMutability": "view",
      "type": "function"
    },
    {
      "inputs": [],
      "name": "getCurrentCategory",
      "outputs": [
        {
          "internalType": "string[]",
          "name": "",
          "type": "string[]"
        },
        {
          "internalType": "uint256[]",
          "name": "roles",
          "type": "uint256[]"
        }
      ],
      "stateMutability": "view",
      "type": "function"
    },
    {
      "inputs": [
        {
          "internalType": "bytes32",
          "name": "role",
          "type": "bytes32"
        }
      ],
      "name": "getRoleAdmin",
      "outputs": [
        {
          "internalType": "bytes32",
          "name": "",
          "type": "bytes32"
        }
      ],
      "stateMutability": "view",
      "type": "function"
    },
    {
      "inputs": [],
      "name": "getStakeholderDetails",
      "outputs": [
        {
          "internalType": "uint256",
          "name": "id",
          "type": "uint256"
        },
        {
          "internalType": "string",
          "name": "name",
          "type": "string"
        },
        {
          "internalType": "address",
          "name": "holder",
          "type": "address"
        },
        {
          "internalType": "uint256",
          "name": "role",
          "type": "uint256"
        }
      ],
      "stateMutability": "view",
      "type": "function"
    },
    {
      "inputs": [
        {
          "internalType": "bytes32",
          "name": "role",
          "type": "bytes32"
        },
        {
          "internalType": "address",
          "name": "account",
          "type": "address"
        }
      ],
      "name": "grantRole",
      "outputs": [],
      "stateMutability": "nonpayable",
      "type": "function"
    },
    {
      "inputs": [
        {
          "internalType": "bytes32",
          "name": "role",
          "type": "bytes32"
        },
        {
          "internalType": "address",
          "name": "account",
          "type": "address"
        }
      ],
      "name": "hasRole",
      "outputs": [
        {
          "internalType": "bool",
          "name": "",
          "type": "bool"
        }
      ],
      "stateMutability": "view",
      "type": "function"
    },
    {
      "inputs": [
        {
          "internalType": "address",
          "name": "spender",
          "type": "address"
        },
        {
          "internalType": "uint256",
          "name": "addedValue",
          "type": "uint256"
        }
      ],
      "name": "increaseAllowance",
      "outputs": [
        {
          "internalType": "bool",
          "name": "",
          "type": "bool"
        }
      ],
      "stateMutability": "nonpayable",
      "type": "function"
    },
    {
      "inputs": [
        {
          "internalType": "address",
          "name": "account",
          "type": "address"
        }
      ],
      "name": "isAdmin",
      "outputs": [
        {
          "internalType": "bool",
          "name": "",
          "type": "bool"
        }
      ],
      "stateMutability": "view",
      "type": "function"
    },
    {
      "inputs": [
        {
          "internalType": "address",
          "name": "account",
          "type": "address"
        }
      ],
      "name": "isBoardMember",
      "outputs": [
        {
          "internalType": "bool",
          "name": "",
          "type": "bool"
        }
      ],
      "stateMutability": "view",
      "type": "function"
    },
    {
      "inputs": [
        {
          "internalType": "address",
          "name": "account",
          "type": "address"
        }
      ],
      "name": "isChairman",
      "outputs": [
        {
          "internalType": "bool",
          "name": "",
          "type": "bool"
        }
      ],
      "stateMutability": "view",
      "type": "function"
    },
    {
      "inputs": [
        {
          "internalType": "address",
          "name": "account",
          "type": "address"
        }
      ],
      "name": "isCompiler",
      "outputs": [
        {
          "internalType": "bool",
          "name": "",
          "type": "bool"
        }
      ],
      "stateMutability": "view",
      "type": "function"
    },
    {
      "inputs": [
        {
          "internalType": "address",
          "name": "",
          "type": "address"
        },
        {
          "internalType": "string",
          "name": "",
          "type": "string"
        }
      ],
      "name": "isContesting",
      "outputs": [
        {
          "internalType": "bool",
          "name": "",
          "type": "bool"
        }
      ],
      "stateMutability": "view",
      "type": "function"
    },
    {
      "inputs": [],
      "name": "isElectionOn",
      "outputs": [
        {
          "internalType": "bool",
          "name": "",
          "type": "bool"
        }
      ],
      "stateMutability": "view",
      "type": "function"
    },
    {
      "inputs": [],
      "name": "isResultAnnounced",
      "outputs": [
        {
          "internalType": "bool",
          "name": "",
          "type": "bool"
        }
      ],
      "stateMutability": "view",
      "type": "function"
    },
    {
      "inputs": [
        {
          "internalType": "address",
          "name": "account",
          "type": "address"
        }
      ],
      "name": "isStudent",
      "outputs": [
        {
          "internalType": "bool",
          "name": "",
          "type": "bool"
        }
      ],
      "stateMutability": "view",
      "type": "function"
    },
    {
      "inputs": [
        {
          "internalType": "address",
          "name": "account",
          "type": "address"
        }
      ],
      "name": "isTeacher",
      "outputs": [
        {
          "internalType": "bool",
          "name": "",
          "type": "bool"
        }
      ],
      "stateMutability": "view",
      "type": "function"
    },
    {
      "inputs": [],
      "name": "makeResultsPublic",
      "outputs": [
        {
          "internalType": "address[]",
          "name": "",
          "type": "address[]"
        },
        {
          "internalType": "uint256[]",
          "name": "",
          "type": "uint256[]"
        }
      ],
      "stateMutability": "nonpayable",
      "type": "function"
    },
    {
      "inputs": [],
      "name": "name",
      "outputs": [
        {
          "internalType": "string",
          "name": "",
          "type": "string"
        }
      ],
      "stateMutability": "view",
      "type": "function"
    },
    {
      "inputs": [
        {
          "internalType": "address",
          "name": "_candidate",
          "type": "address"
        },
        {
          "internalType": "string",
          "name": "_category",
          "type": "string"
        }
      ],
      "name": "placeVote",
      "outputs": [],
      "stateMutability": "nonpayable",
      "type": "function"
    },
    {
      "inputs": [
        {
          "internalType": "bytes32",
          "name": "role",
          "type": "bytes32"
        },
        {
          "internalType": "address",
          "name": "account",
          "type": "address"
        }
      ],
      "name": "renounceRole",
      "outputs": [],
      "stateMutability": "nonpayable",
      "type": "function"
    },
    {
      "inputs": [
        {
          "internalType": "string",
          "name": "_category",
          "type": "string"
        }
      ],
      "name": "resetVotingCategory",
      "outputs": [],
      "stateMutability": "nonpayable",
      "type": "function"
    },
    {
      "inputs": [
        {
          "internalType": "bytes32",
          "name": "role",
          "type": "bytes32"
        },
        {
          "internalType": "address",
          "name": "account",
          "type": "address"
        }
      ],
      "name": "revokeRole",
      "outputs": [],
      "stateMutability": "nonpayable",
      "type": "function"
    },
    {
      "inputs": [
        {
          "internalType": "string",
          "name": "",
          "type": "string"
        }
      ],
      "name": "roleEligible",
      "outputs": [
        {
          "internalType": "uint256",
          "name": "",
          "type": "uint256"
        }
      ],
      "stateMutability": "view",
      "type": "function"
    },
    {
      "inputs": [
        {
          "internalType": "uint256",
          "name": "",
          "type": "uint256"
        }
      ],
      "name": "runnerUps",
      "outputs": [
        {
          "internalType": "address",
          "name": "contestantAddr",
          "type": "address"
        },
        {
          "internalType": "uint256",
          "name": "contestantVoteCount",
          "type": "uint256"
        }
      ],
      "stateMutability": "view",
      "type": "function"
    },
    {
      "inputs": [
        {
          "internalType": "string",
          "name": "_category",
          "type": "string"
        },
        {
          "internalType": "uint256",
          "name": "_roleEligible",
          "type": "uint256"
        }
      ],
      "name": "setVotingCategory",
      "outputs": [],
      "stateMutability": "nonpayable",
      "type": "function"
    },
    {
      "inputs": [
        {
          "internalType": "address",
          "name": "",
          "type": "address"
        }
      ],
      "name": "stakeHolderExists",
      "outputs": [
        {
          "internalType": "bool",
          "name": "",
          "type": "bool"
        }
      ],
      "stateMutability": "view",
      "type": "function"
    },
    {
      "inputs": [],
      "name": "stakeHoldersCount",
      "outputs": [
        {
          "internalType": "uint256",
          "name": "",
          "type": "uint256"
        }
      ],
      "stateMutability": "view",
      "type": "function"
    },
    {
      "inputs": [
        {
          "internalType": "uint256",
          "name": "",
          "type": "uint256"
        }
      ],
      "name": "stakeholderList",
      "outputs": [
        {
          "internalType": "address",
          "name": "",
          "type": "address"
        }
      ],
      "stateMutability": "view",
      "type": "function"
    },
    {
      "inputs": [
        {
          "internalType": "address",
          "name": "",
          "type": "address"
        }
      ],
      "name": "stakeholders",
      "outputs": [
        {
          "internalType": "uint256",
          "name": "id",
          "type": "uint256"
        },
        {
          "internalType": "string",
          "name": "name",
          "type": "string"
        },
        {
          "internalType": "address",
          "name": "holder",
          "type": "address"
        },
        {
          "internalType": "uint256",
          "name": "role",
          "type": "uint256"
        }
      ],
      "stateMutability": "view",
      "type": "function"
    },
    {
      "inputs": [
        {
          "internalType": "uint256",
          "name": "_electionDuration",
          "type": "uint256"
        }
      ],
      "name": "startElection",
      "outputs": [],
      "stateMutability": "nonpayable",
      "type": "function"
    },
    {
      "inputs": [
        {
          "internalType": "uint256",
          "name": "_showInterestDuration",
          "type": "uint256"
        }
      ],
      "name": "startShowInterest",
      "outputs": [],
      "stateMutability": "nonpayable",
      "type": "function"
    },
    {
      "inputs": [
        {
          "internalType": "bytes4",
          "name": "interfaceId",
          "type": "bytes4"
        }
      ],
      "name": "supportsInterface",
      "outputs": [
        {
          "internalType": "bool",
          "name": "",
          "type": "bool"
        }
      ],
      "stateMutability": "view",
      "type": "function"
    },
    {
      "inputs": [],
      "name": "symbol",
      "outputs": [
        {
          "internalType": "string",
          "name": "",
          "type": "string"
        }
      ],
      "stateMutability": "view",
      "type": "function"
    },
    {
      "inputs": [],
      "name": "timeLeft",
      "outputs": [
        {
          "internalType": "uint256",
          "name": "",
          "type": "uint256"
        }
      ],
      "stateMutability": "view",
      "type": "function"
    },
    {
      "inputs": [],
      "name": "timeLefttoShowInterest",
      "outputs": [
        {
          "internalType": "uint256",
          "name": "",
          "type": "uint256"
        }
      ],
      "stateMutability": "view",
      "type": "function"
    },
    {
      "inputs": [],
      "name": "totalSupply",
      "outputs": [
        {
          "internalType": "uint256",
          "name": "",
          "type": "uint256"
        }
      ],
      "stateMutability": "view",
      "type": "function"
    },
    {
      "inputs": [
        {
          "internalType": "address",
          "name": "to",
          "type": "address"
        },
        {
          "internalType": "uint256",
          "name": "amount",
          "type": "uint256"
        }
      ],
      "name": "transfer",
      "outputs": [
        {
          "internalType": "bool",
          "name": "",
          "type": "bool"
        }
      ],
      "stateMutability": "nonpayable",
      "type": "function"
    },
    {
      "inputs": [
        {
          "internalType": "address",
          "name": "from",
          "type": "address"
        },
        {
          "internalType": "address",
          "name": "to",
          "type": "address"
        },
        {
          "internalType": "uint256",
          "name": "amount",
          "type": "uint256"
        }
      ],
      "name": "transferFrom",
      "outputs": [
        {
          "internalType": "bool",
          "name": "",
          "type": "bool"
        }
      ],
      "stateMutability": "nonpayable",
      "type": "function"
    },
    {
      "inputs": [
        {
          "internalType": "uint256",
          "name": "",
          "type": "uint256"
        }
      ],
      "name": "votedFor",
      "outputs": [
        {
          "internalType": "address",
          "name": "",
          "type": "address"
        }
      ],
      "stateMutability": "view",
      "type": "function"
    },
    {
      "inputs": [
        {
          "internalType": "address",
          "name": "",
          "type": "address"
        },
        {
          "internalType": "string",
          "name": "",
          "type": "string"
        }
      ],
      "name": "voters",
      "outputs": [
        {
          "internalType": "bool",
          "name": "voted",
          "type": "bool"
        },
        {
          "internalType": "address",
          "name": "voteChoice",
          "type": "address"
        }
      ],
      "stateMutability": "view",
      "type": "function"
    }
  ],
  "bytecode": "0x6080604052600060075560016008556002600955601e805460ff191690553480156200002a57600080fd5b50604051806040016040528060098152602001682d3ab934aa37b5b2b760b91b8152506040518060400160405280600381526020016216915560ea1b815250816003908051906020019062000081929190620005b8565b50805162000097906004906020840190620005b8565b505050620000b7336a108b2a2c280290940000006200011760201b60201c565b600680546001600160a01b03191633908117909155620000da9060009062000201565b620000f660008051602062004eb98339815191526000620002a5565b6200011160008051602062004eb983398151915233620002f0565b620007e9565b6001600160a01b038216620001735760405162461bcd60e51b815260206004820152601f60248201527f45524332303a206d696e7420746f20746865207a65726f20616464726573730060448201526064015b60405180910390fd5b80600260008282546200018791906200070c565b90915550506001600160a01b03821660009081526020819052604081208054839290620001b69084906200070c565b90915550506040518181526001600160a01b038316906000907fddf252ad1be2c89b69c2b068fc378daa952ba7f163c4a11628f55a4df523b3ef9060200160405180910390a35b5050565b60008281526005602090815260408083206001600160a01b038516845290915290205460ff16620001fd5760008281526005602090815260408083206001600160a01b03851684529091529020805460ff19166001179055620002613390565b6001600160a01b0316816001600160a01b0316837f2f8788117e7eff1d82e926ec794901d17c78024a50270940304540a733656f0d60405160405180910390a45050565b600082815260056020526040808220600101805490849055905190918391839186917fbd79b86ffe0ab8e8776151514217cd7cacd52c909f66475c3af44e129f0b00ff9190a4505050565b6000828152600560205260409020600101546200030e81336200031f565b6200031a838362000201565b505050565b60008281526005602090815260408083206001600160a01b038516845290915290205460ff16620001fd576200036b816001600160a01b03166014620003bc60201b620033431760201c565b6200038183602062003343620003bc821b17811c565b604051602001620003949291906200065e565b60408051601f198184030181529082905262461bcd60e51b82526200016a91600401620006d7565b60606000620003cd83600262000727565b620003da9060026200070c565b6001600160401b038111156200040057634e487b7160e01b600052604160045260246000fd5b6040519080825280601f01601f1916602001820160405280156200042b576020820181803683370190505b509050600360fc1b816000815181106200045557634e487b7160e01b600052603260045260246000fd5b60200101906001600160f81b031916908160001a905350600f60fb1b816001815181106200049357634e487b7160e01b600052603260045260246000fd5b60200101906001600160f81b031916908160001a9053506000620004b984600262000727565b620004c69060016200070c565b90505b600181111562000560576f181899199a1a9b1b9c1cb0b131b232b360811b85600f16601081106200050a57634e487b7160e01b600052603260045260246000fd5b1a60f81b8282815181106200052f57634e487b7160e01b600052603260045260246000fd5b60200101906001600160f81b031916908160001a90535060049490941c9362000558816200077c565b9050620004c9565b508315620005b15760405162461bcd60e51b815260206004820181905260248201527f537472696e67733a20686578206c656e67746820696e73756666696369656e7460448201526064016200016a565b9392505050565b828054620005c69062000796565b90600052602060002090601f016020900481019282620005ea576000855562000635565b82601f106200060557805160ff191683800117855562000635565b8280016001018555821562000635579182015b828111156200063557825182559160200191906001019062000618565b506200064392915062000647565b5090565b5b8082111562000643576000815560010162000648565b7f416363657373436f6e74726f6c3a206163636f756e74200000000000000000008152600083516200069881601785016020880162000749565b7001034b99036b4b9b9b4b733903937b6329607d1b6017918401918201528351620006cb81602884016020880162000749565b01602801949350505050565b6020815260008251806020840152620006f881604085016020870162000749565b601f01601f19169190910160400192915050565b60008219821115620007225762000722620007d3565b500190565b6000816000190483118215151615620007445762000744620007d3565b500290565b60005b83811015620007665781810151838201526020016200074c565b8381111562000776576000848401525b50505050565b6000816200078e576200078e620007d3565b506000190190565b600181811c90821680620007ab57607f821691505b60208210811415620007cd57634e487b7160e01b600052602260045260246000fd5b50919050565b634e487b7160e01b600052601160045260246000fd5b6146c080620007f96000396000f3fe608060405234801561001057600080fd5b50600436106103c55760003560e01c80638ab66a90116101ff578063c3e0e1641161011a578063e0644712116100ad578063f1ad1d0e1161007c578063f1ad1d0e14610975578063f6daef311461098a578063f7be43fb14610992578063fac65f97146109a757600080fd5b8063e0644712146108a8578063e18b487a146108b5578063e320f57614610923578063e8dcc5581461093657600080fd5b8063da6efb8d116100e9578063da6efb8d1461083d578063dd62ed3e14610845578063df0baf8e1461087e578063dfd50f521461088657600080fd5b8063c3e0e164146107e3578063c90aa2b4146107f6578063cae9fbca146107ff578063d547741f1461082a57600080fd5b8063a457c2d711610192578063b1f013fb11610161578063b1f013fb14610777578063b1f5086e1461078a578063bc9e6d49146107ad578063c07cfca9146107c057600080fd5b8063a457c2d714610736578063a4d1059714610749578063a9059cbb14610751578063aec37eb31461076457600080fd5b806398b1df7e116101ce57806398b1df7e146106f35780639ac4643d14610706578063a097dc4b14610719578063a217fddf1461072e57600080fd5b80638ab66a901461069d57806391d14854146106c157806393fe03a0146106d457806395d89b41146106eb57600080fd5b8063313ce567116102ef5780635aab453c1161028257806371942a011161025157806371942a011461064f5780637e7329481461066257806382f7d3921461067557806386e5c15a1461068857600080fd5b80635aab453c146105b357806369c389d0146105e55780636d32dc4b1461061357806370a082311461062657600080fd5b806340cddb4f116102be57806340cddb4f1461056457806350c842021461057757806353de7eb11461058d57806355f74295146105a057600080fd5b8063313ce5671461051c57806336568abe1461052b578063382872591461053e578063395093511461055157600080fd5b80631e5592f41161036757806324d7806c1161033657806324d7806c146104ca578063253eca1f146104dd5780632d35a8a2146104fe5780632f2ff15d1461050757600080fd5b80631e5592f41461046b57806320be2a851461047e57806323b872dd14610494578063248a9ca3146104a757600080fd5b8063095ea7b3116103a3578063095ea7b31461040f5780631300a6d1146104225780631312fa921461043857806318160ddd1461046357600080fd5b806301ffc9a7146103ca57806305cbd154146103f257806306fdde03146103fa575b600080fd5b6103dd6103d8366004613f8d565b6109ba565b60405190151581526020015b60405180910390f35b6103dd6109f1565b610402610a0e565b6040516103e99190614389565b6103dd61041d366004613e0b565b610aa0565b61042a610ab8565b6040519081526020016103e9565b61044b610446366004613f53565b610add565b6040516001600160a01b0390911681526020016103e9565b60025461042a565b6103dd610479366004613e34565b610b07565b610486611057565b6040516103e9929190614305565b6103dd6104a2366004613d35565b6112b4565b61042a6104b5366004613f53565b60009081526005602052604090206001015490565b6103dd6104d8366004613ce9565b6112d8565b6104f06104eb366004613f53565b6112e4565b6040516103e99291906143d0565b61042a601c5481565b61051a610515366004613f6b565b6113a0565b005b604051601281526020016103e9565b61051a610539366004613f6b565b6113cb565b6103dd61054c366004613ce9565b611449565b6103dd61055f366004613e0b565b611463565b61051a610572366004613fb5565b6114a2565b61057f61158c565b6040516103e9929190614376565b6103dd61059b366004614123565b6117a5565b61051a6105ae366004613f53565b611987565b6105c66105c1366004613f53565b6119c2565b604080516001600160a01b0390931683526020830191909152016103e9565b6103dd6105f33660046140a5565b805160208183018101805160148252928201919093012091525460ff1681565b61051a610621366004613f53565b6119fa565b61042a610634366004613ce9565b6001600160a01b031660009081526020819052604090205490565b6103dd61065d366004613ce9565b611a64565b60065461044b906001600160a01b031681565b6103dd610683366004613ce9565b611a7e565b61042a60008051602061460b83398151915281565b6106b06106ab366004613ce9565b611a98565b6040516103e9959493929190614422565b6103dd6106cf366004613f6b565b611be6565b6106dc611c11565b6040516103e993929190614333565b610402611fa7565b61051a61070136600461405c565b611fb6565b61051a610714366004613d70565b6120b2565b61042a60008051602061462b83398151915281565b61042a600081565b6103dd610744366004613e0b565b612533565b61042a6125c5565b6103dd61075f366004613e0b565b6125e5565b6103dd610772366004613ce9565b6125f3565b61042a610785366004613ff4565b61260d565b6103dd610798366004613ce9565b600d6020526000908152604090205460ff1681565b6103dd6107bb366004613ce9565b612b21565b6107d36107ce366004613ce9565b612b91565b6040516103e9949392919061446f565b6103dd6107f1366004613ce9565b612c4c565b61042a600c5481565b61042a61080d3660046140a5565b805160208183018101805160158252928201919093012091525481565b61051a610838366004613f6b565b612e09565b6107d3612e2f565b61042a610853366004613d03565b6001600160a01b03918216600090815260016020908152604080832093909416825291909152205490565b6103dd612f87565b610899610894366004613f53565b612f92565b6040516103e99392919061439c565b601e546103dd9060ff1681565b6109046108c3366004613dc0565b6019602090815260009283526040909220815180830184018051928152908401929093019190912091525460ff81169061010090046001600160a01b031682565b6040805192151583526001600160a01b039091166020830152016103e9565b61044b610931366004613f53565b6130eb565b6103dd610944366004613dc0565b601d602090815260009283526040909220815180830184018051928152908401929093019190912091525460ff1681565b61042a60008051602061464b83398151915281565b6104866130fb565b61042a60008051602061466b83398151915281565b61051a6109b53660046140df565b613140565b60006001600160e01b03198216637965db0b60e01b14806109eb57506301ffc9a760e01b6001600160e01b03198316145b92915050565b6000806109fc6125c5565b1115610a085750600190565b50600090565b606060038054610a1d90614588565b80601f0160208091040260200160405190810160405280929190818152602001828054610a4990614588565b8015610a965780601f10610a6b57610100808354040283529160200191610a96565b820191906000526020600020905b815481529060010190602001808311610a7957829003601f168201915b5050505050905090565b600033610aae81858561352b565b5060019392505050565b600042600f541015610aca5750600090565b42600f54610ad8919061452e565b905090565b601a8181548110610aed57600080fd5b6000918252602090912001546001600160a01b0316905081565b83516000908214610b5f5760405162461bcd60e51b815260206004820152601860248201527f496e76616c696420696e70757420706172616d6574657273000000000000000060448201526064015b60405180910390fd5b60005b855181101561104a5760006001600160a01b0316868281518110610b9657634e487b7160e01b600052603260045260246000fd5b60200260200101516001600160a01b03161415610be75760405162461bcd60e51b815260206004820152600f60248201526e496e76616c6964204164647265737360881b6044820152606401610b56565b838382818110610c0757634e487b7160e01b600052603260045260246000fd5b9050602002013560001415610c1b57600080fd5b60c886511115610c2a57600080fd5b60c8831115610c3857600080fd5b600c8054906000610c48836145c3565b9190505550848181518110610c6d57634e487b7160e01b600052603260045260246000fd5b602002602001015160001415610cc157610cbc60008051602061464b833981519152878381518110610caf57634e487b7160e01b600052603260045260246000fd5b60200260200101516113a0565b610d85565b848181518110610ce157634e487b7160e01b600052603260045260246000fd5b602002602001015160011415610d2357610cbc60008051602061460b833981519152878381518110610caf57634e487b7160e01b600052603260045260246000fd5b848181518110610d4357634e487b7160e01b600052603260045260246000fd5b602002602001015160021415610d8557610d8560008051602061466b833981519152878381518110610caf57634e487b7160e01b600052603260045260246000fd5b60006040518060800160405280600c548152602001898481518110610dba57634e487b7160e01b600052603260045260246000fd5b60200260200101518152602001888481518110610de757634e487b7160e01b600052603260045260246000fd5b60200260200101516001600160a01b03168152602001878481518110610e1d57634e487b7160e01b600052603260045260246000fd5b6020026020010151815250905080600b6000898581518110610e4f57634e487b7160e01b600052603260045260246000fd5b60200260200101516001600160a01b03166001600160a01b03168152602001908152602001600020600082015181600001556020820151816001019080519060200190610e9d929190613a00565b5060408201518160020160006101000a8154816001600160a01b0302191690836001600160a01b03160217905550606082015181600301559050506001600d6000898581518110610efe57634e487b7160e01b600052603260045260246000fd5b60200260200101516001600160a01b03166001600160a01b0316815260200190815260200160002060006101000a81548160ff021916908315150217905550600a878381518110610f5f57634e487b7160e01b600052603260045260246000fd5b60209081029190910181015182546001810184556000938452919092200180546001600160a01b0319166001600160a01b03909216919091179055865161100290889084908110610fc057634e487b7160e01b600052603260045260246000fd5b6020026020010151868685818110610fe857634e487b7160e01b600052603260045260246000fd5b90506020020135670de0b6b3a764000061075f919061450f565b6110375760405162461bcd60e51b815260206004820152600660248201526511985a5b195960d21b6044820152606401610b56565b5080611042816145c3565b915050610b62565b5060019695505050505050565b60608061106333612b21565b15156001146110ad5760405162461bcd60e51b81526020600482015260166024820152752932b9ba3934b1ba32b2103a379031b7b6b834b632b960511b6044820152606401610b56565b60006110b7610ab8565b11156111055760405162461bcd60e51b815260206004820152601960248201527f456c656374696f6e206973207374696c6c206f6e676f696e67000000000000006044820152606401610b56565b6018546000816001600160401b0381111561113057634e487b7160e01b600052604160045260246000fd5b604051908082528060200260200182016040528015611159578160200160208202803683370190505b5090506000826001600160401b0381111561118457634e487b7160e01b600052604160045260246000fd5b6040519080825280602002602001820160405280156111ad578160200160208202803683370190505b50905060005b838110156112a957601881815481106111dc57634e487b7160e01b600052603260045260246000fd5b600091825260209091206002909102015483516001600160a01b039091169084908390811061121b57634e487b7160e01b600052603260045260246000fd5b60200260200101906001600160a01b031690816001600160a01b0316815250506018818154811061125c57634e487b7160e01b600052603260045260246000fd5b90600052602060002090600202016001015482828151811061128e57634e487b7160e01b600052603260045260246000fd5b60209081029190910101526112a2816145c3565b90506111b3565b509093509150509091565b6000336112c285828561364f565b6112cd8585856136e1565b506001949350505050565b60006109eb8183611be6565b601781815481106112f457600080fd5b906000526020600020906002020160009150905080600001805461131790614588565b80601f016020809104026020016040519081016040528092919081815260200182805461134390614588565b80156113905780601f1061136557610100808354040283529160200191611390565b820191906000526020600020905b81548152906001019060200180831161137357829003601f168201915b5050505050908060010154905082565b6000828152600560205260409020600101546113bc81336138af565b6113c68383613913565b505050565b6001600160a01b038116331461143b5760405162461bcd60e51b815260206004820152602f60248201527f416363657373436f6e74726f6c3a2063616e206f6e6c792072656e6f756e636560448201526e103937b632b9903337b91039b2b63360891b6064820152608401610b56565b6114458282613999565b5050565b60006109eb60008051602061462b83398151915283611be6565b3360008181526001602090815260408083206001600160a01b0387168452909152812054909190610aae908290869061149d9087906144f7565b61352b565b6114ab33611449565b6114c75760405162461bcd60e51b8152600401610b56906143f2565b601482826040516114d9929190614240565b9081526040519081900360200190205460ff16151560011461153d5760405162461bcd60e51b815260206004820152601760248201527f43617465676f727920646f6573206e6f742065786973740000000000000000006044820152606401610b56565b6014828260405161154f929190614240565b908152604051908190036020018120805460ff19169055601f906115769084908490614240565b9081526020016040518091039020600090555050565b60175460609081906000816001600160401b038111156115bc57634e487b7160e01b600052604160045260246000fd5b6040519080825280602002602001820160405280156115ef57816020015b60608152602001906001900390816115da5790505b5090506000826001600160401b0381111561161a57634e487b7160e01b600052604160045260246000fd5b604051908082528060200260200182016040528015611643578160200160208202803683370190505b50905060005b838110156112a9576017818154811061167257634e487b7160e01b600052603260045260246000fd5b9060005260206000209060020201600001805461168e90614588565b80601f01602080910402602001604051908101604052809291908181526020018280546116ba90614588565b80156117075780601f106116dc57610100808354040283529160200191611707565b820191906000526020600020905b8154815290600101906020018083116116ea57829003601f168201915b505050505083828151811061172c57634e487b7160e01b600052603260045260246000fd5b60200260200101819052506017818154811061175857634e487b7160e01b600052603260045260246000fd5b90600052602060002090600202016001015482828151811061178a57634e487b7160e01b600052603260045260246000fd5b602090810291909101015261179e816145c3565b9050611649565b60006117b033611449565b6117cc5760405162461bcd60e51b8152600401610b56906143f2565b60005b600a548110156112cd5760006001600160a01b0316600a828154811061180557634e487b7160e01b600052603260045260246000fd5b6000918252602090912001546001600160a01b0316141561185a5760405162461bcd60e51b815260206004820152600f60248201526e496e76616c6964204164647265737360881b6044820152606401610b56565b600a5460c810156118b95760405162461bcd60e51b8152602060048201526024808201527f65786365656473206e756d626572206f6620616c6c6f776564206164647265736044820152637365737360e01b6064820152608401610b56565b6000600a82815481106118dc57634e487b7160e01b600052603260045260246000fd5b6000918252602090912001546001600160a01b031690506118fc81611a64565b1515600114156119225761191c8161075f88670de0b6b3a764000061450f565b50611976565b61192b816125f3565b15156001141561194b5761191c8161075f87670de0b6b3a764000061450f565b61195481611a7e565b151560011415611976576119748161075f86670de0b6b3a764000061450f565b505b50611980816145c3565b90506117cf565b61199033611449565b6119ac5760405162461bcd60e51b8152600401610b56906143f2565b4260118190556119bc90826144f7565b60125550565b601881815481106119d257600080fd5b6000918252602090912060029091020180546001909101546001600160a01b03909116915082565b611a0333611449565b611a1f5760405162461bcd60e51b8152600401610b56906143f2565b42600e819055611a2f90826144f7565b600f55600e546040518291907fda870243975052b3d3e838194b621c54d402811f23ff59f9a2fe42bd132317cd90600090a350565b60006109eb60008051602061464b83398151915283611be6565b60006109eb60008051602061466b83398151915283611be6565b601b6020526000908152604090208054600182018054919291611aba90614588565b80601f0160208091040260200160405190810160405280929190818152602001828054611ae690614588565b8015611b335780601f10611b0857610100808354040283529160200191611b33565b820191906000526020600020905b815481529060010190602001808311611b1657829003601f168201915b505050600284015460038501805494956001600160a01b03909216949193509150611b5d90614588565b80601f0160208091040260200160405190810160405280929190818152602001828054611b8990614588565b8015611bd65780601f10611bab57610100808354040283529160200191611bd6565b820191906000526020600020905b815481529060010190602001808311611bb957829003601f168201915b5050505050908060040154905085565b60009182526005602090815260408084206001600160a01b0393909316845291905290205460ff1690565b601654606090819081906000816001600160401b03811115611c4357634e487b7160e01b600052604160045260246000fd5b604051908082528060200260200182016040528015611c7657816020015b6060815260200190600190039081611c615790505b5090506000826001600160401b03811115611ca157634e487b7160e01b600052604160045260246000fd5b604051908082528060200260200182016040528015611cca578160200160208202803683370190505b5090506000836001600160401b03811115611cf557634e487b7160e01b600052604160045260246000fd5b604051908082528060200260200182016040528015611d2857816020015b6060815260200190600190039081611d135790505b50905060005b84811015611f995760168181548110611d5757634e487b7160e01b600052603260045260246000fd5b90600052602060002090600302016000018054611d7390614588565b80601f0160208091040260200160405190810160405280929190818152602001828054611d9f90614588565b8015611dec5780601f10611dc157610100808354040283529160200191611dec565b820191906000526020600020905b815481529060010190602001808311611dcf57829003601f168201915b5050505050848281518110611e1157634e487b7160e01b600052603260045260246000fd5b602002602001018190525060168181548110611e3d57634e487b7160e01b600052603260045260246000fd5b906000526020600020906003020160010160009054906101000a90046001600160a01b0316838281518110611e8257634e487b7160e01b600052603260045260246000fd5b60200260200101906001600160a01b031690816001600160a01b03168152505060168181548110611ec357634e487b7160e01b600052603260045260246000fd5b90600052602060002090600302016002018054611edf90614588565b80601f0160208091040260200160405190810160405280929190818152602001828054611f0b90614588565b8015611f585780601f10611f2d57610100808354040283529160200191611f58565b820191906000526020600020905b815481529060010190602001808311611f3b57829003601f168201915b5050505050828281518110611f7d57634e487b7160e01b600052603260045260246000fd5b602002602001018190525080611f92906145c3565b9050611d2e565b509196909550909350915050565b606060048054610a1d90614588565b611fbf33611449565b611fdb5760405162461bcd60e51b8152600401610b56906143f2565b6040805160606020601f8601819004028201810183529181018481526017928291908790879081908501838280828437600092018290525093855250505060209182018590528354600181018555938152819020825180519394600202909101926120499284920190613a00565b5060208201518160010155505060016014848460405161206a929190614240565b908152604051908190036020018120805492151560ff19909316929092179091558190601f9061209d9086908690614240565b90815260405190819003602001902055505050565b336000908152600d602052604090205460ff1615156001146121165760405162461bcd60e51b815260206004820152601a60248201527f4f6e6c792061207374616b65686f6c64657220646f20746869730000000000006044820152606401610b56565b61211e612f87565b151560011461216f5760405162461bcd60e51b815260206004820152601760248201527f456c656374696f6e206861736e277420737461727465640000000000000000006044820152606401610b56565b60148282604051612181929190614240565b9081526040519081900360200190205460ff1615156001146121db5760405162461bcd60e51b81526020600482015260136024820152723b37ba34b733903430b9b713ba103132b3bab760691b6044820152606401610b56565b60006121e5610ab8565b116122255760405162461bcd60e51b815260206004820152601060248201526f159bdd1a5b99c81a185cc8195b99195960821b6044820152606401610b56565b336000908152601960205260409081902090516122459084908490614240565b9081526040519081900360200190205460ff16156122955760405162461bcd60e51b815260206004820152600d60248201526c185b1c9958591e481d9bdd1959609a1b6044820152606401610b56565b6001600160a01b0383166000908152601d60205260409081902090516122be9084908490614240565b9081526040519081900360200190205460ff1615156001146123225760405162461bcd60e51b815260206004820152601860248201527f61646472657373206e6f74206120636f6e74657374616e7400000000000000006044820152606401610b56565b33600090815260196020526040908190209051600191906123469085908590614240565b9081526040805160209281900383018120805460ff1916941515949094179093553360009081526019909252902084916123839085908590614240565b90815260408051602092819003830190208054610100600160a81b0319166101006001600160a01b03958616021790559185166000908152601b90915290812060040180546001919083906123d99084906144f7565b91829055506001600160a01b0386166000818152601b602052604090206002810180546001600160a01b031916909217909155909250859150612420906003018585613a84565b50601a805460018181019092557f057c384a7d1c54f3a1b2e5e67b2617b8224fdfd1ea7234eea573a6ff665ff63e0180546001600160a01b038089166001600160a01b031992831617909255604080518082018252858416815260208101878152601880549687018155600052905160029095027fb13d2d76d1f4b7be834882e410b3e3a8afaf69f83600ae24db354391d2378d2e8101805496909516959093169490941790925591517fb13d2d76d1f4b7be834882e410b3e3a8afaf69f83600ae24db354391d2378d2f90920191909155517fcb6783276e8a4347387036bbfea000268f0a4b1f8c46ac79980609f2af8d2acd90612524908790879087906142c5565b60405180910390a15050505050565b3360008181526001602090815260408083206001600160a01b0387168452909152812054909190838110156125b85760405162461bcd60e51b815260206004820152602560248201527f45524332303a2064656372656173656420616c6c6f77616e63652062656c6f77604482015264207a65726f60d81b6064820152608401610b56565b6112cd828686840361352b565b60004260125410156125d75750600090565b42601254610ad8919061452e565b600033610aae8185856136e1565b60006109eb60008051602061460b83398151915283611be6565b336000908152600d602052604081205460ff1615156001146126715760405162461bcd60e51b815260206004820152601a60248201527f4f6e6c792061207374616b65686f6c64657220646f20746869730000000000006044820152606401610b56565b600061267b6125c5565b116126b25760405162461bcd60e51b8152602060048201526007602482015266074696d652075760cc1b6044820152606401610b56565b601483836040516126c4929190614240565b9081526040519081900360200190205460ff16151560011461271b5760405162461bcd60e51b815260206004820152601060248201526f18d85d1959dbdc9e481a5b9d985b1a5960821b6044820152606401610b56565b601f838360405161272d929190614240565b908152604080516020928190038301902054336000908152600b909352912060030154146127965760405162461bcd60e51b8152602060048201526016602482015275125b995b1b1a59da589b19481d1bc818dbdb9d195cdd60521b6044820152606401610b56565b336127d55760405162461bcd60e51b815260206004820152600f60248201526e696e76616c6964206164647265737360881b6044820152606401610b56565b336000908152601d60205260409081902090516127f59085908590614240565b9081526040519081900360200190205460ff16156128655760405162461bcd60e51b815260206004820152602760248201527f416c72656164792073686f776e20696e74657265737420696e2074686973207060448201526637b9b4ba34b7b760c91b6064820152608401610b56565b601c8054906000612875836145c3565b91905055506040518060a00160405280601c54815260200186868080601f0160208091040260200160405190810160405280939291908181526020018383808284376000920191909152505050908252503360208083019190915260408051601f8701839004830281018301825286815292019190869086908190840183828082843760009201829052509385525050506020918201819052338152601b82526040902082518155828201518051919261293792600185019290910190613a00565b5060408201516002820180546001600160a01b0319166001600160a01b0390921691909117905560608201518051612979916003840191602090910190613a00565b5060809190910151600490910155336000908152601d6020526040908190209051600191906129ab9086908690614240565b908152604080519182900360209081018320805494151560ff19909516949094179093556080601f88018490049093028201830190526060810186815260169282919089908990819085018382808284376000920191909152505050908252503360208083019190915260408051601f880183900483028101830182528781529201919087908790819084018382808284376000920182905250939094525050835460018101855593815260209081902083518051949560030290910193612a7a935084929190910190613a00565b506020828101516001830180546001600160a01b0319166001600160a01b0390921691909117905560408301518051612ab99260028501920190613a00565b5050508282604051612acc929190614240565b604051908190038120903390612ae59088908890614240565b604051908190038120907f03cba2e3c98e48e887437eb5582401c40ffdd3070907507b31010a0630eac22390600090a450601c54949350505050565b6000612b3b60008051602061462b83398151915283611be6565b80612b595750612b5960008051602061464b83398151915283611be6565b80612b775750612b7760008051602061460b83398151915283611be6565b15612b8457506001919050565b506000919050565b919050565b600b6020526000908152604090208054600182018054919291612bb390614588565b80601f0160208091040260200160405190810160405280929190818152602001828054612bdf90614588565b8015612c2c5780601f10612c0157610100808354040283529160200191612c2c565b820191906000526020600020905b815481529060010190602001808311612c0f57829003601f168201915b50505050600283015460039093015491926001600160a01b031691905084565b6000612c5733611449565b612c735760405162461bcd60e51b8152600401610b56906143f2565b6001600160a01b0382166000908152600d602052604090205460ff161515600114612cd45760405162461bcd60e51b81526020600482015260116024820152702737ba10309039ba30b5b2b437b63232b960791b6044820152606401610b56565b612cdd82612b21565b1515600114612d1d5760405162461bcd60e51b815260206004820152600c60248201526b6e6f7420656c696769626c6560a01b6044820152606401610b56565b612d2682611a7e565b15612d6b5760405162461bcd60e51b815260206004820152601560248201527420556e617574686f7269736564206164647265737360581b6044820152606401610b56565b6001600160a01b038216612db35760405162461bcd60e51b815260206004820152600f60248201526e496e76616c6964206164647265737360881b6044820152606401610b56565b612dcb60008051602061462b833981519152836113a0565b6040516001600160a01b0383169033907f7178dca5d575a32af7e1a16c7ae7fed6dd17b8fc714643a1cc3715e498531aba90600090a3506001919050565b600082815260056020526040902060010154612e2581336138af565b6113c68383613999565b336000908152600d60205260408120546060908290819060ff161515600114612e8e5760405162461bcd60e51b81526020600482015260116024820152702737ba10309039ba30b5b2b437b63232b960791b6044820152606401610b56565b336000908152600b60209081526040808320815160808101909252805482526001810180549293919291840191612ec490614588565b80601f0160208091040260200160405190810160405280929190818152602001828054612ef090614588565b8015612f3d5780601f10612f1257610100808354040283529160200191612f3d565b820191906000526020600020905b815481529060010190602001808311612f2057829003601f168201915b505050918352505060028201546001600160a01b03166020808301919091526003909201546040918201528251918301519083015160609093015191989097509195509350915050565b6000806109fc610ab8565b60168181548110612fa257600080fd5b9060005260206000209060030201600091509050806000018054612fc590614588565b80601f0160208091040260200160405190810160405280929190818152602001828054612ff190614588565b801561303e5780601f106130135761010080835404028352916020019161303e565b820191906000526020600020905b81548152906001019060200180831161302157829003601f168201915b505050600184015460028501805494956001600160a01b0390921694919350915061306890614588565b80601f016020809104026020016040519081016040528092919081815260200182805461309490614588565b80156130e15780601f106130b6576101008083540402835291602001916130e1565b820191906000526020600020905b8154815290600101906020018083116130c457829003601f168201915b5050505050905083565b600a8181548110610aed57600080fd5b60608061310733611449565b6131235760405162461bcd60e51b8152600401610b56906143f2565b601e805460ff19166001179055613138611057565b915091509091565b61314933611449565b6131655760405162461bcd60e51b8152600401610b56906143f2565b6001600160a01b0382166000908152600d602052604090205460ff16156131dc5760405162461bcd60e51b815260206004820152602560248201527f54686973206164647265737320697320616c72656164792061207374616b656860448201526437b63232b960d91b6064820152608401610b56565b600c80549060006131ec836145c3565b9091555050806132135761320e60008051602061464b833981519152836113a0565b613255565b80600114156132345761320e60008051602061460b833981519152836113a0565b80600214156132555761325560008051602061466b833981519152836113a0565b60408051608081018252600c54815260208082018681526001600160a01b038616838501819052606084018690526000908152600b83529390932082518155925180519293849390926132af926001850192910190613a00565b506040828101516002830180546001600160a01b039283166001600160a01b03199182161790915560609094015160039093019290925594166000818152600d602052948520805460ff19166001908117909155600a805491820181559095527fc65a7bb8d6351c1cf70c95a316cc6a92839c986682d98bc35f958f4883f9d2a89094018054909116909317909255505050565b6060600061335283600261450f565b61335d9060026144f7565b6001600160401b0381111561338257634e487b7160e01b600052604160045260246000fd5b6040519080825280601f01601f1916602001820160405280156133ac576020820181803683370190505b509050600360fc1b816000815181106133d557634e487b7160e01b600052603260045260246000fd5b60200101906001600160f81b031916908160001a905350600f60fb1b8160018151811061341257634e487b7160e01b600052603260045260246000fd5b60200101906001600160f81b031916908160001a905350600061343684600261450f565b6134419060016144f7565b90505b60018111156134d5576f181899199a1a9b1b9c1cb0b131b232b360811b85600f166010811061348357634e487b7160e01b600052603260045260246000fd5b1a60f81b8282815181106134a757634e487b7160e01b600052603260045260246000fd5b60200101906001600160f81b031916908160001a90535060049490941c936134ce81614571565b9050613444565b5083156135245760405162461bcd60e51b815260206004820181905260248201527f537472696e67733a20686578206c656e67746820696e73756666696369656e746044820152606401610b56565b9392505050565b6001600160a01b03831661358d5760405162461bcd60e51b8152602060048201526024808201527f45524332303a20617070726f76652066726f6d20746865207a65726f206164646044820152637265737360e01b6064820152608401610b56565b6001600160a01b0382166135ee5760405162461bcd60e51b815260206004820152602260248201527f45524332303a20617070726f766520746f20746865207a65726f206164647265604482015261737360f01b6064820152608401610b56565b6001600160a01b0383811660008181526001602090815260408083209487168084529482529182902085905590518481527f8c5be1e5ebec7d5bd14f71427d1e84f3dd0314c0f7b2291e5b200ac8c7c3b925910160405180910390a3505050565b6001600160a01b0383811660009081526001602090815260408083209386168352929052205460001981146136db57818110156136ce5760405162461bcd60e51b815260206004820152601d60248201527f45524332303a20696e73756666696369656e7420616c6c6f77616e63650000006044820152606401610b56565b6136db848484840361352b565b50505050565b6001600160a01b0383166137455760405162461bcd60e51b815260206004820152602560248201527f45524332303a207472616e736665722066726f6d20746865207a65726f206164604482015264647265737360d81b6064820152608401610b56565b6001600160a01b0382166137a75760405162461bcd60e51b815260206004820152602360248201527f45524332303a207472616e7366657220746f20746865207a65726f206164647260448201526265737360e81b6064820152608401610b56565b6001600160a01b0383166000908152602081905260409020548181101561381f5760405162461bcd60e51b815260206004820152602660248201527f45524332303a207472616e7366657220616d6f756e7420657863656564732062604482015265616c616e636560d01b6064820152608401610b56565b6001600160a01b038085166000908152602081905260408082208585039055918516815290812080548492906138569084906144f7565b92505081905550826001600160a01b0316846001600160a01b03167fddf252ad1be2c89b69c2b068fc378daa952ba7f163c4a11628f55a4df523b3ef846040516138a291815260200190565b60405180910390a36136db565b6138b98282611be6565b611445576138d1816001600160a01b03166014613343565b6138dc836020613343565b6040516020016138ed929190614250565b60408051601f198184030181529082905262461bcd60e51b8252610b5691600401614389565b61391d8282611be6565b6114455760008281526005602090815260408083206001600160a01b03851684529091529020805460ff191660011790556139553390565b6001600160a01b0316816001600160a01b0316837f2f8788117e7eff1d82e926ec794901d17c78024a50270940304540a733656f0d60405160405180910390a45050565b6139a38282611be6565b156114455760008281526005602090815260408083206001600160a01b0385168085529252808320805460ff1916905551339285917ff6391f5c32d9c69d2a47ea670b442974b53935d1edc7fd64eb21e047a839171b9190a45050565b828054613a0c90614588565b90600052602060002090601f016020900481019282613a2e5760008555613a74565b82601f10613a4757805160ff1916838001178555613a74565b82800160010185558215613a74579182015b82811115613a74578251825591602001919060010190613a59565b50613a80929150613af8565b5090565b828054613a9090614588565b90600052602060002090601f016020900481019282613ab25760008555613a74565b82601f10613acb5782800160ff19823516178555613a74565b82800160010185558215613a74579182015b82811115613a74578235825591602001919060010190613add565b5b80821115613a805760008155600101613af9565b80356001600160a01b0381168114612b8c57600080fd5b600082601f830112613b34578081fd5b81356020613b49613b44836144d4565b6144a4565b80838252828201915082860187848660051b8901011115613b68578586fd5b855b85811015613b8d57613b7b82613b0d565b84529284019290840190600101613b6a565b5090979650505050505050565b60008083601f840112613bab578182fd5b5081356001600160401b03811115613bc1578182fd5b6020830191508360208260051b8501011115613bdc57600080fd5b9250929050565b600082601f830112613bf3578081fd5b81356020613c03613b44836144d4565b80838252828201915082860187848660051b8901011115613c22578586fd5b855b85811015613b8d57813584529284019290840190600101613c24565b60008083601f840112613c51578182fd5b5081356001600160401b03811115613c67578182fd5b602083019150836020828501011115613bdc57600080fd5b600082601f830112613c8f578081fd5b81356001600160401b03811115613ca857613ca86145f4565b613cbb601f8201601f19166020016144a4565b818152846020838601011115613ccf578283fd5b816020850160208301379081016020019190915292915050565b600060208284031215613cfa578081fd5b61352482613b0d565b60008060408385031215613d15578081fd5b613d1e83613b0d565b9150613d2c60208401613b0d565b90509250929050565b600080600060608486031215613d49578081fd5b613d5284613b0d565b9250613d6060208501613b0d565b9150604084013590509250925092565b600080600060408486031215613d84578283fd5b613d8d84613b0d565b925060208401356001600160401b03811115613da7578283fd5b613db386828701613c40565b9497909650939450505050565b60008060408385031215613dd2578182fd5b613ddb83613b0d565b915060208301356001600160401b03811115613df5578182fd5b613e0185828601613c7f565b9150509250929050565b60008060408385031215613e1d578182fd5b613e2683613b0d565b946020939093013593505050565b600080600080600060808688031215613e4b578081fd5b85356001600160401b0380821115613e61578283fd5b818801915088601f830112613e74578283fd5b81356020613e84613b44836144d4565b8083825282820191508286018d848660051b8901011115613ea3578788fd5b875b85811015613edb578682351115613eba578889fd5b613ec98f8684358b0101613c7f565b84529284019290840190600101613ea5565b50909a50505089013592505080821115613ef3578283fd5b613eff89838a01613b24565b95506040880135915080821115613f14578283fd5b613f2089838a01613be3565b94506060880135915080821115613f35578283fd5b50613f4288828901613b9a565b969995985093965092949392505050565b600060208284031215613f64578081fd5b5035919050565b60008060408385031215613f7d578182fd5b82359150613d2c60208401613b0d565b600060208284031215613f9e578081fd5b81356001600160e01b031981168114613524578182fd5b60008060208385031215613fc7578182fd5b82356001600160401b03811115613fdc578283fd5b613fe885828601613c40565b90969095509350505050565b60008060008060408587031215614009578182fd5b84356001600160401b038082111561401f578384fd5b61402b88838901613c40565b90965094506020870135915080821115614043578384fd5b5061405087828801613c40565b95989497509550505050565b600080600060408486031215614070578081fd5b83356001600160401b03811115614085578182fd5b61409186828701613c40565b909790965060209590950135949350505050565b6000602082840312156140b6578081fd5b81356001600160401b038111156140cb578182fd5b6140d784828501613c7f565b949350505050565b6000806000606084860312156140f3578081fd5b83356001600160401b03811115614108578182fd5b61411486828701613c7f565b935050613d6060208501613b0d565b600080600060608486031215614137578081fd5b505081359360208301359350604090920135919050565b6000815180845260208085019450808401835b838110156141865781516001600160a01b031687529582019590820190600101614161565b509495945050505050565b600081518084526020808501808196508360051b81019150828601855b858110156141d85782840389526141c6848351614214565b988501989350908401906001016141ae565b5091979650505050505050565b6000815180845260208085019450808401835b83811015614186578151875295820195908201906001016141f8565b6000815180845261422c816020860160208601614545565b601f01601f19169290920160200192915050565b8183823760009101908152919050565b7f416363657373436f6e74726f6c3a206163636f756e7420000000000000000000815260008351614288816017850160208801614545565b7001034b99036b4b9b9b4b733903937b6329607d1b60179184019182015283516142b9816028840160208801614545565b01602801949350505050565b6001600160a01b03841681526040602082018190528101829052818360608301376000818301606090810191909152601f909201601f1916010192915050565b604081526000614318604083018561414e565b828103602084015261432a81856141e5565b95945050505050565b6060815260006143466060830186614191565b8281036020840152614358818661414e565b9050828103604084015261436c8185614191565b9695505050505050565b6040815260006143186040830185614191565b6020815260006135246020830184614214565b6060815260006143af6060830186614214565b6001600160a01b0385166020840152828103604084015261436c8185614214565b6040815260006143e36040830185614214565b90508260208301529392505050565b6020808252601690820152752932b9ba3934b1ba32b2103a379031b430b4b936b0b760511b604082015260600190565b85815260a06020820152600061443b60a0830187614214565b6001600160a01b0386166040840152828103606084015261445c8186614214565b9150508260808301529695505050505050565b8481526080602082015260006144886080830186614214565b6001600160a01b03949094166040830152506060015292915050565b604051601f8201601f191681016001600160401b03811182821017156144cc576144cc6145f4565b604052919050565b60006001600160401b038211156144ed576144ed6145f4565b5060051b60200190565b6000821982111561450a5761450a6145de565b500190565b6000816000190483118215151615614529576145296145de565b500290565b600082821015614540576145406145de565b500390565b60005b83811015614560578181015183820152602001614548565b838111156136db5750506000910152565b600081614580576145806145de565b506000190190565b600181811c9082168061459c57607f821691505b602082108114156145bd57634e487b7160e01b600052602260045260246000fd5b50919050565b60006000198214156145d7576145d76145de565b5060010190565b634e487b7160e01b600052601160045260246000fd5b634e487b7160e01b600052604160045260246000fdfe534b5b9fe29299d99ea2855da6940643d68ed225db268dc8d86c1f38df5de7945778c2f7d924e55986d549d645f53119b71708389fc2011260c8a657c569fcaa2d2faaed8c23be685754c2c857d2b54442ae50d4706ce4165904c05bfc05c45fc951d7098b66ba0b8b77265b6e9cf0e187d73125a42bcd0061b09a68be421810a26469706673582212207c475f305098358b22cae42bc910537281792596383039080101741bac106b2a64736f6c634300080400335778c2f7d924e55986d549d645f53119b71708389fc2011260c8a657c569fcaa",
  "linkReferences": {},
  "deployedLinkReferences": {}
}