{
  "_format": "hh-sol-artifact-1",
  "contractName": "Election",
  "sourceName": "contracts/Election.sol",
  "abi": [
    {
      "anonymous": false,
      "inputs": [
        {
          "indexed": true,
          "internalType": "address",
          "name": "owner",
          "type": "address"
        },
        {
          "indexed": true,
          "internalType": "address",
          "name": "spender",
          "type": "address"
        },
        {
          "indexed": false,
          "internalType": "uint256",
          "name": "value",
          "type": "uint256"
        }
      ],
      "name": "Approval",
      "type": "event"
    },
    {
      "anonymous": false,
      "inputs": [
        {
          "indexed": true,
          "internalType": "string",
          "name": "name",
          "type": "string"
        },
        {
          "indexed": true,
          "internalType": "address",
          "name": "contestant",
          "type": "address"
        },
        {
          "indexed": true,
          "internalType": "string",
          "name": "category",
          "type": "string"
        }
      ],
      "name": "Contest",
      "type": "event"
    },
    {
      "anonymous": false,
      "inputs": [
        {
          "indexed": true,
          "internalType": "address",
          "name": "to",
          "type": "address"
        }
      ],
      "name": "DelegateChairman",
      "type": "event"
    },
    {
      "anonymous": false,
      "inputs": [
        {
          "indexed": true,
          "internalType": "uint256",
          "name": "start",
          "type": "uint256"
        },
        {
          "indexed": true,
          "internalType": "uint256",
          "name": "duration",
          "type": "uint256"
        }
      ],
      "name": "ElectionEvent",
      "type": "event"
    },
    {
      "anonymous": false,
      "inputs": [
        {
          "indexed": true,
          "internalType": "bytes32",
          "name": "role",
          "type": "bytes32"
        },
        {
          "indexed": true,
          "internalType": "bytes32",
          "name": "previousAdminRole",
          "type": "bytes32"
        },
        {
          "indexed": true,
          "internalType": "bytes32",
          "name": "newAdminRole",
          "type": "bytes32"
        }
      ],
      "name": "RoleAdminChanged",
      "type": "event"
    },
    {
      "anonymous": false,
      "inputs": [
        {
          "indexed": true,
          "internalType": "bytes32",
          "name": "role",
          "type": "bytes32"
        },
        {
          "indexed": true,
          "internalType": "address",
          "name": "account",
          "type": "address"
        },
        {
          "indexed": true,
          "internalType": "address",
          "name": "sender",
          "type": "address"
        }
      ],
      "name": "RoleGranted",
      "type": "event"
    },
    {
      "anonymous": false,
      "inputs": [
        {
          "indexed": true,
          "internalType": "bytes32",
          "name": "role",
          "type": "bytes32"
        },
        {
          "indexed": true,
          "internalType": "address",
          "name": "account",
          "type": "address"
        },
        {
          "indexed": true,
          "internalType": "address",
          "name": "sender",
          "type": "address"
        }
      ],
      "name": "RoleRevoked",
      "type": "event"
    },
    {
      "anonymous": false,
      "inputs": [
        {
          "indexed": true,
          "internalType": "address",
          "name": "from",
          "type": "address"
        },
        {
          "indexed": true,
          "internalType": "address",
          "name": "to",
          "type": "address"
        },
        {
          "indexed": false,
          "internalType": "uint256",
          "name": "value",
          "type": "uint256"
        }
      ],
      "name": "Transfer",
      "type": "event"
    },
    {
      "anonymous": false,
      "inputs": [
        {
          "indexed": false,
          "internalType": "address",
          "name": "voteChoice",
          "type": "address"
        },
        {
          "indexed": false,
          "internalType": "string",
          "name": "Category",
          "type": "string"
        }
      ],
      "name": "Voted",
      "type": "event"
    },
    {
      "inputs": [],
      "name": "BOARD_MEMBER_ROLE",
      "outputs": [
        {
          "internalType": "bytes32",
          "name": "",
          "type": "bytes32"
        }
      ],
      "stateMutability": "view",
      "type": "function"
    },
    {
      "inputs": [],
      "name": "CHAIRMAN_ROLE",
      "outputs": [
        {
          "internalType": "bytes32",
          "name": "",
          "type": "bytes32"
        }
      ],
      "stateMutability": "view",
      "type": "function"
    },
    {
      "inputs": [],
      "name": "DEFAULT_ADMIN_ROLE",
      "outputs": [
        {
          "internalType": "bytes32",
          "name": "",
          "type": "bytes32"
        }
      ],
      "stateMutability": "view",
      "type": "function"
    },
    {
      "inputs": [],
      "name": "STUDENT_ROLE",
      "outputs": [
        {
          "internalType": "bytes32",
          "name": "",
          "type": "bytes32"
        }
      ],
      "stateMutability": "view",
      "type": "function"
    },
    {
      "inputs": [],
      "name": "TEACHER_ROLE",
      "outputs": [
        {
          "internalType": "bytes32",
          "name": "",
          "type": "bytes32"
        }
      ],
      "stateMutability": "view",
      "type": "function"
    },
    {
      "inputs": [
        {
          "internalType": "string",
          "name": "_name",
          "type": "string"
        },
        {
          "internalType": "address",
          "name": "_holder",
          "type": "address"
        },
        {
          "internalType": "uint256",
          "name": "_role",
          "type": "uint256"
        }
      ],
      "name": "addStakeHolder",
      "outputs": [],
      "stateMutability": "nonpayable",
      "type": "function"
    },
    {
      "inputs": [
        {
          "internalType": "address",
          "name": "owner",
          "type": "address"
        },
        {
          "internalType": "address",
          "name": "spender",
          "type": "address"
        }
      ],
      "name": "allowance",
      "outputs": [
        {
          "internalType": "uint256",
          "name": "",
          "type": "uint256"
        }
      ],
      "stateMutability": "view",
      "type": "function"
    },
    {
      "inputs": [
        {
          "internalType": "address",
          "name": "spender",
          "type": "address"
        },
        {
          "internalType": "uint256",
          "name": "amount",
          "type": "uint256"
        }
      ],
      "name": "approve",
      "outputs": [
        {
          "internalType": "bool",
          "name": "",
          "type": "bool"
        }
      ],
      "stateMutability": "nonpayable",
      "type": "function"
    },
    {
      "inputs": [
        {
          "internalType": "address",
          "name": "account",
          "type": "address"
        }
      ],
      "name": "balanceOf",
      "outputs": [
        {
          "internalType": "uint256",
          "name": "",
          "type": "uint256"
        }
      ],
      "stateMutability": "view",
      "type": "function"
    },
    {
      "inputs": [
        {
          "internalType": "uint256",
          "name": "boardMemberAmount",
          "type": "uint256"
        },
        {
          "internalType": "uint256",
          "name": "teacherAmount",
          "type": "uint256"
        },
        {
          "internalType": "uint256",
          "name": "studentAmount",
          "type": "uint256"
        }
      ],
      "name": "batchTransferToExistingStakeholders",
      "outputs": [
        {
          "internalType": "bool",
          "name": "transfered",
          "type": "bool"
        }
      ],
      "stateMutability": "nonpayable",
      "type": "function"
    },
    {
      "inputs": [
        {
          "internalType": "string[]",
          "name": "_name",
          "type": "string[]"
        },
        {
          "internalType": "address[]",
          "name": "_holder",
          "type": "address[]"
        },
        {
          "internalType": "uint256[]",
          "name": "_role",
          "type": "uint256[]"
        },
        {
          "internalType": "uint256[]",
          "name": "_amounts",
          "type": "uint256[]"
        }
      ],
      "name": "batchTransferandAdd",
      "outputs": [
        {
          "internalType": "bool",
          "name": "",
          "type": "bool"
        }
      ],
      "stateMutability": "nonpayable",
      "type": "function"
    },
    {
      "inputs": [],
      "name": "canStillExpressInterest",
      "outputs": [
        {
          "internalType": "bool",
          "name": "",
          "type": "bool"
        }
      ],
      "stateMutability": "view",
      "type": "function"
    },
    {
      "inputs": [
        {
          "internalType": "address",
          "name": "",
          "type": "address"
        }
      ],
      "name": "candidates",
      "outputs": [
        {
          "internalType": "uint256",
          "name": "id",
          "type": "uint256"
        },
        {
          "internalType": "string",
          "name": "name",
          "type": "string"
        },
        {
          "internalType": "address",
          "name": "contestant",
          "type": "address"
        },
        {
          "internalType": "string",
          "name": "category",
          "type": "string"
        },
        {
          "internalType": "uint256",
          "name": "voteCount",
          "type": "uint256"
        }
      ],
      "stateMutability": "view",
      "type": "function"
    },
    {
      "inputs": [],
      "name": "candidatesCount",
      "outputs": [
        {
          "internalType": "uint256",
          "name": "",
          "type": "uint256"
        }
      ],
      "stateMutability": "view",
      "type": "function"
    },
    {
      "inputs": [
        {
          "internalType": "uint256",
          "name": "",
          "type": "uint256"
        }
      ],
      "name": "category",
      "outputs": [
        {
          "internalType": "string",
          "name": "name",
          "type": "string"
        },
        {
          "internalType": "uint256",
          "name": "role",
          "type": "uint256"
        }
      ],
      "stateMutability": "view",
      "type": "function"
    },
    {
      "inputs": [
        {
          "internalType": "string",
          "name": "",
          "type": "string"
        }
      ],
      "name": "categorySet",
      "outputs": [
        {
          "internalType": "bool",
          "name": "",
          "type": "bool"
        }
      ],
      "stateMutability": "view",
      "type": "function"
    },
    {
      "inputs": [],
      "name": "compileVotes",
      "outputs": [
        {
          "internalType": "address[]",
          "name": "",
          "type": "address[]"
        },
        {
          "internalType": "uint256[]",
          "name": "",
          "type": "uint256[]"
        }
      ],
      "stateMutability": "view",
      "type": "function"
    },
    {
      "inputs": [
        {
          "internalType": "uint256",
          "name": "",
          "type": "uint256"
        }
      ],
      "name": "contestants",
      "outputs": [
        {
          "internalType": "string",
          "name": "name",
          "type": "string"
        },
        {
          "internalType": "address",
          "name": "addr",
          "type": "address"
        },
        {
          "internalType": "string",
          "name": "category",
          "type": "string"
        }
      ],
      "stateMutability": "view",
      "type": "function"
    },
    {
      "inputs": [],
      "name": "decimals",
      "outputs": [
        {
          "internalType": "uint8",
          "name": "",
          "type": "uint8"
        }
      ],
      "stateMutability": "view",
      "type": "function"
    },
    {
      "inputs": [
        {
          "internalType": "address",
          "name": "spender",
          "type": "address"
        },
        {
          "internalType": "uint256",
          "name": "subtractedValue",
          "type": "uint256"
        }
      ],
      "name": "decreaseAllowance",
      "outputs": [
        {
          "internalType": "bool",
          "name": "",
          "type": "bool"
        }
      ],
      "stateMutability": "nonpayable",
      "type": "function"
    },
    {
      "inputs": [
        {
          "internalType": "string",
          "name": "_name",
          "type": "string"
        },
        {
          "internalType": "string",
          "name": "_category",
          "type": "string"
        }
      ],
      "name": "expressInterest",
      "outputs": [
        {
          "internalType": "uint256",
          "name": "",
          "type": "uint256"
        }
      ],
      "stateMutability": "nonpayable",
      "type": "function"
    },
    {
      "inputs": [],
      "name": "getContestantDetails",
      "outputs": [
        {
          "internalType": "string[]",
          "name": "",
          "type": "string[]"
        },
        {
          "internalType": "address[]",
          "name": "",
          "type": "address[]"
        },
        {
          "internalType": "string[]",
          "name": "",
          "type": "string[]"
        }
      ],
      "stateMutability": "view",
      "type": "function"
    },
    {
      "inputs": [],
      "name": "getCurrentCategory",
      "outputs": [
        {
          "internalType": "string[]",
          "name": "",
          "type": "string[]"
        },
        {
          "internalType": "uint256[]",
          "name": "roles",
          "type": "uint256[]"
        }
      ],
      "stateMutability": "view",
      "type": "function"
    },
    {
      "inputs": [
        {
          "internalType": "bytes32",
          "name": "role",
          "type": "bytes32"
        }
      ],
      "name": "getRoleAdmin",
      "outputs": [
        {
          "internalType": "bytes32",
          "name": "",
          "type": "bytes32"
        }
      ],
      "stateMutability": "view",
      "type": "function"
    },
    {
      "inputs": [],
      "name": "getStakeholderDetails",
      "outputs": [
        {
          "internalType": "uint256",
          "name": "id",
          "type": "uint256"
        },
        {
          "internalType": "string",
          "name": "name",
          "type": "string"
        },
        {
          "internalType": "address",
          "name": "holder",
          "type": "address"
        },
        {
          "internalType": "uint256",
          "name": "role",
          "type": "uint256"
        }
      ],
      "stateMutability": "view",
      "type": "function"
    },
    {
      "inputs": [
        {
          "internalType": "bytes32",
          "name": "role",
          "type": "bytes32"
        },
        {
          "internalType": "address",
          "name": "account",
          "type": "address"
        }
      ],
      "name": "grantRole",
      "outputs": [],
      "stateMutability": "nonpayable",
      "type": "function"
    },
    {
      "inputs": [
        {
          "internalType": "bytes32",
          "name": "role",
          "type": "bytes32"
        },
        {
          "internalType": "address",
          "name": "account",
          "type": "address"
        }
      ],
      "name": "hasRole",
      "outputs": [
        {
          "internalType": "bool",
          "name": "",
          "type": "bool"
        }
      ],
      "stateMutability": "view",
      "type": "function"
    },
    {
      "inputs": [
        {
          "internalType": "address",
          "name": "spender",
          "type": "address"
        },
        {
          "internalType": "uint256",
          "name": "addedValue",
          "type": "uint256"
        }
      ],
      "name": "increaseAllowance",
      "outputs": [
        {
          "internalType": "bool",
          "name": "",
          "type": "bool"
        }
      ],
      "stateMutability": "nonpayable",
      "type": "function"
    },
    {
      "inputs": [
        {
          "internalType": "address",
          "name": "account",
          "type": "address"
        }
      ],
      "name": "isAdmin",
      "outputs": [
        {
          "internalType": "bool",
          "name": "",
          "type": "bool"
        }
      ],
      "stateMutability": "view",
      "type": "function"
    },
    {
      "inputs": [
        {
          "internalType": "address",
          "name": "account",
          "type": "address"
        }
      ],
      "name": "isBoardMember",
      "outputs": [
        {
          "internalType": "bool",
          "name": "",
          "type": "bool"
        }
      ],
      "stateMutability": "view",
      "type": "function"
    },
    {
      "inputs": [
        {
          "internalType": "address",
          "name": "account",
          "type": "address"
        }
      ],
      "name": "isChairman",
      "outputs": [
        {
          "internalType": "bool",
          "name": "",
          "type": "bool"
        }
      ],
      "stateMutability": "view",
      "type": "function"
    },
    {
      "inputs": [
        {
          "internalType": "address",
          "name": "account",
          "type": "address"
        }
      ],
      "name": "isCompiler",
      "outputs": [
        {
          "internalType": "bool",
          "name": "",
          "type": "bool"
        }
      ],
      "stateMutability": "view",
      "type": "function"
    },
    {
      "inputs": [
        {
          "internalType": "address",
          "name": "",
          "type": "address"
        },
        {
          "internalType": "string",
          "name": "",
          "type": "string"
        }
      ],
      "name": "isContesting",
      "outputs": [
        {
          "internalType": "bool",
          "name": "",
          "type": "bool"
        }
      ],
      "stateMutability": "view",
      "type": "function"
    },
    {
      "inputs": [],
      "name": "isElectionOn",
      "outputs": [
        {
          "internalType": "bool",
          "name": "",
          "type": "bool"
        }
      ],
      "stateMutability": "view",
      "type": "function"
    },
    {
      "inputs": [],
      "name": "isResultAnnounced",
      "outputs": [
        {
          "internalType": "bool",
          "name": "",
          "type": "bool"
        }
      ],
      "stateMutability": "view",
      "type": "function"
    },
    {
      "inputs": [
        {
          "internalType": "address",
          "name": "account",
          "type": "address"
        }
      ],
      "name": "isStudent",
      "outputs": [
        {
          "internalType": "bool",
          "name": "",
          "type": "bool"
        }
      ],
      "stateMutability": "view",
      "type": "function"
    },
    {
      "inputs": [
        {
          "internalType": "address",
          "name": "account",
          "type": "address"
        }
      ],
      "name": "isTeacher",
      "outputs": [
        {
          "internalType": "bool",
          "name": "",
          "type": "bool"
        }
      ],
      "stateMutability": "view",
      "type": "function"
    },
    {
      "inputs": [],
      "name": "makeResultsPublic",
      "outputs": [
        {
          "internalType": "address[]",
          "name": "",
          "type": "address[]"
        },
        {
          "internalType": "uint256[]",
          "name": "",
          "type": "uint256[]"
        }
      ],
      "stateMutability": "nonpayable",
      "type": "function"
    },
    {
      "inputs": [],
      "name": "name",
      "outputs": [
        {
          "internalType": "string",
          "name": "",
          "type": "string"
        }
      ],
      "stateMutability": "view",
      "type": "function"
    },
    {
      "inputs": [
        {
          "internalType": "address",
          "name": "_candidate",
          "type": "address"
        },
        {
          "internalType": "string",
          "name": "_category",
          "type": "string"
        }
      ],
      "name": "placeVote",
      "outputs": [],
      "stateMutability": "nonpayable",
      "type": "function"
    },
    {
      "inputs": [
        {
          "internalType": "bytes32",
          "name": "role",
          "type": "bytes32"
        },
        {
          "internalType": "address",
          "name": "account",
          "type": "address"
        }
      ],
      "name": "renounceRole",
      "outputs": [],
      "stateMutability": "nonpayable",
      "type": "function"
    },
    {
      "inputs": [
        {
          "internalType": "string",
          "name": "_category",
          "type": "string"
        }
      ],
      "name": "resetVotingCategory",
      "outputs": [],
      "stateMutability": "nonpayable",
      "type": "function"
    },
    {
      "inputs": [
        {
          "internalType": "bytes32",
          "name": "role",
          "type": "bytes32"
        },
        {
          "internalType": "address",
          "name": "account",
          "type": "address"
        }
      ],
      "name": "revokeRole",
      "outputs": [],
      "stateMutability": "nonpayable",
      "type": "function"
    },
    {
      "inputs": [
        {
          "internalType": "string",
          "name": "",
          "type": "string"
        }
      ],
      "name": "roleEligible",
      "outputs": [
        {
          "internalType": "uint256",
          "name": "",
          "type": "uint256"
        }
      ],
      "stateMutability": "view",
      "type": "function"
    },
    {
      "inputs": [
        {
          "internalType": "uint256",
          "name": "",
          "type": "uint256"
        }
      ],
      "name": "runnerUps",
      "outputs": [
        {
          "internalType": "address",
          "name": "contestantAddr",
          "type": "address"
        },
        {
          "internalType": "uint256",
          "name": "contestantVoteCount",
          "type": "uint256"
        }
      ],
      "stateMutability": "view",
      "type": "function"
    },
    {
      "inputs": [
        {
          "internalType": "string",
          "name": "_category",
          "type": "string"
        },
        {
          "internalType": "uint256",
          "name": "_roleEligible",
          "type": "uint256"
        }
      ],
      "name": "setVotingCategory",
      "outputs": [],
      "stateMutability": "nonpayable",
      "type": "function"
    },
    {
      "inputs": [
        {
          "internalType": "address",
          "name": "",
          "type": "address"
        }
      ],
      "name": "stakeHolderExists",
      "outputs": [
        {
          "internalType": "bool",
          "name": "",
          "type": "bool"
        }
      ],
      "stateMutability": "view",
      "type": "function"
    },
    {
      "inputs": [],
      "name": "stakeHoldersCount",
      "outputs": [
        {
          "internalType": "uint256",
          "name": "",
          "type": "uint256"
        }
      ],
      "stateMutability": "view",
      "type": "function"
    },
    {
      "inputs": [
        {
          "internalType": "uint256",
          "name": "",
          "type": "uint256"
        }
      ],
      "name": "stakeholderList",
      "outputs": [
        {
          "internalType": "address",
          "name": "",
          "type": "address"
        }
      ],
      "stateMutability": "view",
      "type": "function"
    },
    {
      "inputs": [
        {
          "internalType": "address",
          "name": "",
          "type": "address"
        }
      ],
      "name": "stakeholders",
      "outputs": [
        {
          "internalType": "uint256",
          "name": "id",
          "type": "uint256"
        },
        {
          "internalType": "string",
          "name": "name",
          "type": "string"
        },
        {
          "internalType": "address",
          "name": "holder",
          "type": "address"
        },
        {
          "internalType": "uint256",
          "name": "role",
          "type": "uint256"
        }
      ],
      "stateMutability": "view",
      "type": "function"
    },
    {
      "inputs": [
        {
          "internalType": "uint256",
          "name": "_electionDuration",
          "type": "uint256"
        }
      ],
      "name": "startElection",
      "outputs": [],
      "stateMutability": "nonpayable",
      "type": "function"
    },
    {
      "inputs": [
        {
          "internalType": "uint256",
          "name": "_showInterestDuration",
          "type": "uint256"
        }
      ],
      "name": "startShowInterest",
      "outputs": [],
      "stateMutability": "nonpayable",
      "type": "function"
    },
    {
      "inputs": [
        {
          "internalType": "bytes4",
          "name": "interfaceId",
          "type": "bytes4"
        }
      ],
      "name": "supportsInterface",
      "outputs": [
        {
          "internalType": "bool",
          "name": "",
          "type": "bool"
        }
      ],
      "stateMutability": "view",
      "type": "function"
    },
    {
      "inputs": [],
      "name": "symbol",
      "outputs": [
        {
          "internalType": "string",
          "name": "",
          "type": "string"
        }
      ],
      "stateMutability": "view",
      "type": "function"
    },
    {
      "inputs": [],
      "name": "timeLeft",
      "outputs": [
        {
          "internalType": "uint256",
          "name": "",
          "type": "uint256"
        }
      ],
      "stateMutability": "view",
      "type": "function"
    },
    {
      "inputs": [],
      "name": "timeLefttoShowInterest",
      "outputs": [
        {
          "internalType": "uint256",
          "name": "",
          "type": "uint256"
        }
      ],
      "stateMutability": "view",
      "type": "function"
    },
    {
      "inputs": [],
      "name": "totalSupply",
      "outputs": [
        {
          "internalType": "uint256",
          "name": "",
          "type": "uint256"
        }
      ],
      "stateMutability": "view",
      "type": "function"
    },
    {
      "inputs": [
        {
          "internalType": "address",
          "name": "to",
          "type": "address"
        },
        {
          "internalType": "uint256",
          "name": "amount",
          "type": "uint256"
        }
      ],
      "name": "transfer",
      "outputs": [
        {
          "internalType": "bool",
          "name": "",
          "type": "bool"
        }
      ],
      "stateMutability": "nonpayable",
      "type": "function"
    },
    {
      "inputs": [
        {
          "internalType": "address",
          "name": "from",
          "type": "address"
        },
        {
          "internalType": "address",
          "name": "to",
          "type": "address"
        },
        {
          "internalType": "uint256",
          "name": "amount",
          "type": "uint256"
        }
      ],
      "name": "transferFrom",
      "outputs": [
        {
          "internalType": "bool",
          "name": "",
          "type": "bool"
        }
      ],
      "stateMutability": "nonpayable",
      "type": "function"
    },
    {
      "inputs": [
        {
          "internalType": "uint256",
          "name": "",
          "type": "uint256"
        }
      ],
      "name": "votedFor",
      "outputs": [
        {
          "internalType": "address",
          "name": "",
          "type": "address"
        }
      ],
      "stateMutability": "view",
      "type": "function"
    },
    {
      "inputs": [
        {
          "internalType": "address",
          "name": "",
          "type": "address"
        },
        {
          "internalType": "string",
          "name": "",
          "type": "string"
        }
      ],
      "name": "voters",
      "outputs": [
        {
          "internalType": "bool",
          "name": "voted",
          "type": "bool"
        },
        {
          "internalType": "address",
          "name": "voteChoice",
          "type": "address"
        }
      ],
      "stateMutability": "view",
      "type": "function"
    }
  ],
  "bytecode": "0x6080604052600060065560016007556002600855601d805460ff191690553480156200002a57600080fd5b50604051806040016040528060098152602001682d3ab934aa37b5b2b760b91b8152506040518060400160405280600381526020016216915560ea1b815250816003908051906020019062000081929190620005a2565b50805162000097906004906020840190620005a2565b505050620000b7336a108b2a2c280290940000006200010160201b60201c565b620000c4600033620001eb565b620000e060008051602062004cc783398151915260006200028f565b620000fb60008051602062004cc783398151915233620002da565b620007d3565b6001600160a01b0382166200015d5760405162461bcd60e51b815260206004820152601f60248201527f45524332303a206d696e7420746f20746865207a65726f20616464726573730060448201526064015b60405180910390fd5b8060026000828254620001719190620006f6565b90915550506001600160a01b03821660009081526020819052604081208054839290620001a0908490620006f6565b90915550506040518181526001600160a01b038316906000907fddf252ad1be2c89b69c2b068fc378daa952ba7f163c4a11628f55a4df523b3ef9060200160405180910390a35b5050565b60008281526005602090815260408083206001600160a01b038516845290915290205460ff16620001e75760008281526005602090815260408083206001600160a01b03851684529091529020805460ff191660011790556200024b3390565b6001600160a01b0316816001600160a01b0316837f2f8788117e7eff1d82e926ec794901d17c78024a50270940304540a733656f0d60405160405180910390a45050565b600082815260056020526040808220600101805490849055905190918391839186917fbd79b86ffe0ab8e8776151514217cd7cacd52c909f66475c3af44e129f0b00ff9190a4505050565b600082815260056020526040902060010154620002f8813362000309565b620003048383620001eb565b505050565b60008281526005602090815260408083206001600160a01b038516845290915290205460ff16620001e75762000355816001600160a01b03166014620003a660201b620031431760201c565b6200036b83602062003143620003a6821b17811c565b6040516020016200037e92919062000648565b60408051601f198184030181529082905262461bcd60e51b82526200015491600401620006c1565b60606000620003b783600262000711565b620003c4906002620006f6565b6001600160401b03811115620003ea57634e487b7160e01b600052604160045260246000fd5b6040519080825280601f01601f19166020018201604052801562000415576020820181803683370190505b509050600360fc1b816000815181106200043f57634e487b7160e01b600052603260045260246000fd5b60200101906001600160f81b031916908160001a905350600f60fb1b816001815181106200047d57634e487b7160e01b600052603260045260246000fd5b60200101906001600160f81b031916908160001a9053506000620004a384600262000711565b620004b0906001620006f6565b90505b60018111156200054a576f181899199a1a9b1b9c1cb0b131b232b360811b85600f1660108110620004f457634e487b7160e01b600052603260045260246000fd5b1a60f81b8282815181106200051957634e487b7160e01b600052603260045260246000fd5b60200101906001600160f81b031916908160001a90535060049490941c93620005428162000766565b9050620004b3565b5083156200059b5760405162461bcd60e51b815260206004820181905260248201527f537472696e67733a20686578206c656e67746820696e73756666696369656e74604482015260640162000154565b9392505050565b828054620005b09062000780565b90600052602060002090601f016020900481019282620005d457600085556200061f565b82601f10620005ef57805160ff19168380011785556200061f565b828001600101855582156200061f579182015b828111156200061f57825182559160200191906001019062000602565b506200062d92915062000631565b5090565b5b808211156200062d576000815560010162000632565b7f416363657373436f6e74726f6c3a206163636f756e74200000000000000000008152600083516200068281601785016020880162000733565b7001034b99036b4b9b9b4b733903937b6329607d1b6017918401918201528351620006b581602884016020880162000733565b01602801949350505050565b6020815260008251806020840152620006e281604085016020870162000733565b601f01601f19169190910160400192915050565b600082198211156200070c576200070c620007bd565b500190565b60008160001904831182151516156200072e576200072e620007bd565b500290565b60005b838110156200075057818101518382015260200162000736565b8381111562000760576000848401525b50505050565b600081620007785762000778620007bd565b506000190190565b600181811c908216806200079557607f821691505b60208210811415620007b757634e487b7160e01b600052602260045260246000fd5b50919050565b634e487b7160e01b600052601160045260246000fd5b6144e480620007e36000396000f3fe608060405234801561001057600080fd5b50600436106103af5760003560e01c80638ab66a90116101f4578063c07cfca91161011a578063e0644712116100ad578063f1ad1d0e1161007c578063f1ad1d0e1461094b578063f6daef3114610960578063f7be43fb14610968578063fac65f971461097d57600080fd5b8063e06447121461087e578063e18b487a1461088b578063e320f576146108f9578063e8dcc5581461090c57600080fd5b8063da6efb8d116100e9578063da6efb8d14610813578063dd62ed3e1461081b578063df0baf8e14610854578063dfd50f521461085c57600080fd5b8063c07cfca9146107a9578063c90aa2b4146107cc578063cae9fbca146107d5578063d547741f1461080057600080fd5b8063a217fddf11610192578063aec37eb311610161578063aec37eb31461074d578063b1f013fb14610760578063b1f5086e14610773578063bc9e6d491461079657600080fd5b8063a217fddf14610717578063a457c2d71461071f578063a4d1059714610732578063a9059cbb1461073a57600080fd5b806395d89b41116101ce57806395d89b41146106c257806398b1df7e146106ca5780639ac4643d146106dd578063a097dc4b146106f057600080fd5b80638ab66a901461067457806391d148541461069857806393fe03a0146106ab57600080fd5b8063313ce567116102d957806355f742951161027757806370a082311161024657806370a082311461061057806371942a011461063957806382f7d3921461064c57806386e5c15a1461065f57600080fd5b806355f742951461058a5780635aab453c1461059d57806369c389d0146105cf5780636d32dc4b146105fd57600080fd5b806339509351116102b3578063395093511461053b57806340cddb4f1461054e57806350c842021461056157806353de7eb11461057757600080fd5b8063313ce5671461050657806336568abe14610515578063382872591461052857600080fd5b80631e5592f41161035157806324d7806c1161032057806324d7806c146104b4578063253eca1f146104c75780632d35a8a2146104e85780632f2ff15d146104f157600080fd5b80631e5592f41461045557806320be2a851461046857806323b872dd1461047e578063248a9ca31461049157600080fd5b8063095ea7b31161038d578063095ea7b3146103f95780631300a6d11461040c5780631312fa921461042257806318160ddd1461044d57600080fd5b806301ffc9a7146103b457806305cbd154146103dc57806306fdde03146103e4575b600080fd5b6103c76103c2366004613d8d565b610990565b60405190151581526020015b60405180910390f35b6103c76109c7565b6103ec6109e4565b6040516103d39190614189565b6103c7610407366004613c0b565b610a76565b610414610a8e565b6040519081526020016103d3565b610435610430366004613d53565b610ab3565b6040516001600160a01b0390911681526020016103d3565b600254610414565b6103c7610463366004613c34565b610add565b61047061102d565b6040516103d3929190614105565b6103c761048c366004613b35565b6112a3565b61041461049f366004613d53565b60009081526005602052604090206001015490565b6103c76104c2366004613ae9565b6112c7565b6104da6104d5366004613d53565b6112d3565b6040516103d39291906141d0565b610414601b5481565b6105046104ff366004613d6b565b61138f565b005b604051601281526020016103d3565b610504610523366004613d6b565b6113ba565b6103c7610536366004613ae9565b611438565b6103c7610549366004613c0b565b611464565b61050461055c366004613db5565b6114a3565b61056961158d565b6040516103d3929190614176565b6103c7610585366004613f23565b6117a6565b610504610598366004613d53565b61194c565b6105b06105ab366004613d53565b611987565b604080516001600160a01b0390931683526020830191909152016103d3565b6103c76105dd366004613ea5565b805160208183018101805160138252928201919093012091525460ff1681565b61050461060b366004613d53565b6119bf565b61041461061e366004613ae9565b6001600160a01b031660009081526020819052604090205490565b6103c7610647366004613ae9565b611a29565b6103c761065a366004613ae9565b611a43565b61041460008051602061444f83398151915281565b610687610682366004613ae9565b611a5d565b6040516103d3959493929190614266565b6103c76106a6366004613d6b565b611bab565b6106b3611bd6565b6040516103d393929190614133565b6103ec611f6c565b6105046106d8366004613e5c565b611f7b565b6105046106eb366004613b70565b612077565b6104147f5778c2f7d924e55986d549d645f53119b71708389fc2011260c8a657c569fcaa81565b610414600081565b6103c761072d366004613c0b565b6124f8565b61041461258a565b6103c7610748366004613c0b565b6125aa565b6103c761075b366004613ae9565b6125b8565b61041461076e366004613df4565b6125d2565b6103c7610781366004613ae9565b600c6020526000908152604090205460ff1681565b6103c76107a4366004613ae9565b612ae6565b6107bc6107b7366004613ae9565b612b38565b6040516103d394939291906142b3565b610414600b5481565b6104146107e3366004613ea5565b805160208183018101805160148252928201919093012091525481565b61050461080e366004613d6b565b612bf3565b6107bc612c19565b610414610829366004613b03565b6001600160a01b03918216600090815260016020908152604080832093909416825291909152205490565b6103c7612d87565b61086f61086a366004613d53565b612d92565b6040516103d39392919061419c565b601d546103c79060ff1681565b6108da610899366004613bc0565b6018602090815260009283526040909220815180830184018051928152908401929093019190912091525460ff81169061010090046001600160a01b031682565b6040805192151583526001600160a01b039091166020830152016103d3565b610435610907366004613d53565b612eeb565b6103c761091a366004613bc0565b601c602090815260009283526040909220815180830184018051928152908401929093019190912091525460ff1681565b61041460008051602061446f83398151915281565b610470612efb565b61041460008051602061448f83398151915281565b61050461098b366004613edf565b612f40565b60006001600160e01b03198216637965db0b60e01b14806109c157506301ffc9a760e01b6001600160e01b03198316145b92915050565b6000806109d261258a565b11156109de5750600190565b50600090565b6060600380546109f3906143cc565b80601f0160208091040260200160405190810160405280929190818152602001828054610a1f906143cc565b8015610a6c5780601f10610a4157610100808354040283529160200191610a6c565b820191906000526020600020905b815481529060010190602001808311610a4f57829003601f168201915b5050505050905090565b600033610a8481858561332b565b5060019392505050565b600042600e541015610aa05750600090565b42600e54610aae9190614372565b905090565b60198181548110610ac357600080fd5b6000918252602090912001546001600160a01b0316905081565b83516000908214610b355760405162461bcd60e51b815260206004820152601860248201527f496e76616c696420696e70757420706172616d6574657273000000000000000060448201526064015b60405180910390fd5b60005b85518110156110205760006001600160a01b0316868281518110610b6c57634e487b7160e01b600052603260045260246000fd5b60200260200101516001600160a01b03161415610bbd5760405162461bcd60e51b815260206004820152600f60248201526e496e76616c6964204164647265737360881b6044820152606401610b2c565b838382818110610bdd57634e487b7160e01b600052603260045260246000fd5b9050602002013560001415610c345760405162461bcd60e51b815260206004820152601c60248201527f596f752063616e74277420747261736e666572203020746f6b656e73000000006044820152606401610b2c565b60c886511115610c565760405162461bcd60e51b8152600401610b2c906141f2565b60c8831115610cb15760405162461bcd60e51b815260206004820152602160248201527f65786365656473206e756d626572206f6620616c6c6f77656420616d6f756e746044820152607360f81b6064820152608401610b2c565b600b8054906000610cc183614407565b9190505550848181518110610ce657634e487b7160e01b600052603260045260246000fd5b602002602001015160001415610d3a57610d3560008051602061446f833981519152878381518110610d2857634e487b7160e01b600052603260045260246000fd5b602002602001015161138f565b610dfe565b848181518110610d5a57634e487b7160e01b600052603260045260246000fd5b602002602001015160011415610d9c57610d3560008051602061444f833981519152878381518110610d2857634e487b7160e01b600052603260045260246000fd5b848181518110610dbc57634e487b7160e01b600052603260045260246000fd5b602002602001015160021415610dfe57610dfe60008051602061448f833981519152878381518110610d2857634e487b7160e01b600052603260045260246000fd5b60006040518060800160405280600b548152602001898481518110610e3357634e487b7160e01b600052603260045260246000fd5b60200260200101518152602001888481518110610e6057634e487b7160e01b600052603260045260246000fd5b60200260200101516001600160a01b03168152602001878481518110610e9657634e487b7160e01b600052603260045260246000fd5b6020026020010151815250905080600a6000898581518110610ec857634e487b7160e01b600052603260045260246000fd5b60200260200101516001600160a01b03166001600160a01b03168152602001908152602001600020600082015181600001556020820151816001019080519060200190610f16929190613800565b5060408201516002820180546001600160a01b0319166001600160a01b039092169190911790556060909101516003909101558651610fb190889084908110610f6f57634e487b7160e01b600052603260045260246000fd5b6020026020010151868685818110610f9757634e487b7160e01b600052603260045260246000fd5b90506020020135670de0b6b3a76400006107489190614353565b61100d5760405162461bcd60e51b815260206004820152602760248201527f556e61626c6520746f207472616e7366657220746f6b656e20746f20746865206044820152661858d8dbdd5b9d60ca1b6064820152608401610b2c565b508061101881614407565b915050610b38565b5060019695505050505050565b60608061103933612ae6565b151560011461109c5760405162461bcd60e51b815260206004820152602960248201527f4f6e6c79206120636f6d70696c65722063616e20706572666f726d207468697360448201526810333ab731ba34b7b760b91b6064820152608401610b2c565b60006110a6610a8e565b11156110f45760405162461bcd60e51b815260206004820152601960248201527f456c656374696f6e206973207374696c6c206f6e676f696e67000000000000006044820152606401610b2c565b6017546000816001600160401b0381111561111f57634e487b7160e01b600052604160045260246000fd5b604051908082528060200260200182016040528015611148578160200160208202803683370190505b5090506000826001600160401b0381111561117357634e487b7160e01b600052604160045260246000fd5b60405190808252806020026020018201604052801561119c578160200160208202803683370190505b50905060005b8381101561129857601781815481106111cb57634e487b7160e01b600052603260045260246000fd5b600091825260209091206002909102015483516001600160a01b039091169084908390811061120a57634e487b7160e01b600052603260045260246000fd5b60200260200101906001600160a01b031690816001600160a01b0316815250506017818154811061124b57634e487b7160e01b600052603260045260246000fd5b90600052602060002090600202016001015482828151811061127d57634e487b7160e01b600052603260045260246000fd5b602090810291909101015261129181614407565b90506111a2565b509093509150509091565b6000336112b185828561344f565b6112bc8585856134e1565b506001949350505050565b60006109c18183611bab565b601681815481106112e357600080fd5b9060005260206000209060020201600091509050806000018054611306906143cc565b80601f0160208091040260200160405190810160405280929190818152602001828054611332906143cc565b801561137f5780601f106113545761010080835404028352916020019161137f565b820191906000526020600020905b81548152906001019060200180831161136257829003601f168201915b5050505050908060010154905082565b6000828152600560205260409020600101546113ab81336136af565b6113b58383613713565b505050565b6001600160a01b038116331461142a5760405162461bcd60e51b815260206004820152602f60248201527f416363657373436f6e74726f6c3a2063616e206f6e6c792072656e6f756e636560448201526e103937b632b9903337b91039b2b63360891b6064820152608401610b2c565b6114348282613799565b5050565b60006109c17f5778c2f7d924e55986d549d645f53119b71708389fc2011260c8a657c569fcaa83611bab565b3360008181526001602090815260408083206001600160a01b0387168452909152812054909190610a84908290869061149e90879061433b565b61332b565b6114ac33611438565b6114c85760405162461bcd60e51b8152600401610b2c90614236565b601382826040516114da929190614040565b9081526040519081900360200190205460ff16151560011461153e5760405162461bcd60e51b815260206004820152601760248201527f43617465676f727920646f6573206e6f742065786973740000000000000000006044820152606401610b2c565b60138282604051611550929190614040565b908152604051908190036020018120805460ff19169055601e906115779084908490614040565b9081526020016040518091039020600090555050565b60165460609081906000816001600160401b038111156115bd57634e487b7160e01b600052604160045260246000fd5b6040519080825280602002602001820160405280156115f057816020015b60608152602001906001900390816115db5790505b5090506000826001600160401b0381111561161b57634e487b7160e01b600052604160045260246000fd5b604051908082528060200260200182016040528015611644578160200160208202803683370190505b50905060005b83811015611298576016818154811061167357634e487b7160e01b600052603260045260246000fd5b9060005260206000209060020201600001805461168f906143cc565b80601f01602080910402602001604051908101604052809291908181526020018280546116bb906143cc565b80156117085780601f106116dd57610100808354040283529160200191611708565b820191906000526020600020905b8154815290600101906020018083116116eb57829003601f168201915b505050505083828151811061172d57634e487b7160e01b600052603260045260246000fd5b60200260200101819052506016818154811061175957634e487b7160e01b600052603260045260246000fd5b90600052602060002090600202016001015482828151811061178b57634e487b7160e01b600052603260045260246000fd5b602090810291909101015261179f81614407565b905061164a565b60006117b133611438565b6117cd5760405162461bcd60e51b8152600401610b2c90614236565b60005b6009548110156112bc5760006001600160a01b03166009828154811061180657634e487b7160e01b600052603260045260246000fd5b6000918252602090912001546001600160a01b0316141561185b5760405162461bcd60e51b815260206004820152600f60248201526e496e76616c6964204164647265737360881b6044820152606401610b2c565b60095460c8101561187e5760405162461bcd60e51b8152600401610b2c906141f2565b6000600982815481106118a157634e487b7160e01b600052603260045260246000fd5b6000918252602090912001546001600160a01b031690506118c181611a29565b1515600114156118e7576118e18161074888670de0b6b3a7640000614353565b5061193b565b6118f0816125b8565b151560011415611910576118e18161074887670de0b6b3a7640000614353565b61191981611a43565b15156001141561193b576119398161074886670de0b6b3a7640000614353565b505b5061194581614407565b90506117d0565b61195533611438565b6119715760405162461bcd60e51b8152600401610b2c90614236565b426010819055611981908261433b565b60115550565b6017818154811061199757600080fd5b6000918252602090912060029091020180546001909101546001600160a01b03909116915082565b6119c833611438565b6119e45760405162461bcd60e51b8152600401610b2c90614236565b42600d8190556119f4908261433b565b600e55600d546040518291907fda870243975052b3d3e838194b621c54d402811f23ff59f9a2fe42bd132317cd90600090a350565b60006109c160008051602061446f83398151915283611bab565b60006109c160008051602061448f83398151915283611bab565b601a6020526000908152604090208054600182018054919291611a7f906143cc565b80601f0160208091040260200160405190810160405280929190818152602001828054611aab906143cc565b8015611af85780601f10611acd57610100808354040283529160200191611af8565b820191906000526020600020905b815481529060010190602001808311611adb57829003601f168201915b505050600284015460038501805494956001600160a01b03909216949193509150611b22906143cc565b80601f0160208091040260200160405190810160405280929190818152602001828054611b4e906143cc565b8015611b9b5780601f10611b7057610100808354040283529160200191611b9b565b820191906000526020600020905b815481529060010190602001808311611b7e57829003601f168201915b5050505050908060040154905085565b60009182526005602090815260408084206001600160a01b0393909316845291905290205460ff1690565b601554606090819081906000816001600160401b03811115611c0857634e487b7160e01b600052604160045260246000fd5b604051908082528060200260200182016040528015611c3b57816020015b6060815260200190600190039081611c265790505b5090506000826001600160401b03811115611c6657634e487b7160e01b600052604160045260246000fd5b604051908082528060200260200182016040528015611c8f578160200160208202803683370190505b5090506000836001600160401b03811115611cba57634e487b7160e01b600052604160045260246000fd5b604051908082528060200260200182016040528015611ced57816020015b6060815260200190600190039081611cd85790505b50905060005b84811015611f5e5760158181548110611d1c57634e487b7160e01b600052603260045260246000fd5b90600052602060002090600302016000018054611d38906143cc565b80601f0160208091040260200160405190810160405280929190818152602001828054611d64906143cc565b8015611db15780601f10611d8657610100808354040283529160200191611db1565b820191906000526020600020905b815481529060010190602001808311611d9457829003601f168201915b5050505050848281518110611dd657634e487b7160e01b600052603260045260246000fd5b602002602001018190525060158181548110611e0257634e487b7160e01b600052603260045260246000fd5b906000526020600020906003020160010160009054906101000a90046001600160a01b0316838281518110611e4757634e487b7160e01b600052603260045260246000fd5b60200260200101906001600160a01b031690816001600160a01b03168152505060158181548110611e8857634e487b7160e01b600052603260045260246000fd5b90600052602060002090600302016002018054611ea4906143cc565b80601f0160208091040260200160405190810160405280929190818152602001828054611ed0906143cc565b8015611f1d5780601f10611ef257610100808354040283529160200191611f1d565b820191906000526020600020905b815481529060010190602001808311611f0057829003601f168201915b5050505050828281518110611f4257634e487b7160e01b600052603260045260246000fd5b602002602001018190525080611f5790614407565b9050611cf3565b509196909550909350915050565b6060600480546109f3906143cc565b611f8433611438565b611fa05760405162461bcd60e51b8152600401610b2c90614236565b6040805160606020601f86018190040282018101835291810184815260169282919087908790819085018382808284376000920182905250938552505050602091820185905283546001810185559381528190208251805193946002029091019261200e9284920190613800565b5060208201518160010155505060016013848460405161202f929190614040565b908152604051908190036020018120805492151560ff19909316929092179091558190601e906120629086908690614040565b90815260405190819003602001902055505050565b336000908152600c602052604090205460ff1615156001146120db5760405162461bcd60e51b815260206004820152601a60248201527f4f6e6c792061207374616b65686f6c64657220646f20746869730000000000006044820152606401610b2c565b6120e3612d87565b15156001146121345760405162461bcd60e51b815260206004820152601760248201527f456c656374696f6e206861736e277420737461727465640000000000000000006044820152606401610b2c565b60138282604051612146929190614040565b9081526040519081900360200190205460ff1615156001146121a05760405162461bcd60e51b81526020600482015260136024820152723b37ba34b733903430b9b713ba103132b3bab760691b6044820152606401610b2c565b60006121aa610a8e565b116121ea5760405162461bcd60e51b815260206004820152601060248201526f159bdd1a5b99c81a185cc8195b99195960821b6044820152606401610b2c565b3360009081526018602052604090819020905161220a9084908490614040565b9081526040519081900360200190205460ff161561225a5760405162461bcd60e51b815260206004820152600d60248201526c185b1c9958591e481d9bdd1959609a1b6044820152606401610b2c565b6001600160a01b0383166000908152601c60205260409081902090516122839084908490614040565b9081526040519081900360200190205460ff1615156001146122e75760405162461bcd60e51b815260206004820152601860248201527f61646472657373206e6f74206120636f6e74657374616e7400000000000000006044820152606401610b2c565b336000908152601860205260409081902090516001919061230b9085908590614040565b9081526040805160209281900383018120805460ff1916941515949094179093553360009081526018909252902084916123489085908590614040565b90815260408051602092819003830190208054610100600160a81b0319166101006001600160a01b03958616021790559185166000908152601a909152908120600401805460019190839061239e90849061433b565b91829055506001600160a01b0386166000818152601a602052604090206002810180546001600160a01b0319169092179091559092508591506123e5906003018585613884565b506019805460018181019092557f944998273e477b495144fb8794c914197f3ccb46be2900f4698fd0ef743c96950180546001600160a01b038089166001600160a01b031992831617909255604080518082018252858416815260208101878152601780549687018155600052905160029095027fc624b66cc0138b8fabc209247f72d758e1cf3343756d543badbf24212bed8c158101805496909516959093169490941790925591517fc624b66cc0138b8fabc209247f72d758e1cf3343756d543badbf24212bed8c1690920191909155517fcb6783276e8a4347387036bbfea000268f0a4b1f8c46ac79980609f2af8d2acd906124e9908790879087906140c5565b60405180910390a15050505050565b3360008181526001602090815260408083206001600160a01b03871684529091528120549091908381101561257d5760405162461bcd60e51b815260206004820152602560248201527f45524332303a2064656372656173656420616c6c6f77616e63652062656c6f77604482015264207a65726f60d81b6064820152608401610b2c565b6112bc828686840361332b565b600042601154101561259c5750600090565b42601154610aae9190614372565b600033610a848185856134e1565b60006109c160008051602061444f83398151915283611bab565b336000908152600c602052604081205460ff1615156001146126365760405162461bcd60e51b815260206004820152601a60248201527f4f6e6c792061207374616b65686f6c64657220646f20746869730000000000006044820152606401610b2c565b600061264061258a565b116126775760405162461bcd60e51b8152602060048201526007602482015266074696d652075760cc1b6044820152606401610b2c565b60138383604051612689929190614040565b9081526040519081900360200190205460ff1615156001146126e05760405162461bcd60e51b815260206004820152601060248201526f18d85d1959dbdc9e481a5b9d985b1a5960821b6044820152606401610b2c565b601e83836040516126f2929190614040565b908152604080516020928190038301902054336000908152600a9093529120600301541461275b5760405162461bcd60e51b8152602060048201526016602482015275125b995b1b1a59da589b19481d1bc818dbdb9d195cdd60521b6044820152606401610b2c565b3361279a5760405162461bcd60e51b815260206004820152600f60248201526e696e76616c6964206164647265737360881b6044820152606401610b2c565b336000908152601c60205260409081902090516127ba9085908590614040565b9081526040519081900360200190205460ff161561282a5760405162461bcd60e51b815260206004820152602760248201527f416c72656164792073686f776e20696e74657265737420696e2074686973207060448201526637b9b4ba34b7b760c91b6064820152608401610b2c565b601b805490600061283a83614407565b91905055506040518060a00160405280601b54815260200186868080601f0160208091040260200160405190810160405280939291908181526020018383808284376000920191909152505050908252503360208083019190915260408051601f8701839004830281018301825286815292019190869086908190840183828082843760009201829052509385525050506020918201819052338152601a8252604090208251815582820151805191926128fc92600185019290910190613800565b5060408201516002820180546001600160a01b0319166001600160a01b039092169190911790556060820151805161293e916003840191602090910190613800565b5060809190910151600490910155336000908152601c6020526040908190209051600191906129709086908690614040565b908152604080519182900360209081018320805494151560ff19909516949094179093556080601f88018490049093028201830190526060810186815260159282919089908990819085018382808284376000920191909152505050908252503360208083019190915260408051601f880183900483028101830182528781529201919087908790819084018382808284376000920182905250939094525050835460018101855593815260209081902083518051949560030290910193612a3f935084929190910190613800565b506020828101516001830180546001600160a01b0319166001600160a01b0390921691909117905560408301518051612a7e9260028501920190613800565b5050508282604051612a91929190614040565b604051908190038120903390612aaa9088908890614040565b604051908190038120907f03cba2e3c98e48e887437eb5582401c40ffdd3070907507b31010a0630eac22390600090a450601b54949350505050565b6000612b0060008051602061446f83398151915283611bab565b80612b1e5750612b1e60008051602061444f83398151915283611bab565b15612b2b57506001919050565b506000919050565b919050565b600a6020526000908152604090208054600182018054919291612b5a906143cc565b80601f0160208091040260200160405190810160405280929190818152602001828054612b86906143cc565b8015612bd35780601f10612ba857610100808354040283529160200191612bd3565b820191906000526020600020905b815481529060010190602001808311612bb657829003601f168201915b50505050600283015460039093015491926001600160a01b031691905084565b600082815260056020526040902060010154612c0f81336136af565b6113b58383613799565b336000908152600c60205260408120546060908290819060ff161515600114612c8e5760405162461bcd60e51b815260206004820152602160248201527f546869732061646472657373206973206e6f742061207374616b65686f6c64656044820152603960f91b6064820152608401610b2c565b336000908152600a60209081526040808320815160808101909252805482526001810180549293919291840191612cc4906143cc565b80601f0160208091040260200160405190810160405280929190818152602001828054612cf0906143cc565b8015612d3d5780601f10612d1257610100808354040283529160200191612d3d565b820191906000526020600020905b815481529060010190602001808311612d2057829003601f168201915b505050918352505060028201546001600160a01b03166020808301919091526003909201546040918201528251918301519083015160609093015191989097509195509350915050565b6000806109d2610a8e565b60158181548110612da257600080fd5b9060005260206000209060030201600091509050806000018054612dc5906143cc565b80601f0160208091040260200160405190810160405280929190818152602001828054612df1906143cc565b8015612e3e5780601f10612e1357610100808354040283529160200191612e3e565b820191906000526020600020905b815481529060010190602001808311612e2157829003601f168201915b505050600184015460028501805494956001600160a01b03909216949193509150612e68906143cc565b80601f0160208091040260200160405190810160405280929190818152602001828054612e94906143cc565b8015612ee15780601f10612eb657610100808354040283529160200191612ee1565b820191906000526020600020905b815481529060010190602001808311612ec457829003601f168201915b5050505050905083565b60098181548110610ac357600080fd5b606080612f0733611438565b612f235760405162461bcd60e51b8152600401610b2c90614236565b601d805460ff19166001179055612f3861102d565b915091509091565b612f4933611438565b612f655760405162461bcd60e51b8152600401610b2c90614236565b6001600160a01b0382166000908152600c602052604090205460ff1615612fdc5760405162461bcd60e51b815260206004820152602560248201527f54686973206164647265737320697320616c72656164792061207374616b656860448201526437b63232b960d91b6064820152608401610b2c565b600b8054906000612fec83614407565b9091555050806130135761300e60008051602061446f8339815191528361138f565b613055565b80600114156130345761300e60008051602061444f8339815191528361138f565b80600214156130555761305560008051602061448f8339815191528361138f565b60408051608081018252600b54815260208082018681526001600160a01b038616838501819052606084018690526000908152600a83529390932082518155925180519293849390926130af926001850192910190613800565b506040828101516002830180546001600160a01b039283166001600160a01b03199182161790915560609094015160039093019290925594166000818152600c602052948520805460ff191660019081179091556009805491820181559095527f6e1540171b6c0c960b71a7020d9f60077f6af931a8bbf590da0223dacf75c7af9094018054909116909317909255505050565b60606000613152836002614353565b61315d90600261433b565b6001600160401b0381111561318257634e487b7160e01b600052604160045260246000fd5b6040519080825280601f01601f1916602001820160405280156131ac576020820181803683370190505b509050600360fc1b816000815181106131d557634e487b7160e01b600052603260045260246000fd5b60200101906001600160f81b031916908160001a905350600f60fb1b8160018151811061321257634e487b7160e01b600052603260045260246000fd5b60200101906001600160f81b031916908160001a9053506000613236846002614353565b61324190600161433b565b90505b60018111156132d5576f181899199a1a9b1b9c1cb0b131b232b360811b85600f166010811061328357634e487b7160e01b600052603260045260246000fd5b1a60f81b8282815181106132a757634e487b7160e01b600052603260045260246000fd5b60200101906001600160f81b031916908160001a90535060049490941c936132ce816143b5565b9050613244565b5083156133245760405162461bcd60e51b815260206004820181905260248201527f537472696e67733a20686578206c656e67746820696e73756666696369656e746044820152606401610b2c565b9392505050565b6001600160a01b03831661338d5760405162461bcd60e51b8152602060048201526024808201527f45524332303a20617070726f76652066726f6d20746865207a65726f206164646044820152637265737360e01b6064820152608401610b2c565b6001600160a01b0382166133ee5760405162461bcd60e51b815260206004820152602260248201527f45524332303a20617070726f766520746f20746865207a65726f206164647265604482015261737360f01b6064820152608401610b2c565b6001600160a01b0383811660008181526001602090815260408083209487168084529482529182902085905590518481527f8c5be1e5ebec7d5bd14f71427d1e84f3dd0314c0f7b2291e5b200ac8c7c3b925910160405180910390a3505050565b6001600160a01b0383811660009081526001602090815260408083209386168352929052205460001981146134db57818110156134ce5760405162461bcd60e51b815260206004820152601d60248201527f45524332303a20696e73756666696369656e7420616c6c6f77616e63650000006044820152606401610b2c565b6134db848484840361332b565b50505050565b6001600160a01b0383166135455760405162461bcd60e51b815260206004820152602560248201527f45524332303a207472616e736665722066726f6d20746865207a65726f206164604482015264647265737360d81b6064820152608401610b2c565b6001600160a01b0382166135a75760405162461bcd60e51b815260206004820152602360248201527f45524332303a207472616e7366657220746f20746865207a65726f206164647260448201526265737360e81b6064820152608401610b2c565b6001600160a01b0383166000908152602081905260409020548181101561361f5760405162461bcd60e51b815260206004820152602660248201527f45524332303a207472616e7366657220616d6f756e7420657863656564732062604482015265616c616e636560d01b6064820152608401610b2c565b6001600160a01b0380851660009081526020819052604080822085850390559185168152908120805484929061365690849061433b565b92505081905550826001600160a01b0316846001600160a01b03167fddf252ad1be2c89b69c2b068fc378daa952ba7f163c4a11628f55a4df523b3ef846040516136a291815260200190565b60405180910390a36134db565b6136b98282611bab565b611434576136d1816001600160a01b03166014613143565b6136dc836020613143565b6040516020016136ed929190614050565b60408051601f198184030181529082905262461bcd60e51b8252610b2c91600401614189565b61371d8282611bab565b6114345760008281526005602090815260408083206001600160a01b03851684529091529020805460ff191660011790556137553390565b6001600160a01b0316816001600160a01b0316837f2f8788117e7eff1d82e926ec794901d17c78024a50270940304540a733656f0d60405160405180910390a45050565b6137a38282611bab565b156114345760008281526005602090815260408083206001600160a01b0385168085529252808320805460ff1916905551339285917ff6391f5c32d9c69d2a47ea670b442974b53935d1edc7fd64eb21e047a839171b9190a45050565b82805461380c906143cc565b90600052602060002090601f01602090048101928261382e5760008555613874565b82601f1061384757805160ff1916838001178555613874565b82800160010185558215613874579182015b82811115613874578251825591602001919060010190613859565b506138809291506138f8565b5090565b828054613890906143cc565b90600052602060002090601f0160209004810192826138b25760008555613874565b82601f106138cb5782800160ff19823516178555613874565b82800160010185558215613874579182015b828111156138745782358255916020019190600101906138dd565b5b8082111561388057600081556001016138f9565b80356001600160a01b0381168114612b3357600080fd5b600082601f830112613934578081fd5b8135602061394961394483614318565b6142e8565b80838252828201915082860187848660051b8901011115613968578586fd5b855b8581101561398d5761397b8261390d565b8452928401929084019060010161396a565b5090979650505050505050565b60008083601f8401126139ab578182fd5b5081356001600160401b038111156139c1578182fd5b6020830191508360208260051b85010111156139dc57600080fd5b9250929050565b600082601f8301126139f3578081fd5b81356020613a0361394483614318565b80838252828201915082860187848660051b8901011115613a22578586fd5b855b8581101561398d57813584529284019290840190600101613a24565b60008083601f840112613a51578182fd5b5081356001600160401b03811115613a67578182fd5b6020830191508360208285010111156139dc57600080fd5b600082601f830112613a8f578081fd5b81356001600160401b03811115613aa857613aa8614438565b613abb601f8201601f19166020016142e8565b818152846020838601011115613acf578283fd5b816020850160208301379081016020019190915292915050565b600060208284031215613afa578081fd5b6133248261390d565b60008060408385031215613b15578081fd5b613b1e8361390d565b9150613b2c6020840161390d565b90509250929050565b600080600060608486031215613b49578081fd5b613b528461390d565b9250613b606020850161390d565b9150604084013590509250925092565b600080600060408486031215613b84578283fd5b613b8d8461390d565b925060208401356001600160401b03811115613ba7578283fd5b613bb386828701613a40565b9497909650939450505050565b60008060408385031215613bd2578182fd5b613bdb8361390d565b915060208301356001600160401b03811115613bf5578182fd5b613c0185828601613a7f565b9150509250929050565b60008060408385031215613c1d578182fd5b613c268361390d565b946020939093013593505050565b600080600080600060808688031215613c4b578081fd5b85356001600160401b0380821115613c61578283fd5b818801915088601f830112613c74578283fd5b81356020613c8461394483614318565b8083825282820191508286018d848660051b8901011115613ca3578788fd5b875b85811015613cdb578682351115613cba578889fd5b613cc98f8684358b0101613a7f565b84529284019290840190600101613ca5565b50909a50505089013592505080821115613cf3578283fd5b613cff89838a01613924565b95506040880135915080821115613d14578283fd5b613d2089838a016139e3565b94506060880135915080821115613d35578283fd5b50613d428882890161399a565b969995985093965092949392505050565b600060208284031215613d64578081fd5b5035919050565b60008060408385031215613d7d578182fd5b82359150613b2c6020840161390d565b600060208284031215613d9e578081fd5b81356001600160e01b031981168114613324578182fd5b60008060208385031215613dc7578182fd5b82356001600160401b03811115613ddc578283fd5b613de885828601613a40565b90969095509350505050565b60008060008060408587031215613e09578182fd5b84356001600160401b0380821115613e1f578384fd5b613e2b88838901613a40565b90965094506020870135915080821115613e43578384fd5b50613e5087828801613a40565b95989497509550505050565b600080600060408486031215613e70578081fd5b83356001600160401b03811115613e85578182fd5b613e9186828701613a40565b909790965060209590950135949350505050565b600060208284031215613eb6578081fd5b81356001600160401b03811115613ecb578182fd5b613ed784828501613a7f565b949350505050565b600080600060608486031215613ef3578081fd5b83356001600160401b03811115613f08578182fd5b613f1486828701613a7f565b935050613b606020850161390d565b600080600060608486031215613f37578081fd5b505081359360208301359350604090920135919050565b6000815180845260208085019450808401835b83811015613f865781516001600160a01b031687529582019590820190600101613f61565b509495945050505050565b600081518084526020808501808196508360051b81019150828601855b85811015613fd8578284038952613fc6848351614014565b98850198935090840190600101613fae565b5091979650505050505050565b6000815180845260208085019450808401835b83811015613f8657815187529582019590820190600101613ff8565b6000815180845261402c816020860160208601614389565b601f01601f19169290920160200192915050565b8183823760009101908152919050565b7f416363657373436f6e74726f6c3a206163636f756e7420000000000000000000815260008351614088816017850160208801614389565b7001034b99036b4b9b9b4b733903937b6329607d1b60179184019182015283516140b9816028840160208801614389565b01602801949350505050565b6001600160a01b03841681526040602082018190528101829052818360608301376000818301606090810191909152601f909201601f1916010192915050565b6040815260006141186040830185613f4e565b828103602084015261412a8185613fe5565b95945050505050565b6060815260006141466060830186613f91565b82810360208401526141588186613f4e565b9050828103604084015261416c8185613f91565b9695505050505050565b6040815260006141186040830185613f91565b6020815260006133246020830184614014565b6060815260006141af6060830186614014565b6001600160a01b0385166020840152828103604084015261416c8185614014565b6040815260006141e36040830185614014565b90508260208301529392505050565b60208082526024908201527f65786365656473206e756d626572206f6620616c6c6f776564206164647265736040820152637365737360e01b606082015260800190565b6020808252601690820152752932b9ba3934b1ba32b2103a379031b430b4b936b0b760511b604082015260600190565b85815260a06020820152600061427f60a0830187614014565b6001600160a01b038616604084015282810360608401526142a08186614014565b9150508260808301529695505050505050565b8481526080602082015260006142cc6080830186614014565b6001600160a01b03949094166040830152506060015292915050565b604051601f8201601f191681016001600160401b038111828210171561431057614310614438565b604052919050565b60006001600160401b0382111561433157614331614438565b5060051b60200190565b6000821982111561434e5761434e614422565b500190565b600081600019048311821515161561436d5761436d614422565b500290565b60008282101561438457614384614422565b500390565b60005b838110156143a457818101518382015260200161438c565b838111156134db5750506000910152565b6000816143c4576143c4614422565b506000190190565b600181811c908216806143e057607f821691505b6020821081141561440157634e487b7160e01b600052602260045260246000fd5b50919050565b600060001982141561441b5761441b614422565b5060010190565b634e487b7160e01b600052601160045260246000fd5b634e487b7160e01b600052604160045260246000fdfe534b5b9fe29299d99ea2855da6940643d68ed225db268dc8d86c1f38df5de7942d2faaed8c23be685754c2c857d2b54442ae50d4706ce4165904c05bfc05c45fc951d7098b66ba0b8b77265b6e9cf0e187d73125a42bcd0061b09a68be421810a264697066735822122040fe6a8962e6951fd7d96edee1c041b3411468579f138b8dd0adab4f2e415aac64736f6c634300080400335778c2f7d924e55986d549d645f53119b71708389fc2011260c8a657c569fcaa",
  "linkReferences": {},
  "deployedLinkReferences": {}
}